:020000040800F2
:200000000018002049000008410000084500000800000000000000000000000000000000C1
:200020000000000000000000000000000000000000000000000000000000000000000000C0
:20004000FEE7C046FEE7C04609480A4A10B5904203D00949121A03F029FC0848084A9042B1
:2000600003D00021121A03F075FC05F0A7F9FEE7C0000020280100200957000828010020A8
:2000800018120020F0B5C6460023802500B51F4C82B00193E3691D421CD1E3699B0603D45B
:2000A00002B004BC9046F0BD01AB98466B46184FDE1C164B42469B8C3100337078680023C8
:2000C00002F032FA00281CD0019B002BE8D003F0D7F8E5E701AB98466B460D4FDE1C4246C8
:2000E0003100386802F0FEFE002807D12368AB432360064BDB699B06E6D5DAE73378238540
:20010000F7E7BB680133BB60DEE7C0460044004028010020F8B5CE46474605000C009146C1
:2001200080B5002A15D0884680260B4FC8440122002321003868524202F044F82B68013410
:2001400033432B604445F2D148460CBC90469946F8BD0020F9E7C04628010020F8B50E0088
:2001600015000024002A0DD0074F02E00134A54208D06242624178685242311902F062FAC0
:200180000028F3D12000F8BD2801002070B50825044E054CF06801F039F8A38A6B409BB2C1
:2001A000A382F7E72801002000040048344BF0B5DE469B4602234E4657469946C0B5314D56
:2001C00084B003AE802300242F4F039304E001340520E4B201F01AF84B462F8201932B0087
:2001E00010333200009333210223284800F062FA08226B7C1A42EAD001216846194093439C
:20020000C172F370320004233321204800F0A2F9002C04D1EA68D30F9B185B10EB604023A7
:20022000002700249A46A308043333706B46DA7A7B0051010B4373705346019353009B18D8
:200240009B01DB195B005B44013400933200022333210E48E4B200F02DFA2037062CE2D162
:200260000B2100230A22286D694401F0ABFF002802D1FA231B01EB601E2000F0C7FFA1E72B
:20028000A401002028010020BEEFFFFF00540040444BF0B545469846542357464E46DE46A8
:2002A00043449A46E0B5404E404F85B00F236B441900012243465242186D02F0C3F911234F
:2002C00099464C46103C6B46DB7B5900C9188901631ECB185B00F35A1A021B0A1A430B19C8
:2002E0005B00F05A92B20302000A0343601C08184000305A9BB20502000A2843A51C49196E
:200300004900755A80B229022D0A294389B2019100902749504603F027FD802355469B462C
:2003200001224046002329005242006801F04AFF5A463B68013513433B60434668339D4225
:20034000EED10434A145BED101224046002352421849006801F036FF5A463B6813433B60AE
:2003600010239C46E1444B46D12BAAD1534654468025114A03CA03C31188198092789A702F
:2003800001224046002321000068524201F01AFF3B6801342B433B6043465E339C42EFD1D1
:2003A00084E7C04628010020A401002000440040685600088056000884560008024A536FA6
:2003C000013353677047C04628010020FEE7C046FEE7C046044A936F01339367BFF34F8F45
:2003E00030BFBFF36F8F70472801002030B5002A0BD080248D18C3691C42FCD00B78013120
:200400000385A942F7D1100030BD0020FCE7C04680225200904200DD101C064B02B29A42EB
:2004200000DA181CC0239B009C4600B2604440118000704700FDFFFF10B500F0E7FE10BD0E
:20044000A022174BD20219680A4380211A6089021A680A42FCD05A68124911408022520331
:200460000A435A605A6810491140802252020A435A608022196852040A4380211A60084AD9
:20048000890413680B42FCD0012008490B6803430B60032153688B4301390B435360704706
:2004A00000100240FFFFC3FFFF7FFEFF00200240014B03617047C04603011050FF23490011
:2004C0000B4080210902194381607047FF2249000A4080214902114310B541600121046849
:2004E000026803000A43026080220C40416892010A43174942609A690A42FCD001209A6928
:2005000099691209904320220A4202D0D9690A43DA61102299690A4202D0D9690A43DA61A5
:20052000802299699200114202D0D9690A43DA61802299695200114202D0D9690A43DA61B1
:20054000002C03D101211A688A431A6010BDC04632030000F0B55F1E0400FE2F3ED880259A
:200560000C262D0202E0A069064202D1A0692842F9D10C25A069054230D1FF2049000140AC
:2005800018040143802080040143012061602568216805400143216080216068890101435A
:2005A00043486160A1690142FCD0CC26A169B600314215D10120D719012B00D175E03C49E3
:2005C00013780132A362A3690B42FCD0A369334230D1431C974257D01800F1E70020F0BD95
:2005E0002022A369A1690A4202D0E1690A43E2611022A1690A4202D0E1690A43E2618022D5
:20060000A1699200114202D0E1690A43E2618022A1695200114202D0E1690A43E261002D15
:2006200003D1012122688A43226001205B0A98434042D4E72023A269A1690B4202D0E1698C
:200640000B43E3611023A1690B4202D0E1690B43E3618023A1699B00194202D0E1690B43C3
:20066000E3618023A1695B00194202D0E1690B43E361002D03D1012123688B43236093058E
:20068000ADD401204042AAE7023020223B78A362A3691A42FCD0E3691A43E261002D9ED1BD
:2006A000012223689343236099E717000220ECE73203000070B50E002021040080690142CE
:2006C00002D0E0690143E161FF2B63DC002B00DCA6E021685448760001400120216021687C
:2006E0000143FE3021603040190401438020800101434E486160A1690142FCD0CC20A1696B
:200700008000014268D15D1E5519012B00D189E0464913780132A362A3690B42FCD0A3690B
:20072000034239D19542F4D140222B78A362A3691A42FCD001213E4B1A688A431A602200FA
:2007400024329A60049ADA60059A5A601968394A0A431A602268384B80211343FF222360A5
:20076000059B12041B041340FF2216401E43334B334A1E436660890013680B42FCD0516089
:200780002022A3691A42FCD00122002023689343236070BD0120FCE72023A269134202D016
:2007A000E2691343E3611023A269134202D0E2691343E3618023A2699B001A4202D0E26948
:2007C0001343E3618023A2695B0004201A42E0D0E2691343E361DCE72022A3691A4202D022
:2007E000E3691343E3611022A3691A4202D0E3691343E3618023A2699B001A4202D0E269FF
:200800001343E3618023A2695B001A4202D0E2691343E36101222368032093432360B8E759
:200820000220B6E715007FE7FF7FFFFF3203000030000240011000000180000000240002A3
:200840000000024070B5114C14E002F025FD2369DD68281D02F014FFA369013BA3612368DA
:20086000013B236002F024FD286B02F04DFE280002F04AFE2368002BE7D1E369012B01D9B4
:2008800002F0FEFCFFF7A6FDF4E7C046A4040020F8B54E464546DE465746E0B596008046AC
:2008A00030000D00994602F08BFD071E00D195E0542002F085FD041E00D1A1E0076332003F
:2008C000A521380003F046F8236B9A46002D00D1CFE034232A78E2542B78002B26D0352383
:2008E0006A78E2546B78002B20D03623AA78E254AB78002B1AD03723EA78E254EB78002B79
:2009000014D038232A79E2542B79002B0ED039236A79E2546B79002B08D03A23AA79E25400
:20092000AB79002B02D03B23EA79E2543B230022E2540A9D042D5AD80023271DA364380039
:20094000E56265649B4602F073FE2000183002F06FFE0523043E5D1B5B465A46564430008F
:20096000E36450332461A5616462E254493B98434A46414602F066FC0B9B2060002B00D03B
:200980001C6002F089FC3C4E3C4DB3690133B3612B68002B3AD0EB6D002B2AD0E26A2B6EC3
:2009A00001332B66E3636B6E934200D26A6630009600B618B6001C308019390002F03CFE48
:2009C00002F076FCEB6D0126002B09D02B68DA6AE36A9A4204D202F053FC01E00126764259
:2009E00030003CBC90469946A246AB46F8BD0425A2E72B68E26ADB6A9342D0D82C60CEE7F8
:200A00000126380002F080FD7642E9E72C60B369012BC3D130001C3002F0FEFD300030301F
:200A200002F0FAFD3000443002F0F6FD3000583002F0F2FD30006C3002F0EEFD2B1D1800A2
:200A4000994602F0E9FD18239846A844404602F0E3FD28002C3002F0DFFD301D02F0DCFD18
:200A60002800403002F0D8FD4B466B654346AB6594E73423E5545CE7A404002024050020BE
:200A8000F8B5050002F008FC224C002D38D02F1D380002F0F5FDAB6A002B03D02800183020
:200AA00002F0EEFD236E013323662368AB421ED0194A286B9369013B936102F025FD280047
:200AC00002F022FD636D1B68002B0DD0636DDB68DB685B68A36602F0EBFBE36D002B02D063
:200AE0002368AB420ED0F8BD013BA366F3E70A4E3900301D02F0A0FD336801333360EAE72C
:200B00002568C4E7E36E002B01D072B6FEE702F0B7FBE8E724050020A4040020F0B5C6460E
:200B2000050000B5002820D0184E00203368AB4218D002F0B1FB736D6C699846B76D02F0A6
:200B4000B7FB44451ED0BC421CD04036B4420ED00F4B04339C4217D063425C4103206442D7
:200B60002040013004BC9046F0BD72B6FEE7AB6A0220002BF6D15033E85C0138431E984131
:200B80000230EFE70220EDE70420EBE724050020A404002010B5040002F07EFB002C04D01C
:200BA000E46A02F085FB200010BD014B1C68F7E72405002010B5040002F088FB002C04D053
:200BC000E46A02F087FB200010BD014B1C68F7E724050020F0B5C64604000D0000B50429CB
:200BE00001D972B6FEE702F057FB002C26D0626C95421ED0224F24D83E68361B73425E415D
:200C0000E16A8A4200D1E562A3696564002B02DB05235D1BA5611B4D8B002A005B181C3244
:200C20009B00D31862699A4214D0002E01D002F027FB02F03DFB04BC9046F0BD104B1C6844
:200C4000D5E73B68A34218D000263B68DB6A9D427641D5E7231D1800984602F011FDE36A85
:200C60007A6E934200D97B669800C0181C3580004146281802F0E0FCD7E70026C0E7C04696
:200C800024050020A404002070B5041E0DD0184D2B68834208D002F0FFFA2B006269403336
:200CA0009A4204D002F004FB70BD72B6FEE72A00A36A2C329342F5D0002BF3D1261D3000C8
:200CC00002F0DEFCE26A6B6E9A4200D96A66930008489B189B001C30C018310002F0ACFC7E
:200CE0002B68E26ADB6A9A42DCD302F0C9FAD9E724050020A4040020F0B5C646040000B555
:200D0000002810D002F0E2FA1C4D62692B004033070000269A4208D0380002F0DBFA30001B
:200D200004BC9046F0BD72B6FEE72800A36A2C308342F1D0002BEFD1EB6E002B18D12B6861
:200D4000E26ADB6A9A427641231D1800984602F097FCE26A6B6E9A4200D96A669300084827
:200D60009B189B001C304146C01802F065FCD3E72100183102F060FCCEE7C04624050020B1
:200D8000A4040020F8B58020CE464746400080B502F016FB051E68D0542002F011FB041E36
:200DA00060D08022A52152000563280002F0D2FD4D4B002563633823266B271DE5540333D6
:200DC000E5543800E5626564A56402F031FC2000183002F02DFC05233000A3614B33E564C4
:200DE00024616462FC30E554493B984300223F4902F028FA3E4D20602C6702F04DFA3D4EC4
:200E0000B3690133B3612B68002B37D0EB6D002B2DD0E36A2A6E01322A66E2636A6E9A4288
:200E200000D26B669800C0181C3680003900301802F002FC02F03CFAEB6D002B04D02B684A
:200E4000DA6AE36A9A424CD372B601235B42AB660233EB6500236B6702F08AFA0CBC90467E
:200E60009946F8BD280002F04FFB72B6FEE72A68E36AD26A9A42CDD82C60CBE72C60B369EB
:200E8000012BC6D130001C3002F0C6FB3000303002F0C2FB3000443002F0BEFB300058301A
:200EA00002F0BAFB30006C3002F0B6FB2B1D1800994602F0B1FB18239846A844404602F0C2
:200EC000ABFB28002C3002F0A7FB301D02F0A4FB2800403002F0A0FB4B466B654346AB6557
:200EE00097E702F0CDF9AFE749444C454508000824050020A404002010B572B60022024B46
:200F0000DA6502F0B1F910BD24050020024AD36E0133D3667047C04624050020014B586FCD
:200F20007047C04624050020014B586F7047C04624050020014B98697047C046A4040020C0
:200F4000002801D034307047024B18680028F9D172B6FEE724050020F0B5D6464F46464686
:200F6000434CC0B5E36E002B6BD1676F01376767002F10D1636D1B68002B69D1636DA26D32
:200F80006265A365A36F0133A367636D1B68002B60D1013BA366A36E9F4238D3636D00254C
:200FA0001B68344E002B5BD01C239A46B24425E0042343441800994602F062FB43469B6A3A
:200FC000002B03D04046183002F05AFB4346626EDB6A934200D963669800C018800049466A
:200FE000504402F029FB42462368D26ADB6A9A4200D30125636D1B68002B31D0636DDB684C
:20100000DB6898465B689F42D2D2A36601E00025184E2368DA6A93009B189B00F618F369D8
:20102000012B00D90125E36F002B1DD0124B1B68002B00D0012528001CBC90469946A2467D
:20104000F0BDE36F00250133E367FFF7B7F9F2E772B6FEE7636DDB68DB685B68A3669AE7BF
:2010600001235B42A366D4E7FFF7A8F9DEE7C04624050020A4040020A4050020F8B5CE46EE
:20108000474680B502F008F9334CE36E013BE366E36E002B4BD1314FBB69002B47D0E36A7B
:2010A000002B56D02E4B1C37984601239946A36BDD6828002E1D183002F0E2FA300002F034
:2010C000DFFAEB6A626E934200D963669800C01880003100381802F0AFFA2368EA6ADB6A6B
:2010E0009A422CD343464A461A60E36A002BDED1636D1B68002B29D0636DDB68DB685B68CB
:20110000A366E56F002D0AD00126FFF725FF002801D043461E60013D002DF6D1E567434623
:201120001B68002B03D002F0ABF8012400E0002402F0BEF820000CBC90469946F8BDE36A29
:20114000002BB4D1636D1B68002BD5D1013BA366D7E7034B9846D4E724050020A4040020C0
:20116000A4050020044B10B5DB6E002B01D172B6FEE7FFF783FF10BD24050020F8B50028DC
:2011800017D0002901D172B6FEE71F4EF36E002B11D1F36E0133F3660268756F5418046079
:2011A000AA420FD9A2420FD8F36E002B05D172B6FEE772B6FEE772B6FEE7FFF75FFF00288B
:2011C00019D0F8BDA24201D8A542EDD2776F30687D1B043002F054FA336864195C60A742C7
:2011E0000CD8706D3168043102F032FAB36E9C42DAD2B466D8E702F043F8E2E7B06D316812
:20120000043102F025FACFE72405002070B5051E09D0174CE36E002B08D072B6FEE7FFF7AE
:201220002DFF002801D102F02BF870BDE36E0133E366666F2068AD19043002F021FA236889
:201240005D60AE4209D9A06D2168043102F000FAE36E002BE3D172B6FEE7606D2168043180
:2012600002F0F6F9A36E9D42F2D2A566F0E7C046240500200A4B10B5DA6E002A01D072B623
:20128000FEE7DA6E0132DA66DA6F1218DA67DB6E002B01D172B6FEE7FFF7F0FE10BDC046F0
:2012A00024050020F0B54E4691460822DE46574645469346E0B54B688B445B6804000F0099
:2012C00083B05B456CD0DA685B68019200229046344A7B6092469B452FD0DE68351E32D0C4
:2012E0002B0034336360EB6A296B2361EB6B2560A3606B6CE16163610023A36153461B682E
:20130000AB4223D04B462373032B35D00B78A52B21D100230133CA5CA52AFBD09B089BB247
:20132000238401239C46019BE0442434B3421BD07B685B687B609B45CFD15B465B68DE685D
:201340007B60351ECCD153461D68C9E7002323730B78A52BDDD00023238401239C46019BCF
:20136000E0442434B342E3D1404603B03CBC90469946A246AB46F0BD53465246DB6E01332E
:20138000D366AB6A002B01D0022323735346DB6E002B01D172B6FEE7FFF770FE296BB5E7C8
:2013A000CB6890E724050020F0B54F464646D646384DC0B5EB6E060001339146EB66364F1E
:2013C0000024BB698B4257D86C239A46673B98460022BA4401235B429C46E04443469B00CF
:2013E00043449B00FB181019DB6980003018002B08D001225146FFF755FF2418E200101935
:201400008000301814235B429C464346E244002BE0D1696D0B68002B07D00222FFF742FF1D
:201420002418E000001980003018A96D0B68002B07D00222FFF736FF2418E0000019800020
:2014400030187B68002B08D00422391DFFF72AFF2418E0000019800030182B6C002B05D02F
:20146000290003224031FFF71DFF24184B46002B02D000234A461360EB6E002B01D172B62D
:20148000FEE7FFF7FBFD20001CBC90469946A246F0BDC04624050020A404002070B5374C78
:2014A000E36E002B03D00122354B1A6070BD344A3449136023681B6B1A688A4202D1596832
:2014C000914251D0206821683431FEF781FF626E2D499300981880000818C069002835D1AD
:2014E000002A2FD0531E9800C01880000818C069002829D1002B25D0931E9800C018800036
:201500000818C06900281FD1002B1BD0D31E9800C01880000818C069002815D1002B11D010
:20152000131F9800C01880000818C06900280BD1002B07D0531F9A00D21892008A18D269D5
:20154000002A01D172B6FEE71A009B009B189B00CD182900286A24314068286288420AD0B4
:20156000C36823606266A1E79A688A42AAD1DB689342A7D1ABE740682862F1E724050020AF
:20158000A4050020A5A5A5A5A404002070B5050001F082FE244C002D1ED02E1D300002F093
:2015A0006FF8AB6A002B03D02800183002F068F820003100403002F03FF85023EA5C012A21
:2015C00001D10022EA5401F073FEE36D002B0DD12368AB4202D070BD2568DEE7E36D002BDA
:2015E00015D0E36E002B1CD072B6FEE701F054FE636D1B68002B07D0636DDB68DB685B68E0
:20160000A36601F055FEE3E7013BA366F9E7074A216C9269914201D12360DCE7FFF73EFF97
:20162000D9E701F02DFED6E724050020A404002070B50D00002816D0144C2168183102F09C
:2016400007F8666F2068043002F01AF86B1C0CD02368AD195D60AE420ED9A06D21680431E3
:2016600001F0F6FF70BD72B6FEE7200021684030043101F0E1FFF5E7606D2168043101F0D3
:20168000E7FFA36E9D42EDD2A566EBE72405002070B51500002805D0194CE36E002B03D1A3
:2016A00072B6FEE772B6FEE780231B060B43226821689361183101F0BFFF666F206804306E
:2016C00001F0DEFF6B1C0AD02368AD195D60AE420CD9A06D2168043101F0BAFF05E020007E
:2016E00021684030043101F0A7FF70BD606D2168043101F0ADFFA36E9D42F6D2A566F4E732
:2017000024050020C36870B5DC68002C2BD026001836300001F0B4FF144DEB6E002B0FD0B9
:20172000280031002C3001F087FF2B68E26ADB6A00209A4203D901220D4B01301A6070BD2E
:20174000261D300001F09CFFE26A6B6E9A4200D96A66930007489B189B001C303100C0185B
:2017600001F06AFFE1E772B6FEE7C04624050020A4050020A404002070B5164DEB6E002B4E
:2017800001D172B6FEE78023C4681B060B430360002C1CD0261D01F073FF300001F070FF7B
:2017A000E26A6B6E9A4200D96A6693000A489B189B001C30C018310001F03EFF2B68E26AEA
:2017C000DB6A9A4202D90122044B1A6070BD72B6FEE7C04624050020A4040020A405002007
:2017E00010B5041E09D001F057FD054B9A6F5B6F2260636001F05CFD10BD72B6FEE7C04652
:2018000024050020024B9A6F5B6F02604360704724050020F8B504000D00002821D000295A
:201820001DD001F039FD134A2B68506F591C1AD0966F27686168B74202D0012681420AD991
:20184000461AB34211D900261B1A5B182B60936F2360536F636001F02BFD3000F8BD72B6C0
:20186000FEE772B6FEE70026F5E7002301262B60F1E7C046240500200122014B1A607047D8
:20188000A4050020002801D0006C70470020FCE7002800D001647047F0B54F464646D6466A
:2018A0000400C0B50D0016003E4F00282ED0220034326A60E26A2C602A61226BEA61E26BFF
:2018C000AA60626C6A610022AA61052B2DD03968A14217D02B73032B1AD0002E0CD0226B53
:2018E0001378A52B4BD100230133D15CA529FBD09B089BB22B8400E02E841CBC9046994696
:20190000A246F0BD2A73002EF6D0E8E73C68CEE7FB6E0133FB66A36A002B01D002232B73AF
:20192000FB6E002B25D172B6FEE73A680023A2421BD001F0B1FC636998467B6D9A46BB6D44
:20194000994601F0B5FCD04516D0C84514D04037B84517D0144B043398451FD043465A4238
:2019600053415A420323134001332B73002EC3D0B5E7FFF783FBB0E702232B73F6E70023C1
:201980002B84BAE7A26A0223002AEED14E33E35C013B5A1E934102332B73E7E704232B732F
:2019A000E4E7C04624050020A4040020014B18687047C04624050020F8B5041E23D01E4D46
:2019C000C26A2B68DB6A9A4216D28369002B04DB2B68D96A05235B1A8361184E93003100C8
:2019E0009B181C319B006269CB189A420DD02B680120DB6AE36205E02B68406CDB6A984264
:201A000080414042F8BD0020FCE7271D380001F037FE2B686A6EDB6AE362934200D96B66B5
:201A200030009E00F6181C30B6008019390001F003FE0120E6E7C04624050020A4040020FF
:201A400070B5002810D0164E3468844201D072B6FEE7A36C002B09D0E26A616C013BA36446
:201A60008A4201D0002B03D0002070BD72B6FEE7251D280001F004FE0522636CD21AA2612F
:201A8000726EE362934200D9736606489A00D3189B001C30C018290001F0CEFD0120E4E737
:201AA00024050020A4040020F8B5041E33D0836C002B01D172B6FEE7426C8A4200D20A00F4
:201AC000E16A914227D0012B25D1144F3B68A34222D0A369E262002B02DB05239A1AA261BB
:201AE0000F4D8B002A005B181C329B00D31862699A4210D1261D300001F0C2FDE36A7A6EAE
:201B0000934200D97B669800C0181C3580003100281801F091FDF8BD72B6FEE724050020FA
:201B2000A4040020F0B50023DE464E4645465746E0B50370274B04009D699B6983B0D800A2
:201B4000C018800001F03CFC814600283AD000222900FFF729FC002831D04B461D1DC300EE
:201B600018181D4B80009A46002380469B46A8442B7A0027042B01D8184AD75C200029689D
:201B800002F012F90600031B062B07D8221A2021073201F0DFFE5B46E61DE3716A68EB6873
:201BA0000192AA8B5146009230003A0002F0DCF8300002F01DF924353418A845D8D1484603
:201BC00001F0A2FC03B03CBC90469946A246AB46F0BDC046A4040020C056000850530008F9
:201BE000044B1A68196890691A680523C96A5B1A9361704724050020044B1A68002A03D086
:201C000019688A6C01328A641868704724050020F8B506000D0001F03FFB244C2368DB6C7F
:201C2000002B05D1012122685033D154002D17D101F03EFB01F030FB2368DD6C002D04D01F
:201C40002368002E09D00022DA64502300212268D15401F02DFB2800F8BD6A1EDA64F4E7B8
:201C6000676F2068043001F00BFD6B1C0CD02368ED195D60AF420ED9A06D2168043101F094
:201C8000E7FC01F0FDFAD3E7200021684030043101F0D2FCF5E7606D2168043101F0D8FC86
:201CA000A36E9D42EDD2A566EBE7C04624050020F0B5C64600B515001E000700884601F0EA
:201CC000EBFA5023284C2268D25C022A08D02168CA6CBA43CA6401212268D154002E1ED1A4
:201CE00001F0E6FA01F0D8FA002D02D02368DB6C2B60502322680025D35C022B05D1414619
:201D000022680135D36C8B43D364502300212268D15401F0CDFA280004BC9046F0BD676F83
:201D20002068043001F0ACFC731C0CD02368F6195E60B7420ED9A06D2168043101F088FC6B
:201D400001F09EFACCE7200021684030043101F073FCF5E7606D2168043101F079FCA36EBB
:201D60009E42EDD2A666EBE724050020F8B504000E0015001F00002810D001F08DFA002FFB
:201D800001D0E36C3B6050220221A35CA154DBB2042D27D8204AAD005259974672B6FEE796
:201DA000E26C1643E664012B04D0012401F080FA2000F8BD261D300001F062FC174DE26A5B
:201DC0006B6E9A4200D96A66154893009B189B001C30C018310001F02FFCA36A002B10D0DE
:201DE00072B6FEE7E26C0132DDD072B6FEE7022B0FD0E664012BD8D1DCE7E26C0132E264E6
:201E0000D1E72B68E26ADB6A9A42CED901F038FACBE70024CAE7C0462853000824050020E7
:201E2000A4040020F0B5CE4604000E001500994600B5002813D001F049FA4B460700002B64
:201E400002D04A46E36C136050220221A35CA154DBB2042D2FD8294AAD005259974672B640
:201E6000FEE7E16C3143E164012B1CD1A36A002B01D072B6FEE7224DEB6E002B2AD0280033
:201E800021002C30183101F0D7FB2B68E26ADB6A9A4208D9069B002B02D01A000123136089
:201EA0000122184B1A600124380001F013FA200004BC9146F0BDE26C0132D5D072B6FEE730
:201EC000022B05D0E664CFE7E26C0132E264CBE70024E9E7261D300001F0D2FBE26A6B6E3D
:201EE0009A4200D96A66930007489B189B001C303100C01801F0A0FBC7E7C0463C53000801
:201F000024050020A4050020A4040020F0B5C64604000E0000B5002839D001F0D7F950230A
:201F20000221E25CE154E36C07000133E364012A27D1A36A002B01D072B6FEE7184DEB6E43
:201F4000002B26D1231D1800984601F099FBE26A6B6E9A4200D96A66124893009B189B00BF
:201F60001C304146C01801F067FB2B68E26ADB6A9A4206D9002E01D00123336001220A4B56
:201F80001A60380001F0A6F904BC9046F0BD72B6FEE7280021002C30183101F04DFBE4E7BD
:201FA00024050020A4040020A405002070B5041E0CD001F071F95023E25C0025022A01D1F5
:201FC000E554013501F074F9280070BD014B1C68EFE7C0462405002070B504000D00084E5E
:201FE00000280AD001F058F93368DE6CE36CAB43E36401F05DF9300070BD3468F2E7C04615
:202000002405002070B51600026C0400856B002A06D10668002E2AD001350020A56370BDB8
:20202000002E0FD1406801F041FC226C63689446A268634463609342EED323680020636011
:202040000135EBE7C06801F031FCE168236C5A42CB1A2168E3608B4203D2A3689C466244D8
:20206000E260022ED8D1002DD7D10135D5E78068FFF7E6FC0135A660D0E7C04670B504009C
:202080000D0000281BD001F007F9216CE36B22684B43D0185B1AD318A0606260E360442289
:2020A000FF230020A063A3540132A354002D11D12369002B05D101F0FBF8012070BD72B6C4
:2020C000FEE720001030FFF71DFB0028F3D001F0D7F8F0E72000103001F09EFA20002430CE
:2020E00001F09AFAE7E7C046F8B506000D001700002801D172B6FEE708007043503001F07D
:202100005FF9041E24D00300002D23D12360E663256401F0C1F8226CE36B21685343C81853
:20212000A06000209B1ACB18E3604422FF23A06320006160A3540132A354103001F06CFA80
:202140002000243001F068FA01F0B2F84C23E7542000F8BD5033D9E770B505000E000028FB
:2021600001D172B6FEE7884201D272B6FEE7502001F026F9041E23D0C5630025006005642B
:2021800001F08AF8216CE36B22684B43D0185B1AD3186260E3604422FF23A0602000A563DC
:2021A000A3540132A354103001F036FA2000243001F032FA01F07CF84C230222E254A663D5
:2021C000200070BDF0B5D64646464F46C0B584B0041E88469A46019200D105E1002900D113
:2021E0009EE053460025022B00D19FE0260001F053F8A36BE26B243693427CD35346022B25
:2022000079D0019B002B00D1F0E0002D00D1E7E001F04EF8FEF77AFE01F03EF84422A35C18
:202220005BB2013301D10023A3544522A35C5BB2013301D10023A35401F03AF801A902A867
:20224000FFF7E8FA002800D0DCE001F025F8A36BE26B934200D16FE001F02AF801F01CF87C
:202260004523E55C6DB2002D05DC13E0013DEBB26DB2002B0ED0636A002B0BD03000FFF799
:2022800041FA0028F2D0013DFFF7F6FAEBB26DB2002BF0D14523FF22E25401F009F800F0AC
:2022A000FBFF4423E55C6DB2002D16DD2700103704E0013DEBB26DB2002B0ED02369002B31
:2022C0000BD03800FFF71EFA0028F2D0013DFFF7D3FAEBB26DB2002BF0D14423FF22E2548C
:2022E00000F0E6FFFEF73EFF012500F0D5FFA36BE26B934282D2524641462000FFF782FEB4
:20230000636A002B00D078E0002800D072E000F0CFFF012004B01CBC90469946A246F0BD9E
:20232000036C002B00D15CE772B6FEE7E36B012B00D15BE772B6FEE700F0BAFF102399468D
:20234000A14448460199FFF773F900F0A5FF4523E55C6DB2002D05DC13E0013DEAB26DB2B8
:20236000002A0ED0636A002B0BD03000FFF7CAF90028F2D0013DFFF77FFAEAB26DB2002A1D
:20238000F0D14523FF22E25400F092FF00F084FF4423E55C6DB2002D05DC13E0013DEAB227
:2023A0006DB2002A0ED02369002B0BD04846FFF7A9F90028F2D0013DFFF75EFAEAB26DB20D
:2023C000002AF0D14423FF22E25400F071FFFEF7C9FE002800D087E700F052FF012584E700
:2023E00002A8FFF70FFA13E772B6FEE700F060FF00208FE700F044FF89E720002430FFF73B
:2024000081F981E700F048FF4523E55C6DB2002D12DD2600243604E0013DEBB26DB2002B36
:202420000AD0636A002B07D03000FFF76BF90028F2D0FFF721FAEFE74523FF22E25400F0E9
:2024400037FF00F029FF4423E55C6DB2002D12DD2600103604E0013DEBB26DB2002B0AD0FC
:202460002369002B07D03000FFF74CF90028F2D0FFF702FAEFE74423FF22E25400F018FFEC
:20248000FEF770FE002045E770B50600502000F097FF041E2BD0002501230060C363056417
:2024A00000F0FAFE216CE36B22684B43D0185B1AD3186260E3604422FF23A0602000A56344
:2024C000A3540132A354103001F0A6F82000243001F0A2F800F0ECFE4C230022E654002147
:2024E00000232000A5602560E560FFF76BFE200070BDC04670B5041E07D08668FFF756FAC6
:202500000025864203D0280070BD72B6FEE7E3680135013BE360002BF5D100220021200045
:20252000FFF750FEEFE7C046F0B54F46D64646460400C0B591460F009A4600281FD000291A
:2025400018D05346022B04D1E36B012B19D072B6FEE700F0BBFEA36BE26B0600934214D3C2
:202560000025300000F0B6FE28001CBC90469946A246F0BD036C002BE3D072B6FEE772B696
:20258000FEE700F0A3FE0600A36B4523E55C52466DB2390020009846A36BFFF733FD6B1C5F
:2025A00005D0434601356DB2E5540125D9E7636A0235002BD5D020002430FFF7A3F8002848
:2025C000CFD04B46002BCCD01D60CAE7F8B504000E0000281FD0036C002B01D072B6FEE788
:2025E0000368002B19D000F071FEA26BE36B0700002593420AD94521635C01325BB2A26354
:202600005A1C0FD001335BB263540125380000F061FE2800F8BD72B6FEE78368002BE2D00E
:2026200072B6FEE7636A002BEFD020002430FFF769F80028E9D0002EE7D001230125336068
:20264000E4E7C046F0B54746CE4680B585B0041E8846019200D12EE1002900D125E100F0A6
:202660001BFEA56B002D00D027E1019B002B00D1CBE0270002A8FFF7C5F84426243700F0B0
:2026800017FEFEF743FC00F007FEA35D5BB2013301D10023A3554522A35C5BB2013301D155
:2026A0000023A35400F004FE01A902A8FFF7B2F8002855D100F0F0FDA36B002B00D0ACE05A
:2026C00000F0F6FD38000199FEF7B2FF00F0E4FD4523E55C6DB2002D05DC13E0013DEBB22A
:2026E0006DB2002B0ED0636A002B0BD03800FFF709F80028F2D0013DFFF7BEF8EBB26DB220
:20270000002BF0D14523FF22E25400F0D1FD00F0C3FD10239946A55DA1446DB2002D05DC7A
:2027200013E0013DEBB26DB2002B0ED02369002B0BD04846FEF7E6FF0028F2D0013DFFF78B
:202740009BF8EBB26DB2002BF0D1FF23A35500F0AFFDFEF707FD00284ED100F091FD4BE09F
:2027600000F09AFD4523E55C6DB2002D05DC13E0013DEBB26DB2002B0ED0636A002B0BD033
:202780003800FEF7BFFF0028F2D0013DFFF774F8EBB26DB2002BF0D14523FF22E25400F06D
:2027A00087FD00F079FD10239946A55DA1446DB2002D05DC13E0013DEBB26DB2002B0ED013
:2027C0002369002B0BD04846FEF79CFF0028F2D0013DFFF751F8EBB26DB2002BF0D1FF2318
:2027E000A35500F065FDFEF7BDFC00F055FDA36B002B0AD000F05CFD00F04EFDA56B002DCB
:202800005BD1019B002B00D039E700F051FD002005B00CBC90469946F0BD00F049FD00F072
:202820003BFD4523E55C6DB2002D05DC13E0013DEBB26DB2002B0ED0636A002B0BD0380089
:20284000FEF760FF0028F2D0013DFFF715F8EBB26DB2002BF0D14523FF22E25400F028FD7D
:2028600000F01AFD10239946A55DA1446DB2002D05DC13E0013DEBB26DB2002B0ED02369A9
:20288000002B0BD04846FEF73DFF0028F2D0013DFEF7F2FFEBB26DB2002BF0D1FF23A355A3
:2028A00000F006FDFEF75EFCA6E7036C002B00D1D5E672B6FEE772B6FEE7226C002A0AD077
:2028C000E3689918A368E160994201D32168E160404600F0EBFF013DA5632369002B03D106
:2028E00000F0E6FC012093E720001030FEF70AFF0028F5D000F0C4FCF2E7C046F0B5C646E0
:2029000000B584B0041E019100D1E7E0036C002B00D088E0070000250026243700F0BCFC5B
:20292000A36B002B00D03EE1019B002B00D146E1002E00D1D4E000F0BBFCFEF7E7FA00F090
:20294000ABFC4422A35C5BB2013301D10023A3544522A35C5BB2013301D10023A35400F0BB
:20296000A7FC01A902A8FEF755FF00285DD100F093FCA36B002B00D0B6E000F099FC236893
:20298000002B00D12FE138000199FEF751FE00F083FC4523E65C76B2002E05DC13E0013E93
:2029A000F3B276B2002B0ED0636A002B0BD03800FEF7A8FE0028F2D0013EFEF75DFFF3B27C
:2029C00076B2002BF0D14523FF22E25400F070FC00F062FC4423E65C76B2002E17DD343B18
:2029E0009846A04404E0013EF3B276B2002B0ED02369002B0BD04046FEF784FE0028F2D0A3
:202A0000013EFEF739FFF3B276B2002BF0D14423FF22E25400F04CFCFEF7A4FB002800D10E
:202A2000ADE001267AE772B6FEE700F035FC4523E65C76B2002E05DC13E0013EF3B276B273
:202A4000002B0ED0636A002B0BD03800FEF75AFE0028F2D0013EFEF70FFFF3B276B2002BF1
:202A6000F0D14523FF22E25400F022FC00F014FC4423E65C76B2002E17DD343B9846A044A4
:202A800004E0013EF3B276B2002B0ED02369002B0BD04046FEF736FE0028F2D0013EFEF7DE
:202AA000EBFEF3B276B2002BF0D14423FF22E25400F0FEFBFEF756FB00F0EEFBA36B002B75
:202AC00003D000F0F5FB012628E700F0F1FB002D59D1280004B004BC9046F0BD72B6FEE7AE
:202AE00002A8FEF78FFE26E700F0E2FB00F0D4FB4523E65C76B2002E05DC13E0013EF3B259
:202B000076B2002B0ED0636A002B0BD03800FEF7F9FD0028F2D0013EFEF7AEFEF3B276B2F7
:202B2000002BF0D14523FF22E25400F0C1FB00F0B3FB4423E65C76B2002E17DD343B984660
:202B4000A04404E0013EF3B276B2002B0ED02369002B0BD04046FEF7D5FD0028F2D0013E90
:202B6000FEF78AFEF3B276B2002BF0D14423FF22E25400F09DFB0126FEF7F4FACEE600F02B
:202B80007FFB0126CAE600F087FB616A002903D00521236B1B68C91AA068FEF785FF0025EB
:202BA00000F086FB95E7013BA3632368002B16D02369002B0AD100F07BFB012589E7002D8F
:202BC00001D072B6FEE700F073FB82E720001030FEF798FD0028EED000F052FBEBE7FFF77B
:202BE0000BF8A060E4E700F057FBA068FEF7E4FE050000F05DFBC6E670B504000D0000288F
:202C000013D08668FEF7D2FE864209D029002000FFF774FE002807D0E3680133E36003E028
:202C20000120E3680133E36070BD72B6FEE7C046F0B54746CE4680B585B0041E884601923E
:202C400000D12EE1002900D125E100F025FBA36B002B00D027E1019B002B00D1CBE0270009
:202C600002A8FEF7CFFD4426243700F021FBFEF74DF900F011FBA35D5BB2013301D10023AB
:202C8000A3554522A35C5BB2013301D10023A35400F00EFB01A902A8FEF7BCFD002855D160
:202CA00000F0FAFAA36B002B00D0ACE000F000FB38000199FEF7BCFC00F0EEFA4523E55CB0
:202CC0006DB2002D05DC13E0013DEBB26DB2002B0ED0636A002B0BD03800FEF713FD002899
:202CE000F2D0013DFEF7C8FDEBB26DB2002BF0D14523FF22E25400F0DBFA00F0CDFA102304
:202D00009946A55DA1446DB2002D05DC13E0013DEBB26DB2002B0ED02369002B0BD04846AA
:202D2000FEF7F0FC0028F2D0013DFEF7A5FDEBB26DB2002BF0D1FF23A35500F0B9FAFEF799
:202D400011FA00284ED100F09BFA4BE000F0A4FA4523E55C6DB2002D05DC13E0013DEBB23F
:202D60006DB2002B0ED0636A002B0BD03800FEF7C9FC0028F2D0013DFEF77EFDEBB26DB212
:202D8000002BF0D14523FF22E25400F091FA00F083FA10239946A55DA1446DB2002D05DC7A
:202DA00013E0013DEBB26DB2002B0ED02369002B0BD04846FEF7A6FC0028F2D0013DFEF749
:202DC0005BFDEBB26DB2002BF0D1FF23A35500F06FFAFEF7C7F900F05FFAA36B002B0AD06F
:202DE00000F066FA00F058FAA36B002B5BD1019B002B00D039E700F05BFA002005B00CBC43
:202E000090469946F0BD00F053FA00F045FA4523E55C6DB2002D05DC13E0013DEBB26DB221
:202E2000002B0ED0636A002B0BD03800FEF76AFC0028F2D0013DFEF71FFDEBB26DB2002B03
:202E4000F0D14523FF22E25400F032FA00F024FA10239946A55DA1446DB2002D05DC13E0AF
:202E6000013DEBB26DB2002B0ED02369002B0BD04846FEF747FC0028F2D0013DFEF7FCFCE2
:202E8000EBB26DB2002BF0D1FF23A35500F010FAFEF768F9A6E7036C002B00D1D5E672B645
:202EA000FEE772B6FEE7226CE568002A09D0A368A918E160994201D32168E160404600F046
:202EC000F5FC636AE560002B03D100F0F1F9012094E720002430FEF715FC0028F5D000F023
:202EE000CFF9F2E7F8B5CE46474604008946160080B5002816D000290FD000F0E7F9A36BD1
:202F0000070098460025002B0ED1380000F0E2F928000CBC90469946F8BD036C002BECD0EA
:202F200072B6FEE772B6FEE74423226CE55C6DB2002A0AD0E3689918A368E160994201D327
:202F40002168E160484600F0B1FC4346013BA3636B1C05D0442301356DB2E5540125D4E77F
:202F60002369002BFAD020001030FEF7CBFB0028F4D0002EF2D0012301253360C5E7C0464A
:202F8000F8B504000D0000280AD0036C002903D0002B07D172B6FEE7002BFBD072B6FEE7F3
:202FA00072B6FEE700F092F9A36B06000027002B04D1300000F08EF93800F8BD226CE768DD
:202FC000002A09D0A368B918E160994201D32168E160280000F06AFCE7600127E9E7C04695
:202FE00010B5041E06D000F057F9A46B00F060F9200010BD72B6FEE710B5041E08D000F0D3
:203000004BF9A36BE46BE41A00F052F9200010BD72B6FEE7002801D0806B704772B6FEE734
:2030200070B500281BD01A4B5A68904229D0DA6890422AD05A69904225D0DA6990421CD0CD
:203040005A6A904217D0DA6A904218D05A6B904207D0DA6B90420CD000F056FA70BD72B6FF
:20306000FEE7062200240025D2009B181C605D60F2E70722F6E70422F4E70322F2E7052237
:20308000F0E70022EEE70222ECE70122EAE7C046A8050020806C7047816470474C23C05CDA
:2030A0007047C046002803D0806B43425841704772B6FEE7002805D0826BC06B801A434257
:2030C0005841704772B6FEE7164B1A68002A15D09A68002A18D01A69002A17D09A69002ACC
:2030E00016D01A6A002A15D09A6A002A14D01A6B002A13D09A6B002A12D070470022D200F7
:2031000099509B185860F8E70122F8E70222F6E70322F4E70422F2E70522F0E70622EEE77F
:203120000732ECE7A8050020164A03005168884216D0D168884217D05169884216D0D1695C
:20314000884215D0516A884214D0D16A884213D0516B884212D0D16B0020994210D0704739
:203160000023DB00D058FAE70123FAE70223F8E70323F6E70423F4E70523F2E70623F0E739
:203180000723EEE7A8050020174B5A68904215D0DA6890421AD05A69904219D0DA699042F7
:2031A00018D05A6A904217D0DA6A904216D05A6B904215D0DA6B824214D07047002200204C
:2031C0000021D2009B1818605960F6E70122F6E70222F4E70322F2E70422F0E70522EEE745
:2031E0000622ECE70722EAE7A805002000000000002382B00193064B1B68013301D072B623
:20320000FEE772B6019B002BFCD002B07047C046C00000200A4A13681868203080F309881C
:20322000022080F31488BFF36F8F3FBCAE4608BC04BC62B61847C046C046C046C046C046A5
:203240002405002010B58024031F64041C60043B19600349043B1960143B40381A6010BDEC
:20326000F13100087047C046FA23044A9B0012689A4201D072B6FEE77047C046C000002090
:203280008022044B52051A60BFF34F8FBFF36F8F7047C04604ED00E072B6044A1368013379
:2032A0001360BFF34F8FBFF36F8F7047C0000020054A1368002B01D172B6FEE7013B136041
:2032C000002B00D162B67047C0000020EFF3108072B6704780F310887047C046EFF30980BF
:2032E0000F4B1A6820381060F0C044464D4656465F46F0C008B572B6FEF7D0F862B60CBCEA
:20330000116808681030F0C8A046A946B246BB4680F309882038F0C81847C046C046C04679
:203320002405002010B5FFF7D1FF0400FDF714FE002803D08022034B52051A602000FFF7DD
:20334000C9FF10BD04ED00E00022054B05491A600A60054A0549116007221A607047C046F5
:2033600010E000E018E000E014E000E07FBB0000FF22114B1204196830B50A431A60FF22B6
:203380000025196812060A4383B01A60FFF7DCFF0A4C2560FFF73EFFFEF780F82368019508
:2033A000013301D072B6FEE772B6019B002BFCD0002003B030BDC04620ED00E0C0000020AD
:2033C000F0B5D6464F464646C0B50400FDF79EFD4B4B9868002837D0DA6892465246224228
:2033E00027D1002C25D0220007210832114201D08A430832002A1CD059698C46914218D39D
:203400001F001C6804E02668002E04D02700340061689142F7D384420BD026002568083642
:203420003D608F1A102F40D9A1184D0726D072B6FEE7FDF797FE0026FCF7C8FF30001CBC6D
:2034400090469946A246F0BD07202E49084242D1C022120188180A00072600250838B04303
:203460005D601960456005608025821A2D06AA4605C198601A615A61DD60AFE74F60626070
:203480001A00904612689142FBD845466F68B946C144494526D04F68CD19AA4227D00A6048
:2034A000884501D042461160616862461869521A5A6182420DD30022554622609A690D4326
:2034C000013265609A61FDF74DFE7307B6D072B6FEE71A61EFE7CA1D8243C02000010818AF
:2034E0001100B9E749687F186F604146D4E78242D5D05068126881464F444F600A60CFE7FE
:20350000E805002008060020F8B5041E2DD01C4E083C6368F2681A4204D02168002903D01C
:2035200072B6FEE772B6FEE793436360FDF7EEFC7369616825005B18736133001A001B6819
:203540009C42FBD850681718BC4202D11500091851606818834209D02B60AA4200D0156041
:20356000F3690133F361FDF7FDFDF8BDB0688342F2D058681B688446614469602B60ECE74C
:20358000E8050020014B58697047C046E8050020014B18697047C046E80500207047C046F3
:2035A000F0B5C64600B50700FDF7B0FC194B98461B68002B28D04246012500260024916825
:2035C0006D425A680134964200D21600954200D915001B689942F4D1FDF7C4FD7E60BD60ED
:2035E000FC60FFF759FE43465B693B6043469B697B614346DB69BB6143461B693B61FFF749
:2036000057FE04BC9046F0BD0125002600246D42E2E7C046E8050020030001220833436013
:20362000C360036100235242826003607047C046002303617047C04643689A684B608A60C4
:203640009A685160996003680861013303607047030030B50C680833621C0DD01A005B68CD
:203660001D68A542FAD94B60996003688A60013351600861036030BD02695368F3E7C0466E
:203680000369416882688A6051605968814206D0002202611A68013A1A60186870475A6089
:2036A000F6E7C0464B6970B506000C000025002B07D000F0D1FB6369056020689847051E9E
:2036C00005DB3000210000F099F9280070BD00F0C3FB0368002BF4D000F0BEFB0368336033
:2036E000EFE7C046F0B5C64600B51E004B6815009A8907000C00D20506D5DB6A9846002B6C
:2037000002D002230022C04700F0A6FB00233200036029002068E3689847041E03DB200045
:2037200004BC9046F0BD00F097FB0368002BF6D000F092FB03683B60F1E7C046F8B50C004E
:2037400015001E00070000F087FB00233200036029002068A3689847041E01DB2000F8BD97
:2037600000F07AFB0368002BF8D000F075FB03683B60F3E770B582B00C001D00019206002D
:2037800000F06AFB00232A00036001A9206823699847002802DB019802B070BD00F05CFBC3
:2037A0000368002BF7D000F057FB03683360F2E782B0F0B5D6464F464646C0B582B00B933A
:2037C0001F000C9B8A4699460D9B110001AA0500984600F043FD061E3CD01423034235D14B
:2037E0001823334202D04B46002B31D0280000F039FC041E2ED02800182100F055F9051E5B
:203800002AD001235B42E3815346A6810360164B44602062876063624B46C360134BA3621C
:2038200043460361002B01D0114B98464346E3620E9B6B610F4B2363200002B01CBC9046C2
:203840009946A246F0BC08BC02B01847002FC7D116232B600024EFE700F0E0FCA58100F0B9
:20386000DFFC0024E8E7C0463D370008E536000875370008A536000882B0F0B585B08C4660
:203880000A92040015006A460B93074B18680BABC2CBC2C22B0062462100FFF789FF05B065
:2038A000F0BC08BC02B01847C4000020F0B5C64600B50F2A43D90B00032603431E400C0004
:2038C0000300002E40D11500103D2D09AC462D01A846804400E03B00676825685F60E768B7
:2038E0001D60DF601F00A56810379D6010344345F1D165460F230C2401352D0149191340E8
:203900004519144223D08C59AC5104369C1B032CF9D80324043B9B0801339B002240ED18EE
:20392000C918561E002A07D0002300E02300CA5C5C1CEA549E42F9D104BC9046F0BD05003D
:20394000561E002AF0D1F7E7561E0500ECE71A00F6E7C046F0B5050083074AD0541E002AF7
:2039600044D0CEB20300032202E00135013C3DD301332E701342F8D1032C2FD9FF220A4094
:20398000150215432A0415430F2C35D92700103F3F093E01B4461E001A0010366644156055
:2039A00055609560D5601032B242F8D10F260C2201373F012640DB193700224217D03E1F15
:2039C000B608B400A4461A001C1D644420C2A242FCD103240136B6009B193C40002C05D0B8
:2039E000C9B21C19197001339C42FBD1F0BD3400F4E714000300BFE72700E0E770B505001F
:203A0000002915D00C1F2368002B27DB280000F03FFD244B1A68002A05D0A2420CD921681F
:203A20006018824224D0626028001C6000F032FD70BDA34203D81A005368002BF9D11168A1
:203A40005018A0421BD027D821686018834207D063605460280000F01DFDE9E7E418D5E764
:203A600018685B6884466144216063605460F1E7106852688446614421606260D4E720689D
:203A80000918501811608342E4D118685B688446614411605360DDE70C2328002B6000F046
:203AA000F9FCC5E708120020F8B50323CD1C9D43083506000C2D2AD20C25A94229D83000CA
:203AC00000F0E6FC2A4F3A68002A0AD013685B1B04D441E023685B1B1FD522005468002C0C
:203AE000F8D17B68002B3DD02900300000F042F8431C2AD00323C41C9C43A04205D0211A2F
:203B0000300000F037F8431C1FD0256010E0002DD3DA0C2300203360F8BD0B2B05D8636844
:203B2000A2421DD0536003E014002360E4182560300000F0AFFC200007220B30231D9043A4
:203B4000C21AE9D01B1AA350E6E70C233000336000F0A0FC0020DFE70B2BE5D814005368B5
:203B60003B60E5E70021300000F004F87860BBE708120020002370B5064C050008002360C3
:203B800001F07CFB431C00D070BD2368002BFBD02B60F9E71412002010B500230122002103
:203BA00000F002F810BDC046F0B54746CE4680B51E005A4B83B01D68040088461700002D3C
:203BC00002D0AB69002B5DD0554B9C4260D0554B9C425FD0544B9C4200D199E0022F05D07F
:203BE000012F00D996E0002E00DA93E02100280000F0D2F9616B002908D023004433994285
:203C000002D02800FFF7FAFE002363630023A36163600C22A35E1A064FD4444A1340A38172
:203C2000022F55D001AB6A462100280000F0ACFBA3890343A381002E2ED1009E300000F071
:203C400013FC8046002853D08022A3891343A381AB69002B26D00C22A35E012F02D1012272
:203C60001343A38142462260226108229BB266611A401BD0DB0738D500237642A360A661E6
:203C8000002015E0280000F0C1FA254B9C429ED16C68A3E7AC68A1E74346002BCED0AB691F
:203CA000002BD8D1280000F0B1FAD4E70020A26003B00CBC90469946F0BD21692800FFF70B
:203CC0009DFE0C22A35E194A1340A381022FA9D1002002221343A3810023A3602300473314
:203CE0002360236101236361E2E7A6600020DFE7009B9946B34206D0180000F0B5FB4E468F
:203D000080460028A0D101200C22A35E4042E0E7EC6863E701204042CAE7C046C4000020CF
:203D20009C5300087C5300085C5300085CF3FFFF0CB400B59DB00291069109491EAB079112
:203D40000491084904CB059102A9019300F096FC0023029A13701DB008BC02B01847C0466D
:203D6000FFFFFF7F0802FFFF0EB400B50B499CB0079104910A491DAB05910A4904CB029016
:203D80000690086802A9019300F078FC0023029A13701CB008BC03B01847C046FFFFFF7F14
:203DA0000802FFFFC40000200B00034330B504009B0710D10B680C4A0C4D9A189A432A423D
:203DC00009D104312360084A0B6804309A189A4304002A42F5D003000A7818001A7001313B
:203DE0000133002AF8D130BDFFFEFEFE8080808010B5830727D00378002B26D003000321AD
:203E000002E01A78002A1CD001330B42F9D119680F4A104C8A188A4322420FD1043319682C
:203E20000B4A8A188A43224208D104331968084A8A188A432242F1D000E001331A78002A13
:203E4000FBD1181A10BD0300E1E70020FAE7C046FFFEFEFE80808080014B18687047C04643
:203E6000C4000020F0B5C64600B58B8980460C001A0745D44A68002A63DDE56A002D3BD035
:203E800042464146166800220A60216ADA045CD4012300224046A847431C61D0A389E56AAA
:203EA000216A5B0706D56368C01A636B002B01D0236CC01A002302004046A847431C46D152
:203EC00043461B680C21625E002B56D01D2B01D0162B5DD100236360236923604346616BC6
:203EE0001E60002908D023004433994202D04046FFF784FD00236363002004BC9046F0BDB3
:203F00000E69002EF8D00A680E60951B00229B0700D14A69A260002D04DCEDE736182D1AE4
:203F2000002DE9DD2B003200216A4046A76AB8470028F3DC40220120A38940421343A3816E
:203F4000DBE70A6C002A98DCD6E7606DA9E70023636023692360A389DB04BFD56065BDE774
:203F600043461B68002B99D01D2B0DD0162B0BD04022A3891343A381BFE7636023692360E0
:203F8000D304ABD56065A9E7434600201E60B4E740231A43A281B0E70B6970B505000C008F
:203FA000002B16D0002802D08369002B15D00E4B9C4210D00D4B9C4212D00D4B9C4211D0B4
:203FC0000C22A35E002B04D021002800FFF74AFF00E0002070BD6C68F2E700F017F9E6E784
:203FE000AC68EDE7EC68EBE79C5300087C5300085C53000810B5011E04D0054B1868FFF7B0
:20400000CBFF10BD034B0449186800F097F9F8E7C400002058530008993F00080020704741
:2040200010B5024900F08AF910BDC046993F00080020704770B568244A1E54430E00210094
:204040007431FFF731FD051E09D000232200036046600C30A86068320021FFF77BFC2800B9
:2040600070BDC0461E4B70B51D680600AB69002B27D048356B68AC68013B03D51CE06834AE
:20408000013B19D30C21625E002AF8D100252000144B656625606560A560E36025616561CB
:2040A000A561082200215C30FFF754FC6563A563A564E564200070BD2C68002C05D02500B4
:2040C000D8E7280000F010F8D3E704213000FFF7B1FF041E2860F2D10C233360EAE7C04646
:2040E000585300080100FFFFF0B5D6464F464646384BC0B5836200238364C3640365364B35
:2041000082B01B6805000193984260D02800FFF7A9FF68602800FFF7A5FFA8602800FFF7D1
:20412000A1FF6E680024E86004233000746634607460B460F36034617461B46108220021D3
:204140005C30FFF707FC254B254F9A467362254B37639946B362244B3662F362AE689846F3
:204160003000224B746634607460B460F36034617461B461082200215C30FFF7EBFB53462E
:2041800073624B46B36243463763F3623662EE68174B3000F360746634607460B46034616E
:2041A0007461B461082200215C30FFF7D3FB534673624B46B3624346F36201233662376332
:2041C000AB6102B01CBC90469946A246F0BD012383619BE72140000858530008E94D00081B
:2041E000814E0008154E0008554E0008090001001200020010B5034B0349186800F09EF84F
:2042000010BDC04658530008993F0008836910B5002B01D1FFF768FF10BDC0467047C0469D
:204220007047C0467047C0467047C04610B5034B0349186800F060F810BDC046C400002069
:204240001D40000810B5034B0349186800F054F810BDC046C400002031400008F0B546467D
:20426000D6464F460B78C0B59046722B3ED0772B09D0612B33D01623036000201CBC9046A0
:204280009946A246F0BDC023DB009A460124082080235B02994680231B019C461C221027CA
:2042A0000326022501310B78002B0DD0622B13D0782B0ED02B2BF5D101310B789043B44365
:2042C00038432C43002BF1D153461C4343461C60D4E763461C43E5E74B461C43E2E782231D
:2042E00084209B009A4601244000D1E7002300249A460420CCE7C046F0B5C646483000B5A0
:20430000884607000026002813D07B68BC685D1E0CD4A389012B06D90E22A35E013302D0C7
:204320002000C04706436834013DF2D23F68002FEBD1300004BC9046F0BDC046F8B547462A
:20434000CE4680B507004837804689460026002F14D07B68BC685D1E0DD4A389012B07D925
:204360000E22A35E013303D021004046C84706436834013DF1D23F68002FEAD130000CBCE0
:2043800090469946F8BDC04670B50C001D000E23C95E96B01600002914DB6A4600F09CFD5A
:2043A00000280FDBF022019B12021340094A944663445A4253412B608023DB003360002016
:2043C00016B070BD00232B60A3891B06F4D540233360F4E700E0FFFF70B58B8982B0060006
:2043E0000C009B0707D523004733236023610123636102B070BD01AB6A46FFF7C5FF009919
:2044000005003000FFF750FB002810D08022154BB362A38920601343009A1BB26261019A40
:20442000A3812061002A0CD12B43A381E1E70C22A35E9A05DDD40322934302221343A3815E
:20444000D1E70E23E15E300000F05AFD002802D10C22A35EE8E70322A38993430122134324
:204460001BB2E1E72140000810B5034B01001868FFF71AFB10BDC046C400002010B5034BD5
:2044800001001868FFF7BAFA10BDC046C40000207047C0467047C046F0B546464F46D646DE
:2044A000C0B58E6881460C0090461D0008689E4239D890228B89D200134211D135002A003C
:2044C000414600F083FDA36800209E1B2368A6609C46654425601CBC90469946A246F0BD3E
:2044E0000969421A92466269681C5700BF18FA0FD7197F1050443A00B84201D90700020066
:204500005B0512D511004846FFF7CEFA061E1FD052462169FFF7CAF9A389124A134080228C
:204520001343A38106E01E00C9E7484600F0ACFD061E09D03000534650446761FF1A266164
:2045400020602E00A760BAE721694846FFF756FA0C234A46136040220120A38940421343EE
:20456000A381B8E77FFBFFFFF0B54E464546DE465746E0B5936883B001900D009146002B18
:204580006BD0176808688C6844E09022AB89D20013422ED02969421A9346686942001218CA
:2045A000D00F8218701C521058449046904201D9804602008020C000034237D01100019858
:2045C000FFF772FA041E53D05A462969FFF76EF9AB89294A134080221343AB8143462000DE
:2045E0005A462C61B046340058446B619B1A2860AB604246514600F0E9FCAB681C1B2B68E3
:20460000AC6043442B6018004B469B689E1B4B469E6022D03B687E689A460837A046002EDA
:20462000F8D0A642B1D23400B046E2E7019800F02BFD041ED2D1019C29692000FFF7DEF9C2
:204640000C2323604022AB8901201343AB814A46002340429360536003E000234A460020DE
:20466000536003B03CBC90469946A246AB46F0BD0C23019A1360E5E77FFBFFFFF0B54E46E7
:20468000DE4657464546E0B5A1B0049003911C008B8991461B0604D50B690593002B00D1B7
:2046A00019E1002308AD6B6120336B761033AB762F3B98464B461B780794924F002B00D1E0
:2046C00086E0252B00D104E14E4603E0252B00D18BE026007378741C002BF7D14B46E31A49
:2046E0009A4675D053464A4603990498FFF7D4FE431C6DD06B6953446B617378002B67D04C
:204700000122002352426A60443201342B60EB60AB60AB54AB6506E04346C01B8340340019
:204720002A6813432B6021780522380000F00EFC661C0028F0D12B68B246DA0602D5432202
:204740002021A9541A0702D543222B21A95421782A2950D1079A111D12680791002A00DA83
:204760009AE0EA606178A61C2E295CD0664B03221800994600F0EAFB002800D171E04B46DA
:20478000C01A402383402A68317813432B600622731C5E489946297600F0D8FB00286AD0FD
:2047A0005B4B002B00D170E007AB0093039A594B2900049800E000BF83465B46013307D0A8
:2047C0006B695B446B614B461B78002B00D078E7039B9B895B0600D58CE0686921B03CBC1E
:2047E00090469946A246AB46F0BD4B46E31A9A4600D185E776E70A00303AA246092AB3D85C
:20480000EB68180001E03400013683001B1831785B0098180A00303A092AF4D9B246E860C3
:20482000A61C2E29A2D1534659782A293AD1079B1A1D079252469178D61C022294461B689E
:20484000E2446B60002B00DB90E701235B426B602D4B03221800994600F078FB002800D06F
:204860008DE7B1465646317806222848297600F06DFB002894D107AB0093039A254B2900F1
:20488000049800F0E1F8834697E70722079B073393430833079393E75242EA6002221343EA
:2048A0002B605FE70A000023303A6B601800092A01D91CE01E0083001B1871785B009818DC
:2048C0000A00303A731C092AF4D99A46023668604CE74C4614E74021FFF7E6F8039B1860EA
:2048E0001861002809D04023039A5361D9E6B24601363BE70120404270E70C23049A01387A
:2049000013606BE7D0560008D8560008DC5600080000000099440008F0B54F464646D6466D
:20492000C0B51F00089B914698468A680B6906000C00934200DA13004A4613604322A25CEB
:20494000002A02D04A460133136023689A065AD54B461B6806209A1C4B461A60236819002B
:20496000184208D1E16800258A1A19218A461900A244002A3FDC4323E35C5A1E93418A0623
:204980000AD53020E1184331087045215A1C615CA218433202331170220039004332300085
:2049A000C047431C19D006232068A26821690340042B30D08A423ADD00239946521A9144CB
:2049C0001A34002502E001354D4530DA0123220039003000C047431CF5D1012040421CBC5A
:2049E00090469946A246F0BD4B46E2681B680135D31AAB4220DD0123524639003000C047D6
:204A0000431CF1D1E9E706221A4212D04323E35C5A1E9341C0E74B46E0681B68C31AD84353
:204A2000C017184081468A42C8DC002BC8DC0020D5E74A46126895E743232168E35C5A1E39
:204A400093418A069DD4A7E7F0B557469A4643239C464E464546DE468C446346E0B587B001
:204A600003930B7E914680460C00109A6E2B00D1D8E000D871E0732B00D11AE100D881E0D6
:204A8000752B00D1FFE0782B00D00BE10B6878204521605494498B46116840C91160180683
:204AA00003D4580601D53604360CDA0702D52022134323601027002E00D1C2E0432300223C
:204AC000E2546368A360002B00DAC5E00422216891432160002E00D083E0002B00D0BDE02B
:204AE000039D082F00D18CE0039B5B1B2361534605AA009321004B464046FFF70DFF431C96
:204B000022D023692A0049464046D047431C1BD022680598E368920700D47FE01A1A002ADB
:204B200000DC7BE026000025193606E0E368059801351A1AAA4200DC70E00123320049466F
:204B40004046D047431CF1D10120404207B03CBC90469946A246AB46F0BD632B00D184E047
:204B60001FD8002B69D0582B00D09BE0452163545E4923688B46116840C91160180600D407
:204B80008FE792E76F2B7ED0702B00D08AE02023096878200B4345212360605452498B46C6
:204BA0007AE7642B01D0692B7CD111682368081D10601D064AD50A681600002A03DB4B4B52
:204BC0000A279B467DE743222D21A15462687642A260002A02DB042293432360434B0A27EE
:204BE0009B46039D00E006003900300000F018FB5B465B5C013D2B70BE42F4D2082F00D0E4
:204C000072E72368DB0700D46EE763682269934200DD69E73023013D2B7065E7984295DA8C
:204C2000180093E7136809681D1D606915601B680E0601D449064BD418600023039D2361E5
:204C400055E7202322689A43226037E75D06B2D500228E5E3200B0E7002EC2D15B46250086
:204C60001A7842234235E2543BE713682500191D11601A684223E254413B4235236143232D
:204C80000022E25433E7116820680D1D1560060601D440061ED40E686F2B1DD0134B0A275D
:204CA0009B460BE742222500A354012342352361E5E71368191D11601D68626800212800FC
:204CC00000F044F900280BD0401B60602061D6E71880B2E70E88DFE7044B08279B46EDE68C
:204CE00060682061CBE7C046F8560008E456000870B50C0009680500002901D0FFF7F8FF8D
:204D000028002100FEF77AFE70BDC046354B70B51B68050083425CD0426A002A5AD0D36851
:204D2000002B13D000269959002907D00C682800FEF764FE211EF9D16B6ADB680436802E51
:204D4000F1D119002800FEF759FE6A6A1168002944D02800FEF752FE6969002902D0280018
:204D6000FEF74CFE6A6A002A03D011002800FEF745FEA96B002902D02800FEF73FFEE96BF5
:204D8000002902D02800FEF739FE296C002902D02800FEF733FEE96D002902D02800FEF778
:204DA0002DFEA96D002902D02800FEF727FE696B002902D02800FEF721FEAB69002B08D053
:204DC0002800AB6A9847A96C002902D02800FFF78FFF70BD41690029C1D1CAE769690029BD
:204DE000BDD1C2E7C400002070B50C000E25495F00F072F9002803DB636D1B18636570BD33
:204E0000A389024A1340A381F9E7C046FFEFFFFF00207047F8B516001F000C228B5E0C00F5
:204E200005000E22895EDA0508D4094A28001340A38132003B0000F029F8F8BD002202232F
:204E400000F070F80C22A35E0E22A15EEDE7C046FFEFFFFF70B50C000E25495F00F062F880
:204E6000431C06D08023A2895B011343A381606570BDA389014A1340A381F9E7FFEFFFFFAD
:204E800010B50E23C95E00F015F810BD70B50500080011000022064C22601A0000F0FCF9F3
:204EA000431C00D070BD2368002BFBD02B60F9E714120020002370B5064C0500080023603A
:204EC00000F0B4F9431C00D070BD2368002BFBD02B60F9E714120020002370B5074C050007
:204EE00008001100236000F0A9F9431C00D070BD2368002BFBD02B60F9E7C04614120020F0
:204F0000002370B5064C05000800236000F09EF9431C00D070BD2368002BFBD02B60F9E798
:204F20001412002070B50500080011000022064C22601A0000F092F9431C00D070BD236876
:204F4000002BFBD02B60F9E71412002070B5CDB2830734D0531E002A1BD00278AA4219D0A3
:204F6000032404E0013B14D30278AA4212D001302042F7D1032B0ED8002B0AD00278AA42E1
:204F800008D0C31802E00278AA4203D001308342F9D1002070BDFF220C06240C114021431E
:204FA0000C04084E0C43026807496240511891433142E3D1043B0430032BF4D8DCE7130039
:204FC000D8E7C04680808080FFFEFEFEF0B5C64600B588420CD98B18984209D2531E002A0B
:204FE00003D0CA5CC254013BFBD204BC9046F0BD0F2A0CD80500561E002AF6D0002300E0CD
:205000002300CA5C5C1CEA549E42F9D1EDE70B00032603431E400C000300002E2ED11500EA
:20502000103D2D09AC462D01A846804400E02B001D00276810351F6067685F60A7689F6004
:20504000E7681034DF604345F1D165460F230C2401352D01491913404519144211D08C5994
:20506000AC5104369C1B032CF9D80324043B9B0801339B00ED18C9182240BCE7561E050006
:20508000BCE71A00B7E7C046F8B507000C00150000291BD0002A15D000F032F82600A8428D
:2050A00001D33000F8BD29003800FEF7FDFC061EF7D021002A00FEF7F9FB21003800FEF77B
:2050C0009DFCEEE7FEF79AFC0026EAE71100FEF7EBFC0600E5E7C04670B5050008001100D8
:2050E0000022064C22601A0000F0C0F8431C00D070BD2368002BFBD02B60F9E7141200206A
:205100000B1F1B68181F002B00DB70470B58C018FBE7C046002243088B4274D303098B4271
:205120005FD3030A8B4244D3030B8B4228D3030C8B420DD3FF22090212BA030C8B4202D311
:205140001212090265D0030B8B4219D300E0090AC30B8B4201D3CB03C01A5241830B8B422C
:2051600001D38B03C01A5241430B8B4201D34B03C01A5241030B8B4201D30B03C01A52418C
:20518000C30A8B4201D3CB02C01A5241830A8B4201D38B02C01A5241430A8B4201D34B0204
:2051A000C01A5241030A8B4201D30B02C01A5241CDD2C3098B4201D3CB01C01A5241830989
:2051C0008B4201D38B01C01A524143098B4201D34B01C01A524103098B4201D30B01C01AFC
:2051E0005241C3088B4201D3CB00C01A524183088B4201D38B00C01A524143088B4201D368
:205200004B00C01A5241411A00D20146524110467047FFE701B5002000F006F802BDC04653
:205220000029F7D076E770477047C04658220120014B40421A607047141200205822012032
:20524000014B40421A607047141200205822024B00201A607047C04614120020582201200A
:20526000014B40421A6070471412002058220120014B40421A60704714120020044A136840
:20528000002B03D01818106018007047014BF9E7101200201812002058220120014B404280
:2052A0001A60704714120020000000000000330000006600000099000000CC000000FF007A
:2052C0000033FF000066FF000099FF0000CCFF0000FFFF0000FFCC0000FF990000FF66000E
:2052E00000FF330000FF000033FF000066FF000099FF0000CCFF0000FFFF0000FFCC0000BA
:20530000FF990000FF660000FF330000FF000000FF333300FF666600FF999900FFCCCC0067
:20532000FFFFFF00FFFFFF00A61D0008A01D0008FA1D0008F21D0008EE1D0008681E00080C
:20534000621E0008C81E0008C41E0008C01E00085852425344000000C8000020000000009C
:2053600000000000000000000000000000000000000000000000000000000000000000002D
:2053800000000000000000000000000000000000000000000000000000000000000000000D
:2053A00000000000000000000000000000000000000000000000000000000000F0B5DE4624
:2053C00057464E464546E0B501268A4C8DB0FBF737F8A369884A3343A361884B8849DA62E9
:2053E000884AC0209A63884A4025DA63B02299500321864AAC46136880270B431360802264
:205400006369D20213436361814BFF001A68814982432A431A609A88383DAA439A809A686F
:2054200002439A60DA688243DA608023E2699B021A43E26162697848134363619023DB0589
:205440001A68024030201A601A683A431A601A688243103802431A6080221D6A52000D402F
:205460002A438025804680201A621A682D06920092082A431A605A6A4005120112090243F4
:205480005A62342281460C20644DAA812A68024348462A602A6832432A60614A1060C720A9
:2054A0008000824610588146FF2083464846594688435146505041462A685A480A438021B5
:2054C0002A606269C902114380226161E16992031143E16119680840802109030143F020B5
:2054E0001960596A814360460143596219684E4801400A431A605A6A46490A403A435A6212
:205500004A4B99461800FAF7D3FF4B464A4680211B680220334313606369454A3343636157
:20552000136800240B4313607F390022FCF7DCFD404B03AA98461865DF603F4B3321484627
:2055400003930423FBF706F83C4B3D4F9C4604933B686946994605940694079406AB05CB92
:2055600005C16246002337492800FEF785F94B465860354B3A689C46694691460993089474
:205580000A940B940AAA09CA09C1634600222F492800FEF771F94B4698603B689868FEF792
:2055A000FBFA002201212020FCF79EFD43460022186001212020FCF797FD43464022586035
:2055C00023490023234801940096FBF761F9002380222149214801940096FBF759F9002330
:2055E000C0221F491F4801940094FBF751F9FBF7C9FBFEE7001002406532000800000020E9
:2056000085000008DD320008253300080000014000040048FFF0FFFFFFF3FFFF0044004098
:2056200000E100E0FFFFF3FFFFFFCFFF005400403000024028010020800D0A815D01000820
:20564000C4000020905600081501000894560008985600088D010008A0560008AD01000828
:20566000B056000891020008252E347820252E347820252E347820252E3478200000000005
:205680000A0000002D2D2D656E642D2D2D0A00007200000077000000626C696E6B000000B8
:2056A00069725F726561645F7461736B0000000069725F7072696E745F7461736B00000089
:2056C0000925630925750925750925750D0A0000232D302B20000000686C4C0065666745D7
:2056E0004647000030313233343536373839414243444546000000003031323334353637DF
:20570000383961626364656600AAAAAAAAC8000020000000009C5300087C5300085C5300B6
:20572000080000000000000000000000000000000000000000000000000000000000000061
:20574000000000000000000000000000000000000000000000000000000000000000000049
:11576000000000000000000000000000000000000038
:0400000508000000EF
:00000001FF
