:020000040800F2
:200000000018002049000008410000084500000800000000000000000000000000000000C1
:200020000000000000000000000000000000000000000000000000000000000000000000C0
:20004000FEE7C046FEE7C04609480A4A10B5904203D00949121A03F04BFE0848084A90428D
:2000600003D00021121A03F097FE06F011F8FEE7C000002028010020956300082801002082
:20008000B80E0020F0B5C6460023802500B51F4C82B00193E3691D421CD1E3699B0603D4BF
:2000A00002B004BC9046F0BD01AB98466B46184FDE1C164B42469B8C3100337078680023C8
:2000C00002F066F800281CD0019B002BE8D002F00FFFE5E701AB98466B460D4FDE1C424658
:2000E0003100386802F032FD002807D12368AB432360064BDB699B06E6D5DAE7337823850D
:20010000F7E7BB680133BB60DEE7C0460044004028010020F8B5CE46474605000C009146C1
:2001200080B5002A15D0884680260B4FC8440122002321003868524201F078FE2B680134D7
:2001400033432B604445F2D148460CBC90469946F8BD0020F9E7C04628010020F8B50E0088
:2001600015000024002A0DD0074F02E00134A54208D06242624178685242311902F096F88E
:200180000028F3D12000F8BD2801002070B50825044CFA20400000F06DFEA38A6B409BB2D9
:2001A000A382F6E700040048F0B5DE4657464E4645461B4BE0B59B461A4B8DB09A461A4BA9
:2001C00003AD9946FA20800000F054FE174B5A462B800223482101931548013B009503F0C4
:2001E0009BF929786B7809020B430200514604A804F012FC04AB1C001E18802398460D4F69
:2002000001224846002321005242006801F00EFE42463B68013413433B60B442F0D1D1E730
:20022000F45E0008D062000828010020BEEFFFFF0054004000440040024AD3680133D36030
:200240007047C04628010020FEE7C046FEE7C046044A136901331361BFF34F8F30BFBFF31F
:200260006F8F70472801002030B5002A0BD080248D18C3691C42FCD00B7801310385A942CF
:20028000F7D1100030BD0020FCE7C04610B500F0F1FD10BDF0B5C646094B002498460826EB
:2002A00000B5084F084D2100404604F04BFA786900F0E0FDAB8A013473409BB2AB82F2E7DF
:2002C000E06200082801002000040048F0B5DE4657464E464546E0B51A4889B004F032FA6A
:2002E000194B08269B46194B194D9A46194B1A4F99461A4B1A4C9846A38A584673409BB2C1
:20030000A38204F0A7FA2B6800229868514603F055FCFA20400000F0ADFD0021484604F0FC
:2003200011FA404604F096FA380004F00BFAFA20400000F09FFD2B68202168465A6803F05A
:2003400001FAD9E7E4620008F46200080C630008C4000020E0620008306300081463000877
:2003600000040048F0B54E4645465746DE462F4BE0B598462E4B802799462E4E2E4D89B090
:20038000EA4600246242624151467068524201F08DFF01239C46E244002843D00134202C5A
:2003A000F0D100239A4603336A469C464346614610781B5C0B40022B2BD001239B46DA44EC
:2003C00001325445F2DC6C44A2466C460122002321003068524201F029FD2B6801343B4349
:2003E0002B605445F2D149466846B26804F014FB684482466C460122002321003068524203
:2004000001F014FD2B6801343B432B60A245F2D1B6E7013B9B462038DA4410700132A24595
:20042000C4DBD0E7002CDED0BBE7C046295F00080C6300082801002000440040A022174BEC
:20044000D20219680A4380211A6089021A680A42FCD05A6812491140802252030A435A604E
:200460005A6810491140802252020A435A608022196852040A4380211A60084A89041368D8
:200480000B42FCD0012008490B6803430B60032153688B4301390B435360704700100240BC
:2004A000FFFFC3FFFF7FFEFF0020024070B5114C14E002F029FD2369DD68281D02F018FFF2
:2004C000A369013BA3612368013B236002F028FD286B02F051FE280002F04EFE2368002B7F
:2004E000E7D1E369012B01D902F002FDFFF7B0FEF4E7C04640010020F8B54E464546DE462B
:200500005746E0B59600804630000D00994602F08FFD071E00D195E0542002F089FD041E3A
:2005200000D1A1E007633200A521380003F034FC236B9A46002D00D1CFE034232A78E25462
:200540002B78002B26D035236A78E2546B78002B20D03623AA78E254AB78002B1AD0372326
:20056000EA78E254EB78002B14D038232A79E2542B79002B0ED039236A79E2546B79002B0C
:2005800008D03A23AA79E254AB79002B02D03B23EA79E2543B230022E2540A9D042D5AD8F5
:2005A0000023271DA3643800E56265649B4602F077FE2000183002F073FE0523043E5D1B90
:2005C0005B465A4656443000E36450332461A5616462E254493B98434A46414602F06AFCF1
:2005E0000B9B2060002B00D01C6002F08DFC3C4E3C4DB3690133B3612B68002B3AD0EB6D4C
:20060000002B2AD0E26A2B6E01332B66E3636B6E934200D26A6630009600B618B6001C30DF
:200620008019390002F040FE02F07AFCEB6D0126002B09D02B68DA6AE36A9A4204D202F005
:2006400057FC01E00126764230003CBC90469946A246AB46F8BD0425A2E72B68E26ADB6A46
:200660009342D0D82C60CEE70126380002F084FD7642E9E72C60B369012BC3D130001C307E
:2006800002F002FE3000303002F0FEFD3000443002F0FAFD3000583002F0F6FD30006C30F5
:2006A00002F0F2FD2B1D1800994602F0EDFD18239846A844404602F0E7FD28002C3002F067
:2006C000E3FD301D02F0E0FD2800403002F0DCFD4B466B654346AB6594E73423E5545CE773
:2006E00040010020C0010020F8B5050002F00CFC224C002D38D02F1D380002F0F9FDAB6AE8
:20070000002B03D02800183002F0F2FD236E013323662368AB421ED0194A286B9369013BA8
:20072000936102F029FD280002F026FD636D1B68002B0DD0636DDB68DB685B68A36602F001
:20074000EFFBE36D002B02D02368AB420ED0F8BD013BA366F3E70A4E3900301D02F0A4FDC7
:20076000336801333360EAE72568C4E7E36E002B01D072B6FEE702F0BBFBE8E7C00100205C
:2007800040010020F0B5C646050000B5002820D0184E00203368AB4218D002F0B5FB736DFD
:2007A0006C699846B76D02F0BBFB44451ED0BC421CD04036B4420ED00F4B04339C4217D0B9
:2007C00063425C41032064422040013004BC9046F0BD72B6FEE7AB6A0220002BF6D1503381
:2007E000E85C0138431E98410230EFE70220EDE70420EBE7C00100204001002010B5040043
:2008000002F082FB002C04D0E46A02F089FB200010BD014B1C68F7E7C001002010B5040060
:2008200002F08CFB002C04D0E46A02F08BFB200010BD014B1C68F7E7C0010020F0B5C6464C
:2008400004000D0000B5042901D972B6FEE702F05BFB002C26D0626C95421ED0224F24D854
:200860003E68361B73425E41E16A8A4200D1E562A3696564002B02DB05235D1BA5611B4D13
:200880008B002A005B181C329B00D31862699A4214D0002E01D002F02BFB02F041FB04BCCC
:2008A0009046F0BD104B1C68D5E73B68A34218D000263B68DB6A9D427641D5E7231D1800F2
:2008C000984602F015FDE36A7A6E934200D97B669800C0181C3580004146281802F0E4FC98
:2008E000D7E70026C0E7C046C00100204001002070B5041E0DD0184D2B68834208D002F07A
:2009000003FB2B00626940339A4204D002F008FB70BD72B6FEE72A00A36A2C329342F5D062
:20092000002BF3D1261D300002F0E2FCE26A6B6E9A4200D96A66930008489B189B001C305E
:20094000C018310002F0B0FC2B68E26ADB6A9A42DCD302F0CDFAD9E7C00100204001002086
:20096000F0B5C646040000B5002810D002F0E6FA1C4D62692B004033070000269A4208D080
:20098000380002F0DFFA300004BC9046F0BD72B6FEE72800A36A2C308342F1D0002BEFD1D2
:2009A000EB6E002B18D12B68E26ADB6A9A427641231D1800984602F09BFCE26A6B6E9A4253
:2009C00000D96A66930008489B189B001C304146C01802F069FCD3E72100183102F064FCC5
:2009E000CEE7C046C001002040010020F8B58020CE464746400080B502F01AFB051E68D035
:200A0000542002F015FB041E60D08022A52152000563280003F0C0F94D4B0025636338233A
:200A2000266B271DE5540333E5543800E5626564A56402F035FC2000183002F031FC052316
:200A40003000A3614B33E56424616462FC30E554493B984300223F4902F02CFA3E4D2060BF
:200A60002C6702F051FA3D4EB3690133B3612B68002B37D0EB6D002B2DD0E36A2A6E01325A
:200A80002A66E2636A6E9A4200D26B669800C0181C3680003900301802F006FC02F040FA47
:200AA000EB6D002B04D02B68DA6AE36A9A424CD372B601235B42AB660233EB6500236B674C
:200AC00002F08EFA0CBC90469946F8BD280002F053FB72B6FEE72A68E36AD26A9A42CDD859
:200AE0002C60CBE72C60B369012BC6D130001C3002F0CAFB3000303002F0C6FB3000443033
:200B000002F0C2FB3000583002F0BEFB30006C3002F0BAFB2B1D1800994602F0B5FB182334
:200B20009846A844404602F0AFFB28002C3002F0ABFB301D02F0A8FB2800403002F0A4FBA2
:200B40004B466B654346AB6597E702F0D1F9AFE749444C45AD040008C001002040010020B2
:200B600010B572B60022024BDA6502F0B5F910BDC0010020024AD36E0133D3667047C046D5
:200B8000C0010020014B586F7047C046C0010020014B586F7047C046C0010020014B9869C5
:200BA0007047C04640010020002801D034307047024B18680028F9D172B6FEE7C001002056
:200BC000F0B5D6464F464646434CC0B5E36E002B6BD1676F01376767002F10D1636D1B6838
:200BE000002B69D1636DA26D6265A365A36F0133A367636D1B68002B60D1013BA366A36E8D
:200C00009F4238D3636D00251B68344E002B5BD01C239A46B24425E00423434418009946D9
:200C200002F066FB43469B6A002B03D04046183002F05EFB4346626EDB6A934200D96366A7
:200C40009800C01880004946504402F02DFB42462368D26ADB6A9A4200D30125636D1B68AB
:200C6000002B31D0636DDB68DB6898465B689F42D2D2A36601E00025184E2368DA6A9300F5
:200C80009B189B00F618F369012B00D90125E36F002B1DD0124B1B68002B00D001252800DE
:200CA0001CBC90469946A246F0BDE36F00250133E367FFF7C1FAF2E772B6FEE7636DDB6873
:200CC000DB685B68A3669AE701235B42A366D4E7FFF7B2FADEE7C046C00100204001002050
:200CE00040020020F8B5CE46474680B502F00CF9334CE36E013BE366E36E002B4BD1314FAB
:200D0000BB69002B47D0E36A002B56D02E4B1C37984601239946A36BDD6828002E1D183014
:200D200002F0E6FA300002F0E3FAEB6A626E934200D963669800C01880003100381802F0E3
:200D4000B3FA2368EA6ADB6A9A422CD343464A461A60E36A002BDED1636D1B68002B29D0B6
:200D6000636DDB68DB685B68A366E56F002D0AD00126FFF725FF002801D043461E60013D77
:200D8000002DF6D1E56743461B68002B03D002F0AFF8012400E0002402F0C2F820000CBCB3
:200DA00090469946F8BDE36A002BB4D1636D1B68002BD5D1013BA366D7E7034B9846D4E7BE
:200DC000C00100204001002040020020044B10B5DB6E002B01D172B6FEE7FFF783FF10BDC3
:200DE000C0010020F8B5002817D0002901D172B6FEE71F4EF36E002B11D1F36E0133F36685
:200E00000268756F54180460AA420FD9A2420FD8F36E002B05D172B6FEE772B6FEE772B671
:200E2000FEE7FFF75FFF002819D0F8BDA24201D8A542EDD2776F30687D1B043002F058FAC2
:200E4000336864195C60A7420CD8706D3168043102F036FAB36E9C42DAD2B466D8E702F0AE
:200E600047F8E2E7B06D3168043102F029FACFE7C001002070B5051E09D0174CE36E002BD3
:200E800008D072B6FEE7FFF72DFF002801D102F02FF870BDE36E0133E366666F2068AD191A
:200EA000043002F025FA23685D60AE4209D9A06D2168043102F004FAE36E002BE3D172B6C0
:200EC000FEE7606D2168043102F0FAF9A36E9D42F2D2A566F0E7C046C00100200A4B10B526
:200EE000DA6E002A01D072B6FEE7DA6E0132DA66DA6F1218DA67DB6E002B01D172B6FEE7E0
:200F0000FFF7F0FE10BDC046C0010020F0B54E4691460822DE46574645469346E0B54B6892
:200F20008B445B6804000F0083B05B456CD0DA685B68019200229046344A7B6092469B455C
:200F40002FD0DE68351E32D02B0034336360EB6A296B2361EB6B2560A3606B6CE16163617A
:200F60000023A36153461B68AB4223D04B462373032B35D00B78A52B21D100230133CA5C32
:200F8000A52AFBD09B089BB2238401239C46019BE0442434B3421BD07B685B687B609B45C1
:200FA000CFD15B465B68DE687B60351ECCD153461D68C9E7002323730B78A52BDDD0002372
:200FC000238401239C46019BE0442434B342E3D1404603B03CBC90469946A246AB46F0BD37
:200FE00053465246DB6E0133D366AB6A002B01D0022323735346DB6E002B01D172B6FEE752
:20100000FFF770FE296BB5E7CB6890E7C0010020F0B54F464646D646384DC0B5EB6E060076
:2010200001339146EB66364F0024BB698B4257D86C239A46673B98460022BA4401235B42BB
:201040009C46E04443469B0043449B00FB181019DB6980003018002B08D001225146FFF749
:2010600055FF2418E20010198000301814235B429C464346E244002BE0D1696D0B68002B58
:2010800007D00222FFF742FF2418E000001980003018A96D0B68002B07D00222FFF736FF47
:2010A0002418E0000019800030187B68002B08D00422391DFFF72AFF2418E00000198000FD
:2010C00030182B6C002B05D0290003224031FFF71DFF24184B46002B02D000234A46136070
:2010E000EB6E002B01D172B6FEE7FFF7FBFD20001CBC90469946A246F0BDC046C001002076
:201100004001002070B5374CE36E002B03D00122354B1A6070BD344A3449136023681B6BAE
:201120001A688A4202D15968914251D0206821683431FFF78BF8626E2D49930098188000E1
:201140000818C069002835D1002A2FD0531E9800C01880000818C069002829D1002B25D003
:20116000931E9800C01880000818C06900281FD1002B1BD0D31E9800C01880000818C0692D
:20118000002815D1002B11D0131F9800C01880000818C06900280BD1002B07D0531F9A00B8
:2011A000D21892008A18D269002A01D172B6FEE71A009B009B189B00CD182900286A2431D5
:2011C0004068286288420AD0C36823606266A1E79A688A42AAD1DB689342A7D1ABE7406828
:2011E0002862F1E7C001002040020020A5A5A5A54001002070B5050001F086FE244C002D19
:201200001ED02E1D300002F073F8AB6A002B03D02800183002F06CF820003100403002F07C
:2012200043F85023EA5C012A01D10022EA5401F077FEE36D002B0DD12368AB4202D070BD27
:201240002568DEE7E36D002B15D0E36E002B1CD072B6FEE701F058FE636D1B68002B07D0CB
:20126000636DDB68DB685B68A36601F059FEE3E7013BA366F9E7074A216C9269914201D197
:201280002360DCE7FFF73EFFD9E701F031FED6E7C00100204001002070B50D00002816D0B6
:2012A000144C2168183102F00BF8666F2068043002F01EF86B1C0CD02368AD195D60AE420D
:2012C0000ED9A06D2168043101F0FAFF70BD72B6FEE7200021684030043101F0E5FFF5E739
:2012E000606D2168043101F0EBFFA36E9D42EDD2A566EBE7C001002070B51500002805D0E4
:20130000194CE36E002B03D172B6FEE772B6FEE780231B060B43226821689361183101F0AB
:20132000C3FF666F2068043001F0E2FF6B1C0AD02368AD195D60AE420CD9A06D2168043179
:2013400001F0BEFF05E0200021684030043101F0ABFF70BD606D2168043101F0B1FFA36EA7
:201360009D42F6D2A566F4E7C0010020C36870B5DC68002C2BD026001836300001F0B8FFF8
:20138000144DEB6E002B0FD0280031002C3001F08BFF2B68E26ADB6A00209A4203D901223A
:2013A0000D4B01301A6070BD261D300001F0A0FFE26A6B6E9A4200D96A66930007489B18BB
:2013C0009B001C303100C01801F06EFFE1E772B6FEE7C046C0010020400200204001002040
:2013E00070B5164DEB6E002B01D172B6FEE78023C4681B060B430360002C1CD0261D01F015
:2014000077FF300001F074FFE26A6B6E9A4200D96A6693000A489B189B001C30C018310090
:2014200001F042FF2B68E26ADB6A9A4202D90122044B1A6070BD72B6FEE7C046C001002092
:20144000400100204002002010B5041E09D001F05BFD054B9A6F5B6F2260636001F060FD0A
:2014600010BD72B6FEE7C046C0010020024B9A6F5B6F026043607047C0010020F8B504003D
:201480000D00002821D000291DD001F03DFD134A2B68506F591C1AD0966F27686168B74281
:2014A00002D0012681420AD9461AB34211D900261B1A5B182B60936F2360536F636001F0FA
:2014C0002FFD3000F8BD72B6FEE772B6FEE70026F5E7002301262B60F1E7C046C00100204B
:2014E0000122014B1A60704740020020002801D0006C70470020FCE7002800D001647047B7
:20150000F0B54F464646D6460400C0B50D0016003E4F00282ED0220034326A60E26A2C6070
:201520002A61226BEA61E26BAA60626C6A610022AA61052B2DD03968A14217D02B73032BC7
:201540001AD0002E0CD0226B1378A52B4BD100230133D15CA529FBD09B089BB22B8400E0F7
:201560002E841CBC90469946A246F0BD2A73002EF6D0E8E73C68CEE7FB6E0133FB66A36AD3
:20158000002B01D002232B73FB6E002B25D172B6FEE73A680023A2421BD001F0B5FC6369F3
:2015A00098467B6D9A46BB6D994601F0B9FCD04516D0C84514D04037B84517D0144B0433FB
:2015C00098451FD043465A4253415A420323134001332B73002EC3D0B5E7FFF783FBB0E737
:2015E00002232B73F6E700232B84BAE7A26A0223002AEED14E33E35C013B5A1E9341023341
:201600002B73E7E704232B73E4E7C046C001002040010020014B18687047C046C00100201C
:20162000F8B5041E23D01E4DC26A2B68DB6A9A4216D28369002B04DB2B68D96A05235B1A4C
:201640008361184E930031009B181C319B006269CB189A420DD02B680120DB6AE36205E057
:201660002B68406CDB6A984280414042F8BD0020FCE7271D380001F03BFE2B686A6EDB6ABB
:20168000E362934200D96B6630009E00F6181C30B6008019390001F007FE0120E6E7C046EC
:2016A000C00100204001002070B5002810D0164E3468844201D072B6FEE7A36C002B09D004
:2016C000E26A616C013BA3648A4201D0002B03D0002070BD72B6FEE7251D280001F008FE58
:2016E0000522636CD21AA261726EE362934200D9736606489A00D3189B001C30C01829009E
:2017000001F0D2FD0120E4E7C001002040010020F8B5041E33D0836C002B01D172B6FEE710
:20172000426C8A4200D20A00E16A914227D0012B25D1144F3B68A34222D0A369E262002BC4
:2017400002DB05239A1AA2610F4D8B002A005B181C329B00D31862699A4210D1261D30007A
:2017600001F0C6FDE36A7A6E934200D97B669800C0181C3580003100281801F095FDF8BD07
:2017800072B6FEE7C001002040010020F0B50023DE464E4645465746E0B50370274B0400D4
:2017A0009D699B6983B0D800C018800001F040FC814600283AD000222900FFF729FC002808
:2017C00031D04B461D1DC30018181D4B80009A46002380469B46A8442B7A0027042B01D8F8
:2017E000184AD75C2000296803F088F90600031B062B07D8221A2021073202F0CDFA5B46EB
:20180000E61DE3716A68EB680192AA8B5146009230003A0003F000F9300003F093F92435FD
:201820003418A845D8D1484601F0A6FC03B03CBC90469946A246AB46F0BDC0464001002058
:201840004C630008205F0008044B1A68196890691A680523C96A5B1A93617047C001002021
:20186000044B1A68002A03D019688A6C01328A6418687047C0010020F8B506000D0001F039
:2018800043FB244C2368DB6C002B05D1012122685033D154002D17D101F042FB01F034FB10
:2018A0002368DD6C002D04D02368002E09D00022DA64502300212268D15401F031FB2800D9
:2018C000F8BD6A1EDA64F4E7676F2068043001F00FFD6B1C0CD02368ED195D60AF420ED99A
:2018E000A06D2168043101F0EBFC01F001FBD3E7200021684030043101F0D6FCF5E7606DE4
:201900002168043101F0DCFCA36E9D42EDD2A566EBE7C046C0010020F0B5C64600B5150052
:201920001E000700884601F0EFFA5023284C2268D25C022A08D02168CA6CBA43CA6401212B
:201940002268D154002E1ED101F0EAFA01F0DCFA002D02D02368DB6C2B60502322680025A1
:20196000D35C022B05D1414622680135D36C8B43D364502300212268D15401F0D1FA280083
:2019800004BC9046F0BD676F2068043001F0B0FC731C0CD02368F6195E60B7420ED9A06D25
:2019A0002168043101F08CFC01F0A2FACCE7200021684030043101F077FCF5E7606D2168CC
:2019C000043101F07DFCA36E9E42EDD2A666EBE7C0010020F8B504000E0015001F000028DE
:2019E00010D001F091FA002F01D0E36C3B6050220221A35CA154DBB2042D27D8204AAD0044
:201A00005259974672B6FEE7E26C1643E664012B04D0012401F084FA2000F8BD261D300064
:201A200001F066FC174DE26A6B6E9A4200D96A66154893009B189B001C30C018310001F0C1
:201A400033FCA36A002B10D072B6FEE7E26C0132DDD072B6FEE7022B0FD0E664012BD8D1CC
:201A6000DCE7E26C0132E264D1E72B68E26ADB6A9A42CED901F03CFACBE70024CAE7C046C9
:201A8000F85E0008C001002040010020F0B5CE4604000E001500994600B5002813D001F036
:201AA0004DFA4B460700002B02D04A46E36C136050220221A35CA154DBB2042D2FD8294A37
:201AC000AD005259974672B6FEE7E16C3143E164012B1CD1A36A002B01D072B6FEE7224D20
:201AE000EB6E002B2AD0280021002C30183101F0DBFB2B68E26ADB6A9A4208D9069B002B06
:201B000002D01A00012313600122184B1A600124380001F017FA200004BC9146F0BDE26C31
:201B20000132D5D072B6FEE7022B05D0E664CFE7E26C0132E264CBE70024E9E7261D3000DE
:201B400001F0D6FBE26A6B6E9A4200D96A66930007489B189B001C303100C01801F0A4FB04
:201B6000C7E7C0460C5F0008C00100204002002040010020F0B5C64604000E0000B50028FA
:201B800039D001F0DBF950230221E25CE154E36C07000133E364012A27D1A36A002B01D071
:201BA00072B6FEE7184DEB6E002B26D1231D1800984601F09DFBE26A6B6E9A4200D96A66CF
:201BC000124893009B189B001C304146C01801F06BFB2B68E26ADB6A9A4206D9002E01D0EA
:201BE0000123336001220A4B1A60380001F0AAF904BC9046F0BD72B6FEE7280021002C307B
:201C0000183101F051FBE4E7C0010020400100204002002070B5041E0CD001F075F95023DA
:201C2000E25C0025022A01D1E554013501F078F9280070BD014B1C68EFE7C046C001002090
:201C400070B504000D00084E00280AD001F05CF93368DE6CE36CAB43E36401F061F93000CC
:201C600070BD3468F2E7C046C001002070B51600026C0400856B002A06D10668002E2AD0A7
:201C800001350020A56370BD002E0FD1406802F02FF8226C63689446A2686344636093426E
:201CA000EED32368002063600135EBE7C06802F01FF8E168236C5A42CB1A2168E3608B42CA
:201CC00003D2A3689C466244E260022ED8D1002DD7D10135D5E78068FFF7E6FC0135A660BE
:201CE000D0E7C04670B504000D0000281BD001F00BF9216CE36B22684B43D0185B1AD318AE
:201D0000A0606260E3604422FF230020A063A3540132A354002D11D12369002B05D101F065
:201D2000FFF8012070BD72B6FEE720001030FFF71DFB0028F3D001F0DBF8F0E720001030FD
:201D400001F0A2FA2000243001F09EFAE7E7C046F8B506000D001700002801D172B6FEE747
:201D600008007043503001F063F9041E24D00300002D23D12360E663256401F0C5F8226C10
:201D8000E36B21685343C818A06000209B1ACB18E3604422FF23A06320006160A354013265
:201DA000A354103001F070FA2000243001F06CFA01F0B6F84C23E7542000F8BD5033D9E765
:201DC00070B505000E00002801D172B6FEE7884201D272B6FEE7502001F02AF9041E23D081
:201DE000C56300250060056401F08EF8216CE36B22684B43D0185B1AD3186260E3604422B0
:201E0000FF23A0602000A563A3540132A354103001F03AFA2000243001F036FA01F080F8F4
:201E20004C230222E254A663200070BDF0B5D64646464F46C0B584B0041E88469A46019295
:201E400000D105E1002900D19EE053460025022B00D19FE0260001F057F8A36BE26B2436FD
:201E600093427CD35346022B79D0019B002B00D1F0E0002D00D1E7E001F052F8FEF77AFE5A
:201E800001F042F84422A35C5BB2013301D10023A3544522A35C5BB2013301D10023A354F2
:201EA00001F03EF801A902A8FFF7E8FA002800D0DCE001F029F8A36BE26B934200D16FE0B9
:201EC00001F02EF801F020F84523E55C6DB2002D05DC13E0013DEBB26DB2002B0ED0636A49
:201EE000002B0BD03000FFF741FA0028F2D0013DFFF7F6FAEBB26DB2002BF0D14523FF223C
:201F0000E25401F00DF800F0FFFF4423E55C6DB2002D16DD2700103704E0013DEBB26DB274
:201F2000002B0ED02369002B0BD03800FFF71EFA0028F2D0013DFFF7D3FAEBB26DB2002BEE
:201F4000F0D14423FF22E25400F0EAFFFEF73EFF012500F0D9FFA36BE26B934282D25246ED
:201F600041462000FFF782FE636A002B00D078E0002800D072E000F0D3FF012004B01CBC6B
:201F800090469946A246F0BD036C002B00D15CE772B6FEE7E36B012B00D15BE772B6FEE7A2
:201FA00000F0BEFF10239946A14448460199FFF773F900F0A9FF4523E55C6DB2002D05DC85
:201FC00013E0013DEAB26DB2002A0ED0636A002B0BD03000FFF7CAF90028F2D0013DFFF733
:201FE0007FFAEAB26DB2002AF0D14523FF22E25400F096FF00F088FF4423E55C6DB2002D13
:2020000005DC13E0013DEAB26DB2002A0ED02369002B0BD04846FFF7A9F90028F2D0013D0B
:20202000FFF75EFAEAB26DB2002AF0D14423FF22E25400F075FFFEF7C9FE002800D087E768
:2020400000F056FF012584E702A8FFF70FFA13E772B6FEE700F064FF00208FE700F048FFDA
:2020600089E720002430FFF781F981E700F04CFF4523E55C6DB2002D12DD2600243604E021
:20208000013DEBB26DB2002B0AD0636A002B07D03000FFF76BF90028F2D0FFF721FAEFE717
:2020A0004523FF22E25400F03BFF00F02DFF4423E55C6DB2002D12DD2600103604E0013DAA
:2020C000EBB26DB2002B0AD02369002B07D03000FFF74CF90028F2D0FFF702FAEFE744232D
:2020E000FF22E25400F01CFFFEF770FE002045E770B50600502000F09BFF041E2BD0002568
:2021000001230060C363056400F0FEFE216CE36B22684B43D0185B1AD3186260E36044221A
:20212000FF23A0602000A563A3540132A354103001F0AAF82000243001F0A6F800F0F0FE80
:202140004C230022E654002100232000A5602560E560FFF76BFE200070BDC04670B5041E88
:2021600007D08668FFF756FA0025864203D0280070BD72B6FEE7E3680135013BE360002B07
:20218000F5D1002200212000FFF750FEEFE7C046F0B54F46D64646460400C0B591460F00B5
:2021A0009A4600281FD0002918D05346022B04D1E36B012B19D072B6FEE700F0BFFEA36B51
:2021C000E26B0600934214D30025300000F0BAFE28001CBC90469946A246F0BD036C002B0F
:2021E000E3D072B6FEE772B6FEE700F0A7FE0600A36B4523E55C52466DB2390020009846D2
:20220000A36BFFF733FD6B1C05D0434601356DB2E5540125D9E7636A0235002BD5D020003D
:202220002430FFF7A3F80028CFD04B46002BCCD01D60CAE7F8B504000E0000281FD0036C27
:20224000002B01D072B6FEE70368002B19D000F075FEA26BE36B0700002593420AD94521EE
:20226000635C01325BB2A2635A1C0FD001335BB263540125380000F065FE2800F8BD72B657
:20228000FEE78368002BE2D072B6FEE7636A002BEFD020002430FFF769F80028E9D0002EF3
:2022A000E7D0012301253360E4E7C046F0B54746CE4680B585B0041E8846019200D12EE1A6
:2022C000002900D125E100F01FFEA56B002D00D027E1019B002B00D1CBE0270002A8FFF7D2
:2022E000C5F84426243700F01BFEFEF743FC00F00BFEA35D5BB2013301D10023A355452291
:20230000A35C5BB2013301D10023A35400F008FE01A902A8FFF7B2F8002855D100F0F4FD78
:20232000A36B002B00D0ACE000F0FAFD38000199FEF7B2FF00F0E8FD4523E55C6DB2002DDF
:2023400005DC13E0013DEBB26DB2002B0ED0636A002B0BD03800FFF709F80028F2D0013D7C
:20236000FFF7BEF8EBB26DB2002BF0D14523FF22E25400F0D5FD00F0C7FD10239946A55DC0
:20238000A1446DB2002D05DC13E0013DEBB26DB2002B0ED02369002B0BD04846FEF7E6FF3B
:2023A0000028F2D0013DFFF79BF8EBB26DB2002BF0D1FF23A35500F0B3FDFEF707FD0028E9
:2023C0004ED100F095FD4BE000F09EFD4523E55C6DB2002D05DC13E0013DEBB26DB2002BB8
:2023E0000ED0636A002B0BD03800FEF7BFFF0028F2D0013DFFF774F8EBB26DB2002BF0D10F
:202400004523FF22E25400F08BFD00F07DFD10239946A55DA1446DB2002D05DC13E0013DC4
:20242000EBB26DB2002B0ED02369002B0BD04846FEF79CFF0028F2D0013DFFF751F8EBB223
:202440006DB2002BF0D1FF23A35500F069FDFEF7BDFC00F059FDA36B002B0AD000F060FDAD
:2024600000F052FDA56B002D5BD1019B002B00D039E700F055FD002005B00CBC9046994669
:20248000F0BD00F04DFD00F03FFD4523E55C6DB2002D05DC13E0013DEBB26DB2002B0ED05D
:2024A000636A002B0BD03800FEF760FF0028F2D0013DFFF715F8EBB26DB2002BF0D1452382
:2024C000FF22E25400F02CFD00F01EFD10239946A55DA1446DB2002D05DC13E0013DEBB28D
:2024E0006DB2002B0ED02369002B0BD04846FEF73DFF0028F2D0013DFEF7F2FFEBB26DB299
:20250000002BF0D1FF23A35500F00AFDFEF75EFCA6E7036C002B00D1D5E672B6FEE772B687
:20252000FEE7226C002A0AD0E3689918A368E160994201D32168E160404601F0D9FB013DDA
:20254000A5632369002B03D100F0EAFC012093E720001030FEF70AFF0028F5D000F0C8FC78
:20256000F2E7C046F0B5C64600B584B0041E019100D1E7E0036C002B00D088E00700002598
:202580000026243700F0C0FCA36B002B00D03EE1019B002B00D146E1002E00D1D4E000F084
:2025A000BFFCFEF7E7FA00F0AFFC4422A35C5BB2013301D10023A3544522A35C5BB20133B6
:2025C00001D10023A35400F0ABFC01A902A8FEF755FF00285DD100F097FCA36B002B00D0F9
:2025E000B6E000F09DFC2368002B00D12FE138000199FEF751FE00F087FC4523E65C76B2CA
:20260000002E05DC13E0013EF3B276B2002B0ED0636A002B0BD03800FEF7A8FE0028F2D013
:20262000013EFEF75DFFF3B276B2002BF0D14523FF22E25400F074FC00F066FC4423E65C37
:2026400076B2002E17DD343B9846A04404E0013EF3B276B2002B0ED02369002B0BD04046EE
:20266000FEF784FE0028F2D0013EFEF739FFF3B276B2002BF0D14423FF22E25400F050FCDA
:20268000FEF7A4FB002800D1ADE001267AE772B6FEE700F039FC4523E65C76B2002E05DC85
:2026A00013E0013EF3B276B2002B0ED0636A002B0BD03800FEF75AFE0028F2D0013EFEF79C
:2026C0000FFFF3B276B2002BF0D14523FF22E25400F026FC00F018FC4423E65C76B2002E5F
:2026E00017DD343B9846A04404E0013EF3B276B2002B0ED02369002B0BD04046FEF736FE7B
:202700000028F2D0013EFEF7EBFEF3B276B2002BF0D14423FF22E25400F002FCFEF756FB07
:2027200000F0F2FBA36B002B03D000F0F9FB012628E700F0F5FB002D59D1280004B004BCC3
:202740009046F0BD72B6FEE702A8FEF78FFE26E700F0E6FB00F0D8FB4523E65C76B2002E1C
:2027600005DC13E0013EF3B276B2002B0ED0636A002B0BD03800FEF7F9FD0028F2D0013E51
:20278000FEF7AEFEF3B276B2002BF0D14523FF22E25400F0C5FB00F0B7FB4423E65C76B2FD
:2027A000002E17DD343B9846A04404E0013EF3B276B2002B0ED02369002B0BD04046FEF7C0
:2027C000D5FD0028F2D0013EFEF78AFEF3B276B2002BF0D14423FF22E25400F0A1FB012657
:2027E000FEF7F4FACEE600F083FB0126CAE600F08BFB616A002903D00521236B1B68C91AA6
:20280000A068FEF785FF002500F08AFB95E7013BA3632368002B16D02369002B0AD100F0C1
:202820007FFB012589E7002D01D072B6FEE700F077FB82E720001030FEF798FD0028EED0E2
:2028400000F056FBEBE7FFF70BF8A060E4E700F05BFBA068FEF7E4FE050000F061FBC6E67F
:2028600070B504000D00002813D08668FEF7D2FE864209D029002000FFF774FE002807D013
:20288000E3680133E36003E00120E3680133E36070BD72B6FEE7C046F0B54746CE4680B5F5
:2028A00085B0041E8846019200D12EE1002900D125E100F029FBA36B002B00D027E1019BBF
:2028C000002B00D1CBE0270002A8FEF7CFFD4426243700F025FBFEF74DF900F015FBA35DAF
:2028E0005BB2013301D10023A3554522A35C5BB2013301D10023A35400F012FB01A902A8C6
:20290000FEF7BCFD002855D100F0FEFAA36B002B00D0ACE000F004FB38000199FEF7BCFCD0
:2029200000F0F2FA4523E55C6DB2002D05DC13E0013DEBB26DB2002B0ED0636A002B0BD01C
:202940003800FEF713FD0028F2D0013DFEF7C8FDEBB26DB2002BF0D14523FF22E25400F001
:20296000DFFA00F0D1FA10239946A55DA1446DB2002D05DC13E0013DEBB26DB2002B0ED0A7
:202980002369002B0BD04846FEF7F0FC0028F2D0013DFEF7A5FDEBB26DB2002BF0D1FF23AD
:2029A000A35500F0BDFAFEF711FA00284ED100F09FFA4BE000F0A8FA4523E55C6DB2002DF6
:2029C00005DC13E0013DEBB26DB2002B0ED0636A002B0BD03800FEF7C9FC0028F2D0013D33
:2029E000FEF77EFDEBB26DB2002BF0D14523FF22E25400F095FA00F087FA10239946A55DFC
:202A0000A1446DB2002D05DC13E0013DEBB26DB2002B0ED02369002B0BD04846FEF7A6FCF7
:202A20000028F2D0013DFEF75BFDEBB26DB2002BF0D1FF23A35500F073FAFEF7C7F900F05D
:202A400063FAA36B002B0AD000F06AFA00F05CFAA36B002B5BD1019B002B00D039E700F060
:202A60005FFA002005B00CBC90469946F0BD00F057FA00F049FA4523E55C6DB2002D05DCB4
:202A800013E0013DEBB26DB2002B0ED0636A002B0BD03800FEF76AFC0028F2D0013DFEF7BD
:202AA0001FFDEBB26DB2002BF0D14523FF22E25400F036FA00F028FA10239946A55DA14468
:202AC0006DB2002D05DC13E0013DEBB26DB2002B0ED02369002B0BD04846FEF747FC002853
:202AE000F2D0013DFEF7FCFCEBB26DB2002BF0D1FF23A35500F014FAFEF768F9A6E7036CD7
:202B0000002B00D1D5E672B6FEE772B6FEE7226CE568002A09D0A368A918E160994201D34A
:202B20002168E160404601F0E3F8636AE560002B03D100F0F5F9012094E720002430FEF785
:202B400015FC0028F5D000F0D3F9F2E7F8B5CE46474604008946160080B5002816D000293F
:202B60000FD000F0EBF9A36B070098460025002B0ED1380000F0E6F928000CBC90469946D4
:202B8000F8BD036C002BECD072B6FEE772B6FEE74423226CE55C6DB2002A0AD0E3689918BB
:202BA000A368E160994201D32168E160484601F09FF84346013BA3636B1C05D04423013576
:202BC0006DB2E5540125D4E72369002BFAD020001030FEF7CBFB0028F4D0002EF2D0012320
:202BE00001253360C5E7C046F8B504000D0000280AD0036C002903D0002B07D172B6FEE72F
:202C0000002BFBD072B6FEE772B6FEE700F096F9A36B06000027002B04D1300000F092F93F
:202C20003800F8BD226CE768002A09D0A368B918E160994201D32168E160280001F058F8C8
:202C4000E7600127E9E7C04610B5041E06D000F05BF9A46B00F064F9200010BD72B6FEE7D8
:202C600010B5041E08D000F04FF9A36BE46BE41A00F056F9200010BD72B6FEE7002801D0D0
:202C8000806B704772B6FEE770B500281BD01A4B5A68904229D0DA6890422AD05A699042B8
:202CA00025D0DA6990421CD05A6A904217D0DA6A904218D05A6B904207D0DA6B90420CD042
:202CC00000F05AFA70BD72B6FEE7062200240025D2009B181C605D60F2E70722F6E7042242
:202CE000F4E70322F2E70522F0E70022EEE70222ECE70122EAE7C04648020020806C704708
:202D0000816470474C23C05C7047C046002803D0806B43425841704772B6FEE7002805D00A
:202D2000826BC06B801A43425841704772B6FEE7164B1A68002A15D09A68002A18D01A6976
:202D4000002A17D09A69002A16D01A6A002A15D09A6A002A14D01A6B002A13D09A6B002AE9
:202D600012D070470022D20099509B185860F8E70122F8E70222F6E70322F4E70422F2E791
:202D80000522F0E70622EEE70732ECE748020020164A03005168884216D0D168884217D00C
:202DA0005169884216D0D169884215D0516A884214D0D16A884213D0516B884212D0D16BCB
:202DC0000020994210D070470023DB00D058FAE70123FAE70223F8E70323F6E70423F4E74C
:202DE0000523F2E70623F0E70723EEE748020020174B5A68904215D0DA6890421AD05A69CD
:202E0000904219D0DA69904218D05A6A904217D0DA6A904216D05A6B904215D0DA6B8242FC
:202E200014D07047002200200021D2009B1818605960F6E70122F6E70222F4E70322F2E704
:202E40000422F0E70522EEE70622ECE70722EAE7480200200000000000000000000000001A
:202E6000002382B00193064B1B68013301D072B6FEE772B6019B002BFCD002B07047C04659
:202E8000C00000200A4A13681868203080F30988022080F31488BFF36F8F3FBCAE4608BC1B
:202EA00004BC62B61847C046C046C046C046C046C001002010B58024031F64041C60043B2E
:202EC00019600349043B1960143B40381A6010BD612E00087047C046FA23044A9B00126893
:202EE0009A4201D072B6FEE77047C046C00000208022044B52051A60BFF34F8FBFF36F8F79
:202F00007047C04604ED00E072B6044A136801331360BFF34F8FBFF36F8F7047C0000020B4
:202F2000054A1368002B01D172B6FEE7013B1360002B00D162B67047C0000020EFF31080F1
:202F400072B6704780F310887047C046EFF309800F4B1A6820381060F0C044464D46564652
:202F60005F46F0C008B572B6FEF7CCF862B60CBC116808681030F0C8A046A946B246BB46CF
:202F800080F309882038F0C81847C046C046C046C001002010B5FFF7D1FF0400FDF710FE3A
:202FA000002803D08022034B52051A602000FFF7C9FF10BD04ED00E00022054B05491A609F
:202FC0000A60054A0549116007221A607047C04610E000E018E000E014E000E07FBB000063
:202FE000FF22114B1204196830B50A431A60FF220025196812060A4383B01A60FFF7DCFF67
:203000000A4C2560FFF73EFFFEF77CF823680195013301D072B6FEE772B6019B002BFCD04B
:20302000002003B030BDC04620ED00E0C0000020F0B5D6464F464646C0B50400FDF79AFD17
:203040004B4B9868002837D0DA6892465246224227D1002C25D0220007210832114201D0D4
:203060008A430832002A1CD059698C46914218D31F001C6804E02668002E04D0270034006F
:2030800061689142F7D384420BD02600256808363D608F1A102F40D9A1184D0726D072B66F
:2030A000FEE7FDF793FE0026FDF7CEF830001CBC90469946A246F0BD07202E49084242D179
:2030C000C022120188180A00072600250838B0435D601960456005608025821A2D06AA4628
:2030E00005C198601A615A61DD60AFE74F6062601A00904612689142FBD845466F68B94627
:20310000C144494526D04F68CD19AA4227D00A60884501D042461160616862461869521A47
:203120005A6182420DD30022554622609A690D43013265609A61FDF749FE7307B6D072B648
:20314000FEE71A61EFE7CA1D8243C020000108181100B9E749687F186F604146D4E78242BE
:20316000D5D05068126881464F444F600A60CFE788020020A8020020F8B5041E2DD01C4EA5
:20318000083C6368F2681A4204D02168002903D072B6FEE772B6FEE793436360FDF7EAFC84
:2031A0007369616825005B18736133001A001B689C42FBD850681718BC4202D1150009188F
:2031C00051606818834209D02B60AA4200D01560F3690133F361FDF7F9FDF8BDB068834204
:2031E000F2D058681B688446614469602B60ECE788020020014B58697047C0468802002016
:20320000014B18697047C046880200207047C046F0B5C64600B50700FDF7ACFC194B984672
:203220001B68002B28D0424601250026002491686D425A680134964200D21600954200D9E1
:2032400015001B689942F4D1FDF7C0FD7E60BD60FC60FFF759FE43465B693B6043469B696C
:203260007B614346DB69BB6143461B693B61FFF757FE04BC9046F0BD0125002600246D4233
:20328000E2E7C046880200200300012208334360C360036100235242826003607047C04671
:2032A000002303617047C04643689A684B608A609A685160996003680861013303607047BA
:2032C000030030B50C680833621C0DD01A005B681D68A542FAD94B60996003688A600133B3
:2032E00051600861036030BD02695368F3E7C0460369416882688A6051605968814206D06A
:20330000002202611A68013A1A60186870475A60F6E7C046014B03617047C046130F42B09C
:20332000FF2349000B4080210902194381607047FF2249000A4080214902114310B54160DD
:2033400001210468026803000A43026080220C40416892010A43174942609A690A42FCD02F
:2033600001209A6999691209904320220A4202D0D9690A43DA61102299690A4202D0D9697B
:203380000A43DA61802299699200114202D0D9690A43DA61802299695200114202D0D96923
:2033A0000A43DA61002C03D101211A688A431A6010BDC04632030000F0B55F1E0400FE2F3F
:2033C0003ED880250C262D0202E0A069064202D1A0692842F9D10C25A069054230D1FF20ED
:2033E000490001401804014380208004014301206160256821680540014321608021606810
:203400008901014343486160A1690142FCD0CC26A169B600314215D10120D719012B00D160
:2034200075E03C4913780132A362A3690B42FCD0A369334230D1431C974257D01800F1E7F9
:203440000020F0BD2022A369A1690A4202D0E1690A43E2611022A1690A4202D0E1690A435E
:20346000E2618022A1699200114202D0E1690A43E2618022A1695200114202D0E1690A4312
:20348000E261002D03D1012122688A43226001205B0A98434042D4E72023A269A1690B42AA
:2034A00002D0E1690B43E3611023A1690B4202D0E1690B43E3618023A1699B00194202D0B1
:2034C000E1690B43E3618023A1695B00194202D0E1690B43E361002D03D1012123688B4383
:2034E00023609305ADD401204042AAE7023020223B78A362A3691A42FCD0E3691A43E261B0
:20350000002D9ED1012223689343236099E717000220ECE732030000F0B504002025A6694A
:203520000598354202D0E6693543E561FF2B50DC002B00DC8CE0012625684F0035432560CF
:20354000FF2519043D40294361608021656889012943414D6160A1692942FCD0CC25A16991
:20356000AD00294257D15E1E9619012B00D171E0394913780132A362A3690B42FCD0A3691C
:203580002B4228D19642F4D140223378A362A3691A42FCD0FF22069B12041B041340FF2277
:2035A00017401F432D4B1F438023676062689B0113436360069B0422C118002B07DDA369D4
:2035C0001A42FCD0636A037001308142F7D10020F0BD0120FCE72023A269134202D0E26936
:2035E0001343E3611023A269134202D0E2691343E3618023A2699B001A4202D0E2691343CF
:20360000E3618023A2695B0004201A42E0D0E2691343E361DCE72022A3691A4202D0E369BD
:203620001343E3611022A3691A4202D0E3691343E3618023A2699B001A4202D0E269134386
:20364000E3618023A2695B0003201A42C0D0DEE70220BDE7160097E73203000000040002B4
:20366000F0B5D6464F4646468146C0B58A4616001D00012A5ADD002802D08369002B31D0B5
:203680002D4B9D4233D02D4B9D424CD02C4B9D424ED0013E57461AE02A68340090469E4297
:2036A00000D91C0022000A21404600F0E1FA00282AD16B6838001B1B6B602B6822001B195F
:2036C0002B60414600F014FB3F19361B14D06B68002BE1D12900484601F0D4F8002809D126
:2036E0006B68D9E700F032F9134B9D42CBD14B465D68CEE7574519D0002350463B701CBC77
:2037000090469946A246F0BD43460130C41A6B6822001B1B09C54146380000F0E9FA002319
:2037200050463B55EBE74B469D68B2E70020E6E74B46DD68ADE7C0466C6000084C6000087D
:203740002C60000810B504001300034A10680A002100FFF785FF10BDC40000200020704707
:2037600010B5024900F05EFA10BDC046314F00080020704770B568244A1E54430E002100E0
:20378000743100F0B3FB051E09D000232200036046600C30A8606832002100F0FDFA28008E
:2037A00070BDC0461E4B70B51D680600AB69002B27D048356B68AC68013B03D51CE0683477
:2037C000013B19D30C21625E002AF8D100252000144B656625606560A560E3602561656194
:2037E000A561082200215C3000F0D6FA6563A563A564E564200070BD2C68002C05D0250003
:20380000D8E7280000F010F8D3E704213000FFF7B1FF041E2860F2D10C233360EAE7C0460E
:203820008C6000080100FFFFF0B5D6464F464646384BC0B5836200238364C3640365364BBC
:2038400082B01B6805000193984260D02800FFF7A9FF68602800FFF7A5FFA8602800FFF79A
:20386000A1FF6E680024E86004233000746634607460B460F36034617461B461082200219C
:203880005C3000F089FA254B254F9A467362254B37639946B362244B3662F362AE68984642
:2038A0003000224B746634607460B460F36034617461B461082200215C3000F06DFA53467C
:2038C00073624B46B36243463763F3623662EE68174B3000F360746634607460B460346137
:2038E0007461B461082200215C3000F055FA534673624B46B3624346F36201233662376380
:20390000AB6102B01CBC90469946A246F0BD012383619BE7613700088C600008594A0008FE
:20392000F14A0008854A0008C54A0008090001001200020010B5034B0349186800F072F9FE
:2039400010BDC0468C600008314F0008836910B5002B01D1FFF768FF10BDC0467047C0467D
:203960007047C0467047C0467047C04610B5034B0349186800F034F910BDC046C40000205D
:203980005D37000810B5034B0349186800F028F910BDC046C4000020713700084B6970B55B
:2039A00006000C000025002B07D001F021FA6369056020689847051E05DB3000210000F0E6
:2039C0003FFA280070BD01F013FA0368002BF4D001F00EFA03683360EFE7C046F0B5C6467D
:2039E00000B51E004B6815009A8907000C00D20506D5DB6A9846002B02D002230022C047D6
:203A000001F0F6F900233200036029002068E3689847041E03DB200004BC9046F0BD01F0DF
:203A2000E7F90368002BF6D001F0E2F903683B60F1E7C046F8B50C0015001E00070001F0B6
:203A4000D7F900233200036029002068A3689847041E01DB2000F8BD01F0CAF90368002B26
:203A6000F8D001F0C5F903683B60F3E770B582B00C001D000192060001F0BAF900232A00E5
:203A8000036001A9206823699847002802DB019802B070BD01F0ACF90368002BF7D001F0C5
:203AA000A7F903683360F2E782B0F0B5D6464F464646C0B582B00B931F000C9B8A469946C1
:203AC0000D9B110001AA0500984601F073FA061E3CD01423034235D11823334202D04B467C
:203AE000002B31D02800FFF75DFE041E2ED02800182100F0FBF9051E2AD001235B42E3817A
:203B00005346A6810360164B44602062876063624B46C360134BA36243460361002B01D04F
:203B2000114B98464346E3620E9B6B610F4B2363200002B01CBC90469946A246F0BC08BC71
:203B400002B01847002FC7D116232B600024EFE7FFF704FFA581FFF703FF0024E8E7C046BF
:203B6000353A0008DD3900086D3A00089D39000882B0F0B585B08C460A92040015006A46E0
:203B80000B93074B18680BABC2CBC2C22B0062462100FFF789FF05B0F0BC08BC02B0184746
:203BA000C40000200CB400B583B004AB04CB019300F03AFA03B008BC02B018470EB400B544
:203BC00082B003AB0100054804CB0068019300F02BFA02B008BC03B01847C046C400002065
:203BE000F0B5C646483000B5884607000026002813D07B68BC685D1E0CD4A389012B06D948
:203C00000E22A35E013302D02000C04706436834013DF2D23F68002FEBD1300004BC904607
:203C2000F0BDC046F8B54746CE4680B507004837804689460026002F14D07B68BC685D1E78
:203C40000DD4A389012B07D90E22A35E013303D021004046C84706436834013DF1D23F68D0
:203C6000002FEAD130000CBC90469946F8BDC04670B5CDB2830734D0531E002A1BD00278C0
:203C8000AA4219D0032404E0013B14D30278AA4212D001302042F7D1032B0ED8002B0AD065
:203CA0000278AA4208D0C31802E00278AA4203D001308342F9D1002070BDFF220C06240C60
:203CC000114021430C04084E0C43026807496240511891433142E3D1043B0430032BF4D84D
:203CE000DCE71300D8E7C04680808080FFFEFEFEF0B5C64600B50F2A43D90B0003260343FB
:203D00001E400C000300002E40D11500103D2D09AC462D01A846804400E03B006768256816
:203D20005F60E7681D60DF601F00A56810379D6010344345F1D165460F230C2401352D014A
:203D4000491913404519144223D08C59AC5104369C1B032CF9D80324043B9B0801339B005C
:203D60002240ED18C918561E002A07D0002300E02300CA5C5C1CEA549E42F9D104BC904644
:203D8000F0BD0500561E002AF0D1F7E7561E0500ECE71A00F6E7C046F0B5050083074AD09D
:203DA000541E002A44D0CEB20300032202E00135013C3DD301332E701342F8D1032C2FD91F
:203DC000FF220A40150215432A0415430F2C35D92700103F3F093E01B4461E001A001036C5
:203DE0006644156055609560D5601032B242F8D10F260C2201373F012640DB1937002242F6
:203E000017D03E1FB608B400A4461A001C1D644420C2A242FCD103240136B6009B193C4030
:203E2000002C05D0C9B21C19197001339C42FBD1F0BD3400F4E714000300BFE72700E0E703
:203E400070B50500002915D00C1F2368002B27DB280001F06FFB244B1A68002A05D0A242F0
:203E60000CD921686018824224D0626028001C6001F062FB70BDA34203D81A005368002B03
:203E8000F9D111685018A0421BD027D821686018834207D063605460280001F04DFBE9E766
:203EA000E418D5E718685B6884466144216063605460F1E7106852688446614421606260E4
:203EC000D4E720680918501811608342E4D118685B688446614411605360DDE70C2328003A
:203EE0002B6001F029FBC5E7A80E0020F8B50323CD1C9D43083506000C2D2AD20C25A94270
:203F000029D8300001F016FB2A4F3A68002A0AD013685B1B04D441E023685B1B1FD522004E
:203F20005468002CF8D17B68002B3DD02900300000F044FD431C2AD00323C41C9C43A0420B
:203F400005D0211A300000F039FD431C1FD0256010E0002DD3DA0C2300203360F8BD0B2B91
:203F600005D86368A2421DD0536003E014002360E4182560300001F0DFFA200007220B309C
:203F8000231D9043C21AE9D01B1AA350E6E70C233000336001F0D0FA0020DFE70B2BE5D8FE
:203FA000140053683B60E5E70021300000F006FD7860BBE7A80E0020936810B5013B936048
:203FC000002B04DA9469A34207DB0A2905D01368581C10600800197010BD00F0E7FDFBE799
:203FE000F8B506000F00002B0DD01400D51802E00134AC4207D021783A003000FFF7DCFF46
:20400000431CF5D1F8BD0020FCE7C046936810B51400002B02D10020536010BD01F018F84A
:204020000023A3606360F8E7F0B54E46DE4657464546E0B5A1B00490039191461C0000280A
:2040400004D083690593002B00D1BEE0AD4B039A9A4200D1C0E0AC4B039A9A4200D1CDE09E
:20406000AA4B039A9A4200D147E1039A93891B0700D4B9E013690593002B00D1B4E00023CA
:2040800008AD6B6120336B761033AB762F3B98464B461B7807949E4F002B00D189E0252B5E
:2040A00000D125E14E4603E0252B00D1AAE026007378741C002BF7D14B46E31A9A4678D0BD
:2040C00053464A4603990498FFF78AFF431C70D06B6953446B617378002B6AD00122002394
:2040E00052426A60443201342B60EB60AB60AB54AB6506E04346C01B834034002A6813439E
:204100002B60217805223800FFF7B2FD661C0028F0D12B68B246DA0602D543222021A95427
:204120001A0702D543222B21A95421782A2900D06EE0079A111D12680791002A00DABAE050
:20414000EA606178A61C2E2900D17AE0714B032218009946FFF78CFD002800D18FE04B46A8
:20416000C01A402383402A68317813432B600622731C694899462976FFF77AFD002800D1D7
:2041800088E0664B002B00D18EE007AB0093039A634B2900049800E000BF83465B4601330A
:2041A00007D06B695B446B614B461B78002B00D075E7039B9B895B061DD4686921B03CBCC0
:2041C00090469946A246AB46F0BDFFF7BFFB4D4B039A9A4200D03EE7049B5B680393039A59
:2041E00093891B0700D545E70399049800F068FD002800D143E701204042DFE7049B9B68C5
:20420000039332E74B46E31A9A4600D166E757E70A00303AA246092A95D8EB68180001E0DD
:204220003400013683001B1831785B0098180A00303A092AF4D9B246E860A61C2E2900D00C
:2042400084E7534659782A293BD1079B1A1D079252469178D61C022294461B68E2446B60B3
:20426000002B00DB72E701235B426B60294B032218009946FFF7FCFC002800D06FE7B14690
:2042800056463178062224482976FFF7F1FC002800D076E707AB0093039A214B290004985B
:2042A00000F0E4F8834679E70722079B073393430833079375E75242EA60022213432B601A
:2042C0003FE70A000023303A6B601800092A01D910E01E0083001B1871785B0098180A006F
:2042E000303A731C092AF4D99A46023668602DE74C46F3E6B246013628E7049BDB680393B0
:20430000B3E6C0466C6000084C6000082C6000085C63000864630008686300080000000079
:20432000E13F000810B504001300034A10680A002100FFF779FE10BDC4000020F0B54F4631
:204340004646D646C0B51F00089B914698468A680B6906000C00934200DA13004A4613608C
:204360004322A25C002A02D04A460133136023689A065AD54B461B6806209A1C4B461A6052
:2043800023681900184208D1E16800258A1A19218A461900A244002A3FDC4323E35C5A1EC9
:2043A00093418A060AD53020E1184331087045215A1C615CA21843320233117022003900AC
:2043C00043323000C047431C19D006232068A26821690340042B30D08A423ADD002399464D
:2043E000521A91441A34002502E001354D4530DA0123220039003000C047431CF5D1012059
:2044000040421CBC90469946A246F0BD4B46E2681B680135D31AAB4220DD01235246390098
:204420003000C047431CF1D1E9E706221A4212D04323E35C5A1E9341C0E74B46E0681B68FA
:20444000C31AD843C017184081468A42C8DC002BC8DC0020D5E74A46126895E743232168DE
:20446000E35C5A1E93418A069DD4A7E7F0B557469A4643239C464E464546DE468C446346FC
:20448000E0B587B003930B7E914680460C00109A6E2B00D1D8E000D871E0732B00D11AE129
:2044A00000D881E0752B00D1FFE0782B00D00BE10B6878204521605494498B46116840C9BF
:2044C0001160180603D4580601D53604360CDA0702D52022134323601027002E00D1C2E01B
:2044E00043230022E2546368A360002B00DAC5E00422216891432160002E00D083E0002BF6
:2045000000D0BDE0039D082F00D18CE0039B5B1B2361534605AA009321004B464046FFF779
:204520000DFF431C22D023692A0049464046D047431C1BD022680598E368920700D47FE0B4
:204540001A1A002A00DC7BE026000025193606E0E368059801351A1AAA4200DC70E00123B8
:20456000320049464046D047431CF1D10120404207B03CBC90469946A246AB46F0BD632BA1
:2045800000D184E01FD8002B69D0582B00D09BE0452163545E4923688B46116840C91160AA
:2045A000180600D48FE792E76F2B7ED0702B00D08AE02023096878200B4345212360605426
:2045C00052498B467AE7642B01D0692B7CD111682368081D10601D064AD50A681600002A40
:2045E00003DB4B4B0A279B467DE743222D21A15462687642A260002A02DB0422934323601F
:20460000434B0A279B46039D00E006003900300001F042FB5B465B5C013D2B70BE42F4D2E6
:20462000082F00D072E72368DB0700D46EE763682269934200DD69E73023013D2B7065E7B4
:20464000984295DA180093E7136809681D1D606915601B680E0601D449064BD418600023A6
:20466000039D236155E7202322689A43226037E75D06B2D500228E5E3200B0E7002EC2D10E
:204680005B4625001A7842234235E2543BE713682500191D11601A684223E254413B423537
:2046A000236143230022E25433E7116820680D1D1560060601D440061ED40E686F2B1DD0E8
:2046C000134B0A279B460BE742222500A354012342352361E5E71368191D11601D6862689C
:2046E00000212800FFF7C4FA00280BD0401B60602061D6E71880B2E70E88DFE7044B082756
:204700009B46EDE660682061CBE7C04684630008706300080EB410B5040083B0002802D062
:204720008369002B0BD006AB059AA16820000193FFF77AFC03B010BC08BC03B01847FFF7C3
:2047400005F9F0E70FB410B50B4B82B01C68002C02D0A369002B0BD005AB049AA168200069
:204760000193FFF761FC02B010BC08BC04B018472000FFF7EBF8EFE7C4000020836970B539
:2047800006000D00002B32D084682F4B9C423AD02E4B9C4244D02E4B9C4252D0A3891B0759
:2047A00035D52369002B32D0A3682978013B002911D00135A360002B04DAA2699A4231DC0E
:2047C0000A292FD023685A1C22601970A3682978013B0029EDD1A360002B2CDA22000A313B
:2047E000300000F0E3F9431C17D00A2070BDFFF7ADF8B369B468002BC7D13000FFF7A6F8C6
:20480000114B9C42C4D17468A3891B07C9D42100300000F055FA0028C6D001204042E5E745
:20482000B468BBE72200300000F0C0F9431CBBD101204042DAE723685A1C22600A221A7037
:20484000D3E7F468AAE7C0466C6000084C6000082C60000810B5034B01001868FFF78EFF78
:2048600010BDC046C4000020092310B5828913400022092B01D0100010BD00F087FB0200BA
:20488000F9E7C046F8B505000C00002802D08369002B30D0444B9C4232D0444B9C4231D086
:2048A000434B9C4266D0002363600C22A35E9AB2910665D4510727D4D10600D46CE00826AD
:2048C000164246D104221343A3812369002B4CD00C23E75EBEB2B3072AD123692800236026
:2048E00022696369216A656AA847030060600020002B48DDF8BDFFF729F82B4B9C42CCD128
:204900006C68D0E7AC68CEE7616B0029DDD023004433994202D02800FFF792FA00236363C7
:20492000236C6360002BD0D0E36B00202360E1E70123A3811F4B20491868FFF751F909239A
:20494000A7811E40092EC8D12100280000F056FAC3E72100280000F0EBFA002810D1A3897B
:20496000A060B3431BB2A061ACE72100280000F03BFDADE7EC6896E740231A436060A28167
:2049800001204042B6E70C21625E002BF4D120231A43A2810138ADE709222A604022012032
:2049A0001343A3814042A5E76C6000084C6000082C6000088C60000869480008002370B55E
:2049C000064C05000800236001F07EFA431C00D070BD2368002BFBD02B60F9E7B40E002062
:2049E0000CB400B59DB00291069109491EAB07910491084904CB059102A9019300F0B8FEE8
:204A00000023029A13701DB008BC02B01847C046FFFFFF7F0802FFFF0EB400B50B499CB011
:204A2000079104910A491DAB05910A4904CB02900690086802A9019300F09AFE0023029A58
:204A400013701CB008BC03B01847C046FFFFFF7F0802FFFFC400002070B50C000E25495FB7
:204A600000F0D4FF002803DB636D1B18636570BDA389024A1340A381F9E7C046FFEFFFFFB4
:204A800000207047F8B516001F000C228B5E0C0005000E22895EDA0508D4094A2800134095
:204AA000A38132003B0000F0F7F8F8BD0022022300F05EFC0C22A35E0E22A15EEDE7C04608
:204AC000FFEFFFFF70B50C000E25495F00F050FC431C06D08023A2895B011343A381606504
:204AE00070BDA389014A1340A381F9E7FFEFFFFF10B50E23C95E00F069F910BD0B00034342
:204B000030B504009B0710D10B680C4A0C4D9A189A432A4209D104312360084A0B68043081
:204B20009A189A4304002A42F5D003000A7818001A7001310133002AF8D130BDFFFEFEFE4B
:204B40008080808010B5830727D00378002B26D00300032102E01A78002A1CD001330B4241
:204B6000F9D119680F4A104C8A188A4322420FD1043319680B4A8A188A43224208D1043392
:204B80001968084A8A188A432242F1D000E001331A78002AFBD1181A10BD0300E1E7002028
:204BA000FAE7C046FFFEFEFE80808080F8B505000E001400002802D08369002B29D02D4BBF
:204BC0009C422BD02C4B9C4246D02C4B9C424ED0A369A360A3891B0726D52369002B23D01C
:204BE000FF22F7B2616916402268D31A99422ADD0133A1680139A160511C216017706269BA
:204C00009A422BD0A389DB0701D50A2E26D03000F8BDFEF79BFE174B9C42D3D16C68A36974
:204C2000A360A3891B07D8D42100280000F048F8002819D1FF222369F7B2616916402268EC
:204C4000D31A9942D4DC2100280000F071F900280AD122680123CCE7AC68B9E721002800D8
:204C600000F066F90028D2D001267642CFE7EC68AEE7C0466C6000084C6000082C6000087B
:204C800010B5044B0A001B6801001800FFF78EFF10BDC046C400002070B5050008001100DD
:204CA0000022064C22601A0001F01CF9431C00D070BD2368002BFBD02B60F9E7B40E0020B4
:204CC0003E4B70B51D6806000C00002D02D0AB69002B1BD03A4B9C421ED03A4B9C424CD096
:204CE000394B9C4260D00C23E25E93B2190719D52169002921D0DA072ED50023A3606369E6
:204D000000205B42A36100292ED070BD2800FEF71DFE2B4B9C42E0D16C680C23E25E93B2B9
:204D20001907E5D4D90641D55B0728D4216908231343A3819BB20029DDD1A0228020920000
:204D400080001A408242D6D02100300000F04CFBA3892169DA07D0D400229B0700D46269E9
:204D6000A26000200029D0D10C22A35E1A06CCD540221343A3810138C7E7AC68B3E7616B1A
:204D800000290AD023004433994204D03000FFF757F80C23E25E0023636324239A430023B3
:204DA000216963602160C2E7EC689CE709233360402301201A43A2814042A6E7C4000020EF
:204DC0006C6000084C6000082C600008002370B5064C05000800236001F04EF8431C00D027
:204DE00070BD2368002BFBD02B60F9E7B40E0020014B18687047C046C4000020F0B5C6469A
:204E000000B58B8980460C001A0745D44A68002A63DDE56A002D3BD042464146166800226B
:204E20000A60216ADA045CD4012300224046A847431C61D0A389E56A216A5B0706D5636816
:204E4000C01A636B002B01D0236CC01A002302004046A847431C46D143461B680C21625E3C
:204E6000002B56D01D2B01D0162B5DD100236360236923604346616B1E60002908D023006D
:204E80004433994202D04046FEF7DAFF00236363002004BC9046F0BD0E69002EF8D00A686F
:204EA0000E60951B00229B0700D14A69A260002D04DCEDE736182D1A002DE9DD2B003200C4
:204EC000216A4046A76AB8470028F3DC40220120A38940421343A381DBE70A6C002A98DC39
:204EE000D6E7606DA9E70023636023692360A389DB04BFD56065BDE743461B68002B99D0FB
:204F00001D2B0DD0162B0BD04022A3891343A381BFE7636023692360D304ABD56065A9E724
:204F2000434600201E60B4E740231A43A281B0E70B6970B505000C00002B16D0002802D080
:204F40008369002B15D00E4B9C4210D00D4B9C4212D00D4B9C4211D00C22A35E002B04D0E1
:204F600021002800FFF74AFF00E0002070BD6C68F2E7FEF7EBFCE6E7AC68EDE7EC68EBE718
:204F80006C6000084C6000082C60000810B5011E04D0054B1868FFF7CBFF10BD034B044945
:204FA0001868FEF73FFEF8E7C40000208C600008314F0008F0B54646D6464F460B78C0B526
:204FC0009046722B3ED0772B09D0612B33D01623036000201CBC90469946A246F0BDC02385
:204FE000DB009A460124082080235B02994680231B019C461C2210270326022501310B78AF
:20500000002B0DD0622B13D0782B0ED02B2BF5D101310B789043B44338432C43002BF1D125
:2050200053461C4343461C60D4E763461C43E5E74B461C43E2E7822384209B009A46012442
:205040004000D1E7002300249A460420CCE7C046F0B54546DE4657464E46E0B5936883B00C
:2050600000900C009046002B6DD08B891A0700D471E00A69002A00D16DE0424616689A079A
:2050800000D475E0A36A00279A46B54B00259946216A002D16D02B004D4500D9B04B3A0066
:2050A0000098D047002800DCD5E043469B683F182D1A181A4346986045D0A36A216A9A461E
:2050C000002DE8D1376875680836E2E74B461B689A464B465F6808239C46E144002FF5D0F5
:2050E0003A000A215046FEF7C3FD002800D1CEE053460130C61A3300BB469F4200D99B46E0
:20510000206822696369904204D9A2689D18AB4500DD92E05B4500DDF9E0A56A5246216A7B
:205120000098A847051E00DC95E0761B0120002E00D1E4E043469B68AA447F1B5D1B4346EA
:205140009D6000D095E0002003B03CBC90469946A246AB46F0BD21000098FFF7B1FD002882
:2051600000D0F9E04246A38916689A0700D589E7DA0778D400229146802292000027934614
:20518000A5682068002F53D05A46134200D181E0AA46BD4200D9AFE09022D20013422ED0D3
:2051A0002169451AAC466069019542001218D00F8218781C521060449246904201D98246EA
:2051C00002005B0500D4AFE011000098FEF78EFE051E00D1BAE0019A2169FEF789FDA38986
:2051E000604A134080221343A3815246019B2561E818BA463D00D31A20606261A3605246D4
:20520000494600F039F9A3685D1BA5603D00002723685344236043469B68A9445D1B4346D2
:205220009D6000D18FE7A5682068A389002FABD13268776891460836A4E751462A0000F0F4
:205240001BF9236821005B1923600098FFF770FE002800D169E70C22A35E4022012013434A
:20526000A381404270E70023B14600209A4600271E00002F00D129E7002800D03BE73A006E
:205280000A215046FEF7F4FC002800D030E77B1C1E0031E72369834217D363699A46BB42A8
:2052A00013D8314B38009F4200D93048514600F0F7FC53464A464343216A0098A56AA847D3
:2052C0000028C8DD05007F1BA5E7BD4200D93D002A00494600F0D0F8A36822685B1B5219DA
:2052E000A3602260002BEED121000098FFF720FE0028B0D17F1B8EE73D00BA467FE72100F6
:205300000098FFF715FE002800D113E7A3E75A46514600F0B1F85A46A3685D469B1AA36099
:2053200023685B44236000E7009800F007F9051E00D05AE7009D21692800FEF781FD8022B9
:20534000A3899343743A1BB22A6086E70C23009A13600C22A35E80E701204042F4E6C04684
:2053600000FCFF7F7FFBFFFFFEFFFF7FFFFFFF7F70B50500080011000022064C22601A00F1
:2053800000F092FD431C00D070BD2368002BFBD02B60F9E7B40E002070B50C001D000E23E5
:2053A000C95E96B01600002914DB6A4600F0BEFB00280FDBF022019B12021340094A9446A5
:2053C00063445A4253412B608023DB003360002016B070BD00232B60A3891B06F4D5402320
:2053E0003360F4E700E0FFFF70B58B8982B006000C009B0707D5230047332360236101239E
:20540000636102B070BD01AB6A46FFF7C5FF009905003000FEF76AFD002810D08022154B9F
:20542000B362A38920601343009A1BB26261019AA3812061002A0CD12B43A381E1E70C225C
:20544000A35E9A05DDD40322934302221343A381D1E70E23E15E300000F07CFB002802D1A8
:205460000C22A35EE8E70322A3899343012213431BB2E1E761370008F0B5C64600B5884229
:205480000CD98B18984209D2531E002A03D0CA5CC254013BFBD204BC9046F0BD0F2A0CD8BC
:2054A0000500561E002AF6D0002300E02300CA5C5C1CEA549E42F9D1EDE70B000326034389
:2054C0001E400C000300002E2ED11500103D2D09AC462D01A846804400E02B001D00276811
:2054E00010351F6067685F60A7689F60E7681034DF604345F1D165460F230C2401352D01BF
:20550000491913404519144211D08C59AC5104369C1B032CF9D80324043B9B0801339B0096
:20552000ED18C9182240BCE7561E0500BCE71A00B7E7C0467047C0467047C046F8B5070078
:205540000C00150000291BD0002A15D000F014FB2600A84201D33000F8BD29003800FEF7E9
:20556000C5FC061EF7D021002A00FEF7C1FB21003800FEF765FCEEE7FEF762FC0026EAE7B5
:205580001100FEF7B3FC0600E5E7C046F0B546464F46D646C0B58E6881460C0090461D006B
:2055A00008689E4239D890228B89D200134211D135002A004146FFF75FFFA36800209E1B9D
:2055C0002368A6609C46654425601CBC90469946A246F0BD0969421A92466269681C5700BC
:2055E000BF18FA0FD7197F1050443A00B84201D9070002005B0512D511004846FEF776FC54
:20560000061E1FD052462169FEF772FBA389124A134080221343A38106E01E00C9E74846BA
:20562000FFF78CFF061E09D03000534650446761FF1A266120602E00A760BAE721694846B9
:20564000FEF7FEFB0C234A46136040220120A38940421343A381B8E77FFBFFFFF0B54E462F
:205660004546DE465746E0B5936883B001900D009146002B6BD0176808688C6844E0902287
:20568000AB89D20013422ED02969421A9346686942001218D00F8218701C521058449046D4
:2056A000904201D9804602008020C000034237D011000198FEF71AFC041E53D05A4629699E
:2056C000FEF716FBAB89294A134080221343AB81434620005A462C61B046340058446B613E
:2056E0009B1A2860AB6042465146FFF7C5FEAB681C1B2B68AC6043442B6018004B469B68E3
:205700009E1B4B469E6022D03B687E689A460837A046002EF8D0A642B1D23400B046E2E76D
:205720000198FFF70BFF041ED2D1019C29692000FEF786FB0C2323604022AB890120134387
:20574000AB814A46002340429360536003E000234A460020536003B03CBC90469946A24691
:20576000AB46F0BD0C23019A1360E5E77FFBFFFFF0B54E46DE4657464546E0B5A1B004900B
:2057800003911C008B8991461B0604D50B690593002B00D119E1002308AD6B6120336B769A
:2057A0001033AB762F3B98464B461B780794924F002B00D186E0252B00D104E14E4603E0BE
:2057C000252B00D18BE026007378741C002BF7D14B46E31A9A4675D053464A460399049895
:2057E000FFF7D4FE431C6DD06B6953446B617378002B67D00122002352426A604432013472
:205800002B60EB60AB60AB54AB6506E04346C01B834034002A6813432B60217805223800EC
:20582000FEF726FA661C0028F0D12B68B246DA0602D543222021A9541A0702D543222B215A
:20584000A95421782A2950D1079A111D12680791002A00DA9AE0EA606178A61C2E295CD077
:20586000664B032218009946FEF702FA002800D171E04B46C01A402383402A6831781343FE
:205880002B600622731C5E4899462976FEF7F0F900286AD05B4B002B00D170E007AB00932B
:2058A000039A594B2900049800E000BF83465B46013307D06B695B446B614B461B78002B40
:2058C00000D078E7039B9B895B0600D58CE0686921B03CBC90469946A246AB46F0BD4B46CF
:2058E000E31A9A4600D185E776E70A00303AA246092AB3D8EB68180001E0340001368300DD
:205900001B1831785B0098180A00303A092AF4D9B246E860A61C2E29A2D1534659782A29A3
:205920003AD1079B1A1D079252469178D61C022294461B68E2446B60002B00DB90E7012344
:205940005B426B602D4B032218009946FEF790F9002800D08DE7B14656463178062228488D
:205960002976FEF785F9002894D107AB0093039A254B29000498FEF779FD834697E7072296
:20598000079B073393430833079393E75242EA60022213432B605FE70A000023303A6B607B
:2059A0001800092A01D91CE01E0083001B1871785B0098180A00303A731C092AF4D99A461B
:2059C000023668604CE74C4614E74021FEF78EFA039B18601861002809D04023039A5361E5
:2059E000D9E6B24601363BE70120404270E70C23049A013813606BE75C630008646300083C
:205A000068630008000000008D55000870B50500080011000022064C22601A0000F04CFA40
:205A2000431C00D070BD2368002BFBD02B60F9E7B40E002070B50C0009680500002901D09B
:205A4000FFF7F8FF28002100FEF7FAF970BDC046354B70B51B68050083425CD0426A002A01
:205A60005AD0D368002B13D000269959002907D00C682800FEF7E4F9211EF9D16B6ADB680C
:205A80000436802EF1D119002800FEF7D9F96A6A1168002944D02800FEF7D2F969690029E7
:205AA00002D02800FEF7CCF96A6A002A03D011002800FEF7C5F9A96B002902D02800FEF749
:205AC000BFF9E96B002902D02800FEF7B9F9296C002902D02800FEF7B3F9E96D002902D046
:205AE0002800FEF7ADF9A96D002902D02800FEF7A7F9696B002902D02800FEF7A1F9AB697B
:205B0000002B08D02800AB6A9847A96C002902D02800FFF78FFF70BD41690029C1D1CAE767
:205B200069690029BDD1C2E7C4000020002370B5074C050008001100236000F0A5F9431C26
:205B400000D070BD2368002BFBD02B60F9E7C046B40E0020002370B5064C0500080023604A
:205B600000F09AF9431C00D070BD2368002BFBD02B60F9E7B40E00200B1F1B68181F002B69
:205B800000DB70470B58C018FBE7C046002243088B4274D303098B425FD3030A8B4244D3D3
:205BA000030B8B4228D3030C8B420DD3FF22090212BA030C8B4202D31212090265D0030B38
:205BC0008B4219D300E0090AC30B8B4201D3CB03C01A5241830B8B4201D38B03C01A524145
:205BE000430B8B4201D34B03C01A5241030B8B4201D30B03C01A5241C30A8B4201D3CB0296
:205C0000C01A5241830A8B4201D38B02C01A5241430A8B4201D34B02C01A5241030A8B426D
:205C200001D30B02C01A5241CDD2C3098B4201D3CB01C01A524183098B4201D38B01C01A3E
:205C4000524143098B4201D34B01C01A524103098B4201D30B01C01A5241C3088B4201D379
:205C6000CB00C01A524183088B4201D38B00C01A524143088B4201D34B00C01A5241411AC9
:205C800000D20146524110467047FFE701B5002000F0F0F802BDC0460029F7D076E77047EE
:205CA00003460B437FD4002243088B4274D303098B425FD3030A8B4244D3030B8B4228D3A7
:205CC000030C8B420DD3FF22090212BA030C8B4202D31212090265D0030B8B4219D300E054
:205CE000090AC30B8B4201D3CB03C01A5241830B8B4201D38B03C01A5241430B8B4201D3CE
:205D00004B03C01A5241030B8B4201D30B03C01A5241C30A8B4201D3CB02C01A5241830A69
:205D20008B4201D38B02C01A5241430A8B4201D34B02C01A5241030A8B4201D30B02C01A8B
:205D40005241CDD2C3098B4201D3CB01C01A524183098B4201D38B01C01A524143098B422C
:205D600001D34B01C01A524103098B4201D30B01C01A5241C3088B4201D3CB00C01A5241CC
:205D800083088B4201D38B00C01A524143088B4201D34B00C01A5241411A00D20146524134
:205DA000104670475DE0CA0F00D04942031000D34042534000229C4603098B422DD3030A80
:205DC0008B4212D3FC22890112BA030A8B420CD3890192118B4208D3890192118B4204D33E
:205DE00089013AD0921100E08909C3098B4201D3CB01C01A524183098B4201D38B01C01AC1
:205E0000524143098B4201D34B01C01A524103098B4201D30B01C01A5241C3088B4201D3B7
:205E2000CB00C01A524183088B4201D38B00C01A5241D9D243088B4201D34B00C01A5241B7
:205E4000411A00D20146634652415B10104601D34042002B00D54942704763465B1000D352
:205E6000404201B5002000F005F802BD0029F8D016E770477047C04658220120014B404253
:205E80001A607047B40E002058220120014B40421A607047B40E00205822024B00201A6012
:205EA0007047C046B40E002058220120014B40421A607047B40E002058220120014B40425E
:205EC0001A607047B40E0020044A1368002B03D01818106018007047014BF9E7B00E00206F
:205EE000B80E002058220120014B40421A607047B40E0020000000000E1A0008081A0008E6
:205F0000621A00085A1A0008561A0008D01A0008CA1A0008301B00082C1B0008281B00083E
:205F20005852425344000000002020202020202020202828282828202020202020202020D6
:205F400020202020202020202088101010101010101010101010101010040404040404048D
:205F600004040410101010101010414141414141010101010101010101010101010101010F
:205F80000101010110101010101042424242424202020202020202020202020202020202F1
:205FA000020202021010101020000000000000000000000000000000000000000000000079
:205FC0000000000000000000000000000000000000000000000000000000000000000000C1
:205FE0000000000000000000000000000000000000000000000000000000000000000000A1
:20600000000000000000000000000000000000000000000000000000000000000000000080
:20602000000000000000000000000000000000000000000000000000000000000000000060
:20604000000000000000000000000000000000000000000000000000000000000000000040
:20606000000000000000000000000000000000000000000000000000000000000000000020
:20608000000000000000000000000000C8000020F0B5DE4657464E464546E0B501258BB09D
:2060A000FAF7CCF9724A7349936973482B439361724B4027D9627249082499637149D96361
:2060C000B0215850032070490B6803430B6080235169DB020B4353616C4BBD301968814322
:2060E000394319609988A14399809968F83401439960D9688143D9608021D36989020B432F
:20610000D36153698C460B4353619023DB05196890388143103801431960196A80465C4829
:2061200001402143802480201962196824068900890821431960596A4005090109090143F1
:206140005962A22181460C20524CFF31A18121680143484621602168294321604E4908608D
:20616000C7208000824608588146FF20834648465E46B043814650464E460E50404621685E
:20618000014360462160516901435161D1698C468021604689030843D0611A683F48104030
:2061A000802212030243F0201A605A6A824380203A435A621A683A4FC0003A4011431960E5
:2061C0005A6A3349374F0A40104358623800FDF7A1F83B682B433B60334B00279846FA2391
:2061E00042469B005361314B6A4699461B6804979A46059704AB03CB03C22D4900232D4AD1
:206200002000FDF7B5FC534658604B461B686A4699460897099708AB03CB03C20022264BAD
:2062200026492000FDF7A4FC4B464022986024490023244801970095FAF75EF9002201219B
:206240002020FBF785FD43460022186001212020FBF77EFD4346802258601B4900235200DC
:206260001A4801970095FAF747F9FAF7BFFBFEE700100240D52E00088500000800000020C4
:206280004D2F0008952F00080000014000040048FFF0FFFF0044004000E100E0FFFFF3FFFF
:2062A000FFFFCFFF0054004028010020C4000020486300085D010008150100083863000877
:2062C0003C6300088D01000844630008A90100082564205B3078252E34785D0A000000000E
:2062E00025640A00456E74657220612076616C7565203A00696E7768696C65206C6F6F702B
:20630000207265616453657269616C005B25645D0A0000006B696E7768696C65206C6F6F51
:2063200070207265616453657269616C000000006D6173740000000077000000626C696E00
:206340006B00000075707065720000000925630925750925750925750D0A0000232D302B6A
:2063600020000000686C4C0065666745464700003031323334353637383941424344454637
:20638000000000003031323334353637383961626364656600AAAAAAAAC80000200000000B
:2063A000006C6000084C6000082C60000800000000000000000000000000000000000000C1
:2063C0000000000000000000000000000000000000000000000000000000000000000000BD
:1D63E0000000000000000000000000000000000000000000000000000000000000A0
:0400000508000000EF
:00000001FF
