:020000040800F2
:2000000000400020190000081100000815000008FEE7C046FEE7C04609480A4A10B5904217
:2000200003D00949121A00F09BF80848084A904203D00021121A00F0E7F800F0ADFFFEE708
:20004000000000200000002020100008000000200400002000B5002283B00B4B00F028F973
:200060000A4B002200F00CFC00F076FE00230193019B984205DD019B01330193019B8342D9
:20008000F9DB03B000BDC04600408F406E332641012809D000280ED190222021D205938A0F
:2000A0008B4393820120704790222021D205938A0B439382F6E70228F4D10C4A1368002B73
:2000C0000AD0012BEED190212020C9058B8A03438B8200231360E5E790212020C9058B8AFE
:2000E00083438B8201231360DCE7C04600000020A022174BD20219680A4380211A60890241
:200100001A680A42FCD05A6812491140802212030A435A605A6810491140802252020A436A
:200120005A608022196852040A4380211A60084A890413680B42FCD0012008490B68034386
:200140000B60032153688B4301390B435360704700100240FFFFC3FFFF7FFEFF00200240A6
:20016000F0B5C64600B50F2A43D90B00032603431E400C000300002E40D11500103D2D0906
:20018000AC462D01A846804400E03B00676825685F60E7681D60DF601F00A56810379D60DC
:2001A00010344345F1D165460F230C2401352D01491913404519144223D08C59AC510436C8
:2001C0009C1B032CF9D80324043B9B0801339B002240ED18C918561E002A07D0002300E0D0
:2001E0002300CA5C5C1CEA549E42F9D104BC9046F0BD0500561E002AF0D1F7E7561E050058
:20020000ECE71A00F6E7C046F0B5050083074AD0541E002A44D0CEB20300032202E0013550
:20022000013C3DD301332E701342F8D1032C2FD9FF220A40150215432A0415430F2C35D9A1
:200240002700103F3F093E01B4461E001A0010366644156055609560D5601032B242F8D12C
:200260000F260C2201373F012640DB193700224217D03E1FB608B400A4461A001C1D644413
:2002800020C2A242FCD103240136B6009B193C40002C05D0C9B21C19197001339C42FBD16F
:2002A000F0BD3400F4E714000300BFE72700E0E7F0B557464E464546DE46E0B581460500F1
:2002C0000C03480092461F0085B0240B400DCE0F002859D0874B984200D198E06B0FE4009E
:2002E0001C4380231B0423439846834BED009B4600239946834400933C037B005046240B22
:200300005B0DFF0F002B67D07A4A934218D07A49420F8C46E4005946144380226344120465
:20032000CB1A14439B46C200002033007B409A464B460F2B00D9EFE070499B00CB589F4621
:200340006F4B52469C462243E344002A00D095E0494602231943894600240220E5E700235A
:200360000024002552461B052343D20713432800190005B03CBC90469946A246AB46F0BDBE
:20038000002400255B4BEDE74B462343984600D189E0002C00D1E0E1200000F09FFD010020
:2003A00002000B391D235B1A49461000D940083884400B004D4623439846854051483C0307
:2003C000831A9B460023994600937B005046240B5B0DFF0F002B97D15246224355D0002C73
:2003E00000D1CAE1200000F079FD02000B3A1D2301009B1A52460839DA408C401443524610
:200400008A40414B58449B46834400208DE74B462343984640D108239946063B002583468F
:20042000009369E7B246009B022BA9D0032B00D111E2012B93D0354A5A44002A00DC3CE1DF
:200440006B0700D0A7E1ED084346DB0106D542462F4B1A4090468022D2005A442D4B9A4205
:200460008EDC4346520558075C020543240B530D78E7BA46A04615000090D4E74A46032343
:200480001A439146032052464FE749460123194389460024012048E70C239946093BA046AD
:2004A0008346009328E70423994600239B4601330025009320E7002380249A4600250D4BB0
:2004C00024034FE7802341461B03194208D01C4206D11C432403BA461500064B240B41E7CC
:2004E0008024434624031C432403B246014B240B38E7C046FF07000001FCFFFF180F00085A
:2005000001F8FFFF0DFCFFFFF3030000FF030000FFFFFFFEFE070000444500D216E100D1C2
:2005200011E101235B429C462E0040460025E3442302140E1C431B0C994623041F0C120214
:2005400049460092019700F0C3FC02007A430B04310C804619438A420BD901235B429C46B3
:200560000919E0448C4204D88A4202D9831E98460919881A494600F0ABFC09048C46310467
:200580006646019A090C4243030031438A4204D90919013B8C4200D811E1891A4246009E9B
:2005A00012041A43330C1F00100C9046029313043204160C32001B0C5A4303967B4346439E
:2005C0007843170CBC469B1963449E4203D980267602B44660441E0C301816041B04360C7B
:2005E0009E19814200D29CE000D197E0AE1B091AB54280414042081A844200D111E149468B
:2006000000F066FC019A0B044243310C050019438A4207D90919013D8C4203D88A4201D960
:20062000851E0919881A494600F052FC09048C4631046646019A090C4243030031438A424E
:2006400007D90919013B8C4203D88A4201D9831E0919039E891A32002D041D43029F2B0473
:200660001B0C5A437B439C46280C4643130CB444634478439E4203D980267602B446604468
:200680001E0C12041B04120C30189B18814206D302D001231D43CEE6002B00D1CBE6611816
:2006A0006E1EA14200D2A4E0814200D2C9E000D1D9E03500EDE701256D420121891A3829A9
:2006C00000DD4CE61F2900DC7FE01F235B429A1A4346D340202904D04446654A5A44944091
:2006E00025436A1E954107222B43150000241D401A4200D1A1E00F2200241A40042A00D1AB
:2007000098E01A1D9A429B415B42E4181300220200D48FE001230024002523E6B54200D31F
:2007200064E743465A1E009B9C4665441F009D429B415B421B19C9188C423AD2884263D8DC
:2007400060D0904652E7AA4200D9EAE64346DE0758086B081E43ED07EAE6484600F0BEFB28
:2007600001000200153120321C2900DC1AE64B46083883400025984620E600F0AFFB030083
:200780001A00153220301C2A00DC30E65446083B00229C4035E60F232B40042B00D152E6A5
:2007A00005235B42AB429B4104355B42ED0898444AE68C42C5D1AF42C0D9904616E78A4247
:2007C00000D8EAE6831E0919E7E62A4A28005A44434695409340C8406A1E95414446034340
:2007E0002B43CC405A0792D00F221A40042A88D18DE73500814200D04BE7009A934200D0FD
:2008000047E718E6AE429CD902235B429C46009BE0449C4665449D429B415B421B19C918EC
:20082000E4E6154A5A44002A00DC44E701230025984409E665076402240BDB081D43002345
:2008400090E5009E023D7200B242BF417F423C1909190092CEE78024434624031C43240387
:20086000064B240B7EE5009A9A42EAD33500C4E73E0400001E040000FF030000FF07000016
:20088000F0B557464E464546DE46E0B598460C034B000600924687B0240B5B0DCF0F002B51
:2008A0006CD0DD4A934200D186E0420FE4001443802212041443D94AC50094466344009332
:2008C000002399469B46434642461E03D20F5B0050469046360B5B0D00D178E0CE4A93429C
:2008E0001DD0CE49420F8C4600996344F6008C46164380229C44120463461643C2000020F4
:2009000000930099434601318C4649467B4001930F2900D97EE0C24B890059588F4652461D
:20092000009B324300D056E1BB4900268C466344494600930223194389460220E1E7434618
:2009400001933400150083465B46022B5ED0032B00D1F3E1012B00D018E1002200240025C2
:20096000019B12052243DB071A432800110007B03CBC90469946A246AB46F0BD2500054390
:2009800000D141E1002C00D1ADE1200000F0A6FA010002000B391D2310005B1A31003500B7
:2009A00008388440D94085400C439E48831A0093002399469B4686E70500254300D01CE166
:2009C000082200930223002491469B467BE75246324300D10AE1002E00D176E1300000F0B8
:2009E0007DFA02000B3A1D2301009B1A52460839DA408E40164352468A40009B8949181A28
:200A000003008C466344002000937AE700240025814AA5E72F0C2D042D0C2B00110C1204A3
:200A2000120C53439846130028007B43994648434844834640460B00000C824658467B43AB
:200A400050440293814506D99A4680235B029946CA4453460293030C9B4643461B04000431
:200A60001B0C9846030043440493330C99462B003604360C7343984633007B439A464B4695
:200A80005D435F4343465544180C4019824503D980235B029A465744050CEB190593434621
:200AA0001D042D0C00044019250C2404240C270057436A4390462A003B0C9A464A43614330
:200AC000414451448344884503D980235B02984642443F040B0C3F0C0904C919270098468F
:200AE0004B4677435C436E435D433B0C9946A4194C4442440395A64204D980235B02984687
:200B000045440395029B3F045B441E008342804123049846059B3F0C4744984676188E42DA
:200B20008941474440423D18A846934649428A46C3449F42BF4180458041039BDA4498465F
:200B4000534640427F420743240C934592418A4589413F19DC0D049B75021D43681E8541F8
:200B60005346524249420A43BF184744F60D7F0235435A023C431543FB0100D4C1E001214C
:200B80006A080D401543E2071543640826496144002956DD6B0709D00F222A40042A05D038
:200BA0002A1DAA42AD416D4264191500E30104D580211E4AC900144061441D4A914200DD34
:200BC00024E76207ED08640249051543240B4A0DC6E60197B8E6104A0320944663444A46AA
:200BE000009303231A43914652468AE649460123194389460026012083E60C22009303238B
:200C0000050091469B465EE60423994600230093013300249B4656E6FF07000001FCFFFFA1
:200C2000580F00080DFCFFFFFF030000FFFFFFFEFE070000002380240025444A0193240307
:200C40008EE60120401A382800DD86E61F285BDD1F2223005242511ACB401900202803D0DB
:200C60003B4A6244944025436A1E95412A000A4307210D000024154011425BD00F210024B8
:200C80001140042953D0111D914292415242A4180A0023024BD501220024002560E68023EB
:200CA0001B031C4209D01E4207D133431C0343461500240B254A019352E6802212031443FC
:200CC0002403224A240B01974AE600F007F903001A00153220301C2A00DC84E65646083B7B
:200CE00000229E4089E600F0F9F801000200153120321C2900DC4EE6340008380025844057
:200D000053E6009B9C4641E71249220061442E008D408A40C640691E8D4132432A43C440CD
:200D20005307B6D00F2111400429ACD1B1E765076402240BD2081543002211E6802212030D
:200D400014432403014A240B0AE6C046FF0700003E0400001E0400000A0030B5134C53009A
:200D600009030500090B00205B0DD20FA34204DD0F48834202DD0F4BD01830BD8020400312
:200D800001430D48C01A1F2808DD0C48C31AD9400B005842002AF0D11800EEE7084CC54094
:200DA000A446634499400B002B43F2E7FE0300001D040000FFFFFF7F33040000130400008B
:200DC000EDFBFFFF002243088B4274D303098B425FD3030A8B4244D3030B8B4228D3030CCB
:200DE0008B420DD3FF22090212BA030C8B4202D31212090265D0030B8B4219D300E0090A7F
:200E0000C30B8B4201D3CB03C01A5241830B8B4201D38B03C01A5241430B8B4201D34B03C1
:200E2000C01A5241030B8B4201D30B03C01A5241C30A8B4201D3CB02C01A5241830A8B4219
:200E400001D38B02C01A5241430A8B4201D34B02C01A5241030A8B4201D30B02C01A5241F4
:200E6000CDD2C3098B4201D3CB01C01A524183098B4201D38B01C01A524143098B4201D31A
:200E80004B01C01A524103098B4201D30B01C01A5241C3088B4201D3CB00C01A5241830844
:200EA0008B4201D38B00C01A524143088B4201D34B00C01A5241411A00D201465241104698
:200EC0007047FFE701B5002000F006F802BDC0460029F7D076E770477047C0461C210123CA
:200EE0001B04984201D3000C10391B0A984201D3000A08391B09984201D30009043902A2F6
:200F0000105C40187047C04604030202010101010000000000000000180500088003000891
:200F20005E030008720400085E030008B60400085E030008720400088003000880030008A2
:200F4000B604000872040008240400082404000824040008C4040008140A00084209000878
:200F6000420900083E0900084809000848090008340C00083E09000848090008340C0008E5
:200F8000480900083E090008D20B0008D20B0008D20B00089E0C0008802390201C4A9B02F2
:200FA000516970B50B435361C0050368194A2026134003608023002420250268DB0013431A
:200FC0000360154B154A196882B000290DD0012913D00194019B9342F7DC019B01330193EC
:200FE000019B9342F9DD0029F1D1838A0121AB4383820194019B9342EFDD838A0021334327
:201000009BB283820194019B9342E6DDEDE7C04600100240FFF3FFFF00000020B6190B009F
:0400000508000000EF
:00000001FF
