:020000040800F2
:20000000004000204900000841000008450000080000000000000000000000000000000099
:200020000000000000000000000000000000000000000000000000000000000000000000C0
:20004000FEE7C046FEE7C04609480A4A10B5904203D00949121A03F049FC0848084A904291
:2000600003D00021121A03F095FC05F007FFFEE7C00000202C0100206D60000830010020A9
:20008000EC2A002030B5002A0BD080248D18C3691C42FCD00B7801310385A942F7D11000A1
:2000A00030BD0020FCE7C04670B590242025E405A38AC8206B409BB2A38200F075FDF7E7D1
:2000C00070B50D4B00221021186884B001F01CFD00240A4D0A4E286022003100684603F043
:2000E00097FE0134002300226946286801F07AFD032CF1D1FEE7C046C0000020300100203D
:20010000E45F000870B5094D094C0A4E84B02868002800D1FEE76946226801F0A3FF0028D6
:20012000F5D06946300003F05DFDF0E730010020C0000020F05F0008FA21044A4900536802
:2001400001338B4200D300235360704730010020FEE7C046FEE7C0467047C04610B500F0A5
:2001600023FD10BDA022174BD20219680A4380211A6089021A680A42FCD05A68124911401E
:20018000802252030A435A605A6810491140802252020A435A608022196852040A43802191
:2001A0001A60084A890413680B42FCD0012008490B6803430B60032153688B4301390B4387
:2001C0005360704700100240FFFFC3FFFF7FFEFF0020024070B5104C14E003F07DF823695D
:2001E000DD68281D03F06CFAA369013BA3612368013B236003F07CF8286B03F0A5F92800D3
:2002000003F0A2F92368002BE7D1E369012BF9D903F056F8F6E7C04638010020F8B54E46DA
:200220004546DE465746E0B59600804630000D00994603F0E5F8071E00D195E0542003F0C3
:20024000DFF8041E00D1A1E007633200A521380003F0A0FB236B9A46002D00D1CFE03423B9
:200260002A78E2542B78002B26D035236A78E2546B78002B20D03623AA78E254AB78002B75
:200280001AD03723EA78E254EB78002B14D038232A79E2542B79002B0ED039236A79E254BA
:2002A0006B79002B08D03A23AA79E254AB79002B02D03B23EA79E2543B230022E2540A9D2C
:2002C000042D5AD80023271DA3643800E56265649B4603F0CDF92000183003F0C9F9052326
:2002E000043E5D1B5B465A4656443000E36450332461A5616462E254493B98434A46414672
:2003000002F0C0FF0B9B2060002B00D01C6002F0E3FF3C4E3C4DB3690133B3612B68002B86
:200320003AD0EB6D002B2AD0E26A2B6E01332B66E3636B6E934200D26A6630009600B61862
:20034000B6001C308019390003F096F902F0D0FFEB6D0126002B09D02B68DA6AE36A9A4203
:2003600004D202F0ADFF01E00126764230003CBC90469946A246AB46F8BD0425A2E72B6899
:20038000E26ADB6A9342D0D82C60CEE70126380003F0DAF87642E9E72C60B369012BC3D1FA
:2003A00030001C3003F058F93000303003F054F93000443003F050F93000583003F04CF9DD
:2003C00030006C3003F048F92B1D1800994603F043F918239846A844404603F03DF92800D3
:2003E0002C3003F039F9301D03F036F92800403003F032F94B466B654346AB6594E734238B
:20040000E5545CE738010020B8010020F8B5050002F062FF224C002D38D02F1D380003F00F
:200420004FF9AB6A002B03D02800183003F048F9236E013323662368AB421ED0194A286B13
:200440009369013B936103F07FF8280003F07CF8636D1B68002B0DD0636DDB68DB685B6803
:20046000A36602F045FFE36D002B02D02368AB420ED0F8BD013BA366F3E70A4E3900301DE8
:2004800003F0FAF8336801333360EAE72568C4E7E36E002B01D072B6FEE702F011FFE8E7E1
:2004A000B801002038010020F0B5C646050000B5002820D0184E00203368AB4218D002F09F
:2004C0000BFF736D6C699846B76D02F011FF44451ED0BC421CD04036B4420ED00F4B04331D
:2004E0009C4217D063425C41032064422040013004BC9046F0BD72B6FEE7AB6A0220002BE9
:20050000F6D15033E85C0138431E98410230EFE70220EDE70420EBE7B801002038010020B4
:2005200010B5040002F0D8FE002C04D0E46A02F0DFFE200010BD014B1C68F7E7B801002099
:2005400010B5040002F0E2FE002C04D0E46A02F0E1FE200010BD014B1C68F7E7B80100206D
:20056000F0B5C64604000D0000B5042901D972B6FEE702F0B1FE002C26D0626C95421ED09A
:20058000224F24D83E68361B73425E41E16A8A4200D1E562A3696564002B02DB05235D1BF7
:2005A000A5611B4D8B002A005B181C329B00D31862699A4214D0002E01D002F081FE02F0E4
:2005C00097FE04BC9046F0BD104B1C68D5E73B68A34218D000263B68DB6A9D427641D5E7D8
:2005E000231D1800984603F06BF8E36A7A6E934200D97B669800C0181C35800041462818A3
:2006000003F03AF8D7E70026C0E7C046B80100203801002070B5041E0DD0184D2B68834211
:2006200008D002F059FE2B00626940339A4204D002F05EFE70BD72B6FEE72A00A36A2C3263
:200640009342F5D0002BF3D1261D300003F038F8E26A6B6E9A4200D96A66930008489B183B
:200660009B001C30C018310003F006F82B68E26ADB6A9A42DCD302F023FED9E7B80100203E
:2006800038010020F0B5C646040000B5002810D002F03CFE1C4D62692B0040330700002664
:2006A0009A4208D0380002F035FE300004BC9046F0BD72B6FEE72800A36A2C308342F1D092
:2006C000002BEFD1EB6E002B18D12B68E26ADB6A9A427641231D1800984602F0F1FFE26AA7
:2006E0006B6E9A4200D96A66930008489B189B001C304146C01802F0BFFFD3E721001831EC
:2007000002F0BAFFCEE7C046B801002038010020F8B58020CE464746C00080B502F070FEFE
:20072000051E65D0542002F06BFE041E5DD08022A521D2000563280003F02CF9514B0025A0
:2007400063633823266B271DE5540333E5543800E5626564A56402F08BFF2000183002F0D4
:2007600087FF0523A3614B33E56424616462E554FF239B00F018072300229843424902F013
:2007800081FD424D20602C6702F0A6FD404EB3690133B3612B68002B3DD0EB6D002B33D061
:2007A000E36A2A6E01322A66E2636A6E934200D96B669800C0181C3680003900301802F040
:2007C0005BFF02F095FDEB6D002B04D02B68DA6AE36A9A4252D302F0F5FB01280AD0431C7B
:2007E00006D00CBC90469946F8BD280002F0ACFE72B6FEE772B601235B42AB660023E865B6
:200800006B6702F0D5FDECE72A68E36AD26A9A42C7D82C60C5E72C60B369012BC0D130000C
:200820001C3002F019FF3000303002F015FF3000443002F011FF3000583002F00DFF300040
:200840006C3002F009FF2B1D1800994602F004FF18239846A844404602F0FEFE28002C30D1
:2008600002F0FAFE301D02F0F7FE2800403002F0F3FE4B466B654346AB6591E702F020FD5E
:20088000A9E7C04649444C45D5010008B80100203801002010B572B60022024BDA6502F007
:2008A00003FD10BDB8010020024AD36E0133D3667047C046B8010020014B586F7047C04632
:2008C000B8010020014B586F7047C046B8010020014B98697047C04638010020002801D03A
:2008E00034307047024B18680028F9D172B6FEE7B8010020F0B5D6464F464646434CC0B552
:20090000E36E002B6BD1676F01376767002F10D1636D1B68002B69D1636DA26D6265A365CD
:20092000A36F0133A367636D1B68002B60D1013BA366A36E9F4238D3636D00251B68344E7C
:20094000002B5BD01C239A46B24425E0042343441800994602F0B4FE43469B6A002B03D052
:200960004046183002F0ACFE4346626EDB6A934200D963669800C01880004946504402F0F3
:200980007BFE42462368D26ADB6A9A4200D30125636D1B68002B31D0636DDB68DB689846C2
:2009A0005B689F42D2D2A36601E00025184E2368DA6A93009B189B00F618F369012B00D95B
:2009C0000125E36F002B1DD0124B1B68002B00D0012528001CBC90469946A246F0BDE36FEA
:2009E00000250133E367FFF7A7FBF2E772B6FEE7636DDB68DB685B68A3669AE701235B4272
:200A0000A366D4E7FFF798FBDEE7C046B80100203801002038020020F8B5CE46474680B5AF
:200A200002F05AFC334CE36E013BE366E36E002B4BD1314FBB69002B47D0E36A002B56D0FD
:200A40002E4B1C37984601239946A36BDD6828002E1D183002F034FE300002F031FEEB6A11
:200A6000626E934200D963669800C01880003100381802F001FE2368EA6ADB6A9A422CD3CE
:200A800043464A461A60E36A002BDED1636D1B68002B29D0636DDB68DB685B68A366E56FAF
:200AA000002D0AD00126FFF725FF002801D043461E60013D002DF6D1E56743461B68002B39
:200AC00003D002F0FDFB012400E0002402F010FC20000CBC90469946F8BDE36A002BB4D1E3
:200AE000636D1B68002BD5D1013BA366D7E7034B9846D4E7B801002038010020380200205C
:200B0000044B10B5DB6E002B01D172B6FEE7FFF783FF10BDB8010020F8B5002817D000296B
:200B200001D172B6FEE71F4EF36E002B11D1F36E0133F3660268756F54180460AA420FD91B
:200B4000A2420FD8F36E002B05D172B6FEE772B6FEE772B6FEE7FFF75FFF002819D0F8BD27
:200B6000A24201D8A542EDD2776F30687D1B043002F0A6FD336864195C60A7420CD8706DB5
:200B80003168043102F084FDB36E9C42DAD2B466D8E702F095FBE2E7B06D3168043102F068
:200BA00077FDCFE7B801002070B5051E09D0174CE36E002B08D072B6FEE7FFF72DFF002803
:200BC00001D102F07DFB70BDE36E0133E366666F2068AD19043002F073FD23685D60AE42ED
:200BE00009D9A06D2168043102F052FDE36E002BE3D172B6FEE7606D2168043102F048FD08
:200C0000A36E9D42F2D2A566F0E7C046B80100200A4B10B5DA6E002A01D072B6FEE7DA6EAD
:200C20000132DA66DA6F1218DA67DB6E002B01D172B6FEE7FFF7F0FE10BDC046B8010020AA
:200C4000F0B54E4691460822DE46574645469346E0B54B688B445B6804000F0083B05B4575
:200C60006CD0DA685B68019200229046344A7B6092469B452FD0DE68351E32D02B0034336B
:200C80006360EB6A296B2361EB6B2560A3606B6CE16163610023A36153461B68AB4223D046
:200CA0004B462373032B35D00B78A52B21D100230133CA5CA52AFBD09B089BB223840123C3
:200CC0009C46019BE0442434B3421BD07B685B687B609B45CFD15B465B68DE687B60351E61
:200CE000CCD153461D68C9E7002323730B78A52BDDD00023238401239C46019BE0442434E8
:200D0000B342E3D1404603B03CBC90469946A246AB46F0BD53465246DB6E0133D366AB6AC2
:200D2000002B01D0022323735346DB6E002B01D172B6FEE7FFF770FE296BB5E7CB6890E7D2
:200D4000B8010020F0B54F464646D646384DC0B5EB6E060001339146EB66364F0024BB6956
:200D60008B4257D86C239A46673B98460022BA4401235B429C46E04443469B0043449B005B
:200D8000FB181019DB6980003018002B08D001225146FFF755FF2418E200101980003018F5
:200DA00014235B429C464346E244002BE0D1696D0B68002B07D00222FFF742FF2418E00030
:200DC000001980003018A96D0B68002B07D00222FFF736FF2418E0000019800030187B6878
:200DE000002B08D00422391DFFF72AFF2418E0000019800030182B6C002B05D02900032273
:200E00004031FFF71DFF24184B46002B02D000234A461360EB6E002B01D172B6FEE7FFF706
:200E2000FBFD20001CBC90469946A246F0BDC046B80100203801002070B5374CE36E002B1C
:200E400003D00122354B1A6070BD344A3449136023681B6B1A688A4202D15968914251D020
:200E6000206821683431FFF775F9626E2D499300981880000818C069002835D1002A2FD0EF
:200E8000531E9800C01880000818C069002829D1002B25D0931E9800C01880000818C0697C
:200EA00000281FD1002B1BD0D31E9800C01880000818C069002815D1002B11D0131F9800F6
:200EC000C01880000818C06900280BD1002B07D0531F9A00D21892008A18D269002A01D10A
:200EE00072B6FEE71A009B009B189B00CD182900286A24314068286288420AD0C368236069
:200F00006266A1E79A688A42AAD1DB689342A7D1ABE740682862F1E7B801002038020020D9
:200F2000A5A5A5A53801002070B5050002F0D4F9244C002D1ED02E1D300002F0C1FBAB6A12
:200F4000002B03D02800183002F0BAFB20003100403002F091FB5023EA5C012A01D1002265
:200F6000EA5402F0C5F9E36D002B0DD12368AB4202D070BD2568DEE7E36D002B15D0E36EB0
:200F8000002B1CD072B6FEE702F0A6F9636D1B68002B07D0636DDB68DB685B68A36602F033
:200FA000A7F9E3E7013BA366F9E7074A216C9269914201D12360DCE7FFF73EFFD9E702F0F9
:200FC0007FF9D6E7B80100203801002070B50D00002816D0144C2168183102F059FB666F1D
:200FE0002068043002F06CFB6B1C0CD02368AD195D60AE420ED9A06D2168043102F048FB94
:2010000070BD72B6FEE7200021684030043102F033FBF5E7606D2168043102F039FBA36E8A
:201020009D42EDD2A566EBE7B801002070B51500002805D0194CE36E002B03D172B6FEE763
:2010400072B6FEE780231B060B43226821689361183102F011FB666F2068043002F030FB75
:201060006B1C0AD02368AD195D60AE420CD9A06D2168043102F00CFB05E02000216840306A
:20108000043102F0F9FA70BD606D2168043102F0FFFAA36E9D42F6D2A566F4E7B80100201C
:2010A00070B50D001600002822D0174C2168183102F0E2FA002E0FD1666F2068AD19043066
:2010C00002F0FEFA23685D60AE4213D9A06D2168043102F0DDFA70BD636F2068043002F0C1
:2010E000EFFA200021684030043102F0C5FAF2E772B6FEE7606D2168043102F0C9FAA36ED1
:201100009D42E8D2A566E6E7B8010020C36870B5DC68002C2BD026001836300002F0D0FA6A
:20112000144DEB6E002B0FD0280031002C3002F0A3FA2B68E26ADB6A00209A4203D9012288
:201140000D4B01301A6070BD261D300002F0B8FAE26A6B6E9A4200D96A66930007489B1809
:201160009B001C303100C01802F086FAE1E772B6FEE7C046B80100203802002038010020A6
:2011800070B5164DEB6E002B01D172B6FEE78023C4681B060B430360002C1CD0261D02F076
:2011A0008FFA300002F08CFAE26A6B6E9A4200D96A6693000A489B189B001C30C0183100CC
:2011C00002F05AFA2B68E26ADB6A9A4202D90122044B1A6070BD72B6FEE7C046B8010020E9
:2011E000380100203802002010B5041E09D002F073F8054B9A6F5B6F2260636002F078F855
:2012000010BD72B6FEE7C046B8010020024B9A6F5B6F026043607047B8010020F8B50400AF
:201220000D00002821D000291DD002F055F8134A2B68506F591C1AD0966F27686168B742CF
:2012400002D0012681420AD9461AB34211D900261B1A5B182B60936F2360536F636002F05B
:2012600047F83000F8BD72B6FEE772B6FEE70026F5E7002301262B60F1E7C046B8010020A2
:201280000122014B1A60704738020020002801D0006C70470020FCE7002800D00164704721
:2012A000F0B54F464646D6460400C0B50D0016003E4F00282ED0220034326A60E26A2C60D3
:2012C0002A61226BEA61E26BAA60626C6A610022AA61052B2DD03968A14217D02B73032B2A
:2012E0001AD0002E0CD0226B1378A52B4BD100230133D15CA529FBD09B089BB22B8400E05A
:201300002E841CBC90469946A246F0BD2A73002EF6D0E8E73C68CEE7FB6E0133FB66A36A35
:20132000002B01D002232B73FB6E002B25D172B6FEE73A680023A2421BD001F0CDFF63693A
:2013400098467B6D9A46BB6D994601F0D1FFD04516D0C84514D04037B84517D0144B043342
:2013600098451FD043465A4253415A420323134001332B73002EC3D0B5E7FFF74DFBB0E7CF
:2013800002232B73F6E700232B84BAE7A26A0223002AEED14E33E35C013B5A1E93410233A3
:2013A0002B73E7E704232B73E4E7C046B801002038010020014B18687047C046B801002097
:2013C000044B0120DA6D002A03D0D86E4342584140007047B8010020F8B5041E23D01E4DF8
:2013E000C26A2B68DB6A9A4216D28369002B04DB2B68D96A05235B1A8361184E93003100AE
:201400009B181C319B006269CB189A420DD02B680120DB6AE36205E02B68406CDB6A984249
:2014200080414042F8BD0020FCE7271D380002F047F92B686A6EDB6AE362934200D96B668F
:2014400030009E00F6181C30B6008019390002F013F90120E6E7C046B801002038010020B8
:2014600070B5002810D0164E3468844201D072B6FEE7A36C002B09D0E26A616C013BA3642C
:201480008A4201D0002B03D0002070BD72B6FEE7251D280002F014F90522636CD21AA26109
:2014A000726EE362934200D9736606489A00D3189B001C30C018290002F0DEF80120E4E711
:2014C000B801002038010020F8B5041E33D0836C002B01D172B6FEE7426C8A4200D20A00B9
:2014E000E16A914227D0012B25D1144F3B68A34222D0A369E262002B02DB05239A1AA261A1
:201500000F4D8B002A005B181C329B00D31862699A4210D1261D300002F0D2F8E36A7A6E87
:20152000934200D97B669800C0181C3580003100281802F0A1F8F8BD72B6FEE7B801002044
:2015400038010020F0B50023DE464E4645465746E0B50370274B04009D699B6983B0D800F7
:20156000C018800001F04CFF814600283AD000222900FFF7E7FB002831D04B461D1DC30004
:2015800018181D4B80009A46002380469B46A8442B7A0027042B01D8184AD75C2000296883
:2015A00002F056FC0600031B062B07D8221A2021073202F0EFF95B46E61DE3716A68EB6806
:2015C0000192AA8B5146009230003A0002F020FC300002F061FC24353418A845D8D148465A
:2015E00001F0B2FF03B03CBC90469946A246AB46F0BDC0463801002014600008E85D00083B
:20160000044B1A68196890691A680523C96A5B1A93617047B8010020044B1A68002A03D0DB
:2016200019688A6C01328A6418687047B8010020F8B506000D0001F04FFE244C2368DB6CC2
:20164000002B05D1012122685033D154002D17D101F04EFE01F040FE2368DD6C002D04D0DF
:201660002368002E09D00022DA64502300212268D15401F03DFE2800F8BD6A1EDA64F4E78B
:20168000676F2068043002F01BF86B1C0CD02368ED195D60AF420ED9A06D2168043101F06E
:2016A000F7FF01F00DFED3E7200021684030043101F0E2FFF5E7606D2168043101F0E8FF1F
:2016C000A36E9D42EDD2A566EBE7C046B8010020F0B5C64600B515001E000700884601F040
:2016E000FBFD5023284C2268D25C022A08D02168CA6CBA43CA6401212268D154002E1ED177
:2017000001F0F6FD01F0E8FD002D02D02368DB6C2B60502322680025D35C022B05D14146D8
:2017200022680135D36C8B43D364502300212268D15401F0DDFD280004BC9046F0BD676F56
:201740002068043001F0BCFF731C0CD02368F6195E60B7420ED9A06D2168043101F098FF2B
:2017600001F0AEFDCCE7200021684030043101F083FFF5E7606D2168043101F089FFA36E68
:201780009E42EDD2A666EBE7B8010020F8B504000E0015001F00002810D001F09DFD002F3E
:2017A00001D0E36C3B6050220221A35CA154DBB2042D27D8204AAD005259974672B6FEE77C
:2017C000E26C1643E664012B04D0012401F090FD2000F8BD261D300001F072FF174DE26A1B
:2017E0006B6E9A4200D96A66154893009B189B001C30C018310001F03FFFA36A002B10D0B1
:2018000072B6FEE7E26C0132DDD072B6FEE7022B0FD0E664012BD8D1DCE7E26C0132E264CB
:20182000D1E72B68E26ADB6A9A42CED901F048FDCBE70024CAE7C046C05D0008B801002088
:2018400038010020F0B5CE4604000E001500994600B5002813D001F059FD4B460700002BA6
:2018600002D04A46E36C136050220221A35CA154DBB2042D2FD8294AAD005259974672B626
:20188000FEE7E16C3143E164012B1CD1A36A002B01D072B6FEE7224DEB6E002B2AD0280019
:2018A00021002C30183101F0E7FE2B68E26ADB6A9A4208D9069B002B02D01A00012313605C
:2018C0000122184B1A600124380001F023FD200004BC9146F0BDE26C0132D5D072B6FEE703
:2018E000022B05D0E664CFE7E26C0132E264CBE70024E9E7261D300001F0E2FEE26A6B6E10
:201900009A4200D96A66930007489B189B001C303100C01801F0B0FEC7E7C046D45D000831
:20192000B80100203802002038010020F0B5C64604000E0000B5002839D001F0E7FC50232B
:201940000221E25CE154E36C07000133E364012A27D1A36A002B01D072B6FEE7184DEB6E29
:20196000002B26D1231D1800984601F0A9FEE26A6B6E9A4200D96A66124893009B189B0092
:201980001C304146C01801F077FE2B68E26ADB6A9A4206D9002E01D00123336001220A4B29
:2019A0001A60380001F0B6FC04BC9046F0BD72B6FEE7280021002C30183101F05DFEE4E77D
:2019C000B8010020380100203802002070B5041E0CD001F081FC5023E25C0025022A01D116
:2019E000E554013501F084FC280070BD014B1C68EFE7C046B801002070B504000D00084EA1
:201A000000280AD001F068FC3368DE6CE36CAB43E36401F06DFC300070BD3468F2E7C046D4
:201A2000B801002070B51600026C0400856B002A06D10668002E2AD001350020A56370BD0E
:201A4000002E0FD1406801F051FF226C63689446A268634463609342EED3236800206360E4
:201A60000135EBE7C06801F041FFE168236C5A42CB1A2168E3608B4203D2A3689C466244AB
:201A8000E260022ED8D1002DD7D10135D5E78068FFF7E6FC0135A660D0E7C04670B5040082
:201AA0000D0000281BD001F017FC216CE36B22684B43D0185B1AD318A0606260E36044225C
:201AC000FF230020A063A3540132A354002D11D12369002B05D101F00BFC012070BD72B696
:201AE000FEE720001030FFF711FB0028F3D001F0E7FBF0E72000103001F0AEFD200024309A
:201B000001F0AAFDE7E7C046F8B506000D001700002801D172B6FEE708007043503001F04F
:201B20006FFC041E24D00300002D23D12360E663256401F0D1FB226CE36B21685343C81813
:201B4000A06000209B1ACB18E3604422FF23A06320006160A3540132A354103001F07CFD53
:201B60002000243001F078FD01F0C2FB4C23E7542000F8BD5033D9E770B505000E000028BB
:201B800001D172B6FEE7884201D272B6FEE7502001F036FC041E23D0C563002500600564FE
:201BA00001F09AFB216CE36B22684B43D0185B1AD3186260E3604422FF23A0602000A563AF
:201BC000A3540132A354103001F046FD2000243001F042FD01F08CFB4C230222E254A66382
:201BE000200070BDF0B54746CE4680B585B0040088461F000192002800D196E0002900D1FB
:201C00008DE0022F04D1E36B012B01D072B6FEE7FFF7D6FB051E00D189E000252600243630
:201C200001F05AFBA36BE26B934200D2DCE0022F00D1D9E0019B002B00D131E1002D00D13D
:201C4000CEE001F055FBFEF72FFE01F045FB4422A35C5BB2013301D10023A3544522A35C4A
:201C60005BB2013301D10023A35401F041FB01A902A8FFF7D3FA002800D0CFE001F02CFB34
:201C8000A36BE26B934258D001F032FB01F024FB4523E55C6DB2002D05DC13E0013DEBB21A
:201CA0006DB2002B0ED0636A002B0BD03000FFF72DFA0028F2D0013DFFF7E2FAEBB26DB226
:201CC000002BF0D14523FF22E25401F011FB01F003FB4423E55C6DB2002D17DD343B994637
:201CE000A14404E0013DEAB26DB2002A0ED02369002B0BD04846FFF709FA0028F2D0013DD9
:201D0000FFF7BEFAEAB26DB2002AF0D14423FF22E25401F0EDFAFEF7F3FE012580E7036CF7
:201D2000002B00D16DE772B6FEE772B6FEE7019B002B00D172E772B6FEE701F0D9FA102344
:201D40009946A14448460199FFF740F901F0C4FA4523E55C6DB2002D05DC13E0013DEBB215
:201D60006DB2002B0ED0636A002B0BD03000FFF7CDF90028F2D0013DFFF782FAEBB26DB226
:201D8000002BF0D14523FF22E25401F0B1FA01F0A3FA4423E55C6DB2002D05DC13E0013D68
:201DA000EBB26DB2002B0ED02369002B0BD04846FFF7ACF90028F2D0013DFFF761FAEBB28D
:201DC0006DB2002BF0D14423FF22E25401F090FAFEF796FE0028A0D101F072FA01251FE714
:201DE00002A8FFF713FA2CE73A0041462000FFF719FE636A002B0CD1002807D101F078FAFD
:201E0000012005B00CBC90469946F0BD01F058FAF4E720002430FFF779F9EDE701F05CFAAD
:201E20004523E55C6DB2002D12DD2600243604E0013DEBB26DB2002B0AD0636A002B07D08C
:201E40003000FFF763F90028F2D0FFF719FAEFE74523FF22E25401F04BFA01F03DFA4423B3
:201E6000E55C6DB2002D12DD2600103604E0013DEBB26DB2002B0AD02369002B07D03000D9
:201E8000FFF744F90028F2D0FFF7FAF9EFE74423FF22E25401F02CFAFEF732FE0020B0E7B5
:201EA00001F026FA0020ACE770B50600502001F0A7FA041E2BD0002501230060C3630564DC
:201EC00001F00AFA216CE36B22684B43D0185B1AD3186260E3604422FF23A0602000A5631D
:201EE000A3540132A354103001F0B6FB2000243001F0B2FB01F0FCF94C230022E6540021FB
:201F000000232000A5602560E560FFF76BFE200070BDC04670B5041E07D08668FFF74AFAB7
:201F20000025864203D0280070BD72B6FEE7E3680135013BE360002BF5D10022002120002B
:201F4000FFF750FEEFE7C046F0B54F46D64646460400C0B591460F009A4600281FD0002900
:201F600018D05346022B04D1E36B012B19D072B6FEE701F0CBF9A36BE26B0600934214D39C
:201F80000025300001F0C6F928001CBC90469946A246F0BD036C002BE3D072B6FEE772B670
:201FA000FEE701F0B3F90600A36B4523E55C52466DB2390020009846A36BFFF733FD6B1C39
:201FC00005D0434601356DB2E5540125D9E7636A0235002BD5D020002430FFF797F800283A
:201FE000CFD04B46002BCCD01D60CAE7F8B504000E0000281FD0036C002B01D072B6FEE76E
:202000000368002B19D001F081F9A26BE36B0700002593420AD94521635C01325BB2A2632D
:202020005A1C0FD001335BB263540125380001F071F92800F8BD72B6FEE78368002BE2D0E8
:2020400072B6FEE7636A002BEFD020002430FFF75DF80028E9D0002EE7D00123012533605A
:20206000E4E7C046F0B54746CE4680B585B004000F000192002800D1E8E0002900D182E01C
:20208000FFF79EF9002879D001F026F9A56B002D00D031E1019B002B00D1CFE002A8FFF72C
:2020A000B5F8242398464426A04401F021F9FEF7FBFB01F011F9A35D5BB2013301D10023D9
:2020C000A3554522A35C5BB2013301D10023A35401F00EF901A902A8FFF7A0F8002858D14A
:2020E00001F0FAF8A36B002B00D1B1E001F000F901F0F2F84523E55C6DB2002D05DC13E0D4
:20210000013DEBB26DB2002B0ED0636A002B0BD04046FEF7FBFF0028F2D0013DFFF7B0F8AE
:20212000EBB26DB2002BF0D14523FF22E25401F0DFF801F0D1F810239946A55DA1446DB29E
:20214000002D05DC13E0013DEBB26DB2002B0ED02369002B0BD04846FEF7D8FF0028F2D0A5
:20216000013DFFF78DF8EBB26DB2002BF0D1FF23A35501F0BDF8FEF7C3FC56E0019B002B8D
:2021800082D072B6FEE7036C002B00D178E772B6FEE701F0A1F84523E55C6DB2002D05DCA9
:2021A00013E0013DEBB26DB2002B0ED0636A002B0BD04046FEF7AAFF0028F2D0013DFFF714
:2021C0005FF8EBB26DB2002BF0D14523FF22E25401F08EF801F080F810239946A55DA14468
:2021E0006DB2002D05DC13E0013DEBB26DB2002B0ED02369002B0BD04846FEF787FF0028F9
:20220000F2D0013DFFF73CF8EBB26DB2002BF0D1FF23A35501F06CF8FEF772FC01F05CF8D5
:20222000A36B002B0AD001F063F801F055F8A56B002D61D1019B002B00D036E701F058F89D
:20224000002005B00CBC90469946F0BD72B6FEE701F04EF840460199FEF7B8FE01F03CF84B
:202260004523E55C6DB2002D05DC13E0013DEBB26DB2002B0ED0636A002B0BD04046FEF744
:2022800045FF0028F2D0013DFEF7FAFFEBB26DB2002BF0D14523FF22E25401F029F801F07A
:2022A0001BF810239946A55DA1446DB2002D05DC13E0013DEBB26DB2002B0ED02369002B38
:2022C0000BD04846FEF722FF0028F2D0013DFEF7D7FFEBB26DB2002BF0D1FF23A35501F0D9
:2022E00007F8FEF70DFC00289FD100F0E9FF00F0F3FFA56B002D9DD0226C002A0AD0E36808
:202300009918A368E160994201D32168E160380001F0ECFA013DA5632369002B03D100F077
:20232000E7FF01208DE720001030FEF7EFFE0028F5D000F0C5FFF2E7F0B5C64600B584B0CC
:20234000041E019104D0036C002B03D072B6FEE772B6FEE7FFF734F8061E00D122E100252F
:2023600000262700243700F0B7FFA36B002B00D01FE1019B002B00D140E1002E00D10DE160
:2023800000F0B6FFFEF790FA00F0A6FF4422A35C5BB2013301D10023A3544522A35C5BB27F
:2023A000013301D10023A35400F0A2FF01A902A8FEF734FF00281FD100F08EFFA36B002B22
:2023C00000D19CE000F094FF00F086FF4523E65C76B2002E05DC69E0013EF3B276B2002B57
:2023E00064D0636A002B61D03800FEF78FFE0028F2D0FEF745FFEFE700F06EFF4523E65CC6
:2024000076B2002E05DC13E0013EF3B276B2002B0ED0636A002B0BD03800FEF777FE0028E0
:20242000F2D0013EFEF72CFFF3B276B2002BF0D14523FF22E25400F05BFF00F04DFF442316
:20244000E65C76B2002E17DD343B9846A04404E0013EF3B276B2002B0ED02369002B0BD034
:202460004046FEF753FE0028F2D0013EFEF708FFF3B276B2002BF0D14423FF22E25400F004
:2024800037FFFEF73DFB00F027FFA36B002B03D000F02EFF012666E700F02AFF002D00D010
:2024A0009CE0280004B004BC9046F0BD4523FF22E25400F01DFF00F00FFF4423E65C76B2E7
:2024C000002E13DD343B9846A04404E0013EF3B276B2002B0AD02369002B07D04046FEF7AF
:2024E00015FE0028F2D0FEF7CBFEEFE74423FF22E25400F0FDFE0126FEF702FB33E700F07F
:20250000F7FE2368002B60D038000199FEF75EFD00F0E2FE4523E65C76B2002E05DC0FE01E
:20252000013EF3B276B2002B0AD0636A002B07D03800FEF7EBFD0028F2D0FEF7A1FEEFE752
:202540004523FF22E25400F0D3FE00F0C5FE4423E65C76B2002E13DD343B9846A04404E044
:20256000013EF3B276B2002B0AD02369002B07D04046FEF7CBFD0028F2D0FEF781FEEFE745
:202580004423FF22E25400F0B3FEFEF7B9FA002800D07FE700F094FE0126E4E602A8FEF7C4
:2025A00035FEEDE6019B002B01D072B6FEE70025D7E6013BA3632368002B2FD02369002BE0
:2025C00023D100F095FE01256BE700F085FEA068FEF702FF050000F08BFE95E700F07CFE37
:2025E000616A002903D00521236B1B68C91AA068FEF76AFF002500F07BFE52E7002D01D0CF
:2026000072B6FEE700F074FE4BE720001030FEF77DFD0028D5D000F053FED2E7FEF7FCFF93
:20262000A060CBE770B504000D00002813D08668FEF7C0FE864209D029002000FFF77CFEAC
:20264000002807D0E3680133E36003E00120E3680133E36070BD72B6FEE7C046F0B5474681
:20266000CE4680B585B004000F000192002800D1E8E0002900D182E0FEF7A2FE002879D013
:2026800000F02AFEA36B002B00D02DE1019B002B00D1CFE002A8FEF7B9FD242398464425E1
:2026A000A04400F025FEFEF7FFF800F015FE635D5BB2013301D1002363554522A35C5BB213
:2026C000013301D10023A35400F012FE01A902A8FEF7A4FD002858D100F0FEFDA36B002B7B
:2026E00000D1B1E000F004FE00F0F6FD4523E65C76B2002E05DC13E0013EF3B276B2002B98
:202700000ED0636A002B0BD04046FEF7FFFC0028F2D0013EFEF7B4FDF3B276B2002BF0D10A
:202720004523FF22E25400F0E3FD00F0D5FD10239946665DA14476B2002E05DC13E0013E25
:20274000F3B276B2002B0ED02369002B0BD04846FEF7DCFC0028F2D0013EFEF791FDF3B265
:2027600076B2002BF0D1FF23635500F0C1FDFEF7C7F956E0019B002B82D072B6FEE7036C3D
:20278000002B00D178E772B6FEE700F0A5FD4523E65C76B2002E05DC13E0013EF3B276B25F
:2027A000002B0ED0636A002B0BD04046FEF7AEFC0028F2D0013EFEF763FDF3B276B2002BA2
:2027C000F0D14523FF22E25400F092FD00F084FD10239946665DA14476B2002E05DC13E0A5
:2027E000013EF3B276B2002B0ED02369002B0BD04846FEF78BFC0028F2D0013EFEF740FDCD
:20280000F3B276B2002BF0D1FF23635500F070FDFEF776F900F060FDA36B002B0AD000F014
:2028200067FD00F059FDA36B002B5DD1019B002B00D036E700F05CFD002005B00CBC904617
:202840009946F0BD72B6FEE700F052FD40460199FEF7BCFB00F040FD4523E65C76B2002EA7
:2028600005DC13E0013EF3B276B2002B0ED0636A002B0BD04046FEF749FC0028F2D0013EB3
:20288000FEF7FEFCF3B276B2002BF0D14523FF22E25400F02DFD00F01FFD10239946665DD6
:2028A000A14476B2002E05DC13E0013EF3B276B2002B0ED02369002B0BD04846FEF726FCBD
:2028C0000028F2D0013EFEF7DBFCF3B276B2002BF0D1FF23635500F00BFDFEF711F9002851
:2028E0009FD100F0EDFC9CE7226CE568002A09D0A368A918E160994201D32168E160380070
:2029000000F0F4FF636AE560002B03D100F0F0FC012092E720002430FEF7F8FB0028F5D004
:2029200000F0CEFCF2E7C046F8B5CE46474604008946160080B5002816D000290FD000F08C
:20294000E5FCA36B070098460025002B0ED1380000F0E0FC28000CBC90469946F8BD036CA7
:20296000002BECD072B6FEE772B6FEE74423226CE55C6DB2002A0AD0E3689918A368E160B5
:20298000994201D32168E160484600F0AFFF4346013BA3636B1C05D0442301356DB2E55476
:2029A0000125D4E72369002BFAD020001030FEF7ADFB0028F4D0002EF2D0012301253360FF
:2029C000C5E7C046F8B504000D0000280AD0036C002903D0002B07D172B6FEE7002BFBD014
:2029E00072B6FEE772B6FEE700F090FCA36B06000027002B04D1300000F08CFC3800F8BD71
:202A0000226CE768002A09D0A368B918E160994201D32168E160280000F068FFE760012752
:202A2000E9E7C04610B5041E06D000F055FCA46B00F05EFC200010BD72B6FEE710B5041E88
:202A400008D000F049FCA36BE46BE41A00F050FC200010BD72B6FEE7002801D0806B70473D
:202A600072B6FEE770B500281BD01A4B5A68904229D0DA6890422AD05A69904225D0DA6944
:202A800090421CD05A6A904217D0DA6A904218D05A6B904207D0DA6B90420CD000F054FD5B
:202AA00070BD72B6FEE7062200240025D2009B181C605D60F2E70722F6E70422F4E70322A8
:202AC000F2E70522F0E70022EEE70222ECE70122EAE7C04640020020806C70478164704796
:202AE0004C23C05C7047C046002803D0806B43425841704772B6FEE7002805D0826BC06BB1
:202B0000801A43425841704772B6FEE7164B1A68002A15D09A68002A18D01A69002A17D09F
:202B20009A69002A16D01A6A002A15D09A6A002A14D01A6B002A13D09A6B002A12D0704783
:202B40000022D20099509B185860F8E70122F8E70222F6E70322F4E70422F2E70522F0E74E
:202B60000622EEE70732ECE740020020164A03005168884216D0D168884217D051698842B0
:202B800016D0D169884215D0516A884214D0D16A884213D0516B884212D0D16B0020994276
:202BA00010D070470023DB00D058FAE70123FAE70223F8E70323F6E70423F4E70523F2E768
:202BC0000623F0E70723EEE740020020174B5A68904215D0DA6890421AD05A69904219D03D
:202BE000DA69904218D05A6A904217D0DA6A904216D05A6B904215D0DA6B824214D070473F
:202C0000002200200021D2009B1818605960F6E70122F6E70222F4E70322F2E70422F0E7C4
:202C20000522EEE70622ECE70722EAE74002002070B5040016000D0000F04EFB4422A35C57
:202C40005BB2013301D10023A3544522A35C5BB2013301D10023A35400F04AFBA36B002B46
:202C600046D000F039FB4523E55C6DB2002D16DD2600243604E0013DEBB26DB2002B0ED0CB
:202C8000636A002B0BD03000FEF740FA0028F2D0013DFEF7F5FAEBB26DB2002BF0D14523E6
:202CA000FF22E25400F024FB00F016FB4423E55C6DB2002D16DD2600103604E0013DEBB29B
:202CC0006DB2002B0ED02369002B0BD03000FEF71DFA0028F2D0013DFEF7D2FAEBB26DB259
:202CE000002BF0D14423FF22E25400F001FB70BD2000320029002430FEF7D2F9B1E7C046E4
:202D0000F0B54746CE46282380B5984604271E4E85B00EE0DB68DC681A68251D280091460B
:202D200000F0CEFC236A200098474346E35C1F420BD133681A68002AECD1B268B360326085
:202D400005B00CBC90469946F0BDA3694B44994506D2290030686360246100F099FCE8E7E6
:202D60007368002B0ED0002301934B4603940293FEF726FB00230022706801A9FEF732FFF8
:202D80000028D6D172B6FEE7800200208B4BF0B54E464546DE46574698460023E0B59946E5
:202DA0002826874C89B023681F68002F00D18AE0DB681F68FDF778FDFDF77EFDE36805004B
:202DC000834200D998E0E060874200D89DE000226068791BFFF72CFFFDF792FE002800D163
:202DE00087E002239A46013B9B460022606802A9FFF738F90028D6D0029B0193002BF4DB95
:202E0000049D6B69002B02D0281D00F059FCFDF753FDE3680700984274D3029BE760092BE7
:202E2000E3D842469B00D3589F460122AB5D1343AB55A969039B2D615A186A60BA427DD858
:202E4000FB1A994200D98AE02B6A28009847AB5D5B07CAD56368002B13D04A46039B0193FF
:202E6000AB690592019A0795944663440693FEF7A7FA002360681A0005A9FEF7B3FE00283F
:202E8000B3D172B6FEE70122AB5D1343AB55039BAB61002B00D18AE0DB196B602D61291D7D
:202EA000BB4254D8A06800F0F3FB9EE75A46AB5D9343AB5599E75246AB5D1A424BD05A46C9
:202EC0009343AB5591E7FDF7EFFCFDF7F5FCE3680500834210D8A36860681A68791B534265
:202EE0005A41E560FFF7A4FEFDF70AFE002800D077E700F0E5F974E7FFF702FFE560FDF7AF
:202F0000FFFD6EE7FFF7FCFE87E7FDF7F9FD2368DB68DB689A460423534418009B4600F080
:202F2000CFFB53469B5D5A071ED40122934352469355534650461B6A984752E7BB4201D9C7
:202F4000934281D92068291D00F0A2FB4DE7206800F09EFB49E7280000F0F6FA45E7A06836
:202F6000291D00F095FB40E7534651469B690961FA184A60AA4204D95946206800F088FBA7
:202F8000D7E7ED1BAB4214D86368002B0DD04B46079105930697FEF713FA002360681A005A
:202FA00005A9FEF71FFE0028C3D172B6FEE772B6FEE75946A06800F06BFBBAE7F05D000888
:202FC0008002002070B582B000F086F9184C6368002B14D000F08CF96368002B0BD00223E0
:202FE0003834009350220023124913480194FDF715F9002801D172B6FEE702B070BD2600E4
:20300000250010363000243500F026FB280000F023FB00220C2105202660A560FEF774FD10
:2030200060600028D6D00549FFF770FDD2E7C046800200202C6000088D2D0008246000080E
:20304000F8B54546DE4657464E46E0B507002C20884616001D0000F0D3F9041E1ED02823E3
:203060000022C2544346002B1FD000F035F91F4B99465B68002B1AD000F03AF94346A36186
:203080000A9B2760E5612362201D00F0F1FA002E04D028220421A35C0B43A35420003CBC54
:2030A00090469946A246AB46F8BD72B6FEE710334B4418009B4600F0CFFA24234B4418004E
:2030C0009A4600F0C9FA4B465A461A6052460C219A6005200022FEF717FD4B465860002832
:2030E000CAD00349FFF712FDC6E7C046800200202460000870B5160004001A0084B000284F
:2031000016D0124D686800280FD001910296039405290FDCFEF754F9022810D00023002228
:20312000686801A9FEF75EFD00E0002004B070BD72B6FEE7002301A9FEF706FFF6E7002310
:203140006868089A01A9FEF74DFDEFE780020020034B986B002800D0704772B6FEE7C04689
:2031600080020020002801D08069704772B6FEE770B504000D0000280ED000F0ADF82823EB
:203180000422E35C002D05D193432822A35400F0AFF870BD1343F8E772B6FEE710B5041EC3
:2031A00009D000F099F82823E45C6407E40F00F09FF8200010BD72B6FEE7C046002801D04C
:2031C0004068704772B6FEE7002801D00068704772B6FEE710B5041E09D000F07DF82823EE
:2031E000E35C01241C4000F083F8200010BD72B6FEE7C04610B5041E06D000F06DF8E46945
:2032000000F076F8200010BD72B6FEE770B504000D00002805D000F05FF8E56100F068F846
:2032200070BD72B6FEE7C046406A704741627047002382B00193064B1B68013301D072B6A9
:20324000FEE772B6019B002BFCD002B07047C046C40000200A4A13681868203080F30988D8
:20326000022080F31488BFF36F8F3FBCAE4608BC04BC62B61847C046C046C046C046C04665
:20328000B801002010B58024031F64041C60043B19600349043B1960143B40381A6010BD1C
:2032A000313200087047C046FA23044A9B0012689A4201D072B6FEE77047C046C40000200B
:2032C0008022044B52051A60BFF34F8FBFF36F8F7047C04604ED00E072B6044A1368013339
:2032E0001360BFF34F8FBFF36F8F7047C4000020054A1368002B01D172B6FEE7013B1360FD
:20330000002B00D162B67047C4000020EFF3108072B6704780F310887047C046EFF309807A
:203320000F4B1A6820381060F0C044464D4656465F46F0C008B572B6FDF77EFD62B60CBCF7
:20334000116808681030F0C8A046A946B246BB4680F309882038F0C81847C046C046C04639
:20336000B801002010B5FFF7D1FF0400FDF7C2FA002803D08022034B52051A602000FFF763
:20338000C9FF10BD04ED00E00022054B05491A600A60054A0549116007221A607047C046B5
:2033A00010E000E018E000E014E000E07FBB0000FF22114B1204196830B50A431A60FF2276
:2033C0000025196812060A4383B01A60FFF7DCFF0A4C2560FFF73EFFFDF72EFD2368019516
:2033E000013301D072B6FEE772B6019B002BFCD0002003B030BDC04620ED00E0C400002069
:20340000F0B5D6464F464646C0B50400FDF74CFA4B4B9868002837D0DA689246524622423C
:2034200027D1002C25D0220007210832114201D08A430832002A1CD059698C46914218D35C
:203440001F001C6804E02668002E04D02700340061689142F7D384420BD026002568083602
:203460003D608F1A102F40D9A1184D0726D072B6FEE7FDF745FB0026FCF76AFE30001CBCE1
:2034800090469946A246F0BD07202E49084242D1A022920188180A00072600250838B04363
:2034A0005D601960456005608025821A2D06AA4605C198601A615A61DD60AFE74F60626030
:2034C0001A00904612689142FBD845466F68B946C144494526D04F68CD19AA4227D00A6008
:2034E000884501D042461160616862461869521A5A6182420DD30022554622609A690D43E6
:20350000013265609A61FDF7FBFA7307B6D072B6FEE71A61EFE7CA1D8243A0208001081864
:203520001100B9E749687F186F604146D4E78242D5D05068126881464F444F600A60CFE7BD
:20354000BC020020DC020020F8B5041E2DD01C4E083C6368F2681A4204D02168002903D03B
:2035600072B6FEE772B6FEE793436360FDF79CF97369616825005B18736133001A001B682E
:203580009C42FBD850681718BC4202D11500091851606818834209D02B60AA4200D0156001
:2035A000F3690133F361FDF7ABFAF8BDB0688342F2D058681B688446614469602B60ECE761
:2035C000BC020020014B58697047C046BC020020014B18697047C046BC0200207047C04640
:2035E000F0B5C64600B50700FDF75EF9194B98461B68002B28D0424601250026002491683A
:203600006D425A680134964200D21600954200D915001B689942F4D1FDF772FA7E60BD6001
:20362000FC60FFF759FE43465B693B6043469B697B614346DB69BB6143461B693B61FFF708
:2036400057FE04BC9046F0BD0125002600246D42E2E7C046BC020020030001220833436002
:20366000C360036100235242826003607047C046002303617047C04643689A684B608A6084
:203680009A685160996003680861013303607047030030B50C680833621C0DD01A005B688D
:2036A0001D68A542FAD94B60996003688A60013351600861036030BD02695368F3E7C0462E
:2036C0000369416882688A6051605968814206D0002202611A68013A1A60186870475A6049
:2036E000F6E7C0464B6970B506000C000025002B07D000F005FC6369056020689847051E29
:2037000005DB3000210000F099F9280070BD00F0F7FB0368002BF4D000F0F2FB036833608A
:20372000EFE7C046F0B5C64600B51E004B6815009A8907000C00D20506D5DB6A9846002B2B
:2037400002D002230022C04700F0DAFB00233200036029002068E3689847041E03DB2000D1
:2037600004BC9046F0BD00F0CBFB0368002BF6D000F0C6FB03683B60F1E7C046F8B50C00A6
:2037800015001E00070000F0BBFB00233200036029002068A3689847041E01DB2000F8BD23
:2037A00000F0AEFB0368002BF8D000F0A9FB03683B60F3E770B582B00C001D000192060085
:2037C00000F09EFB00232A00036001A9206823699847002802DB019802B070BD00F090FB1B
:2037E0000368002BF7D000F08BFB03683360F2E782B0F0B5D6464F464646C0B582B00B93C6
:203800001F000C9B8A4699460D9B110001AA0500984600F077FD061E3CD01423034235D1D6
:203820001823334202D04B46002B31D0280000F06DFC041E2ED02800182100F055F9051EE6
:203840002AD001235B42E3815346A6810360164B44602062876063624B46C360134BA362DC
:2038600043460361002B01D0114B98464346E3620E9B6B610F4B2363200002B01CBC904682
:203880009946A246F0BC08BC02B01847002FC7D116232B600024EFE700F014FDA58100F044
:2038A00013FD0024E8E7C0467D37000825370008B5370008E536000882B0F0B585B08C46EA
:2038C0000A92040015006A460B93074B18680BABC2CBC2C22B0062462100FFF789FF05B025
:2038E000F0BC08BC02B01847C8000020F0B5C64600B50F2A43D90B00032603431E400C00C0
:203900000300002E40D11500103D2D09AC462D01A846804400E03B00676825685F60E76876
:203920001D60DF601F00A56810379D6010344345F1D165460F230C2401352D0149191340A7
:203940004519144223D08C59AC5104369C1B032CF9D80324043B9B0801339B002240ED18AE
:20396000C918561E002A07D0002300E02300CA5C5C1CEA549E42F9D104BC9046F0BD0500FD
:20398000561E002AF0D1F7E7561E0500ECE71A00F6E7C046F0B5050083074AD0541E002AB7
:2039A00044D0CEB20300032202E00135013C3DD301332E701342F8D1032C2FD9FF220A4054
:2039C000150215432A0415430F2C35D92700103F3F093E01B4461E001A0010366644156015
:2039E00055609560D5601032B242F8D10F260C2201373F012640DB193700224217D03E1FD5
:203A0000B608B400A4461A001C1D644420C2A242FCD103240136B6009B193C40002C05D077
:203A2000C9B21C19197001339C42FBD1F0BD3400F4E714000300BFE72700E0E770B50500DE
:203A4000002915D00C1F2368002B27DB280000F073FD244B1A68002A05D0A2420CD92168AB
:203A60006018824224D0626028001C6000F066FD70BDA34203D81A005368002BF9D111682D
:203A80005018A0421BD027D821686018834207D063605460280000F051FDE9E7E418D5E7F0
:203AA00018685B6884466144216063605460F1E7106852688446614421606260D4E720685D
:203AC0000918501811608342E4D118685B688446614411605360DDE70C2328002B6000F006
:203AE0002DFDC5E7DC2A0020F8B50323CD1C9D43083506000C2D2AD20C25A94229D8300069
:203B000000F01AFD2A4F3A68002A0AD013685B1B04D441E023685B1B1FD522005468002C96
:203B2000F8D17B68002B3DD02900300000F076F8431C2AD00323C41C9C43A04205D0211ABA
:203B4000300000F06BF8431C1FD0256010E0002DD3DA0C2300203360F8BD0B2B05D86368D0
:203B6000A2421DD0536003E014002360E4182560300000F0E3FC200007220B30231D904330
:203B8000C21AE9D01B1AA350E6E70C233000336000F0D4FC0020DFE70B2BE5D81400536841
:203BA0003B60E5E70021300000F038F87860BBE7DC2A00200EB410B5040083B0002802D0D5
:203BC0008369002B0BD006AB059AA1682000019300F02EFF03B010BC08BC03B0184700F084
:203BE00069FBF0E70FB410B50B4B82B01C68002C02D0A369002B0BD005AB049AA16820006F
:203C0000019300F015FF02B010BC08BC04B01847200000F04FFBEFE7C8000020002370B557
:203C2000064C05000800236002F0B4F8431C00D070BD2368002BFBD02B60F9E7E82A00208A
:203C400010B500230122002100F002F810BDC046F0B54746CE4680B51E005A4B83B01D6885
:203C6000040088461700002D02D0AB69002B5DD0554B9C4260D0554B9C425FD0544B9C4218
:203C800000D199E0022F05D0012F00D996E0002E00DA93E02100280000F0D2F9616B0029E1
:203CA00008D023004433994202D02800FFF7C6FE002363630023A36163600C22A35E1A06E1
:203CC0004FD4444A1340A381022F55D001AB6A462100280000F0ACFBA3890343A381002E66
:203CE0002ED1009E300000F013FC8046002853D08022A3891343A381AB69002B26D00C223C
:203D0000A35E012F02D101221343A38142462260226108229BB266611A401BD0DB0738D503
:203D200000237642A360A661002015E0280000F0C1FA254B9C429ED16C68A3E7AC68A1E7FF
:203D40004346002BCED0AB69002BD8D1280000F0B1FAD4E70020A26003B00CBC9046994659
:203D6000F0BD21692800FFF769FE0C22A35E194A1340A381022FA9D1002002221343A38115
:203D80000023A360230047332360236101236361E2E7A6600020DFE7009B9946B34206D077
:203DA000180000F0B5FB4E4680460028A0D101200C22A35E4042E0E7EC6863E7012040427E
:203DC000CAE7C046C80000205C5E00083C5E00081C5E00085CF3FFFF0CB400B59DB00291BC
:203DE000069109491EAB07910491084904CB059102A9019300F096FC0023029A13701DB05E
:203E000008BC02B01847C046FFFFFF7F0802FFFF0EB400B50B499CB0079104910A491DABE4
:203E200005910A4904CB02900690086802A9019300F078FC0023029A13701CB008BC03B00A
:203E40001847C046FFFFFF7F0802FFFFC80000200B00034330B504009B0710D10B680C4A0B
:203E60000C4D9A189A432A4209D104312360084A0B6804309A189A4304002A42F5D003009C
:203E80000A7818001A7001310133002AF8D130BDFFFEFEFE8080808010B5830727D00378FE
:203EA000002B26D00300032102E01A78002A1CD001330B42F9D119680F4A104C8A188A4340
:203EC00022420FD1043319680B4A8A188A43224208D104331968084A8A188A432242F1D047
:203EE00000E001331A78002AFBD1181A10BD0300E1E70020FAE7C046FFFEFEFE808080805C
:203F0000014B18687047C046C8000020F0B5C64600B58B8980460C001A0745D44A68002ACE
:203F200063DDE56A002D3BD042464146166800220A60216ADA045CD4012300224046A8474D
:203F4000431C61D0A389E56A216A5B0706D56368C01A636B002B01D0236CC01A0023020091
:203F60004046A847431C46D143461B680C21625E002B56D01D2B01D0162B5DD1002363609E
:203F8000236923604346616B1E60002908D023004433994202D04046FFF750FD0023636345
:203FA000002004BC9046F0BD0E69002EF8D00A680E60951B00229B0700D14A69A260002D2A
:203FC00004DCEDE736182D1A002DE9DD2B003200216A4046A76AB8470028F3DC40220120AD
:203FE000A38940421343A381DBE70A6C002A98DCD6E7606DA9E70023636023692360A38988
:20400000DB04BFD56065BDE743461B68002B99D01D2B0DD0162B0BD04022A3891343A381DB
:20402000BFE7636023692360D304ABD56065A9E7434600201E60B4E740231A43A281B0E720
:204040000B6970B505000C00002B16D0002802D08369002B15D00E4B9C4210D00D4B9C4262
:2040600012D00D4B9C4211D00C22A35E002B04D021002800FFF74AFF00E0002070BD6C6890
:20408000F2E700F017F9E6E7AC68EDE7EC68EBE75C5E00083C5E00081C5E000810B5011EA2
:2040A00004D0054B1868FFF7CBFF10BD034B0449186800F097F9F8E7C8000020185E0008EF
:2040C000414000080020704710B5024900F08AF910BDC046414000080020704770B5682419
:2040E0004A1E54430E0021007431FFF7FDFC051E09D000232200036046600C30A8606832D6
:204100000021FFF747FC280070BDC0461E4B70B51D680600AB69002B27D048356B68AC6837
:20412000013B03D51CE06834013B19D30C21625E002AF8D100252000144B65662560656012
:20414000A560E36025616561A561082200215C30FFF720FC6563A563A564E564200070BD6D
:204160002C68002C05D02500D8E7280000F010F8D3E704213000FFF7B1FF041E2860F2D184
:204180000C233360EAE7C046185E00080100FFFFF0B5D6464F464646384BC0B58362002327
:2041A0008364C3640365364B82B01B6805000193984260D02800FFF7A9FF68602800FFF704
:2041C000A5FFA8602800FFF7A1FF6E680024E86004233000746634607460B460F36034619E
:2041E0007461B461082200215C30FFF7D3FB254B254F9A467362254B37639946B362244B34
:204200003662F362AE6898463000224B746634607460B460F36034617461B46108220021AD
:204220005C30FFF7B7FB534673624B46B36243463763F3623662EE68174B3000F360746611
:2042400034607460B46034617461B461082200215C30FFF79FFB534673624B46B36243465F
:20426000F362012336623763AB6102B01CBC90469946A246F0BD012383619BE7C940000818
:20428000185E000815520008AD5200084152000881520008090001001200020010B5034B83
:2042A0000349186800F09EF810BDC046185E000841400008836910B5002B01D1FFF768FFC7
:2042C00010BDC0467047C0467047C0467047C0467047C04610B5034B0349186800F060F8F0
:2042E00010BDC046C8000020C540000810B5034B0349186800F054F810BDC046C800002020
:20430000D9400008F0B54646D6464F460B78C0B59046722B3ED0772B09D0612B33D01623DE
:20432000036000201CBC90469946A246F0BDC023DB009A460124082080235B02994680236B
:204340001B019C461C2210270326022501310B78002B0DD0622B13D0782B0ED02B2BF5D1D0
:2043600001310B789043B44338432C43002BF1D153461C4343461C60D4E763461C43E5E75B
:204380004B461C43E2E7822384209B009A4601244000D1E7002300249A460420CCE7C0467F
:2043A000F0B5C646483000B5884607000026002813D07B68BC685D1E0CD4A389012B06D980
:2043C0000E22A35E013302D02000C04706436834013DF2D23F68002FEBD1300004BC904640
:2043E000F0BDC046F8B54746CE4680B507004837804689460026002F14D07B68BC685D1EB1
:204400000DD4A389012B07D90E22A35E013303D021004046C84706436834013DF1D23F6808
:20442000002FEAD130000CBC90469946F8BDC04670B50C001D000E23C95E96B016000029FF
:2044400014DB6A4601F05AF800280FDBF022019B12021340094A944663445A4253412B60C4
:204460008023DB003360002016B070BD00232B60A3891B06F4D540233360F4E700E0FFFFA5
:2044800070B58B8982B006000C009B0707D523004733236023610123636102B070BD01AB0A
:2044A0006A46FFF7C5FF009905003000FFF71CFB002810D08022154BB362A3892060134396
:2044C000009A1BB26261019AA3812061002A0CD12B43A381E1E70C22A35E9A05DDD403226D
:2044E000934302221343A381D1E70E23E15E300001F0A8F9002802D10C22A35EE8E7032240
:20450000A3899343012213431BB2E1E7C940000810B5034B01001868FFF7E6FA10BDC0463D
:20452000C800002010B5034B01001868FFF786FA10BDC046C80000207047C0467047C04654
:20454000F0B546464F46D646C0B58E6881460C0090461D0008689E4239D890228B89D2004F
:20456000134211D135002A00414601F0D1F9A36800209E1B2368A6609C46654425601CBC06
:2045800090469946A246F0BD0969421A92466269681C5700BF18FA0FD7197F1050443A0058
:2045A000B84201D9070002005B0512D511004846FFF79AFA061E1FD052462169FFF796F9F4
:2045C000A389124A134080221343A38106E01E00C9E7484601F0FAF9061E09D030005346F8
:2045E00050446761FF1A266120602E00A760BAE721694846FFF722FA0C234A4613604022AB
:204600000120A38940421343A381B8E77FFBFFFFF0B54E464546DE465746E0B5936883B0F2
:2046200001900D009146002B6BD0176808688C6844E09022AB89D20013422ED02969421A9F
:204640009346686942001218D00F8218701C521058449046904201D9804602008020C00097
:20466000034237D011000198FFF73EFA041E53D05A462969FFF73AF9AB89294A13408022DA
:204680001343AB81434620005A462C61B046340058446B619B1A2860AB604246514601F0D8
:2046A00037F9AB681C1B2B68AC6043442B6018004B469B689E1B4B469E6022D03B687E6860
:2046C0009A460837A046002EF8D0A642B1D23400B046E2E7019801F079F9041ED2D1019C23
:2046E00029692000FFF7AAF90C2323604022AB8901201343AB814A460023404293605360A9
:2047000003E000234A460020536003B03CBC90469946A246AB46F0BD0C23019A1360E5E741
:204720007FFBFFFFF0B54E46DE4657464546E0B5A1B0049003911C008B8991461B0604D56D
:204740000B690593002B00D119E1002308AD6B6120336B761033AB762F3B98464B461B78AF
:204760000794924F002B00D186E0252B00D104E14E4603E0252B00D18BE026007378741CB1
:20478000002BF7D14B46E31A9A4675D053464A4603990498FFF7D4FE431C6DD06B69534443
:2047A0006B617378002B67D00122002352426A60443201342B60EB60AB60AB54AB6506E0BB
:2047C0004346C01B834034002A6813432B6021780522380001F05CF8661C0028F0D12B68D0
:2047E000B246DA0602D543222021A9541A0702D543222B21A95421782A2950D1079A111DE5
:2048000012680791002A00DA9AE0EA606178A61C2E295CD0664B03221800994601F038F8B2
:20482000002800D171E04B46C01A402383402A68317813432B600622731C5E4899462976A6
:2048400001F026F800286AD05B4B002B00D170E007AB0093039A594B2900049800E000BF0B
:2048600083465B46013307D06B695B446B614B461B78002B00D078E7039B9B895B0600D50E
:204880008CE0686921B03CBC90469946A246AB46F0BD4B46E31A9A4600D185E776E70A00C5
:2048A000303AA246092AB3D8EB68180001E03400013683001B1831785B0098180A00303A53
:2048C000092AF4D9B246E860A61C2E29A2D1534659782A293AD1079B1A1D07925246917831
:2048E000D61C022294461B68E2446B60002B00DB90E701235B426B602D4B032218009946B7
:2049000000F0C6FF002800D08DE7B1465646317806222848297600F0BBFF002894D107AB1A
:204920000093039A254B2900049800F0A3FA834697E70722079B073393430833079393E714
:204940005242EA60022213432B605FE70A000023303A6B601800092A01D91CE01E0083000A
:204960001B1871785B0098180A00303A731C092AF4D99A46023668604CE74C4614E740210C
:20498000FFF7B2F8039B18601861002809D04023039A5361D9E6B24601363BE70120404280
:2049A00070E70C23049A013813606BE7346000083C6000084060000800000000414500085F
:2049C000936810B5013B9360002B04DA9469A34207DB0A2905D01368581C10600800197023
:2049E00010BD00F069FCFBE7F8B506000F00002B0DD01400D51802E00134AC4207D0217873
:204A00003A003000FFF7DCFF431CF5D1F8BD0020FCE7C046936810B51400002B02D1002086
:204A2000536010BD00F07EFD0023A3606360F8E7F0B54E46DE4657464546E0B5A1B00490C4
:204A4000039191461C00002804D083690593002B00D1BEE0AD4B039A9A4200D1C0E0AC4BDC
:204A6000039A9A4200D1CDE0AA4B039A9A4200D147E1039A93891B0700D4B9E0136905937C
:204A8000002B00D1B4E0002308AD6B6120336B761033AB762F3B98464B461B7807949E4F56
:204AA000002B00D189E0252B00D125E14E4603E0252B00D1AAE026007378741C002BF7D1B4
:204AC0004B46E31A9A4678D053464A4603990498FFF78AFF431C70D06B6953446B6173787F
:204AE000002B6AD00122002352426A60443201342B60EB60AB60AB54AB6506E04346C01BC8
:204B0000834034002A6813432B6021780522380000F0BEFE661C0028F0D12B68B246DA06B1
:204B200002D543222021A9541A0702D543222B21A95421782A2900D06EE0079A111D126802
:204B40000791002A00DABAE0EA606178A61C2E2900D17AE0714B03221800994600F098FE5A
:204B6000002800D18FE04B46C01A402383402A68317813432B600622731C6948994629763A
:204B800000F086FE002800D188E0664B002B00D18EE007AB0093039A634B2900049800E0F0
:204BA00000BF83465B46013307D06B695B446B614B461B78002B00D075E7039B9B895B06E4
:204BC0001DD4686921B03CBC90469946A246AB46F0BDFFF76FFB4D4B039A9A4200D03EE7A9
:204BE000049B5B680393039A93891B0700D545E70399049800F0EAFB002800D143E7012090
:204C00004042DFE7049B9B68039332E74B46E31A9A4600D166E757E70A00303AA246092AA2
:204C200095D8EB68180001E03400013683001B1831785B0098180A00303A092AF4D9B2467A
:204C4000E860A61C2E2900D084E7534659782A293BD1079B1A1D079252469178D61C0222C6
:204C600094461B68E2446B60002B00DB72E701235B426B60294B03221800994600F008FE75
:204C8000002800D06FE7B1465646317806222448297600F0FDFD002800D076E707AB0093D3
:204CA000039A214B2900049800F0E4F8834679E70722079B073393430833079375E7524291
:204CC000EA60022213432B603FE70A000023303A6B601800092A01D910E01E0083001B1814
:204CE00071785B0098180A00303A731C092AF4D99A46023668602DE74C46F3E6B24601362F
:204D000028E7049BDB680393B3E6C0465C5E00083C5E00081C5E0008346000083C60000847
:204D20004060000800000000E949000810B504001300034A10680A002100FFF779FE10BD8B
:204D4000C8000020F0B54F464646D646C0B51F00089B914698468A680B6906000C00934250
:204D600000DA13004A4613604322A25C002A02D04A460133136023689A065AD54B461B683F
:204D800006209A1C4B461A6023681900184208D1E16800258A1A19218A461900A244002A10
:204DA0003FDC4323E35C5A1E93418A060AD53020E1184331087045215A1C615CA21843327B
:204DC000023311702200390043323000C047431C19D006232068A26821690340042B30D017
:204DE0008A423ADD00239946521A91441A34002502E001354D4530DA0123220039003000B7
:204E0000C047431CF5D1012040421CBC90469946A246F0BD4B46E2681B680135D31AAB4233
:204E200020DD0123524639003000C047431CF1D1E9E706221A4212D04323E35C5A1E934101
:204E4000C0E74B46E0681B68C31AD843C017184081468A42C8DC002BC8DC0020D5E74A46B6
:204E6000126895E743232168E35C5A1E93418A069DD4A7E7F0B557469A4643239C464E4635
:204E80004546DE468C446346E0B587B003930B7E914680460C00109A6E2B00D1D8E000D8B2
:204EA00071E0732B00D11AE100D881E0752B00D1FFE0782B00D00BE10B687820452160542A
:204EC00094498B46116840C91160180603D4580601D53604360CDA0702D5202213432360B9
:204EE0001027002E00D1C2E043230022E2546368A360002B00DAC5E00422216891432160A0
:204F0000002E00D083E0002B00D0BDE0039D082F00D18CE0039B5B1B2361534605AA009311
:204F200021004B464046FFF70DFF431C22D023692A0049464046D047431C1BD02268059893
:204F4000E368920700D47FE01A1A002A00DC7BE026000025193606E0E368059801351A1AD3
:204F6000AA4200DC70E00123320049464046D047431CF1D10120404207B03CBC904699466F
:204F8000A246AB46F0BD632B00D184E01FD8002B69D0582B00D09BE0452163545E49236850
:204FA0008B46116840C91160180600D48FE792E76F2B7ED0702B00D08AE020230968782043
:204FC0000B4345212360605452498B467AE7642B01D0692B7CD111682368081D10601D061C
:204FE0004AD50A681600002A03DB4B4B0A279B467DE743222D21A15462687642A260002AA0
:2050000002DB042293432360434B0A279B46039D00E006003900300000F0A4FD5B465B5CBC
:20502000013D2B70BE42F4D2082F00D072E72368DB0700D46EE763682269934200DD69E783
:205040003023013D2B7065E7984295DA180093E7136809681D1D606915601B680E0601D42D
:2050600049064BD418600023039D236155E7202322689A43226037E75D06B2D500228E5E85
:205080003200B0E7002EC2D15B4625001A7842234235E2543BE713682500191D11601A6831
:2050A0004223E254413B4235236143230022E25433E7116820680D1D1560060601D440063F
:2050C0001ED40E686F2B1DD0134B0A279B460BE742222500A354012342352361E5E7136899
:2050E000191D11601D6862680021280000F0D0FB00280BD0401B60602061D6E71880B2E729
:205100000E88DFE7044B08279B46EDE660682061CBE7C0465C6000084860000870B50C005B
:2051200009680500002901D0FFF7F8FF28002100FEF784FC70BDC046354B70B51B680500F4
:2051400083425CD0426A002A5AD0D368002B13D000269959002907D00C682800FEF76EFC02
:20516000211EF9D16B6ADB680436802EF1D119002800FEF763FC6A6A1168002944D028001D
:20518000FEF75CFC6969002902D02800FEF756FC6A6A002A03D011002800FEF74FFCA96B28
:2051A000002902D02800FEF749FCE96B002902D02800FEF743FC296C002902D02800FEF73A
:2051C0003DFCE96D002902D02800FEF737FCA96D002902D02800FEF731FC696B002902D0CB
:2051E0002800FEF72BFCAB69002B08D02800AB6A9847A96C002902D02800FFF78FFF70BD4F
:2052000041690029C1D1CAE769690029BDD1C2E7C800002070B50C000E25495F00F0FEFB69
:20522000002803DB636D1B18636570BDA389024A1340A381F9E7C046FFEFFFFF00207047D8
:20524000F8B516001F000C228B5E0C0005000E22895EDA0508D4094A28001340A38132004E
:205260003B0000F09FF8F8BD0022022300F0FCFA0C22A35E0E22A15EEDE7C046FFEFFFFF66
:2052800070B50C000E25495F00F0EEFA431C06D08023A2895B011343A381606570BDA38933
:2052A000014A1340A381F9E7FFEFFFFF10B50E23C95E00F011F910BDF8B505000E001400A8
:2052C000002802D08369002B29D02D4B9C422BD02C4B9C4246D02C4B9C424ED0A369A36086
:2052E000A3891B0726D52369002B23D0FF22F7B2616916402268D31A99422ADD0133A1683B
:205300000139A160511C2160177062699A422BD0A389DB0701D50A2E26D03000F8BDFEF74F
:20532000C9FF174B9C42D3D16C68A369A360A3891B07D8D42100280000F048F8002819D159
:20534000FF222369F7B2616916402268D31A9942D4DC21002800FEF773FE00280AD1226899
:205360000123CCE7AC68B9E721002800FEF768FE0028D2D001267642CFE7EC68AEE7C046B0
:205380005C5E00083C5E00081C5E000810B5044B0A001B6801001800FFF78EFF10BDC04617
:2053A000C800002070B50500080011000022064C22601A0000F0FCFC431C00D070BD2368E3
:2053C000002BFBD02B60F9E7E82A00203E4B70B51D6806000C00002D02D0AB69002B1BD0CC
:2053E0003A4B9C421ED03A4B9C424CD0394B9C4260D00C23E25E93B2190719D521690029D6
:2054000021D0DA072ED50023A360636900205B42A36100292ED070BD2800FEF74BFF2B4BD3
:205420009C42E0D16C680C23E25E93B21907E5D4D90641D55B0728D4216908231343A381FA
:205440009BB20029DDD1A0228020920080001A408242D6D021003000FFF712F8A3892169E9
:20546000DA07D0D400229B0700D46269A26000200029D0D10C22A35E1A06CCD540221343B0
:20548000A3810138C7E7AC68B3E7616B00290AD023004433994204D03000FEF7CFFA0C231E
:2054A000E25E0023636324239A430023216963602160C2E7EC689CE70923336040230120EB
:2054C0001A43A2814042A6E7C80000205C5E00083C5E00081C5E0008002370B5064C0500D0
:2054E0000800236000F02EFC431C00D070BD2368002BFBD02B60F9E7E82A0020002370B545
:20550000074C050008001100236000F023FC431C00D070BD2368002BFBD02B60F9E7C0463A
:20552000E82A0020F0B54546DE4657464E46E0B5936883B000900C009046002B6DD08B8903
:205540001A0700D471E00A69002A00D16DE0424616689A0700D475E0A36A00279A46B54B66
:2055600000259946216A002D16D02B004D4500D9B04B3A000098D047002800DCD5E04346CD
:205580009B683F182D1A181A4346986045D0A36A216A9A46002DE8D1376875680836E2E7C1
:2055A0004B461B689A464B465F6808239C46E144002FF5D03A000A21504600F069F9002804
:2055C00000D1CEE053460130C61A3300BB469F4200D99B46206822696369904204D9A2683B
:2055E0009D18AB4500DD92E05B4500DDF9E0A56A5246216A0098A847051E00DC95E0761BA3
:205600000120002E00D1E4E043469B68AA447F1B5D1B43469D6000D095E0002003B03CBC84
:2056200090469946A246AB46F0BD21000098FFF7CDFE002800D0F9E04246A38916689A0711
:2056400000D589E7DA0778D4002291468022920000279346A5682068002F53D05A461342CF
:2056600000D181E0AA46BD4200D9AFE09022D20013422ED02169451AAC466069019542004E
:205680001218D00F8218781C521060449246904201D9824602005B0500D4AFE01100009813
:2056A000FEF722FA051E00D1BAE0019A2169FEF71DF9A389604A134080221343A38152463E
:2056C000019B2561E818BA463D00D31A20606261A3605246494600F01BF9A3685D1BA56085
:2056E0003D00002723685344236043469B68A9445D1B43469D6000D18FE7A5682068A38922
:20570000002FABD13268776891460836A4E751462A0000F0FDF8236821005B1923600098E4
:20572000FEF78EFC002800D169E70C22A35E402201201343A381404270E70023B146002062
:205740009A4600271E00002F00D129E7002800D03BE73A000A21504600F09AF8002800D085
:2057600030E77B1C1E0031E72369834217D363699A46BB4213D8314B38009F4200D9304890
:20578000514600F0F3F953464A464343216A0098A56AA8470028C8DD05007F1BA5E7BD42CF
:2057A00000D93D002A00494600F0B2F8A36822685B1B5219A3602260002BEED121000098E2
:2057C000FEF73EFC0028B0D17F1B8EE73D00BA467FE721000098FEF733FC002800D113E76F
:2057E000A3E75A46514600F093F85A46A3685D469B1AA36023685B44236000E7009800F04B
:20580000E5F8051E00D05AE7009D21692800FEF715F98022A3899343743A1BB22A6086E70F
:205820000C23009A13600C22A35E80E701204042F4E6C04600FCFF7F7FFBFFFFFEFFFF7FA6
:20584000FFFFFF7F002370B5064C05000800236000F088FA431C00D070BD2368002BFBD053
:205860002B60F9E7E82A002070B50500080011000022064C22601A0000F07CFA431C00D0A3
:2058800070BD2368002BFBD02B60F9E7E82A002070B5CDB2830734D0531E002A1BD002788B
:2058A000AA4219D0032404E0013B14D30278AA4212D001302042F7D1032B0ED8002B0AD029
:2058C0000278AA4208D0C31802E00278AA4203D001308342F9D1002070BDFF220C06240C24
:2058E000114021430C04084E0C43026807496240511891433142E3D1043B0430032BF4D811
:20590000DCE71300D8E7C04680808080FFFEFEFEF0B5C64600B588420CD98B18984209D286
:20592000531E002A03D0CA5CC254013BFBD204BC9046F0BD0F2A0CD80500561E002AF6D0EB
:20594000002300E02300CA5C5C1CEA549E42F9D1EDE70B00032603431E400C000300002EB2
:205960002ED11500103D2D09AC462D01A846804400E02B001D00276810351F6067685F60B5
:20598000A7689F60E7681034DF604345F1D165460F230C2401352D01491913404519144203
:2059A00011D08C59AC5104369C1B032CF9D80324043B9B0801339B00ED18C9182240BCE770
:2059C000561E0500BCE71A00B7E7C046F8B507000C00150000291BD0002A15D000F032F8DB
:2059E0002600A84201D33000F8BD29003800FEF77BF8061EF7D021002A00FDF777FF210054
:205A00003800FEF71BF8EEE7FEF718F80026EAE71100FEF769F80600E5E7C04670B505000C
:205A2000080011000022064C22601A0000F0AAF9431C00D070BD2368002BFBD02B60F9E762
:205A4000E82A00200B1F1B68181F002B00DB70470B58C018FBE7C046002243088B4274D3CF
:205A600003098B425FD3030A8B4244D3030B8B4228D3030C8B420DD3FF22090212BA030C91
:205A80008B4202D31212090265D0030B8B4219D300E0090AC30B8B4201D3CB03C01A52419C
:205AA000830B8B4201D38B03C01A5241430B8B4201D34B03C01A5241030B8B4201D30B0355
:205AC000C01A5241C30A8B4201D3CB02C01A5241830A8B4201D38B02C01A5241430A8B426F
:205AE00001D34B02C01A5241030A8B4201D30B02C01A5241CDD2C3098B4201D3CB01C01A3E
:205B0000524183098B4201D38B01C01A524143098B4201D34B01C01A524103098B4201D379
:205B20000B01C01A5241C3088B4201D3CB00C01A524183088B4201D38B00C01A52414308D9
:205B40008B4201D34B00C01A5241411A00D20146524110467047FFE701B5002000F0F0F844
:205B600002BDC0460029F7D076E7704703460B437FD4002243088B4274D303098B425FD3E6
:205B8000030A8B4244D3030B8B4228D3030C8B420DD3FF22090212BA030C8B4202D31212B5
:205BA000090265D0030B8B4219D300E0090AC30B8B4201D3CB03C01A5241830B8B4201D312
:205BC0008B03C01A5241430B8B4201D34B03C01A5241030B8B4201D30B03C01A5241C30A29
:205BE0008B4201D3CB02C01A5241830A8B4201D38B02C01A5241430A8B4201D34B02C01A8D
:205C00005241030A8B4201D30B02C01A5241CDD2C3098B4201D3CB01C01A524183098B422B
:205C200001D38B01C01A524143098B4201D34B01C01A524103098B4201D30B01C01A5241CB
:205C4000C3088B4201D3CB00C01A524183088B4201D38B00C01A524143088B4201D34B0045
:205C6000C01A5241411A00D201465241104670475DE0CA0F00D04942031000D34042534037
:205C800000229C4603098B422DD3030A8B4212D3FC22890112BA030A8B420CD3890192110E
:205CA0008B4208D3890192118B4204D389013AD0921100E08909C3098B4201D3CB01C01AAF
:205CC000524183098B4201D38B01C01A524143098B4201D34B01C01A524103098B4201D3B8
:205CE0000B01C01A5241C3088B4201D3CB00C01A524183088B4201D38B00C01A5241D9D2B8
:205D000043088B4201D34B00C01A5241411A00D20146634652415B10104601D34042002BED
:205D200000D54942704763465B1000D3404201B5002000F005F802BD0029F8D016E77047BC
:205D40007047C04658220120014B40421A607047E82A002058220120014B40421A60704720
:205D6000E82A00205822024B00201A607047C046E82A002058220120014B40421A60704707
:205D8000E82A002058220120014B40421A607047E82A0020044A1368002B03D0181810609E
:205DA00018007047014BF9E7E42A0020EC2A002058220120014B40421A607047E82A0020B8
:205DC000C6170008C01700081A180008121800080E1800088818000882180008E818000813
:205DE000E4180008E018000858524253440000002A2E00082A2E00082A2E0008AC2E00081A
:205E0000862E0008B62E00082A2E00082A2E0008AC2E0008862E0008CC0000200000000090
:205E2000000000000000000000000000000000000000000000000000000000000000000062
:205E4000000000000000000000000000000000000000000000000000000000000000000042
:205E600000000000000000000000000000000000000000000000000000000000F0B5CE4669
:205E80004746012580B587B0FAF76CF90320434A4349936980242B439361424B2026D96241
:205EA0004149424F99634249E400D96341490B6803430B608021536989020B4353619023D5
:205EC000DB051868384004431C609C88B4439C80C0249868240104439C60D86800243840C8
:205EE000D860D0690143D16130211A6832488A4332431A601A6A3149E0360A40C0213243FE
:205F00001A621A688A4340390A431A601A6A2C491140802252010A431A62A2230C22FF3349
:205F20008381036869461343036003682B430360244B02949C460393234B04941A680594B0
:205F4000904604AA994688CA88C1634600221F49FDF7B2FC434698604B461B689868FDF7E5
:205F60006FFE002332001A491A4801940095FAF755F9194F002332003900184801940095B1
:205F8000FAF74CF9002332003900154801940095FAF744F9FAF7BCFBFEE7C04600100240A3
:205FA000A5320008000000201D330008FFF3FFFF653300080000014000440040FFF0FFFF48
:205FC000FF0FFFFF85000008C80000200060000804600008A90000080C600008C10000087E
:205FE000050100085B25695D0978797A0000000052656365697665643A2025730D0A0000A9
:2060000077000000626C696E6B000000757070657200000009256309257509257509257553
:206020000D0A0000546D725100000000546D722053766300232D302B20000000686C4C005B
:206040006566674546470000303132333435363738394142434445460000000030313233D4
:206060003435363738396162636465660005000000AAAAAAAACC000020000000005C5E0031
:20608000083C5E00081C5E00080000000000000000000000000000000000000000000000D4
:2060A0000000000000000000000000000000000000000000000000000000000000000000E0
:1960C00000000000000000000000000000000000000000000000000000C7
:0400000508000000EF
:00000001FF
