:020000040800F2
:2000000000400020C9000008C1000008C50000080000000000000000000000000000000019
:200020000000000000000000000000000000000000000000000000000000000000000000C0
:2000400000000000000000000000000000000000000000000000000000000000290100086E
:20006000000000000000000000000000000000000000000000000000000000000000000080
:200080000000000099010008000000000000000000000000000000000000000000000000BE
:2000A000000000000000000000000000000000000000000000000000000000000000000040
:2000C000FEE7C046FEE7C04609480A4A10B5904203D00949121A00F0FFF90848084A904261
:2000E00003D00021121A00F04BFA02F033FAFEE700000020640000205127000864000020FF
:200100007800002030B5002A0BD080248D18C3691C42FCD00B7801310385A942F7D11000BE
:2001200030BD0020FCE7C046174B10B55B699B0417D5322215490B46C046013BFCD1013A06
:20014000002AF8D1802310499B01486903434B610F490B68002B05D0012B0CD00D4800F059
:20016000BFFB10BD90222020D205938A8343938201230B60F2E790202024C005838A2343A3
:2001800083820A60EAE7C046000401407017000064000020F8260008012110B50F4A138AC6
:2001A0008B4313820E4A1368002B05D0012B0BD00C4800F095FB10BD90202024C005838A9B
:2001C000A34383821160F3E790212020C9058B8A03438B8200231360EAE7C0460010004005
:2001E0006400002000270008012809D000280ED190222021D205938A8B43938201207047A1
:2002000090222021D205938A0B439382F6E70228F4D10C4A1368002B0AD0012BEED1902156
:200220002020C9058B8A03438B8200231360E5E790212020C9058B8A83438B8201231360A8
:20024000DCE7C04664000020BFF34F8F024B034ADA60BFF34F8FFEE700ED00E00400FA05A8
:20026000A022174BD20219680A4380211A6089021A680A42FCD05A68124911408022520313
:200280000A435A605A6810491140802252020A435A608022196852040A4380211A60084ABB
:2002A000890413680B42FCD0012008490B6803430B60032153688B4301390B4353607047E8
:2002C00000100240FFFFC3FFFF7FFEFF002002404B6970B506000C000025002B07D000F02D
:2002E000E3FC6369056020689847051E05DB3000210000F099F9280070BD00F0D5FC036830
:20030000002BF4D000F0D0FC03683360EFE7C046F0B5C64600B51E004B6815009A890700E2
:200320000C00D20506D5DB6A9846002B02D002230022C04700F0B8FC00233200036029000C
:200340002068E3689847041E03DB200004BC9046F0BD00F0A9FC0368002BF6D000F0A4FC07
:2003600003683B60F1E7C046F8B50C0015001E00070000F099FC00233200036029002068B8
:20038000A3689847041E01DB2000F8BD00F08CFC0368002BF8D000F087FC03683B60F3E777
:2003A00070B582B00C001D000192060000F07CFC00232A00036001A9206823699847002847
:2003C00002DB019802B070BD00F06EFC0368002BF7D000F069FC03683360F2E782B0F0B50E
:2003E000D6464F464646C0B582B00B931F000C9B8A4699460D9B110001AA0500984600F0CF
:2004000055FE061E3CD01423034235D11823334202D04B46002B31D0280000F04BFD041E16
:200420002ED02800182100F055F9051E2AD001235B42E3815346A6810360164B4460206233
:20044000876063624B46C360134BA36243460361002B01D0114B98464346E3620E9B6B6173
:200460000F4B2363200002B01CBC90469946A246F0BC08BC02B01847002FC7D116232B6049
:200480000024EFE700F0F2FDA58100F0F1FD0024E8E7C0466903000811030008A10300084A
:2004A000D102000882B0F0B585B08C460A92040015006A460B93074B18680BABC2CBC2C2E7
:2004C0002B0062462100FFF789FF05B0F0BC08BC02B0184700000020F0B5C64600B50F2AB5
:2004E00043D90B00032603431E400C000300002E40D11500103D2D09AC462D01A846804450
:2005000000E03B00676825685F60E7681D60DF601F00A56810379D6010344345F1D16546F1
:200520000F230C2401352D01491913404519144223D08C59AC5104369C1B032CF9D803249F
:20054000043B9B0801339B002240ED18C918561E002A07D0002300E02300CA5C5C1CEA542B
:200560009E42F9D104BC9046F0BD0500561E002AF0D1F7E7561E0500ECE71A00F6E7C04603
:20058000F0B5050083074AD0541E002A44D0CEB20300032202E00135013C3DD301332E707E
:2005A0001342F8D1032C2FD9FF220A40150215432A0415430F2C35D92700103F3F093E0140
:2005C000B4461E001A0010366644156055609560D5601032B242F8D10F260C2201373F01CB
:2005E0002640DB193700224217D03E1FB608B400A4461A001C1D644420C2A242FCD10324B1
:200600000136B6009B193C40002C05D0C9B21C19197001339C42FBD1F0BD3400F4E71400D5
:200620000300BFE72700E0E770B50500002915D00C1F2368002B27DB280000F051FE244B32
:200640001A68002A05D0A2420CD921686018824224D0626028001C6000F044FE70BDA342ED
:2006600003D81A005368002BF9D111685018A0421BD027D821686018834207D06360546014
:20068000280000F02FFEE9E7E418D5E718685B6884466144216063605460F1E710685268D9
:2006A0008446614421606260D4E720680918501811608342E4D118685B68844661441160AE
:2006C0005360DDE70C2328002B6000F00BFEC5E768000020F8B50323CD1C9D4308350600B5
:2006E0000C2D2AD20C25A94229D8300000F0F8FD2A4F3A68002A0AD013685B1B04D441E08A
:2007000023685B1B1FD522005468002CF8D17B68002B3DD02900300000F0ECF8431C2AD070
:200720000323C41C9C43A04205D0211A300000F0E1F8431C1FD0256010E0002DD3DA0C231D
:2007400000203360F8BD0B2B05D86368A2421DD0536003E014002360E4182560300000F0B4
:20076000C1FD200007220B30231D9043C21AE9D01B1AA350E6E70C233000336000F0B2FD09
:200780000020DFE70B2BE5D8140053683B60E5E70021300000F0AEF87860BBE76800002061
:2007A0000EB410B5040083B0002802D08369002B0BD006AB059AA1682000019300F0CCFDC9
:2007C00003B010BC08BC03B0184700F047FCF0E70FB410B50B4B82B01C68002C02D0A3691C
:2007E000002B0BD005AB049AA1682000019300F0B3FD02B010BC08BC04B01847200000F0E3
:200800002DFCEFE700000020836970B506000D00002B32D084682F4B9C423AD02E4B9C42C3
:2008200044D02E4B9C4252D0A3891B0735D52369002B32D0A3682978013B002911D00135F2
:20084000A360002B04DAA2699A4231DC0A292FD023685A1C22601970A3682978013B002949
:20086000EDD1A360002B2CDA22000A31300000F01FF9431C17D00A2070BD00F0EFFBB3695E
:20088000B468002BC7D1300000F0E8FB114B9C42C4D17468A3891B07C9D42100300000F09F
:2008A0007DF90028C6D001204042E5E7B468BBE72200300000F0FCF8431CBBD10120404213
:2008C000DAE723685A1C22600A221A70D3E7F468AAE7C0463425000814250008F4240008AF
:2008E00010B5034B01001868FFF78EFF10BDC04600000020002370B5064C050008002360C4
:2009000001F06AFC431C00D070BD2368002BFBD02B60F9E77400002010B500230122002178
:2009200000F002F810BDC046F0B54746CE4680B51E005A4B83B01D68040088461700002DEE
:2009400002D0AB69002B5DD0554B9C4260D0554B9C425FD0544B9C4200D199E0022F05D031
:20096000012F00D996E0002E00DA93E02100280000F03AFA616B002908D0230044339942CE
:2009800002D02800FFF750FE002363630023A36163600C22A35E1A064FD4444A1340A381CF
:2009A000022F55D001AB6A462100280000F014FCA3890343A381002E2ED1009E300000F0BB
:2009C0007BFC8046002853D08022A3891343A381AB69002B26D00C22A35E012F02D10122BD
:2009E0001343A38142462260226108229BB266611A401BD0DB0738D500237642A360A66199
:200A0000002015E0280000F029FB254B9C429ED16C68A3E7AC68A1E74346002BCED0AB6968
:200A2000002BD8D1280000F019FBD4E70020A26003B00CBC90469946F0BD21692800FFF754
:200A4000F3FD0C22A35E194A1340A381022FA9D1002002221343A3810023A3602300473371
:200A60002360236101236361E2E7A6600020DFE7009B9946B34206D0180000F01DFC4E46D8
:200A800080460028A0D101200C22A35E4042E0E7EC6863E701204042CAE7C0460000002046
:200AA0003425000814250008F42400085CF3FFFFF8B505000E001400002802D08369002B42
:200AC00029D02D4B9C422BD02C4B9C4246D02C4B9C424ED0A369A360A3891B0726D523690A
:200AE000002B23D0FF22F7B2616916402268D31A99422ADD0133A1680139A160511C21602F
:200B0000177062699A422BD0A389DB0701D50A2E26D03000F8BD00F0A1FA174B9C42D3D146
:200B20006C68A369A360A3891B07D8D42100280000F034F8002819D1FF222369F7B2616941
:200B400016402268D31A9942D4DC2100280000F04BF900280AD122680123CCE7AC68B9E7A8
:200B60002100280000F040F90028D2D001267642CFE7EC68AEE7C046342500081425000813
:200B8000F424000810B5044B0A001B6801001800FFF78EFF10BDC046000000203E4B70B557
:200BA0001D6806000C00002D02D0AB69002B1BD03A4B9C421ED03A4B9C424CD0394B9C4243
:200BC00060D00C23E25E93B2190719D52169002921D0DA072ED50023A360636900205B42EC
:200BE000A36100292ED070BD280000F037FA2B4B9C42E0D16C680C23E25E93B21907E5D4EE
:200C0000D90641D55B0728D4216908231343A3819BB20029DDD1A0228020920080001A4060
:200C20008242D6D02100300000F0FEFAA3892169DA07D0D400229B0700D46269A260002051
:200C40000029D0D10C22A35E1A06CCD540221343A3810138C7E7AC68B3E7616B00290AD09A
:200C600023004433994204D03000FFF7DDFC0C23E25E0023636324239A4300232169636040
:200C80002160C2E7EC689CE709233360402301201A43A2814042A6E7000000203425000800
:200CA00014250008F4240008014B18687047C04600000020F0B5C64600B58B8980460C00DE
:200CC0001A0745D44A68002A63DDE56A002D3BD042464146166800220A60216ADA045CD485
:200CE000012300224046A847431C61D0A389E56A216A5B0706D56368C01A636B002B01D0F7
:200D0000236CC01A002302004046A847431C46D143461B680C21625E002B56D01D2B01D0F7
:200D2000162B5DD100236360236923604346616B1E60002908D023004433994202D04046AE
:200D4000FFF772FC00236363002004BC9046F0BD0E69002EF8D00A680E60951B00229B0722
:200D600000D14A69A260002D04DCEDE736182D1A002DE9DD2B003200216A4046A76AB84706
:200D80000028F3DC40220120A38940421343A381DBE70A6C002A98DCD6E7606DA9E700239E
:200DA000636023692360A389DB04BFD56065BDE743461B68002B99D01D2B0DD0162B0BD078
:200DC0004022A3891343A381BFE7636023692360D304ABD56065A9E7434600201E60B4E725
:200DE00040231A43A281B0E70B6970B505000C00002B16D0002802D08369002B15D00E4B6F
:200E00009C4210D00D4B9C4212D00D4B9C4211D00C22A35E002B04D021002800FFF74AFF2F
:200E200000E0002070BD6C68F2E700F017F9E6E7AC68EDE7EC68EBE734250008142500085B
:200E4000F424000810B5011E04D0054B1868FFF7CBFF10BD034B0449186800F097F9F8E7E3
:200E600000000020F0240008E90D00080020704710B5024900F08AF910BDC046E90D00080D
:200E80000020704770B568244A1E54430E0021007431FFF71FFC051E09D000232200036042
:200EA00046600C30A86068320021FFF769FB280070BDC0461E4B70B51D680600AB69002B80
:200EC00027D048356B68AC68013B03D51CE06834013B19D30C21625E002AF8D100252000BE
:200EE000144B656625606560A560E36025616561A561082200215C30FFF742FB6563A5630A
:200F0000A564E564200070BD2C68002C05D02500D8E7280000F010F8D3E704213000FFF794
:200F2000B1FF041E2860F2D10C233360EAE7C046F02400080100FFFFF0B5D6464F464646FE
:200F4000384BC0B5836200238364C3640365364B82B01B6805000193984260D02800FFF724
:200F6000A9FF68602800FFF7A5FFA8602800FFF7A1FF6E680024E860042330007466346072
:200F80007460B460F36034617461B461082200215C30FFF7F5FA254B254F9A467362254BD2
:200FA00037639946B362244B3662F362AE6898463000224B746634607460B460F360346178
:200FC0007461B461082200215C30FFF7D9FA534673624B46B36243463763F3623662EE680D
:200FE000174B3000F360746634607460B46034617461B461082200215C30FFF7C1FA534616
:2010000073624B46B3624346F362012336623763AB6102B01CBC90469946A246F0BD01231D
:2010200083619BE7710E0008F02400083D1B0008D51B0008691B0008A91B000809000100ED
:201040001200020010B5034B0349186800F09EF810BDC046F0240008E90D0008836910B579
:20106000002B01D1FFF768FF10BDC0467047C0467047C0467047C0467047C04610B5034B3C
:201080000349186800F060F810BDC046000000206D0E000810B5034B0349186800F054F8AB
:2010A00010BDC04600000020810E0008F0B54646D6464F460B78C0B59046722B3ED0772BA9
:2010C00009D0612B33D01623036000201CBC90469946A246F0BDC023DB009A4601240820DF
:2010E00080235B02994680231B019C461C2210270326022501310B78002B0DD0622B13D07E
:20110000782B0ED02B2BF5D101310B789043B44338432C43002BF1D153461C4343461C60DF
:20112000D4E763461C43E5E74B461C43E2E7822384209B009A4601244000D1E7002300243F
:201140009A460420CCE7C046F0B5C646483000B5884607000026002813D07B68BC685D1E6C
:201160000CD4A389012B06D90E22A35E013302D02000C04706436834013DF2D23F68002F3D
:20118000EBD1300004BC9046F0BDC046F8B54746CE4680B507004837804689460026002F27
:2011A00014D07B68BC685D1E0DD4A389012B07D90E22A35E013303D021004046C847064379
:2011C0006834013DF1D23F68002FEAD130000CBC90469946F8BDC04670B50C001D000E23FA
:2011E000C95E96B01600002914DB6A4600F01EFD00280FDBF022019B12021340094A944645
:2012000063445A4253412B608023DB003360002016B070BD00232B60A3891B06F4D5402321
:201220003360F4E700E0FFFF70B58B8982B006000C009B0707D5230047332360236101239F
:20124000636102B070BD01AB6A46FFF7C5FF009905003000FFF73EFA002810D08022154BCF
:20126000B362A38920601343009A1BB26261019AA3812061002A0CD12B43A381E1E70C225E
:20128000A35E9A05DDD40322934302221343A381D1E70E23E15E300000F06CFE002802D1B7
:2012A0000C22A35EE8E70322A3899343012213431BB2E1E7710E000810B5034B01001868E0
:2012C000FFF708FA10BDC0460000002010B5034B01001868FFF7A8F910BDC0460000002005
:2012E0007047C0467047C046936810B5013B9360002B04DA9469A34207DB0A2905D0136835
:20130000581C10600800197010BDFFF7D1FBFBE7F8B506000F00002B0DD01400D51802E03A
:201320000134AC4207D021783A003000FFF7DCFF431CF5D1F8BD0020FCE7C046936810B53C
:201340001400002B02D10020536010BD00F082FC0023A3606360F8E7F0B54E46DE465746AB
:201360004546E0B5A1B00490039191461C00002804D083690593002B00D1BEE0AD4B039A32
:201380009A4200D1C0E0AC4B039A9A4200D1CDE0AA4B039A9A4200D147E1039A93891B07D0
:2013A00000D4B9E013690593002B00D1B4E0002308AD6B6120336B761033AB762F3B984698
:2013C0004B461B7807949E4F002B00D189E0252B00D125E14E4603E0252B00D1AAE026008D
:2013E0007378741C002BF7D14B46E31A9A4678D053464A4603990498FFF78AFF431C70D04A
:201400006B6953446B617378002B6AD00122002352426A60443201342B60EB60AB60AB5416
:20142000AB6506E04346C01B834034002A6813432B6021780522380000F0C2FD661C002897
:20144000F0D12B68B246DA0602D543222021A9541A0702D543222B21A95421782A2900D084
:201460006EE0079A111D12680791002A00DABAE0EA606178A61C2E2900D17AE0714B032257
:201480001800994600F09CFD002800D18FE04B46C01A402383402A68317813432B6006228F
:2014A000731C69489946297600F08AFD002800D188E0664B002B00D18EE007AB0093039A99
:2014C000634B2900049800E000BF83465B46013307D06B695B446B614B461B78002B00D027
:2014E00075E7039B9B895B061DD4686921B03CBC90469946A246AB46F0BDFFF7AFFD4D4B6D
:20150000039A9A4200D03EE7049B5B680393039A93891B0700D545E703990498FFF73EFB22
:20152000002800D143E701204042DFE7049B9B68039332E74B46E31A9A4600D166E757E704
:201540000A00303AA246092A95D8EB68180001E03400013683001B1831785B0098180A0064
:20156000303A092AF4D9B246E860A61C2E2900D084E7534659782A293BD1079B1A1D079232
:2015800052469178D61C022294461B68E2446B60002B00DB72E701235B426B60294B0322C2
:2015A0001800994600F00CFD002800D06FE7B1465646317806222448297600F001FD002868
:2015C00000D076E707AB0093039A214B2900049800F0E4F8834679E70722079B07339343FB
:2015E0000833079375E75242EA60022213432B603FE70A000023303A6B601800092A01D92A
:2016000010E01E0083001B1871785B0098180A00303A731C092AF4D99A46023668602DE71B
:201620004C46F3E6B246013628E7049BDB680393B3E6C0463425000814250008F424000828
:20164000182700082027000824270008000000001113000810B504001300034A10680A00CA
:201660002100FFF779FE10BD00000020F0B54F464646D646C0B51F00089B914698468A682F
:201680000B6906000C00934200DA13004A4613604322A25C002A02D04A46013313602368DE
:2016A0009A065AD54B461B6806209A1C4B461A6023681900184208D1E16800258A1A19213D
:2016C0008A461900A244002A3FDC4323E35C5A1E93418A060AD53020E118433108704521FB
:2016E0005A1C615CA2184332023311702200390043323000C047431C19D006232068A268C8
:2017000021690340042B30D08A423ADD00239946521A91441A34002502E001354D4530DA80
:201720000123220039003000C047431CF5D1012040421CBC90469946A246F0BD4B46E2682E
:201740001B680135D31AAB4220DD0123524639003000C047431CF1D1E9E706221A4212D076
:201760004323E35C5A1E9341C0E74B46E0681B68C31AD843C017184081468A42C8DC002BEC
:20178000C8DC0020D5E74A46126895E743232168E35C5A1E93418A069DD4A7E7F0B55746F8
:2017A0009A4643239C464E464546DE468C446346E0B587B003930B7E914680460C00109A07
:2017C0006E2B00D1D8E000D871E0732B00D11AE100D881E0752B00D1FFE0782B00D00BE16C
:2017E0000B6878204521605494498B46116840C91160180603D4580601D53604360CDA079D
:2018000002D52022134323601027002E00D1C2E043230022E2546368A360002B00DAC5E0C8
:201820000422216891432160002E00D083E0002B00D0BDE0039D082F00D18CE0039B5B1B83
:201840002361534605AA009321004B464046FFF70DFF431C22D023692A0049464046D047BC
:20186000431C1BD022680598E368920700D47FE01A1A002A00DC7BE026000025193606E0CB
:20188000E368059801351A1AAA4200DC70E00123320049464046D047431CF1D10120404298
:2018A00007B03CBC90469946A246AB46F0BD632B00D184E01FD8002B69D0582B00D09BE052
:2018C000452163545E4923688B46116840C91160180600D48FE792E76F2B7ED0702B00D0C1
:2018E0008AE02023096878200B4345212360605452498B467AE7642B01D0692B7CD11168C0
:201900002368081D10601D064AD50A681600002A03DB4B4B0A279B467DE743222D21A15421
:2019200062687642A260002A02DB042293432360434B0A279B46039D00E00600390030000E
:2019400000F0E6FC5B465B5C013D2B70BE42F4D2082F00D072E72368DB0700D46EE76368FD
:201960002269934200DD69E73023013D2B7065E7984295DA180093E7136809681D1D606998
:2019800015601B680E0601D449064BD418600023039D236155E7202322689A43226037E7B3
:2019A0005D06B2D500228E5E3200B0E7002EC2D15B4625001A7842234235E2543BE713689E
:2019C0002500191D11601A684223E254413B4235236143230022E25433E7116820680D1DA4
:2019E0001560060601D440061ED40E686F2B1DD0134B0A279B460BE742222500A354012356
:201A000042352361E5E71368191D11601D6862680021280000F0D4FA00280BD0401B606069
:201A20002061D6E71880B2E70E88DFE7044B08279B46EDE660682061CBE7C0464027000839
:201A40002C27000870B50C0009680500002901D0FFF7F8FF28002100FEF7E6FD70BDC04649
:201A6000354B70B51B68050083425CD0426A002A5AD0D368002B13D000269959002907D0E7
:201A80000C682800FEF7D0FD211EF9D16B6ADB680436802EF1D119002800FEF7C5FD6A6A51
:201AA0001168002944D02800FEF7BEFD6969002902D02800FEF7B8FD6A6A002A03D0110017
:201AC0002800FEF7B1FDA96B002902D02800FEF7ABFDE96B002902D02800FEF7A5FD296CC4
:201AE000002902D02800FEF79FFDE96D002902D02800FEF799FDA96D002902D02800FEF700
:201B000093FD696B002902D02800FEF78DFDAB69002B08D02800AB6A9847A96C002902D07C
:201B20002800FFF78FFF70BD41690029C1D1CAE769690029BDD1C2E70000002070B50C0033
:201B40000E25495F00F002FB002803DB636D1B18636570BDA389024A1340A381F9E7C046EA
:201B6000FFEFFFFF00207047F8B516001F000C228B5E0C0005000E22895EDA0508D4094A73
:201B800028001340A38132003B0000F029F8F8BD0022022300F000FA0C22A35E0E22A15EE4
:201BA000EDE7C046FFEFFFFF70B50C000E25495F00F0F2F9431C06D08023A2895B011343C3
:201BC000A381606570BDA389014A1340A381F9E7FFEFFFFF10B50E23C95E00F015F810BD4E
:201BE00070B50500080011000022064C22601A0000F000FB431C00D070BD2368002BFBD0CA
:201C00002B60F9E774000020002370B5064C05000800236000F0B8FA431C00D070BD236812
:201C2000002BFBD02B60F9E774000020002370B5074C050008001100236000F0ADFA431C7D
:201C400000D070BD2368002BFBD02B60F9E7C04674000020F0B54546DE4657464E46E0B5E7
:201C6000936883B000900C009046002B6DD08B891A0700D471E00A69002A00D16DE04246BF
:201C800016689A0700D475E0A36A00279A46B54B00259946216A002D16D02B004D4500D9B0
:201CA000B04B3A000098D047002800DCD5E043469B683F182D1A181A4346986045D0A36A88
:201CC000216A9A46002DE8D1376875680836E2E74B461B689A464B465F6808239C46E144B2
:201CE000002FF5D03A000A21504600F069F9002800D1CEE053460130C61A3300BB469F423D
:201D000000D99B46206822696369904204D9A2689D18AB4500DD92E05B4500DDF9E0A56A18
:201D20005246216A0098A847051E00DC95E0761B0120002E00D1E4E043469B68AA447F1BFC
:201D40005D1B43469D6000D095E0002003B03CBC90469946A246AB46F0BD21000098FEF78C
:201D60001DFF002800D0F9E04246A38916689A0700D589E7DA0778D4002291468022920004
:201D800000279346A5682068002F53D05A46134200D181E0AA46BD4200D9AFE09022D2005A
:201DA00013422ED02169451AAC466069019542001218D00F8218781C52106044924690426D
:201DC00001D9824602005B0500D4AFE011000098FEF780FC051E00D1BAE0019A2169FEF7DA
:201DE0007BFBA389604A134080221343A3815246019B2561E818BA463D00D31A2060626101
:201E0000A3605246494600F01BF9A3685D1BA5603D00002723685344236043469B68A9448A
:201E20005D1B43469D6000D18FE7A5682068A389002FABD13268776891460836A4E7514641
:201E40002A0000F0FDF8236821005B1923600098FEF7CAFF002800D169E70C22A35E4022A0
:201E600001201343A381404270E70023B14600209A4600271E00002F00D129E7002800D087
:201E80003BE73A000A21504600F09AF8002800D030E77B1C1E0031E72369834217D36369C0
:201EA0009A46BB4213D8314B38009F4200D93048514600F031FA53464A464343216A0098F0
:201EC000A56AA8470028C8DD05007F1BA5E7BD4200D93D002A00494600F0B2F8A36822680F
:201EE0005B1B5219A3602260002BEED121000098FEF77AFF0028B0D17F1B8EE73D00BA4676
:201F00007FE721000098FEF76FFF002800D113E7A3E75A46514600F093F85A46A3685D46C2
:201F20009B1AA36023685B44236000E7009800F0E5F8051E00D05AE7009D21692800FEF778
:201F400073FB8022A3899343743A1BB22A6086E70C23009A13600C22A35E80E70120404288
:201F6000F4E6C04600FCFF7F7FFBFFFFFEFFFF7FFFFFFF7F002370B5064C0500080023606E
:201F800000F012F9431C00D070BD2368002BFBD02B60F9E77400002070B505000800110027
:201FA0000022064C22601A0000F006F9431C00D070BD2368002BFBD02B60F9E77400002046
:201FC00070B5CDB2830734D0531E002A1BD00278AA4219D0032404E0013B14D30278AA4266
:201FE00012D001302042F7D1032B0ED8002B0AD00278AA4208D0C31802E00278AA4203D057
:2020000001308342F9D1002070BDFF220C06240C114021430C04084E0C430268074962408A
:20202000511891433142E3D1043B0430032BF4D8DCE71300D8E7C04680808080FFFEFEFE3B
:20204000F0B5C64600B588420CD98B18984209D2531E002A03D0CA5CC254013BFBD204BCA0
:202060009046F0BD0F2A0CD80500561E002AF6D0002300E02300CA5C5C1CEA549E42F9D1AB
:20208000EDE70B00032603431E400C000300002E2ED11500103D2D09AC462D01A8468044EE
:2020A00000E02B001D00276810351F6067685F60A7689F60E7681034DF604345F1D1654642
:2020C0000F230C2401352D01491913404519144211D08C59AC5104369C1B032CF9D80324F6
:2020E000043B9B0801339B00ED18C9182240BCE7561E0500BCE71A00B7E7C046F8B50700B6
:202100000C00150000291BD0002A15D000F032F82600A84201D33000F8BD29003800FEF742
:20212000D9FA061EF7D021002A00FEF7D5F921003800FEF779FAEEE7FEF776FA0026EAE7E1
:202140001100FEF7C7FA0600E5E7C04670B50500080011000022064C22601A0000F034F871
:20216000431C00D070BD2368002BFBD02B60F9E7740000200B1F1B68181F002B00DB7047E2
:202180000B58C018FBE7C04658220120014B40421A6070477400002058220120014B404285
:2021A0001A607047740000205822024B00201A607047C0467400002058220120014B40423F
:2021C0001A6070477400002058220120014B40421A60704774000020044A1368002B03D045
:2021E0001818106018007047014BF9E7700000207800002058220120014B40421A60704782
:2022000074000020002243088B4274D303098B425FD3030A8B4244D3030B8B4228D3030CC8
:202220008B420DD3FF22090212BA030C8B4202D31212090265D0030B8B4219D300E0090A2A
:20224000C30B8B4201D3CB03C01A5241830B8B4201D38B03C01A5241430B8B4201D34B036D
:20226000C01A5241030B8B4201D30B03C01A5241C30A8B4201D3CB02C01A5241830A8B42C5
:2022800001D38B02C01A5241430A8B4201D34B02C01A5241030A8B4201D30B02C01A5241A0
:2022A000CDD2C3098B4201D3CB01C01A524183098B4201D38B01C01A524143098B4201D3C6
:2022C0004B01C01A524103098B4201D30B01C01A5241C3088B4201D3CB00C01A52418308F0
:2022E0008B4201D38B00C01A524143088B4201D34B00C01A5241411A00D201465241104644
:202300007047FFE701B5002000F0F0F802BDC0460029F7D076E7704703460B437FD400229D
:2023200043088B4274D303098B425FD3030A8B4244D3030B8B4228D3030C8B420DD3FF228F
:20234000090212BA030C8B4202D31212090265D0030B8B4219D300E0090AC30B8B4201D368
:20236000CB03C01A5241830B8B4201D38B03C01A5241430B8B4201D34B03C01A5241030B40
:202380008B4201D30B03C01A5241C30A8B4201D3CB02C01A5241830A8B4201D38B02C01AE4
:2023A0005241430A8B4201D34B02C01A5241030A8B4201D30B02C01A5241CDD2C3098B4282
:2023C00001D3CB01C01A524183098B4201D38B01C01A524143098B4201D34B01C01A524124
:2023E00003098B4201D30B01C01A5241C3088B4201D3CB00C01A524183088B4201D38B005C
:20240000C01A524143088B4201D34B00C01A5241411A00D201465241104670475DE0CA0F81
:2024200000D04942031000D34042534000229C4603098B422DD3030A8B4212D3FC22890102
:2024400012BA030A8B420CD3890192118B4208D3890192118B4204D389013AD0921100E03A
:202460008909C3098B4201D3CB01C01A524183098B4201D38B01C01A524143098B4201D311
:202480004B01C01A524103098B4201D30B01C01A5241C3088B4201D3CB00C01A524183082E
:2024A0008B4201D38B00C01A5241D9D243088B4201D34B00C01A5241411A00D20146634617
:2024C00052415B10104601D34042002B00D54942704763465B1000D3404201B5002000F0E1
:2024E00005F802BD0029F8D016E770477047C046040000200000000000000000000000009A
:202500000000000000000000000000000000000000000000000000000000000000000000BB
:2025200000000000000000000000000000000000000000000000000000000000000000009B
:202540000000000000000000000000000000000000000000F0B5DE464E4657464546E0B561
:202560008025524C87B0FDF77BFEE369AD022B43E361636930212B43636190232027DB059E
:202580001A684B488A433A431A601A6A49491140802252000A43C0211A621A688A43403995
:2025A0000A431A601A6A8B4643491140802252010A431A62A2220C21FF32828102680A4388
:2025C000026002680B390A4302601A6888463B490A401A6080221968D2000A431A600022C6
:2025E000029204920592364A364B914612689C4669469246039304AA48CA48C10022634635
:202600003149FDF74FFF534698604B461B689868FEF782F910220120E3692C4E1343E36136
:202620002B4A2C4B1A852C4ADA629989014389B29981C4211A888900024392B21A80274BFD
:2026400027481D605A58002502405A504146A26924480A432449A2610A68244C0240F020DC
:202660000A6023494A69824317434F618021214A89011068084310609068014391605A466C
:20268000C1211A6089005A581202120A5A5029003000FEF79DF8C8222346C046013BFCD184
:2026A000013A002AF8D10135F1E7C0460010024000440040FFF0FFFFFF0FFFFFFFF3FFFF19
:2026C0000000002005010008082700080C2700087FBBFFFF00100040E703000000E100E027
:2026E000FF00FFFFFFFFFFF300080048701700000000014000040140627574746F6E0000F4
:2027000074696D6572000000770000005B25695D206D61696E0A0000232D302B2000000041
:20272000686C4C0065666745464700003031323334353637383941424344454600000000D3
:20274000303132333435363738396162636465660004000020000000003425000814250059
:2027600008F424000800000000000000000000000000000000000000000000000000000031
:20278000000000000000000000000000000000000000000000000000000000000000000039
:1527A00000000000000000000000000000000000000000000024
:0400000508000000EF
:00000001FF
