:020000040800F2
:20000000004000204900000841000008450000080000000000000000000000000000000099
:200020000000000000000000000000000000000000000000000000000000000000000000C0
:20004000FEE7C046FEE7C04609480A4A10B5904203D00949121A04F0CFFE0848084A904208
:2000600003D00021121A04F01BFF0BF007FFFEE7C000002074070020B2C1000878070020D7
:200080003431002030B5002A0BD080248D18C3691C42FCD00B7801310385A942F7D1100052
:2000A00030BD0020FCE7C0462021074AD3691942FCD0938CDBB218006138192801D8203B83
:2000C000DBB29BB21385F1E700440040F8B5902500220023002420260E4FED05A98A380087
:2000E000714089B2A98205F0CBFDC82000F05AFE201C0BF0E1FA084A084B09F0C5FC0BF090
:2001000023FB041C0BF0D8FA03F0EAFB02000B00E4E7C04618C000089A9999999999B93FAF
:20012000F8B50E4B4746CE4699460D4B8025D026984680B50B4FED05760000244B461B5948
:2001400014202B6443461B59EB633B590434AB6300F028FEB442F1D1EFE7C046C00000202D
:200160006002002000040020FA21044A4900136801338B4200D300231360704778070020EC
:20018000FEE7C046FEE7C0467047C04610B500F009FE10BDF8B50F4B4746CE4699460E4B63
:2001A0008025D0260024984680B50C4FED0576004B461B5914202B6443461B59EB633B5903
:2001C0000434AB6300F0EEFDB442F1D10CBC90469946F8BDC000002060020020000400208E
:2001E00080231C49DB024A6930B513434B611A4B1A481A681A4D10408022120402438020E3
:200200001A605A6A80012A4002435A621A68154C14408022920322431A605C6A124A2240E3
:200220008024A40014435C62C0241A68A243403C22431A601A6A2A40104301221862CB69A9
:200240001343CB6180232E32DB051A85074ADA6230BDC0460010024000040048FFFF3FFF40
:20026000FF0FFFFFFFFFCFFFFFF0FFFFE70300008023DB059A8B0D490A409A831A8C0C496F
:200280000A401A849A8B0B490A409A83C022998BD2010A439A838022998B12010A439A8310
:2002A0008022198C52010A431A847047FFFCFFFFFFDFFFFFFF8FFFFF80230321DB059A8BD5
:2002C0008A439A831A8C0A490A4070211A849A8B8A439A839A8B10390A439A839A8B583925
:2002E0000A439A838022198C52000A431A847047FFFDFFFF8023DB051A8B0D490A40202156
:200300001A831A8C8A431A841A8B0A490A401A83C022198BD2010A431A838022198B1201B4
:200320000A4310211A831A8C0A431A847047C046FFFCFFFFFF8FFFFF80230120442210B5E0
:200340008024DB05998A2402014389B29982995A214399521A88024392B21A8010BDC0465C
:20036000A022174BD20219680A4380211A6089021A680A42FCD05A68124911408022520312
:200380000A435A605A6810491140802252020A435A608022196852040A4380211A60084ABA
:2003A000890413680B42FCD0012008490B6803430B60032153688B4301390B4353607047E7
:2003C00000100240FFFFC3FFFF7FFEFF0020024070B5104C14E001F00FFF2369DD68281DA4
:2003E00002F0FEF8A369013BA3612368013B236001F00EFF286B02F037F8280002F034F887
:200400002368002BE7D1E369012BF9D901F0E8FEF6E7C0467C070020F8B54E464546DE46D7
:200420005746E0B59600804630000D00994601F077FF071E00D195E0542001F071FF041E49
:2004400000D1A1E007633200A521380004F028FD236B9A46002D00D1CFE034232A78E2544D
:200460002B78002B26D035236A78E2546B78002B20D03623AA78E254AB78002B1AD0372307
:20048000EA78E254EB78002B14D038232A79E2542B79002B0ED039236A79E2546B79002BED
:2004A00008D03A23AA79E254AB79002B02D03B23EA79E2543B230022E2540A9D042D5AD8D6
:2004C0000023271DA3643800E56265649B4602F05FF82000183002F05BF80523043E5D1BAD
:2004E0005B465A4656443000E36450332461A5616462E254493B98434A46414601F052FEE9
:200500000B9B2060002B00D01C6001F075FE3C4E3C4DB3690133B3612B68002B3AD0EB6D43
:20052000002B2AD0E26A2B6E01332B66E3636B6E934200D26A6630009600B618B6001C30C0
:200540008019390002F028F801F062FEEB6D0126002B09D02B68DA6AE36A9A4204D201F01C
:200560003FFE01E00126764230003CBC90469946A246AB46F8BD0425A2E72B68E26ADB6A3D
:200580009342D0D82C60CEE70126380001F06CFF7642E9E72C60B369012BC3D130001C3076
:2005A00001F0EAFF3000303001F0E6FF3000443001F0E2FF3000583001F0DEFF30006C3033
:2005C00001F0DAFF2B1D1800994601F0D5FF18239846A844404601F0CFFF28002C3001F08E
:2005E000CBFF301D01F0C8FF2800403001F0C4FF4B466B654346AB6594E73423E5545CE798
:200600007C070020FC070020F8B5050001F0F4FD224C002D38D02F1D380001F0E1FFAB6A73
:20062000002B03D02800183001F0DAFF236E013323662368AB421ED0194A286B9369013BA0
:20064000936101F011FF280001F00EFF636D1B68002B0DD0636DDB68DB685B68A36601F011
:20066000D7FDE36D002B02D02368AB420ED0F8BD013BA366F3E70A4E3900301D01F08CFFD5
:20068000336801333360EAE72568C4E7E36E002B01D072B6FEE701F0A3FDE8E7FC07002012
:2006A0007C070020F0B5C646050000B5002820D0184E00203368AB4218D001F09DFD736DB3
:2006C0006C699846B76D01F0A3FD44451ED0BC421CD04036B4420ED00F4B04339C4217D0B1
:2006E00063425C41032064422040013004BC9046F0BD72B6FEE7AB6A0220002BF6D1503362
:20070000E85C0138431E98410230EFE70220EDE70420EBE7FC0700207C07002010B504009F
:2007200001F06AFD002C04D0E46A01F071FD200010BD014B1C68F7E7FC07002010B504002D
:2007400001F074FD002C04D0E46A01F073FD200010BD014B1C68F7E7FC070020F0B5C64619
:2007600004000D0000B5042901D972B6FEE701F043FD002C26D0626C95421ED0224F24D84C
:200780003E68361B73425E41E16A8A4200D1E562A3696564002B02DB05235D1BA5611B4DF4
:2007A0008B002A005B181C329B00D31862699A4214D0002E01D001F013FD01F029FD04BCDB
:2007C0009046F0BD104B1C68D5E73B68A34218D000263B68DB6A9D427641D5E7231D1800D3
:2007E000984601F0FDFEE36A7A6E934200D97B669800C0181C3580004146281801F0CCFEA8
:20080000D7E70026C0E7C046FC0700207C07002070B5041E0DD0184D2B68834208D001F0D7
:20082000EBFC2B00626940339A4204D001F0F0FC70BD72B6FEE72A00A36A2C329342F5D072
:20084000002BF3D1261D300001F0CAFEE26A6B6E9A4200D96A66930008489B189B001C3056
:20086000C018310001F098FE2B68E26ADB6A9A42DCD301F0B5FCD9E7FC0700207C07002011
:20088000F0B5C646040000B5002810D001F0CEFC1C4D62692B004033070000269A4208D078
:2008A000380001F0C7FC300004BC9046F0BD72B6FEE72800A36A2C308342F1D0002BEFD1CA
:2008C000EB6E002B18D12B68E26ADB6A9A427641231D1800984601F083FEE26A6B6E9A424B
:2008E00000D96A66930008489B189B001C304146C01801F051FED3E72100183101F04CFED4
:20090000CEE7C046FC0700207C070020F8B58020CE464746C00080B501F002FD051E65D02B
:20092000542001F0FDFC041E5DD08022A521D2000563280004F0B4FA514B002563633823BC
:20094000266B271DE5540333E5543800E5626564A56401F01DFE2000183001F019FE052325
:20096000A3614B33E56424616462E554FF239B00F018072300229843424901F013FC424D22
:2009800020602C6701F038FC404EB3690133B3612B68002B3DD0EB6D002B33D0E36A2A6EF7
:2009A00001322A66E2636A6E934200D96B669800C0181C3680003900301801F0EDFD01F049
:2009C00027FCEB6D002B04D02B68DA6AE36A9A4252D301F087FA01280AD0431C06D00CBC06
:2009E00090469946F8BD280001F03EFD72B6FEE772B601235B42AB660023E8656B6701F0FF
:200A000067FCECE72A68E36AD26A9A42C7D82C60C5E72C60B369012BC0D130001C3001F000
:200A2000ABFD3000303001F0A7FD3000443001F0A3FD3000583001F09FFD30006C3001F0B2
:200A40009BFD2B1D1800994601F096FD18239846A844404601F090FD28002C3001F08CFD34
:200A6000301D01F089FD2800403001F085FD4B466B654346AB6591E701F0B2FBA9E7C04601
:200A800049444C45D1030008FC0700207C07002010B572B60022024BDA6501F095FB10BDAD
:200AA000FC070020024AD36E0133D3667047C046FC070020014B586F7047C046FC07002046
:200AC000014B586F7047C046FC070020014B98697047C0467C070020002801D03430704762
:200AE000024B18680028F9D172B6FEE7FC070020F0B5D6464F464646434CC0B5E36E002BA5
:200B00006BD1676F01376767002F10D1636D1B68002B69D1636DA26D6265A365A36F013301
:200B2000A367636D1B68002B60D1013BA366A36E9F4238D3636D00251B68344E002B5BD06A
:200B40001C239A46B24425E0042343441800994601F046FD43469B6A002B03D04046183048
:200B600001F03EFD4346626EDB6A934200D963669800C01880004946504401F00DFD42469E
:200B80002368D26ADB6A9A4200D30125636D1B68002B31D0636DDB68DB6898465B689F421D
:200BA000D2D2A36601E00025184E2368DA6A93009B189B00F618F369012B00D90125E36F85
:200BC000002B1DD0124B1B68002B00D0012528001CBC90469946A246F0BDE36F0025013307
:200BE000E367FFF7C1FAF2E772B6FEE7636DDB68DB685B68A3669AE701235B42A366D4E7EC
:200C0000FFF7B2FADEE7C046FC0700207C0700207C080020F8B5CE46474680B501F0ECFAA3
:200C2000334CE36E013BE366E36E002B4BD1314FBB69002B47D0E36A002B56D02E4B1C3777
:200C4000984601239946A36BDD6828002E1D183001F0C6FC300001F0C3FCEB6A626E934218
:200C600000D963669800C01880003100381801F093FC2368EA6ADB6A9A422CD343464A46C9
:200C80001A60E36A002BDED1636D1B68002B29D0636DDB68DB685B68A366E56F002D0AD0BF
:200CA0000126FFF725FF002801D043461E60013D002DF6D1E56743461B68002B03D001F07A
:200CC0008FFA012400E0002401F0A2FA20000CBC90469946F8BDE36A002BB4D1636D1B6833
:200CE000002BD5D1013BA366D7E7034B9846D4E7FC0700207C0700207C080020044B10B5BB
:200D0000DB6E002B01D172B6FEE7FFF783FF10BDFC070020F8B5002817D0002901D172B639
:200D2000FEE71F4EF36E002B11D1F36E0133F3660268756F54180460AA420FD9A2420FD848
:200D4000F36E002B05D172B6FEE772B6FEE772B6FEE7FFF75FFF002819D0F8BDA24201D833
:200D6000A542EDD2776F30687D1B043001F038FC336864195C60A7420CD8706D3168043112
:200D800001F016FCB36E9C42DAD2B466D8E701F027FAE2E7B06D3168043101F009FCCFE75A
:200DA000FC07002070B5051E09D0174CE36E002B08D072B6FEE7FFF72DFF002801D101F01E
:200DC0000FFA70BDE36E0133E366666F2068AD19043001F005FC23685D60AE4209D9A06D9F
:200DE0002168043101F0E4FBE36E002BE3D172B6FEE7606D2168043101F0DAFBA36E9D42E7
:200E0000F2D2A566F0E7C046FC0700200A4B10B5DA6E002A01D072B6FEE7DA6E0132DA66DE
:200E2000DA6F1218DA67DB6E002B01D172B6FEE7FFF7F0FE10BDC046FC070020F0B54E4698
:200E400091460822DE46574645469346E0B54B688B445B6804000F0083B05B456CD0DA682E
:200E60005B68019200229046344A7B6092469B452FD0DE68351E32D02B0034336360EB6ACF
:200E8000296B2361EB6B2560A3606B6CE16163610023A36153461B68AB4223D04B46237335
:200EA000032B35D00B78A52B21D100230133CA5CA52AFBD09B089BB2238401239C46019B6A
:200EC000E0442434B3421BD07B685B687B609B45CFD15B465B68DE687B60351ECCD15346A7
:200EE0001D68C9E7002323730B78A52BDDD00023238401239C46019BE0442434B342E3D173
:200F0000404603B03CBC90469946A246AB46F0BD53465246DB6E0133D366AB6A002B01D06D
:200F2000022323735346DB6E002B01D172B6FEE7FFF770FE296BB5E7CB6890E7FC070020A9
:200F4000F0B54F464646D646384DC0B5EB6E060001339146EB66364F0024BB698B4257D831
:200F60006C239A46673B98460022BA4401235B429C46E04443469B0043449B00FB18101919
:200F8000DB6980003018002B08D001225146FFF755FF2418E20010198000301814235B425B
:200FA0009C464346E244002BE0D1696D0B68002B07D00222FFF742FF2418E0000019800069
:200FC0003018A96D0B68002B07D00222FFF736FF2418E0000019800030187B68002B08D00C
:200FE0000422391DFFF72AFF2418E0000019800030182B6C002B05D0290003224031FFF70D
:201000001DFF24184B46002B02D000234A461360EB6E002B01D172B6FEE7FFF7FBFD200053
:201020001CBC90469946A246F0BDC046FC0700207C07002070B5374CE36E002B03D00122A8
:20104000354B1A6070BD344A3449136023681B6B1A688A4202D15968914251D02068216803
:201060003431FFF78FF8626E2D499300981880000818C069002835D1002A2FD0531E9800DC
:20108000C01880000818C069002829D1002B25D0931E9800C01880000818C06900281FD16B
:2010A000002B1BD0D31E9800C01880000818C069002815D1002B11D0131F9800C0188000B4
:2010C0000818C06900280BD1002B07D0531F9A00D21892008A18D269002A01D172B6FEE753
:2010E0001A009B009B189B00CD182900286A24314068286288420AD0C36823606266A1E724
:201100009A688A42AAD1DB689342A7D1ABE740682862F1E7FC0700207C080020A5A5A5A5FF
:201120007C07002070B5050001F066F8244C002D1ED02E1D300001F053FAAB6A002B03D03C
:201140002800183001F04CFA20003100403001F023FA5023EA5C012A01D10022EA5401F012
:2011600057F8E36D002B0DD12368AB4202D070BD2568DEE7E36D002B15D0E36E002B1CD036
:2011800072B6FEE701F038F8636D1B68002B07D0636DDB68DB685B68A36601F039F8E3E7BE
:2011A000013BA366F9E7074A216C9269914201D12360DCE7FFF73EFFD9E701F011F8D6E79C
:2011C000FC0700207C07002070B50D00002816D0144C2168183101F0EBF9666F2068043071
:2011E00001F0FEF96B1C0CD02368AD195D60AE420ED9A06D2168043101F0DAF970BD72B6DB
:20120000FEE7200021684030043101F0C5F9F5E7606D2168043101F0CBF9A36E9D42EDD221
:20122000A566EBE7FC07002070B51500002805D0194CE36E002B03D172B6FEE772B6FEE7A8
:2012400080231B060B43226821689361183101F0A3F9666F2068043001F0C2F96B1C0AD001
:201260002368AD195D60AE420CD9A06D2168043101F09EF905E0200021684030043101F014
:201280008BF970BD606D2168043101F091F9A36E9D42F6D2A566F4E7FC07002070B50D00A4
:2012A0001600002822D0174C2168183101F074F9002E0FD1666F2068AD19043001F090F98C
:2012C00023685D60AE4213D9A06D2168043101F06FF970BD636F2068043001F081F9200080
:2012E00021684030043101F057F9F2E772B6FEE7606D2168043101F05BF9A36E9D42E8D21F
:20130000A566E6E7FC070020C36870B5DC68002C2BD026001836300001F062F9144DEB6E6D
:20132000002B0FD0280031002C3001F035F92B68E26ADB6A00209A4203D901220D4B013027
:201340001A6070BD261D300001F04AF9E26A6B6E9A4200D96A66930007489B189B001C3019
:201360003100C01801F018F9E1E772B6FEE7C046FC0700207C0800207C07002070B5164D95
:20138000EB6E002B01D172B6FEE78023C4681B060B430360002C1CD0261D01F021F93000B3
:2013A00001F01EF9E26A6B6E9A4200D96A6693000A489B189B001C30C018310001F0ECF81E
:2013C0002B68E26ADB6A9A4202D90122044B1A6070BD72B6FEE7C046FC0700207C07002040
:2013E0007C08002010B5041E09D000F005FF054B9A6F5B6F2260636000F00AFF10BD72B63F
:20140000FEE7C046FC070020024B9A6F5B6F026043607047FC070020F8B504000D000028D9
:2014200021D000291DD000F0E7FE134A2B68506F591C1AD0966F27686168B74202D0012673
:2014400081420AD9461AB34211D900261B1A5B182B60936F2360536F636000F0D9FE30004D
:20146000F8BD72B6FEE772B6FEE70026F5E7002301262B60F1E7C046FC0700200122014B56
:201480001A6070477C080020002801D0006C70470020FCE7002800D001647047F0B54F460A
:2014A0004646D6460400C0B50D0016003E4F00282ED0220034326A60E26A2C602A61226BF3
:2014C000EA61E26BAA60626C6A610022AA61052B2DD03968A14217D02B73032B1AD0002E28
:2014E0000CD0226B1378A52B4BD100230133D15CA529FBD09B089BB22B8400E02E841CBCE6
:2015000090469946A246F0BD2A73002EF6D0E8E73C68CEE7FB6E0133FB66A36A002B01D0C1
:2015200002232B73FB6E002B25D172B6FEE73A680023A2421BD000F05FFE636998467B6DDE
:201540009A46BB6D994600F063FED04516D0C84514D04037B84517D0144B043398451FD0AA
:2015600043465A4253415A420323134001332B73002EC3D0B5E7FFF74DFBB0E702232B73D6
:20158000F6E700232B84BAE7A26A0223002AEED14E33E35C013B5A1E934102332B73E7E7F8
:2015A00004232B73E4E7C046FC0700207C070020014B18687047C046FC070020044B0120B3
:2015C000DA6D002A03D0D86E4342584140007047FC070020F8B5041E23D01E4DC26A2B685D
:2015E000DB6A9A4216D28369002B04DB2B68D96A05235B1A8361184E930031009B181C316B
:201600009B006269CB189A420DD02B680120DB6AE36205E02B68406CDB6A98428041404204
:20162000F8BD0020FCE7271D380000F0D9FF2B686A6EDB6AE362934200D96B6630009E006C
:20164000F6181C30B6008019390000F0A5FF0120E6E7C046FC0700207C07002070B500280D
:2016600010D0164E3468844201D072B6FEE7A36C002B09D0E26A616C013BA3648A4201D0DA
:20168000002B03D0002070BD72B6FEE7251D280000F0A6FF0522636CD21AA261726EE362E9
:2016A000934200D9736606489A00D3189B001C30C018290000F070FF0120E4E7FC0700207A
:2016C0007C070020F8B5041E33D0836C002B01D172B6FEE7426C8A4200D20A00E16A914228
:2016E00027D0012B25D1144F3B68A34222D0A369E262002B02DB05239A1AA2610F4D8B00D6
:201700002A005B181C329B00D31862699A4210D1261D300000F064FFE36A7A6E934200D927
:201720007B669800C0181C3580003100281800F033FFF8BD72B6FEE7FC0700207C0700206C
:20174000F0B50023DE464E4645465746E0B50370274B04009D699B6983B0D800C0188000F6
:2017600000F0DEFD814600283AD000222900FFF7E7FB002831D04B461D1DC30018181D4B33
:2017800080009A46002380469B46A8442B7A0027042B01D8184AD75C2000296804F0A6FB84
:2017A0000600031B062B07D8221A2021073203F077FB5B46E61DE3716A68EB680192AA8BF5
:2017C0005146009230003A0004F070FB300004F0B1FB24353418A845D8D1484600F044FE4C
:2017E00003B03CBC90469946A246AB46F0BDC0467C07002050C000085CB90008044B1A6854
:20180000196890691A680523C96A5B1A93617047FC070020044B1A68002A03D019688A6CE9
:2018200001328A6418687047FC070020F8B506000D0000F0E1FC244C2368DB6C002B05D15D
:20184000012122685033D154002D17D100F0E0FC00F0D2FC2368DD6C002D04D02368002E07
:2018600009D00022DA64502300212268D15400F0CFFC2800F8BD6A1EDA64F4E7676F206855
:20188000043000F0ADFE6B1C0CD02368ED195D60AF420ED9A06D2168043100F089FE00F0BE
:2018A0009FFCD3E7200021684030043100F074FEF5E7606D2168043100F07AFEA36E9D4264
:2018C000EDD2A566EBE7C046FC070020F0B5C64600B515001E000700884600F08DFC5023E9
:2018E000284C2268D25C022A08D02168CA6CBA43CA6401212268D154002E1ED100F088FC6C
:2019000000F07AFC002D02D02368DB6C2B60502322680025D35C022B05D14146226801356A
:20192000D36C8B43D364502300212268D15400F06FFC280004BC9046F0BD676F20680430C8
:2019400000F04EFE731C0CD02368F6195E60B7420ED9A06D2168043100F02AFE00F040FC99
:20196000CCE7200021684030043100F015FEF5E7606D2168043100F01BFEA36E9E42EDD243
:20198000A666EBE7FC070020F8B504000E0015001F00002810D000F02FFC002F01D0E36CE1
:2019A0003B6050220221A35CA154DBB2042D27D8204AAD005259974672B6FEE7E26C1643F3
:2019C000E664012B04D0012400F022FC2000F8BD261D300000F004FE174DE26A6B6E9A42EB
:2019E00000D96A66154893009B189B001C30C018310000F0D1FDA36A002B10D072B6FEE7C8
:201A0000E26C0132DDD072B6FEE7022B0FD0E664012BD8D1DCE7E26C0132E264D1E72B688B
:201A2000E26ADB6A9A42CED900F0DAFBCBE70024CAE7C04634B90008FC0700207C07002085
:201A4000F0B5CE4604000E001500994600B5002813D000F0EBFB4B460700002B02D04A460C
:201A6000E36C136050220221A35CA154DBB2042D2FD8294AAD005259974672B6FEE7E16C54
:201A80003143E164012B1CD1A36A002B01D072B6FEE7224DEB6E002B2AD0280021002C30CC
:201AA000183100F079FD2B68E26ADB6A9A4208D9069B002B02D01A00012313600122184BC1
:201AC0001A600124380000F0B5FB200004BC9146F0BDE26C0132D5D072B6FEE7022B05D0F6
:201AE000E664CFE7E26C0132E264CBE70024E9E7261D300000F074FDE26A6B6E9A4200D9CB
:201B00006A66930007489B189B001C303100C01800F042FDC7E7C04648B90008FC07002061
:201B20007C0800207C070020F0B5C64604000E0000B5002839D000F079FB50230221E25C7D
:201B4000E154E36C07000133E364012A27D1A36A002B01D072B6FEE7184DEB6E002B26D166
:201B6000231D1800984600F03BFDE26A6B6E9A4200D96A66124893009B189B001C3041464F
:201B8000C01800F009FD2B68E26ADB6A9A4206D9002E01D00123336001220A4B1A603800B8
:201BA00000F048FB04BC9046F0BD72B6FEE7280021002C30183100F0EFFCE4E7FC070020EB
:201BC0007C0700207C08002070B5041E0CD000F013FB5023E25C0025022A01D1E55401355A
:201BE00000F016FB280070BD014B1C68EFE7C046FC07002070B504000D00084E00280AD032
:201C000000F0FAFA3368DE6CE36CAB43E36400F0FFFA300070BD3468F2E7C046FC07002093
:201C2000F0B54746CE46282380B5984604271E4E85B00EE0DB68DC681A68251D28009146FC
:201C400000F0CEFC236A200098474346E35C1F420BD133681A68002AECD1B268B360326076
:201C600005B00CBC90469946F0BDA3694B44994506D2290030686360246100F099FCE8E7D7
:201C80007368002B0ED0002301934B4603940293FFF794FC00230022706801A900F092FD20
:201CA0000028D6D172B6FEE7800800208B4BF0B54E464546DE46574698460023E0B59946D0
:201CC0002826874C89B023681F68002F00D18AE0DB681F68FEF7E6FEFEF7ECFEE36805005C
:201CE000834200D998E0E060874200D89DE000226068791B01F08CFDFFF700F8002800D191
:201D000087E002239A46013B9B460022606802A900F098FF0028D6D0029B0193002BF4DB25
:201D2000049D6B69002B02D0281D00F059FCFEF7C1FEE3680700984274D3029BE760092B68
:201D4000E3D842469B00D3589F460122AB5D1343AB55A969039B2D615A186A60BA427DD849
:201D6000FB1A994200D98AE02B6A28009847AB5D5B07CAD56368002B13D04A46039B0193F0
:201D8000AB690592019A0795944663440693FFF715FC002360681A0005A900F013FD002865
:201DA000B3D172B6FEE70122AB5D1343AB55039BAB61002B00D18AE0DB196B602D61291D6E
:201DC000BB4254D8A06800F0F3FB9EE75A46AB5D9343AB5599E75246AB5D1A424BD05A46BA
:201DE0009343AB5591E7FEF75DFEFEF763FEE3680500834210D8A36860681A68791B534274
:201E00005A41E56001F004FDFEF778FF002800D077E700F0E5F974E7FFF702FFE560FEF7D4
:201E20006DFF6EE7FFF7FCFE87E7FEF767FF2368DB68DB689A460423534418009B4600F090
:201E4000CFFB53469B5D5A071ED40122934352469355534650461B6A984752E7BB4201D9B8
:201E6000934281D92068291D00F0A2FB4DE7206800F09EFB49E7280000F0F6FA45E7A06827
:201E8000291D00F095FB40E7534651469B690961FA184A60AA4204D95946206800F088FB98
:201EA000D7E7ED1BAB4214D86368002B0DD04B46079105930697FFF781FB002360681A00DB
:201EC00005A900F07FFC0028C3D172B6FEE772B6FEE75946A06800F06BFBBAE764B9000850
:201EE0008008002070B582B000F086F9184C6368002B14D000F08CF96368002B0BD00223CB
:201F00003834009350220023124913480194FEF783FA002801D172B6FEE702B070BD260064
:201F2000250010363000243500F026FB280000F023FB00220C2105202660A56000F0D4FBA8
:201F400060600028D6D0054901F0D0FBD2E7C0468008002068C00008AD1C000860C0000859
:201F6000F8B54546DE4657464E46E0B507002C20884616001D0000F0D3F9041E1ED02823D4
:201F80000022C2544346002B1FD000F035F91F4B99465B68002B1AD000F03AF94346A36177
:201FA0000A9B2760E5612362201D00F0F1FA002E04D028220421A35C0B43A35420003CBC45
:201FC00090469946A246AB46F8BD72B6FEE710334B4418009B4600F0CFFA24234B4418003F
:201FE0009A4600F0C9FA4B465A461A6052460C219A600520002200F077FB4B4658600028CA
:20200000CAD0034901F072FBC6E7C0468008002060C0000870B5160004001A0084B0002844
:2020200016D0124D686800280FD001910296039405290FDCFFF7C2FA022810D000230022A9
:20204000686801A900F0BEFB00E0002004B070BD72B6FEE7002301A900F066FDF6E700234F
:202060006868089A01A900F0ADFBEFE780080020034B986B002800D0704772B6FEE7C0461B
:2020800080080020002801D08069704772B6FEE770B504000D0000280ED000F0ADF82823D6
:2020A0000422E35C002D05D193432822A35400F0AFF870BD1343F8E772B6FEE710B5041EB4
:2020C00009D000F099F82823E45C6407E40F00F09FF8200010BD72B6FEE7C046002801D03D
:2020E0004068704772B6FEE7002801D00068704772B6FEE710B5041E09D000F07DF82823DF
:20210000E35C01241C4000F083F8200010BD72B6FEE7C04610B5041E06D000F06DF8E46935
:2021200000F076F8200010BD72B6FEE770B504000D00002805D000F05FF8E56100F068F837
:2021400070BD72B6FEE7C046406A704741627047002382B00193064B1B68013301D072B69A
:20216000FEE772B6019B002BFCD002B07047C046A00500200A4A13681868203080F30988E8
:20218000022080F31488BFF36F8F3FBCAE4608BC04BC62B61847C046C046C046C046C04656
:2021A000FC07002010B58024031F64041C60043B19600349043B1960143B40381A6010BDC3
:2021C000512100087047C046FA23044A9B0012689A4201D072B6FEE77047C046A00500200C
:2021E0008022044B52051A60BFF34F8FBFF36F8F7047C04604ED00E072B6044A136801332A
:202200001360BFF34F8FBFF36F8F7047A0050020054A1368002B01D172B6FEE7013B13600C
:20222000002B00D162B67047A0050020EFF3108072B6704780F310887047C046EFF309808A
:202240000F4B1A6820381060F0C044464D4656465F46F0C008B572B6FEF7ECFE62B60CBC78
:20226000116808681030F0C8A046A946B246BB4680F309882038F0C81847C046C046C0462A
:20228000FC07002010B5FFF7D1FF0400FEF730FC002803D08022034B52051A602000FFF799
:2022A000C9FF10BD04ED00E00022054B05491A600A60054A0549116007221A607047C046A6
:2022C00010E000E018E000E014E000E07FBB0000FF22114B1204196830B50A431A60FF2267
:2022E0000025196812060A4383B01A60FFF7DCFF0A4C2560FFF73EFFFEF79CFE2368019597
:20230000013301D072B6FEE772B6019B002BFCD0002003B030BDC04620ED00E0A005002078
:20232000F0B5D6464F464646C0B50400FEF7BAFB4B4B9868002837D0DA68924652462242BD
:2023400027D1002C25D0220007210832114201D08A430832002A1CD059698C46914218D34D
:202360001F001C6804E02668002E04D02700340061689142F7D384420BD0260025680836F3
:202380003D608F1A102F40D9A1184D0726D072B6FEE7FEF7B3FC0026FDF7F2FE30001CBCD9
:2023A00090469946A246F0BD07202E49084242D1A022920188180A00072600250838B04354
:2023C0005D601960456005608025821A2D06AA4605C198601A615A61DD60AFE74F60626021
:2023E0001A00904612689142FBD845466F68B946C144494526D04F68CD19AA4227D00A60F9
:20240000884501D042461160616862461869521A5A6182420DD30022554622609A690D43D6
:20242000013265609A61FEF769FC7307B6D072B6FEE71A61EFE7CA1D8243A02080010818E4
:202440001100B9E749687F186F604146D4E78242D5D05068126881464F444F600A60CFE7AE
:20246000BC080020DC080020F8B5041E2DD01C4E083C6368F2681A4204D02168002903D020
:2024800072B6FEE772B6FEE793436360FEF70AFB7369616825005B18736133001A001B68AE
:2024A0009C42FBD850681718BC4202D11500091851606818834209D02B60AA4200D01560F2
:2024C000F3690133F361FEF719FCF8BDB0688342F2D058681B688446614469602B60ECE7E1
:2024E000BC080020014B58697047C046BC080020014B18697047C046BC0800207047C0461F
:20250000F0B5C64600B50700FEF7CCFA194B98461B68002B28D042460125002600249168BA
:202520006D425A680134964200D21600954200D915001B689942F4D1FEF7E0FB7E60BD6082
:20254000FC60FFF759FE43465B693B6043469B697B614346DB69BB6143461B693B61FFF7F9
:2025600057FE04BC9046F0BD0125002600246D42E2E7C046BC0800200300012208334360ED
:20258000C360036100235242826003607047C046002303617047C04643689A684B608A6075
:2025A0009A685160996003680861013303607047030030B50C680833621C0DD01A005B687E
:2025C0001D68A542FAD94B60996003688A60013351600861036030BD02695368F3E7C0461F
:2025E0000369416882688A6051605968814206D0002202611A68013A1A60186870475A603A
:20260000F6E7C04670B51600026C0400856B002A06D10668002E2AD001350020A56370BD18
:20262000002E0FD1406802F0E7FB226C63689446A268634463609342EED323680020636065
:202640000135EBE7C06802F0D7FBE168236C5A42CB1A2168E3608B4203D2A3689C4662442C
:20266000E260022ED8D1002DD7D10135D5E78068FEF7F4FF0135A660D0E7C04670B5040086
:202680000D0000281BD0FFF7B7FD216CE36B22684B43D0185B1AD318A0606260E3604422CA
:2026A000FF230020A063A3540132A354002D11D12369002B05D1FFF7ABFD012070BD72B604
:2026C000FEE720001030FEF71FFE0028F3D0FFF787FDF0E720001030FFF74EFF2000243050
:2026E000FFF74AFFE7E7C046F8B506000D001700002801D172B6FEE7080070435030FFF7B8
:202700000FFE041E24D00300002D23D12360E6632564FFF771FD226CE36B21685343C818DE
:20272000A06000209B1ACB18E3604422FF23A06320006160A3540132A3541030FFF71CFFC0
:2027400020002430FFF718FFFFF762FD4C23E7542000F8BD5033D9E770B505000E00002881
:2027600001D172B6FEE7884201D272B6FEE75020FFF7D6FD041E23D0C5630025006005646C
:20278000FFF73AFD216CE36B22684B43D0185B1AD3186260E3604422FF23A0602000A5631C
:2027A000A3540132A3541030FFF7E6FE20002430FFF7E2FEFFF72CFD4C230222E254A663A3
:2027C000200070BDF0B54746CE4680B585B0040088461F000192002800D196E0002900D10F
:2027E0008DE0022F04D1E36B012B01D072B6FEE7FEF7E4FE051E00D189E000252600243635
:20280000FFF7FAFCA36BE26B934200D2DCE0022F00D1D9E0019B002B00D131E1002D00D1AB
:20282000CEE0FFF7F5FCFEF73DF9FFF7E5FC4422A35C5BB2013301D10023A3544522A35C09
:202840005BB2013301D10023A354FFF7E1FC01A902A8FEF7E1FD002800D0CFE0FFF7CCFCEC
:20286000A36BE26B934258D0FFF7D2FCFFF7C4FC4523E55C6DB2002D05DC13E0013DEBB2E2
:202880006DB2002B0ED0636A002B0BD03000FEF73BFD0028F2D0013DFEF7F0FDEBB26DB21A
:2028A000002BF0D14523FF22E254FFF7B1FCFFF7A3FC4423E55C6DB2002D17DD343B9946FF
:2028C000A14404E0013DEAB26DB2002A0ED02369002B0BD04846FEF717FD0028F2D0013DDD
:2028E000FEF7CCFDEAB26DB2002AF0D14423FF22E254FFF78DFCFEF701FA012580E7036C4B
:20290000002B00D16DE772B6FEE772B6FEE7019B002B00D172E772B6FEE7FFF779FC1023B1
:202920009946A14448460199FEF74EFCFFF764FC4523E55C6DB2002D05DC13E0013DEBB272
:202940006DB2002B0ED0636A002B0BD03000FEF7DBFC0028F2D0013DFEF790FDEBB26DB21A
:20296000002BF0D14523FF22E254FFF751FCFFF743FC4423E55C6DB2002D05DC13E0013D2E
:20298000EBB26DB2002B0ED02369002B0BD04846FEF7BAFC0028F2D0013DFEF76FFDEBB281
:2029A0006DB2002BF0D14423FF22E254FFF730FCFEF7A4F90028A0D1FFF712FC01251FE7D1
:2029C00002A8FEF721FD2CE73A0041462000FFF719FE636A002B0CD1002807D1FFF718FC5A
:2029E000012005B00CBC90469946F0BDFFF7F8FBF4E720002430FEF787FCEDE7FFF7FCFB66
:202A00004523E55C6DB2002D12DD2600243604E0013DEBB26DB2002B0AD0636A002B07D0A0
:202A20003000FEF771FC0028F2D0FEF727FDEFE74523FF22E254FFF7EBFBFFF7DDFB44235B
:202A4000E55C6DB2002D12DD2600103604E0013DEBB26DB2002B0AD02369002B07D03000ED
:202A6000FEF752FC0028F2D0FEF708FDEFE74423FF22E254FFF7CCFBFEF740F90020B0E7F9
:202A8000FFF7C6FB0020ACE770B506005020FFF747FC041E2BD0002501230060C3630564A3
:202AA000FFF7AAFB216CE36B22684B43D0185B1AD3186260E3604422FF23A0602000A5638B
:202AC000A3540132A3541030FFF756FD20002430FFF752FDFFF79CFB4C230022E65400211A
:202AE00000232000A5602560E560FFF76BFE200070BDC04670B5041E07D08668FEF758FDBC
:202B00000025864203D0280070BD72B6FEE7E3680135013BE360002BF5D10022002120003F
:202B2000FFF750FEEFE7C046F0B54F46D64646460400C0B591460F009A4600281FD0002914
:202B400018D05346022B04D1E36B012B19D072B6FEE7FFF76BFBA36BE26B0600934214D309
:202B600000253000FFF766FB28001CBC90469946A246F0BD036C002BE3D072B6FEE772B6DD
:202B8000FEE7FFF753FB0600A36B4523E55C52466DB2390020009846A36BFFF733FD6B1CA6
:202BA00005D0434601356DB2E5540125D9E7636A0235002BD5D020002430FEF7A5FB00283E
:202BC000CFD04B46002BCCD01D60CAE7F8B504000E0000281FD0036C002B01D072B6FEE782
:202BE0000368002B19D0FFF721FBA26BE36B0700002593420AD94521635C01325BB2A2639B
:202C00005A1C0FD001335BB2635401253800FFF711FB2800F8BD72B6FEE78368002BE2D055
:202C200072B6FEE7636A002BEFD020002430FEF76BFB0028E9D0002EE7D00123012533605E
:202C4000E4E7C046F0B54746CE4680B585B004000F000192002800D1E8E0002900D182E030
:202C6000FEF7ACFC002879D0FFF7C6FAA56B002D00D031E1019B002B00D1CFE002A8FEF78B
:202C8000C3FB242398464426A044FFF7C1FAFDF709FFFFF7B1FAA35D5BB2013301D100237F
:202CA000A3554522A35C5BB2013301D10023A354FFF7AEFA01A902A8FEF7AEFB002858D1A8
:202CC000FFF79AFAA36B002B00D1B1E0FFF7A0FAFFF792FA4523E55C6DB2002D05DC13E0F4
:202CE000013DEBB26DB2002B0ED0636A002B0BD04046FEF709FB0028F2D0013DFEF7BEFBA9
:202D0000EBB26DB2002BF0D14523FF22E254FFF77FFAFFF771FA10239946A55DA1446DB264
:202D2000002D05DC13E0013DEBB26DB2002B0ED02369002B0BD04846FEF7E6FA0028F2D0B0
:202D4000013DFEF79BFBEBB26DB2002BF0D1FF23A355FFF75DFAFDF7D1FF56E0019B002BDA
:202D600082D072B6FEE7036C002B00D178E772B6FEE7FFF741FA4523E55C6DB2002D05DC16
:202D800013E0013DEBB26DB2002B0ED0636A002B0BD04046FEF7B8FA0028F2D0013DFEF720
:202DA0006DFBEBB26DB2002BF0D14523FF22E254FFF72EFAFFF720FA10239946A55DA1441D
:202DC0006DB2002D05DC13E0013DEBB26DB2002B0ED02369002B0BD04846FEF795FA002804
:202DE000F2D0013DFEF74AFBEBB26DB2002BF0D1FF23A355FFF70CFAFDF780FFFFF7FCF97D
:202E0000A36B002B0AD0FFF703FAFFF7F5F9A56B002D61D1019B002B00D036E7FFF7F8F9BE
:202E2000002005B00CBC90469946F0BD72B6FEE7FFF7EEF940460199FEF7C6F9FFF7DCF90A
:202E40004523E55C6DB2002D05DC13E0013DEBB26DB2002B0ED0636A002B0BD04046FEF758
:202E600053FA0028F2D0013DFEF708FBEBB26DB2002BF0D14523FF22E254FFF7C9F9FFF7D0
:202E8000BBF910239946A55DA1446DB2002D05DC13E0013DEBB26DB2002B0ED02369002BAB
:202EA0000BD04846FEF730FA0028F2D0013DFEF7E5FAEBB26DB2002BF0D1FF23A355FFF7D6
:202EC000A7F9FDF71BFF00289FD1FFF789F9FFF793F9A56B002D9DD0226C002A0AD0E3682B
:202EE0009918A368E160994201D32168E160380001F082FF013DA5632369002B03D1FFF7EB
:202F000087F901208DE720001030FEF7FDF90028F5D0FFF765F9F2E7F0B5C64600B584B09D
:202F2000041E019104D0036C002B03D072B6FEE772B6FEE7FEF742FB061E00D122E1002533
:202F4000002627002437FFF757F9A36B002B00D01FE1019B002B00D140E1002E00D10DE1D4
:202F6000FFF756F9FDF79EFDFFF746F94422A35C5BB2013301D10023A3544522A35C5BB243
:202F8000013301D10023A354FFF742F901A902A8FEF742FA00281FD1FFF72EF9A36B002BED
:202FA00000D19CE0FFF734F9FFF726F94523E65C76B2002E05DC69E0013EF3B276B2002B2B
:202FC00064D0636A002B61D03800FEF79DF90028F2D0FEF753FAEFE7FFF70EF94523E65C28
:202FE00076B2002E05DC13E0013EF3B276B2002B0ED0636A002B0BD03800FEF785F90028EC
:20300000F2D0013EFEF73AFAF3B276B2002BF0D14523FF22E254FFF7FBF8FFF7EDF84423E3
:20302000E65C76B2002E17DD343B9846A04404E0013EF3B276B2002B0ED02369002B0BD048
:203040004046FEF761F90028F2D0013EFEF716FAF3B276B2002BF0D14423FF22E254FFF700
:20306000D7F8FDF74BFEFFF7C7F8A36B002B03D0FFF7CEF8012666E7FFF7CAF8002D00D09E
:203080009CE0280004B004BC9046F0BD4523FF22E254FFF7BDF8FFF7AFF84423E65C76B2BD
:2030A000002E13DD343B9846A04404E0013EF3B276B2002B0AD02369002B07D04046FEF7C3
:2030C00023F90028F2D0FEF7D9F9EFE74423FF22E254FFF79DF80126FDF710FE33E7FFF7CB
:2030E00097F82368002B60D038000199FEF76CF8FFF782F84523E65C76B2002E05DC0FE0F0
:20310000013EF3B276B2002B0AD0636A002B07D03800FEF7F9F80028F2D0FEF7AFF9EFE754
:203120004523FF22E254FFF773F8FFF765F84423E65C76B2002E13DD343B9846A04404E018
:20314000013EF3B276B2002B0AD02369002B07D04046FEF7D9F80028F2D0FEF78FF9EFE747
:203160004423FF22E254FFF753F8FDF7C7FD002800D07FE7FFF734F80126E4E602A8FEF788
:2031800043F9EDE6019B002B01D072B6FEE70025D7E6013BA3632368002B2FD02369002BEB
:2031A00023D1FFF735F801256BE7FFF725F8A068FEF710FA0500FFF72BF895E7FFF71CF8C2
:2031C000616A002903D00521236B1B68C91AA068FEF778FA0025FFF71BF852E7002D01D03A
:2031E00072B6FEE7FFF714F84BE720001030FEF78BF80028D5D0FEF7F3FFD2E7FEF70AFB4F
:20320000A060CBE770B504000D00002813D08668FEF7CEF9864209D029002000FFF77CFEB7
:20322000002807D0E3680133E36003E00120E3680133E36070BD72B6FEE7C046F0B5474695
:20324000CE4680B585B004000F000192002800D1E8E0002900D182E0FEF7B0F9002879D01E
:20326000FEF7CAFFA36B002B00D02DE1019B002B00D1CFE002A8FEF7C7F824239846442546
:20328000A044FEF7C5FFFDF70DFCFEF7B5FF635D5BB2013301D1002363554522A35C5BB2CA
:2032A000013301D10023A354FEF7B2FF01A902A8FEF7B2F8002858D1FEF79EFFA36B002B39
:2032C00000D1B1E0FEF7A4FFFEF796FF4523E65C76B2002E05DC13E0013EF3B276B2002B5F
:2032E0000ED0636A002B0BD04046FEF70DF80028F2D0013EFEF7C2F8F3B276B2002BF0D10C
:203300004523FF22E254FEF783FFFEF775FF10239946665DA14476B2002E05DC13E0013EEB
:20332000F3B276B2002B0ED02369002B0BD04846FDF7EAFF0028F2D0013EFEF79FF8F3B260
:2033400076B2002BF0D1FF236355FEF761FFFDF7D5FC56E0019B002B82D072B6FEE7036C9A
:20336000002B00D178E772B6FEE7FEF745FF4523E65C76B2002E05DC13E0013EF3B276B2CC
:20338000002B0ED0636A002B0BD04046FDF7BCFF0028F2D0013EFEF771F8F3B276B2002B9D
:2033A000F0D14523FF22E254FEF732FFFEF724FF10239946665DA14476B2002E05DC13E06B
:2033C000013EF3B276B2002B0ED02369002B0BD04846FDF799FF0028F2D0013EFEF74EF8C8
:2033E000F3B276B2002BF0D1FF236355FEF710FFFDF784FCFEF700FFA36B002B0AD0FEF7C6
:2034000007FFFEF7F9FEA36B002B5DD1019B002B00D036E7FEF7FCFE002005B00CBC90463D
:203420009946F0BD72B6FEE7FEF7F2FE40460199FDF7CAFEFEF7E0FE4523E65C76B2002E5F
:2034400005DC13E0013EF3B276B2002B0ED0636A002B0BD04046FDF757FF0028F2D0013EB7
:20346000FEF70CF8F3B276B2002BF0D14523FF22E254FEF7CDFEFEF7BFFE10239946665D94
:20348000A14476B2002E05DC13E0013EF3B276B2002B0ED02369002B0BD04846FDF734FFC1
:2034A0000028F2D0013EFDF7E9FFF3B276B2002BF0D1FF236355FEF7ABFEFDF71FFC00289F
:2034C0009FD1FEF78DFE9CE7226CE568002A09D0A368A918E160994201D32168E1603800DD
:2034E00001F08AFC636AE560002B03D1FEF790FE012092E720002430FDF706FF0028F5D0CD
:20350000FEF76EFEF2E7C046F8B5CE46474604008946160080B5002816D000290FD0FEF7F4
:2035200085FEA36B070098460025002B0ED13800FEF780FE28000CBC90469946F8BD036C72
:20354000002BECD072B6FEE772B6FEE74423226CE55C6DB2002A0AD0E3689918A368E160C9
:20356000994201D32168E160484601F045FC4346013BA3636B1C05D0442301356DB2E554F6
:203580000125D4E72369002BFAD020001030FDF7BBFE0028F4D0002EF2D001230125336003
:2035A000C5E7C046F8B504000D0000280AD0036C002903D0002B07D172B6FEE7002BFBD028
:2035C00072B6FEE772B6FEE7FEF730FEA36B06000027002B04D13000FEF72CFE3800F8BD37
:2035E000226CE768002A09D0A368B918E160994201D32168E160280001F0FEFBE7600127D4
:20360000E9E7C04610B5041E06D0FEF7F5FDA46BFEF7FEFD200010BD72B6FEE710B5041E50
:2036200008D0FEF7E9FDA36BE46BE41AFEF7F0FD200010BD72B6FEE7002801D0806B704705
:2036400072B6FEE770B500281BD01A4B5A68904229D0DA6890422AD05A69904225D0DA6958
:2036600090421CD05A6A904217D0DA6A904218D05A6B904207D0DA6B90420CD0FEF7F4FEC9
:2036800070BD72B6FEE7062200240025D2009B181C605D60F2E70722F6E70422F4E70322BC
:2036A000F2E70522F0E70022EEE70222ECE70122EAE7C046E0300020806C704781647047DC
:2036C0004C23C05C7047C046002803D0806B43425841704772B6FEE7002805D0826BC06BC5
:2036E000801A43425841704772B6FEE7164B1A68002A15D09A68002A18D01A69002A17D0B4
:203700009A69002A16D01A6A002A15D09A6A002A14D01A6B002A13D09A6B002A12D0704797
:203720000022D20099509B185860F8E70122F8E70222F6E70322F4E70422F2E70522F0E762
:203740000622EEE70732ECE7E0300020164A03005168884216D0D168884217D051698842F6
:2037600016D0D169884215D0516A884214D0D16A884213D0516B884212D0D16B002099428A
:2037800010D070470023DB00D058FAE70123FAE70223F8E70323F6E70423F4E70523F2E77C
:2037A0000623F0E70723EEE7E0300020174B5A68904215D0DA6890421AD05A69904219D083
:2037C000DA69904218D05A6A904217D0DA6A904216D05A6B904215D0DA6B824214D0704753
:2037E000002200200021D2009B1818605960F6E70122F6E70222F4E70322F2E70422F0E7D9
:203800000522EEE70622ECE70722EAE7E030002070B5040016000D00FEF7EEFC4422A35CF7
:203820005BB2013301D10023A3544522A35C5BB2013301D10023A354FEF7EAFCA36B002BB4
:2038400046D0FEF7D9FC4523E55C6DB2002D16DD2600243604E0013DEBB26DB2002B0ED039
:20386000636A002B0BD03000FDF74EFD0028F2D0013DFDF703FEEBB26DB2002BF0D14523D9
:20388000FF22E254FEF7C4FCFEF7B6FC4423E55C6DB2002D16DD2600103604E0013DEBB263
:2038A0006DB2002B0ED02369002B0BD03000FDF72BFD0028F2D0013DFDF7E0FDEBB26DB24D
:2038C000002BF0D14423FF22E254FEF7A1FC70BD2000320029002430FDF7E0FCB1E7C04642
:2038E00030B5214A4B0087B05B0893421EDD1F4A934205DD02000B0007F0A2FA07B030BD5F
:2039000002AA00F035F803231840049A059B012813D002281DD0002814D00298039900F0CD
:2039200033FA80231B069C466144E7E7002300220093002300F09CFFE0E70298039900F0CE
:2039400023FADBE7012402980399009400F090FFD4E7012402980399009400F089FF802355
:203960001B069C466144C9E7FB21E93FFFFFEF7FF0B54E464546DE465746E0B5D04B4C00BE
:203980008FB01500894664089C4200DC84E0CD4B9C4228DCCC4A002900DCB7E1CB4B07F0C0
:2039A0004FFACA4B06000F009C4200D18AE0C84AC84B07F045FA02000B0030002A606B608E
:2039C000390007F03DFAC34BC14A07F039FA01239846A860E96040460FB03CBC90469946F8
:2039E000A246AB46F0BDBC4B9C4200DC86E0BB4B9C425CDCBA4922158846904443461B0579
:203A0000E71A3900060007F0CBFD07F0FFFD02000B00300039000892099307F011FA0022E4
:203A2000B04B06F0A1FF0F00060007F0B9FD040007F0ECFD02000B00300039000A920B939F
:203A400007F0FEF90022A74B06F08EFF002200230C900D9105F0EAFF002800D1FAE023008E
:203A60005C1EA3410133A04A29000192022208A80092424600F0A2FA4B468046002BAADA8E
:203A80008022120694466B6863446B60EB686344EB60434298469EE702000B002A606B60BE
:203AA00000230022AA60EB600023984693E70B00020007F0C5F90023A860E960286069606A
:203AC000984688E7D322834B520507F0B9F9874A874B06000F0007F0B3F902000B0030003E
:203AE0002A606B60390007F0ABF9814B7F4A07F0A7F90123A860E96098466CE700F06CFF70
:203B00007C4A7D4B06000F0006F02EFF00227B4B05F0BAFF07F044FD804607F077FD6A4A2C
:203B20006A4B0490059106F01FFF02000B003000390007F085F9664A029003910498059997
:203B4000644B06F011FF434606000F0002001F2B33DC0B000298039907F072F94346684AD9
:203B6000013B9B009B5883468A46A3422CD05A4653462A606B60029803995A46534607F00D
:203B80005FF932003B0007F05BF90B000200AA60EB604B46002B00DB1DE75B462B60802349
:203BA0001B0653446B6080231B069C46434661445B42A860E96098460DE70B0002980399AD
:203BC00007F03EF983468A4653465B0024155B0DE31A102BCBDD04980599D3223D4B52059B
:203BE00006F0C2FE06000F0002000B000298039907F026F902000B0002980399069207932C
:203C000007F01EF932003B0007F01AF906000F0004980599354A364B06F0A6FE32003B00C9
:203C200007F00EF90B00020006000F000698079907F006F94B005B0D83468A46E41A312C89
:203C40000ADC0B0002002A606B60069B079C0293039490E7032306E7B82204980599920577
:203C6000234B06F081FE06000F0002000B000698079907F0E5F803000C00020002930394F0
:203C80000B000698079907F0DBF832003B0007F0D7F806000F00049805991A4A1A4B06F0D0
:203CA00063FE32003B0007F0CBF802000B0006000F000298039907F0C3F883468A4656E79C
:203CC000FB21E93F7BD9024000004054FB21F93F3163621A61B4D03DFB213941FFFFEF7FEE
:203CE000EAFBFFFF000070410CBA00087370032E8A19A33B83C8C96D305FE43F0000E03F7B
:203D00008CB90008C14920259A837B39194B05F0BBFE184B06000F009C4215D0164A174B27
:203D200005F0B2FE02000B0030002A606B60390007F086F8104A114B05F0A6FE01235B428E
:203D4000A860E960984646E6D3220C4B520505F09BFE0B4A0B4B06000F0005F095FE02008D
:203D60000B0030002A606B60390007F069F8044A044BE1E7FB21F93F3163621A61B4D03D37
:203D80007370032E8A19A33BF0B54746CE4680B587B000920193754B4F00814688467F088B
:203DA0009F4263DC07F0FCFB002800D1DAE04A4643464846414606F0D7FD04000D006C4A83
:203DC0006C4B06F0D1FD6C4A6C4B05F05DFE22002B0006F0C9FD6A4A6A4B07F031F82200F7
:203DE0002B0006F0C1FD684A684B05F04DFE22002B0006F0B9FD664A664B07F021F82200B3
:203E00002B0006F0B1FD644A644B05F03DFE22002B0006F0A9FD029003910022604B20004A
:203E2000290006F0A1FD029A039B06000F002000290006F099FD009A019B04000D004846CC
:203E4000414606F091FD02000B002000290006F0F7FF02000B003000390006F0F1FF0200B7
:203E60000B0000204F4906F0EBFF70E002000B0006F07AFD04000D003D4A3E4B06F074FD4D
:203E80003D4A3E4B05F000FE22002B0006F06CFD3B4A3C4B06F0D4FF22002B0006F064FDFA
:203EA000394A3A4B05F0F0FD22002B0006F05CFD374A384B06F0C4FF22002B0006F054FD2B
:203EC000354A364B05F0E0FD2B00220006F04CFD354B029003919F429FDD344B00229F42FF
:203EE0003ADC334900207B182E4916001F0006F0A7FF049005910022294B2000290006F036
:203F000033FD32003B0006F09BFF029A039B06000F002000290006F027FD009A019B040088
:203F20000D004846414606F01FFD02000B002000290006F085FF02000B003000390006F011
:203F40007FFF02000B000498059906F079FF07B00CBC90469946F0BD164B00260492059398
:203F6000154FC8E700200F49F1E7C046FFFF3F3ED43888BEE9FAA8BDC4B1B4BD9EEE213EF2
:203F8000AD529C804F7E923E9015CB19A001FA3E7751C1166CC1563F4C5555555555A53FCD
:203FA0000000E03F0000F03F3233D33F0000E93F0000E0FF0000E73F0000D23FF0B5DE4635
:203FC00057464E464546E0B5D94CA5440D9119001400A49A0A939300D64A0690D2580B005E
:203FE000013B049323000892143300DAB2E3E01E182105F01FFC030001339A009B1A03901B
:20400000DB00E318039A0793049BD41A089AD61814D4013622AD3619A59F07E0A300F8581B
:2040200007F0F4FA013403C5B44207D0002CF5DA00200021013403C5B442F7D1089B002B0C
:2040400001DA00F009FC74A98B4622AA9146089A72ABD2009344069A009390469A46049B0F
:20406000DB00994408339844049B00260027002B13DB4D4600260027069C2A686B6803CCB6
:2040800006F072FC02000B003000390005F0FCFC083D06000F004445EFD15346C0C39A46BA
:2040A00008239C46E144DA45DED10EA80422844652426244944608998B009C4462468446C8
:2040C0000C92A59A083B634494460B93039B8A469B00634405930A9BDA00069B083B9B4615
:2040E000934453460099DA0094460B0063441E685F6853460992002B31DD88468E4B534459
:20410000DB0098440EAB994600E0984600228B4B3000390006F028FC07F042FA07F076FA7D
:204120000022874B04000D0006F01EFC02000B003000390006F084FE07F032FA4B4601C304
:204140009946434620001A685B68290005F09CFC4346009A06000F00083B4245D5D1079B92
:2041600030001A003900984600F0C6FCFF2300229B0504000D0006F0F7FB00F031FC002210
:20418000704B06F0F1FB02000B002000290006F057FE0D00040007F003FA814607F036FAEE
:2041A00002000B002000290006F04AFE060040460F00002800DC86E053465A1E92000EAB0A
:2041C0009B5818211D00091A0D41A9448D405D1B0EAB9D5017231B1A1D41002D00DD7FE017
:2041E000002200233000390005F020FC002800D1EAE05346591E089B8B420FDC0EAA944640
:204200000022514B0C9853449B0063441C68043B22438342FAD1002A00D025E1089B0EAA50
:20422000013B9B00D358002B00D018E101220B9B043B596801320029FAD0012353449946FF
:2042400013005344039322AA9046009A0A9B94465344DB009844099B63449A464B46059ABA
:204260009B00D05807F0D2F9434618605960049B002B25DB4546069C0026002702E008349D
:20428000286869682268636806F06EFB02000B003000390005F0F8FB083D06000F00A34569
:2042A000EDD153469E60DF6001239C460733E1449C46039BE044E2444B45CFDA9A4610E72B
:2042C00000260027EDE7079B002B00D0BDE05346013B9B000EAAD558ED15002D00DC7FE7BD
:2042E00001239C465346E144002B00DC48E20E9C002C00D09FE05346012B2FD00122504627
:204300000FA90C68531C002C00D197E08246802149040C1B92000EA98C509A451DDD9B0018
:204320008C46CA585146890063446144074810E094FDFFFF18BB0008FFFFFF1F0000703EAA
:204340000000704100002040FFFFFF3FFFFFFF001A68821A04C38B42FAD10124079B002BA4
:204360000EDD012B00D1EAE1022B09D153465A1E92000EAB9B580EA903939B029B0A8B50CA
:20438000022D00D02CE732003B000020BE4906F057FD06000F00002C00D121E7079A002052
:2043A000B94900F0A9FB02000B003000390006F047FD06000F00002200233000390005F0FF
:2043C00035FB002800D014E74B460693079B30005A423900059500F08FFB0022AB4B0400B9
:2043E0000D0005F047FB002800D107E2A84B00222000290006F0B8FA07F0D2F85246060032
:20440000970007F003F90022A04B06F0ADFA02000B002000290006F013FD07F0C1F80EAAA4
:20442000D0510122079B524418339046079393000EAAD65033E00123002268E704311A00DD
:20444000984200D05DE7824688E70022914B300005F010FB002800D081E10025C0E60123C0
:20446000534499460393EEE64B4688460693434607999B000EAAD358183905950791002B0F
:204480000DD194464246844B53449B006344043B5868013A18390028F9D090460791079AA9
:2044A0000020794900F028FB434604000D00002B00DAC6E19E000EAB9C464346009ADB008A
:2044C000664411009C46614407930F000091914600E01F00306807F099F822002B0006F027
:2044E00043FA6B4B3860796000222000290006F03BFA3B0004000D00043E083BB945E8D13A
:204500004AAB03939B4600239A46089B9946434604934B46002B33DB1022944680205F4B6A
:20452000009D63449846C0055D4900260027002408E008239C460835E044A24511DB4346CB
:20454000186859682A686B6806F00EFA02000B003000390005F098FA013406000F00A1458A
:20456000E7DA5B46C0C39B465346009A0133083A0092049A924506D09A464B46002BCBDAAE
:2045800000260027EDE7049B9846A49B022B33DC002B00DDF6E021D1039A079B9446634472
:2045A0001D000026002400E01D002A686B683000210005F069FA2B00039A06000C00083B6C
:2045C000AA42F1D1059B002B03D080231B069C466444320023000D990A604B600720069B69
:2045E00018409B239B009D443CBC90469946A246AB46F0BD4AAB0393A49B032BEED14346B6
:20460000002B00DC2FE1039ADB009A461300914653441E685F68234B43449B46DB009944CF
:2046200000E099464B465C681B681800210032003B000090019105F027FA04000D000200F2
:204640000B000098019906F0FBFB32003B0005F01BFA4B46039A9860D9601C605D602600FC
:20466000083B2F004A45DCD14346012B00DCFAE0039A130053441E685F685B46DB009B4630
:204680005A44904611E0C0460000F03F000070410000703E0000E03FFEFFFF3F18BB0008EC
:2046A000FB21F93FFFFFFF1F984643465C681B681800210032003B000090019105F0E4F942
:2046C00004000D0002000B000098019906F0B8FB32003B0005F0D8F94346039A9860D96057
:2046E0001C605D60083B26002F009A42DCD15D469446002600244746083565442A686B68C1
:204700003000210005F0C0F9083D06000C00AF42F4D1039B4A9F5D689968D868059B002B35
:2047200076D12B003A000D9D2A606B600A000300AA60EB60320023002A616B614EE75346F2
:204740005A1E92000EAB9B580EA903935B025B0A8B5015E6182300225B42039251E40123D6
:204760009C465346E1440225002B00DDBFE532003B0000203D4906F063FB06000F002FE536
:204780000024EBE5039A079B944663441E000025002400E01E00326873682800210005F04D
:2047A00073F93300039A05000C00083BB242F1D14A984B9923002A0006F042FB059B002BA2
:2047C00034D123002A000D9C226063604346002B0EDD01264CAF0CCF013605F055F9B0458E
:2047E000F9DA059B002B03D080231B069C4661440B0002000D998A60CB60EFE653462000A7
:2048000029009E0006F0CCFE0EAB9851D04646E68022120694460D9B6544604464441F607D
:204820005D609960D8601E615C61D7E68022120694460D9B64441D605C604346002BC8DC1C
:20484000D2E7A49B022B00DDD4E6002B08DC00D0C4E600260024B5E672AB0093FFF725FC67
:2048600000250024A4E70026002452E70000F03FF0B5CE46474680B587B000920193484A48
:204880004B00814688465B08934206DC4846414606F086FE002800D17EE04A464346484691
:2048A000414606F061F804000D0002000B004846414606F059F83B4A3B4B06000F00200068
:2048C000290006F051F8394A394B06F0B9FA22002B0006F049F8374A374B05F0D5F8220055
:2048E0002B0006F041F8354A354B06F0A9FA22002B0006F039F8334B334A05F0C5F80E9BFC
:2049000002900391002B34D00098019900222F4B06F02AF8029A039B04900591300039008F
:2049200006F022F802000B000498059906F088FA22002B0006F018F8009A019B06F080FAAF
:20494000234A04000D00234B3000390006F00CF802000B002000290005F096F802000B0022
:204960004846414606F06CFA07B00CBC90469946F0BD02000B002000290005F0F5FF144A48
:20498000144B06F05DFA32003B0005F0EDFF4A46434605F079F8E7E748464146E4E7C046EA
:2049A000FFFF3F3E7CD5CF5A3AD9E53DEB9C2B8AE6E55A3E7DFEB157E31DC73ED561C11996
:2049C000A0012A3F1111813FA6F810110000E03F495555555555C53F49004B0819007047AB
:2049E000F8B54746CE464B003D4A5B0D9E1880B505000C000F008046132E31DC002E1FDBE8
:204A0000384B334199460B4003434ED0364A374B05F03AF80022002305F022F8002809D093
:204A2000002C03DA80277F0337413F194B469F4300239846404639000CBC90469946F8BD0F
:204A4000294A2A4B05F020F80022002305F008F80028EFD0002C2BDB002300279846E9E716
:204A6000332E08DD8023DB009E42E5D102000B0005F00AF8E0E71E4A944601226344524271
:204A8000DA409146024210D0174A184B04F0FCFF0022002304F0E4FF0028CBD0002C0FDB59
:204AA00043464A4693439846C4E728002100C3E700236400640825439846BBD00D4FB9E7CB
:204AC000142E09D0342301209E1BB0404519A84504D9671CA846E3E7671CE1E7A846DFE738
:204AE00001FCFFFFFFFF0F009C7500883CE4377EEDFBFFFF0000F0BF4B0070B55B0D1400BF
:204B00000A00002B25D14B005B08034320D02B4B002205F029FF2A4B9C4247DB0A004B0007
:204B20005B0D363B274DE318AB421ADC002B37DC1D00353529DA244B9C4212DC234C244D67
:204B4000002938DB214A224B2000290005F00CFF70BD204DAB42E5D102000B0004F094FF27
:204B6000F6E71D4C1D4D002906DB1B4A1B4B2000290005F0F9FEEBE7174C194D164A174B1E
:204B80002000290005F0F0FEE2E7164C363322401B05134319000022134B05F0E5FED7E74E
:204BA000104C1B0522401A431100D1E7074A084B05F0DAFECCE7054C0C4DC3E700005043E6
:204BC000B03CFFFFFE07000050C3000059F3F8C21F6EA501FF0700009C7500883CE4377E26
:204BE0003CE437FEFFFF0F800000903C1F6EA5814B6970B506000C000025002B07D002F050
:204C000083FA6369056020689847051E05DB3000210000F099F9280070BD02F075FA036888
:204C2000002BF4D002F070FA03683360EFE7C046F0B5C64600B51E004B6815009A890700D9
:204C40000C00D20506D5DB6A9846002B02D002230022C04702F058FA002332000360290003
:204C60002068E3689847041E03DB200004BC9046F0BD02F049FA0368002BF6D002F044FA5E
:204C800003683B60F1E7C046F8B50C0015001E00070002F039FA00233200036029002068AF
:204CA000A3689847041E01DB2000F8BD02F02CFA0368002BF8D002F027FA03683B60F3E7CE
:204CC00070B582B00C001D000192060002F01CFA00232A00036001A920682369984700283E
:204CE00002DB019802B070BD02F00EFA0368002BF7D002F009FA03683360F2E782B0F0B565
:204D0000D6464F464646C0B582B00B931F000C9B8A4699460D9B110001AA0500984602F063
:204D2000F5FB061E3CD01423034235D11823334202D04B46002B31D0280002F0EBFA041E71
:204D40002ED02800182100F055F9051E2AD001235B42E3815346A6810360164B44602062CA
:204D6000876063624B46C360134BA36243460361002B01D0114B98464346E3620E9B6B610A
:204D80000F4B2363200002B01CBC90469946A246F0BC08BC02B01847002FC7D116232B60E0
:204DA0000024EFE702F092FBA58102F091FB0024E8E7C046894C0008314C0008C14C000866
:204DC000F14B000882B0F0B585B08C460A92040015006A460B93074B18680BABC2CBC2C215
:204DE0002B0062462100FFF789FF05B0F0BC08BC02B01847A4050020F0B5C64600B50F2AA3
:204E000043D90B00032603431E400C000300002E40D11500103D2D09AC462D01A8468044E6
:204E200000E03B00676825685F60E7681D60DF601F00A56810379D6010344345F1D1654688
:204E40000F230C2401352D01491913404519144223D08C59AC5104369C1B032CF9D8032436
:204E6000043B9B0801339B002240ED18C918561E002A07D0002300E02300CA5C5C1CEA54C2
:204E80009E42F9D104BC9046F0BD0500561E002AF0D1F7E7561E0500ECE71A00F6E7C0469A
:204EA000F0B5050083074AD0541E002A44D0CEB20300032202E00135013C3DD301332E7015
:204EC0001342F8D1032C2FD9FF220A40150215432A0415430F2C35D92700103F3F093E01D7
:204EE000B4461E001A0010366644156055609560D5601032B242F8D10F260C2201373F0162
:204F00002640DB193700224217D03E1FB608B400A4461A001C1D644420C2A242FCD1032447
:204F20000136B6009B193C40002C05D0C9B21C19197001339C42FBD1F0BD3400F4E714006C
:204F40000300BFE72700E0E770B50500002915D00C1F2368002B27DB280002F03BFC244BDF
:204F60001A68002A05D0A2420CD921686018824224D0626028001C6002F02EFC70BDA3429A
:204F800003D81A005368002BF9D111685018A0421BD027D821686018834207D063605460AB
:204FA000280002F019FCE9E7E418D5E718685B6884466144216063605460F1E71068526886
:204FC0008446614421606260D4E720680918501811608342E4D118685B6884466144116045
:204FE0005360DDE70C2328002B6002F0F5FBC5E720310020F8B50323CD1C9D43083506007A
:205000000C2D2AD20C25A94229D8300002F0E2FB2A4F3A68002A0AD013685B1B04D441E036
:2050200023685B1B1FD522005468002CF8D17B68002B3DD02900300000F03EFE431C2AD0AF
:205040000323C41C9C43A04205D0211A300000F033FE431C1FD0256010E0002DD3DA0C235C
:2050600000203360F8BD0B2B05D86368A2421DD0536003E014002360E4182560300002F049
:20508000ABFB200007220B30231D9043C21AE9D01B1AA350E6E70C233000336002F09CFBCE
:2050A0000020DFE70B2BE5D8140053683B60E5E70021300000F000FE7860BBE720310020B7
:2050C000F0B5CE4600B588B01D001700129C0023002D04DA802109066B181D002D23109AD0
:2050E0001370662C23D0462C21D0202322009A43452A48D007AB049306AB0393119B3A0006
:2051000002930E9B0193022300932B0000F0F0FF0600672C49D10F9BDB0748D4079B3000CE
:20512000139A9B1B136008B004BC9146F0BD07AB049306AB0393119B3A0002930E9B019355
:20514000032300932B0000F0D3FF0E9B0600994633788144302B2DD0119B1C684C44002370
:2051600000223800290004F061FC23000028D6D1079B9C42D3D930215A1C07921970079BB2
:20518000A342F9D3CBE70E9B3A0001330E9307AB049306AB0393119B02930E9B01930223C1
:2051A00000932B0000F0A4FF0600472CB3D00E9BF418D4E7002200233800290004F036FC66
:2051C0000028C9D101240E9BE41A119B1C60C5E7F0B54F46D6464646C0B5831C99469A46B8
:2051E00082B007000C0002702B23002901DA4C4202337B70092C2EDD07236B4498461D00E4
:2052000001E0350004000A21200004F0F9FB6E1E3031317020000A2104F00CFB632CF0DC12
:205220003030AA1EC0B2107042450CD2494600E010780132087001314245F9D109266E44E9
:20524000761B4E44B2465346D81B02B01CBC90469946A246F0BD30233034BB703B1D9A46B9
:20526000FC70F0E7F0B5DE4657464E464546E0B591B01F001A9B0C0098461600050002F0C5
:20528000DDF9036818000A9300F054FE00230B900E93237E07229946236841469A46434653
:2052A0001B68073393431A0008320A601A685B689046A264E36401229B465B005B080993D7
:2052C0005242B84B4046099906F04CF9002809D10122B44B52424046099904F0B7FB002826
:2052E00000D188E042465B464046594606F03AF9002800D09FE2802351466268DB000B4358
:20530000511C30D0494667296FD047296DD00021236006910EA90591494604A804910DA907
:20532000844603912321614401930092029142465B4628008A46FFF7C3FE80464B460D9998
:20534000652B39D8200001394A4650300D91FFF73FFF0E9A834613182361012A00DCC3E1A5
:205360000133236139E0073262600021236006910EA90591494604A804910DA984460391F5
:2053800023216144019300925B464246029128008A46FFF795FE20234A4680469A43472ADA
:2053A000CCD10D99CB1C00DB7DE04B46023BDBB299464B46652BC5D9662B00D17DE00E9B2A
:2053C0008B4200DC85E00122002901DC0132521A9B18236100239B46A16553461B78002B5F
:2053E00021D043232D22E2541DE0002A00D078E001226260B9E7002200234046594604F09F
:205400001BFB002802D043232D22E2544B46472B50D9654B984603235246236101339A4384
:2054200000239B462260330000970FAA2100280000F022FA431C2DD023685A0500D570E0A3
:205440002369424631002800B847431C22D022680F98E368920760D51A1A002A5DDD192371
:205460009946002398463B00A14437002E004D46A1464446984606E04B460F98DB6801344F
:205480001A1AA24249DD01232A0039003000C047431CF1D10120404211B03CBC90469946DE
:2054A000A246AB46F0BD6368994200DD7DE76723994684E73D4B9846ADE76368002900DCE1
:2054C00017E12161002B00D14AE101335B18236180E723682161DB0700D47BE74B1C236189
:2054E00078E70021236006910EA90591494604A804910DA9844603912321614402910193D1
:2055000000925B46424628008A46FFF7D9FD0D998046CB1C00DA48E7C5E79842BCDA18007C
:20552000BAE74A46652A45D9A06CE16C0022002304F07CFA002800D184E001231C4A31006D
:205540002800B847431CA5D00D9B0E9A934203DB2268D30700D47BE70B9B0A9A3100280010
:20556000B847431C96D01A239946002398460E9BA144012B00DC6AE73B0037002E004D4630
:20558000A1464446984605E00E9B0134013BA34200DCF7E001232A0039003000C047431C08
:2055A000F2D177E7FFFFEF7F74C0000870C0000880C000080E9A012A00DC80E001234246E7
:2055C00031002800B847431C00D163E70B9B0A9A31002800B847431C00D15BE7A06CE16C8C
:2055E0000E9B00229946002304F020FA002871D01A239A46002398464B46A244012B17DDB2
:20560000A1464446B84637002E00554604E00E9B0134013BA34207DD01232A00390030009D
:20562000C047431CF3D135E735004C463E00474622005B46503231002800B847431C00D0C6
:2056400005E727E70D9B002B58DDA36D9A460E9B9B46534500DD88E05B46002B08DD4246B8
:2056600031002800B847431C00D113E7A36D9A465B46DB435A46DB171A40534693469B1AE6
:205680001A2294460022A44461469146002B00DC83E0A2464C46B94637002E000D0006E031
:2056A00053465A469B6D01349A1AA24270DD01232A0039003000C847431CF1D1EAE6DB07F6
:2056C00000D57BE70123424631002800B847431CAED1DFE64B464246013B0132310028000B
:2056E000B847431CA4D1D5E62268D20700D474E636E6002B3BD09A1C22616BE601235B4AE6
:2057000031002800B847431C00D1C3E60D9B0E9A134332D00B9B0A9A31002800B847431CAF
:2057200000D1B7E61A239A46002399460D9BA244002B00DB8FE03B0037002E005546A246B6
:205740004C46994604E00D9B01345B42A3427EDD01232A0039003000C847431CF3D199E6D2
:205760002268D20700D435E6AFE6D34674E720680122C007C0D59A1CBEE72268D30700D434
:2057800066E6C7E74C46350022683E0047465FE6350054463E009A464F460D9A0E998A4212
:2057A00002DB2368DB0709D50B9B0A9A31002800B847431C00D16DE60E990D9A8B1A9946CA
:2057C000524502DC52468A1A91464A46002A0BDD42464B46524431002800B847431C00D168
:2057E00058E60E9B0D9A9B1A4A46D2434946D21711401A229246002289465B1AA2449046C2
:20580000002B00DC23E63B0037002E005546A2464446984607E00D9A0E9B01349B1A4A463C
:205820009B1AA3421CDD01232A0039003000C047431CF0D12EE65B46002B02DA43232D2286
:20584000E2544B46472B08D9094B9846E3E5350054463E004F460E9BF3E5064B9846DAE523
:205860005446350022683E004746F1E580C000087CC0000878C00008F0B54F464646D64680
:20588000C0B51F00089B914698468A680B6906000C00934200DA13004A4613604322A25C7C
:2058A000002A02D04A460133136023689A065AD54B461B6806209A1C4B461A6023681900BC
:2058C000184208D1E16800258A1A19218A461900A244002A3FDC4323E35C5A1E93418A06B4
:2058E0000AD53020E1184331087045215A1C615CA218433202331170220039004332300016
:20590000C047431C19D006232068A26821690340042B30D08A423ADD00239946521A91445B
:205920001A34002502E001354D4530DA0123220039003000C047431CF5D1012040421CBCEA
:2059400090469946A246F0BD4B46E2681B680135D31AAB4220DD0123524639003000C04766
:20596000431CF1D1E9E706221A4212D04323E35C5A1E9341C0E74B46E0681B68C31AD843E4
:20598000C017184081468A42C8DC002BC8DC0020D5E74A46126895E743232168E35C5A1ECA
:2059A00093418A069DD4A7E7F0B557469A4643239C464E464546DE468C446346E0B587B092
:2059C00003930B7E914680460C00109A6E2B00D1D8E000D871E0732B00D11AE100D881E067
:2059E000752B00D1FFE0782B00D00BE10B6878204521605494498B46116840C91160180614
:205A000003D4580601D53604360CDA0702D52022134323601027002E00D1C2E043230022CC
:205A2000E2546368A360002B00DAC5E00422216891432160002E00D083E0002B00D0BDE0BB
:205A4000039D082F00D18CE0039B5B1B2361534605AA009321004B464046FFF70DFF431C26
:205A600022D023692A0049464046D047431C1BD022680598E368920700D47FE01A1A002A6C
:205A800000DC7BE026000025193606E0E368059801351A1AAA4200DC70E001233200494600
:205AA0004046D047431CF1D10120404207B03CBC90469946A246AB46F0BD632B00D184E0D8
:205AC0001FD8002B69D0582B00D09BE0452163545E4923688B46116840C91160180600D498
:205AE0008FE792E76F2B7ED0702B00D08AE02023096878200B4345212360605452498B4657
:205B00007AE7642B01D0692B7CD111682368081D10601D064AD50A681600002A03DB4B4BE2
:205B20000A279B467DE743222D21A15462687642A260002A02DB042293432360434B0A277E
:205B40009B46039D00E006003900300003F06EFE5B465B5C013D2B70BE42F4D2082F00D018
:205B600072E72368DB0700D46EE763682269934200DD69E73023013D2B7065E7984295DA1D
:205B8000180093E7136809681D1D606915601B680E0601D449064BD418600023039D236176
:205BA00055E7202322689A43226037E75D06B2D500228E5E3200B0E7002EC2D15B46250017
:205BC0001A7842234235E2543BE713682500191D11601A684223E254413B423523614323BE
:205BE0000022E25433E7116820680D1D1560060601D440061ED40E686F2B1DD0134B0A27EE
:205C00009B460BE742222500A354012342352361E5E71368191D11601D686268002128008C
:205C200001F098FD00280BD0401B60602061D6E71880B2E70E88DFE7044B08279B46EDE6C3
:205C400060682061CBE7C04698C0000884C000080EB410B5040083B0002802D08369002BC8
:205C60000BD006AB059AA1682000019302F09EFD03B010BC08BC03B0184701F01FFCF0E777
:205C80000FB410B50B4B82B01C68002C02D0A369002B0BD005AB049AA1682000019302F063
:205CA00085FD02B010BC08BC04B01847200001F005FCEFE7A4050020002370B5064C0500BD
:205CC0000800236005F01EFE431C00D070BD2368002BFBD02B60F9E73031002010B5002377
:205CE0000122002100F002F810BDC046F0B54746CE4680B51E005A4B83B01D6804008846DB
:205D00001700002D02D0AB69002B5DD0554B9C4260D0554B9C425FD0544B9C4200D199E0DF
:205D2000022F05D0012F00D996E0002E00DA93E02100280001F088FA616B002908D02300B7
:205D40004433994202D02800FFF7FEF8002363630023A36163600C22A35E1A064FD4444A38
:205D60001340A381022F55D001AB6A462100280001F06CFCA3890343A381002E2ED1009EF7
:205D8000300001F0D3FC8046002853D08022A3891343A381AB69002B26D00C22A35E012F26
:205DA00002D101221343A38142462260226108229BB266611A401BD0DB0738D50023764299
:205DC000A360A661002015E0280001F077FB254B9C429ED16C68A3E7AC68A1E74346002BAE
:205DE000CED0AB69002BD8D1280001F067FBD4E70020A26003B00CBC90469946F0BD21695E
:205E00002800FFF7A1F80C22A35E194A1340A381022FA9D1002002221343A3810023A36033
:205E2000230047332360236101236361E2E7A6600020DFE7009B9946B34206D0180001F0D3
:205E400075FC4E4680460028A0D101200C22A35E4042E0E7EC6863E701204042CAE7C0464D
:205E6000A4050020ACBB00088CBB00086CBB00085CF3FFFF0CB400B59DB0029106910949E1
:205E80001EAB07910491084904CB059102A9019302F006FB0023029A13701DB008BC02B09F
:205EA0001847C046FFFFFF7F0802FFFF0EB400B50B499CB0079104910A491DAB05910A49B1
:205EC00004CB02900690086802A9019302F0E8FA0023029A13701CB008BC03B01847C0465E
:205EE000FFFFFF7F0802FFFFA40500200B00034330B504009B0710D10B680C4A0C4D9A18C4
:205F00009A432A4209D104312360084A0B6804309A189A4304002A42F5D003000A7818004C
:205F20001A7001310133002AF8D130BDFFFEFEFE8080808010B5830727D00378002B26D0B6
:205F40000300032102E01A78002A1CD001330B42F9D119680F4A104C8A188A4322420FD15C
:205F6000043319680B4A8A188A43224208D104331968084A8A188A432242F1D000E00133B6
:205F80001A78002AFBD1181A10BD0300E1E70020FAE7C046FFFEFEFE80808080F0B557466D
:205FA0004546DE464E46E0B50C69036985B007008846A34200DA99E0142114228C46013C6C
:205FC00084444244A300D618634403931B6861469A46336801910133190050460292994618
:205FE00003F09EFB0500CA4541D3019900238A46A446504600211C00BA46029A009608CA9F
:206000001E04360C6E43B346A3445C461B0C6B43260C9E190368340C1F043F0C7F185946DC
:206020000904090C7F1A3104090C1B0C5B1A39145B183E041914360C1B04334308C0009B56
:206040009342DCD21E00039B64461A6857460092002A0CD1019A043B934204D806E0043BEF
:20606000013C934202D919680029F8D03C614146380001F0CBFE002830DB00230135A04639
:20608000AC461C00019902980B6820C81A04120C12192C04240C121B1B0C2C0C1B1B1414B2
:2060A0001B1912041C14120C1B04134308C18642EAD2019A444665469446A3006344196811
:2060C00000290BD1043B934204D806E0043B013C934202D919680029F8D03C61280005B0CD
:2060E0003CBC90469946A246AB46F0BD0020F6E7F0B557464E464546DE461400E0B51D0025
:20610000466A9BB08246279F02940395002E00D1C2E3316800290AD00123726893404A600D
:206120008B6001F09DFB534600225B6A1A602E1E00DA24E2002332003B60D34B1A409A4281
:2061400000D127E2029B039C18002100002200230890099103F06AFC002813D00123269A31
:206160001360289B002B00D1A4E3C84B289A1360013B069306981BB03CBC90469946A2464B
:20618000AB46F0BD18AB019319AB089C099D009322002B00504601F077FF330D834600D046
:2061A0000BE2199B189FFC18B94BE318202B01DC00F050FC4022D31A9E40B64B0298E3184D
:2061C000D840304305F052FA0123B34D661E49190F930022B14B04F033FEB14AB14B04F019
:2061E000C3FBB14AB14B03F04FFC040030000D0005F00CFAAE4AAF4B04F0B6FB02000B00CC
:206200002000290003F040FC04000D0005F0C8F90022814600232000290003F00DFC0028C6
:206220000BD0484605F0F2F92B00220003F0FEFB434258414B461B1A9946BE1B731E9846D1
:206240004B46162B00D9F4E208980999DA009A4B9B181A685B6803F0EFFB002800D1C8E244
:2062600001235B429C4600230D93002304934346E144002B00DAE4E24B46002B00DBBFE24D
:206280004A46049B07929B1A049353420C930023994653465E6A249B0124092B00D9BBE2C5
:2062A000052B02DD0024043B2493249B032B01D100F012FD00DC93E1249B042B00D0D9E22E
:2062C00001230B93259B002B01DC00F0B3FC1D0012930A9300237360172D01DC00F0F6FE3B
:2062E000012204335B001800143011000132A842F8D97160504601F071FA0690002801D13B
:2063000000F0DDFE5346069A5B6A1A600A9B0E930E2B00D980E1002C00D17DE1079800285F
:2063200001DC00F033FD0F210200634B0A40D2009B1806111C685D68F30601D500F0BEFCD8
:20634000029A039B1092119302230293002E12D05A4F012333420AD0029B20000133029351
:2063600029003A687B6804F0FFFA04000D0076100837002EEDD11098119922002B0003F02E
:20638000EDFE06000F000D9B002B09D000224C4B3000390003F050FB002801D000F0C6FD45
:2063A000029805F033F932003B0004F0DDFA0022444B03F069FB444A0B0094466344029036
:2063C000039103930A9B002B01D100F0AAFC079B13930A9B10933900300005F0E1F8069BF3
:2063E00005005C1C05F012F902000B003000390004F026FD0F0010992F4B4A1ED2000B9983
:206400009B18303506001A685B68EDB2002901D100F018FD00202D4903F0A0FE029A039B19
:2064200004F00EFD069B32001D703B001490159103F016FB002801D000F050FD32003B00D1
:2064400000201F4904F0FCFC02000B001498159903F006FB002801D000F025FE109B012B8A
:2064600001D100F0A7FC069A21009446634402934B461693434617935B46A146149C159D89
:20648000D34610938A4637E00000F07F81C000083204000012040000000010FE0000F83F10
:2064A00061436F63A787D23FB3C8608B288AC63FFB799F501344D33F30BC000808BC00087E
:2064C0000000F03F00001C400000C0FC0000E03F32003B000020DE4904F0B2FC22002B00B3
:2064E00003F0AAFA002801D000F0BEFD029BCA46994501D100F057FC0022D64B2000290035
:2065000004F032FA0022D34B04000D003000390004F02AFA0F00060005F042F8804605F08A
:2065200075F802000B003000390004F089FC01239C4643463033DBB29846534642461A70F7
:2065400022002B0006000F00E14403F075FA0028BED04C46109BDA469B46139B01330793E2
:206560005946504601F07CF90023079A2370269B1A60289B002B00D1FCE51C60FAE50123CF
:206580006E00760832003B60B34B03961A409A4200D0D7E5B14B269A36031360029B360BA3
:2065A0001E4316D1289B002B01D100F092FDAC4B06930833289A1360DCE520002A03A44C56
:2065C000120B1443A74A21009E180023189F0F93FFE5289B002B00D01AE3A34B0693C9E52F
:2065E00000230B93249B022B00D16BE6002450467460210001F0F2F80690A04201D100F008
:206600005EFD5346069A5B6A25941A6001230B93023B0A9312930E93199B002B00DAC5E0AE
:20662000079A0E2A00DDC1E0904BD2009B1818685968259B04900591002B15DA0A9B002B8E
:2066400012DC00D08BE30022894B04F08DF9029A039B03F00FFA00270026002800D102E33D
:20666000259B069CDD4304E3029E039F049A059B3000390003F072FD04F092FF050004F0E8
:20668000C5FF049A059B04F06FF902000B003000390004F0D5FB2B00069A30331370079B0F
:2066A0000600013307930A9B0F00541C012B50D00022684B04F058F90022002306000F0022
:2066C00003F0B4F9002800D04AE7069A0E9B94466344013B99465B4602935346A046CA4647
:2066E0000A93A146049C059D0DE00022594B04F03BF90022002306000F00C84603F096F90F
:20670000002800D097E322002B003000390003F025FD04F045FF834604F078FF22002B0083
:2067200004F022F902000B003000390004F088FB01239C465B464246303306000F00E14491
:206740001370D045D1D1029B5D469B460A9B4C469A4632003B003000390003F095F9049AD2
:20676000059B06000F0003F07BF900280BD1049A059B3000390003F059F9002800D1EFE63F
:20678000EB0700D4ECE6631E1D781A00069907E0013A994201D100F023FC15781C00013BCF
:2067A000392DF5D00135EDB21D70D9E60B9A002A00D182E0249A012A00DC90E20A9B5D1E34
:2067C0000C9BAB4200DB77E20C9B0C95EA1A0025914404990A9BCC1A002B04DB9C460C008B
:2067E0006144E04404910121504601F053F9060066E04346002B00DAD2E200230D9304935E
:206800004B46079300230C9353465E6A249BC8440124092B00D843E5012200230B92023AE7
:2068200024930A922593002373600A9B0021129360E501230D93002304934346002B00DB9A
:206840001AE501239B1B04930023984614E5C0460000F03F000024400000F07F0F27000090
:20686000ACC0000801FCFFFFB8C0000830BC00080000144001230B93249B052B00D0B5E6C5
:20688000079A259B94466344129301330A931D1E00DD1FE501251DE5102000F047FF53465D
:2068A0005862002801D100F01EFC466086600660C6603CE4D84B06935CE400260C9D049C77
:2068C000002C0DDD4346002B0ADD2300444500DDD9E1049AE41AD21A04924246D31A984653
:2068E0000C9B002B1AD00B9B002B00D189E1002D10DD31002A00504601F0A8F95A46010092
:206900000600504601F0DCF807005946504600F0A7FFBB460C9B5A1B00D073E1012150464B
