:020000040800F2
:20000000004000204900000841000008450000080000000000000000000000000000000099
:200020000000000000000000000000000000000000000000000000000000000000000000C0
:20004000FEE7C046FEE7C04609480A4A10B5904203D00949121A03F00BFB0848084A9042D0
:2000600003D00021121A03F057FB04F04FFBFEE7C0000020280100208948000828010020AD
:20008000E02A00202021074AD3691942FCD0938CDBB218006138192801D8203BDBB29BB295
:2000A0001385F1E70044004070B590242025E405FA20A38A40006B409BB2A38200F03AFD7A
:2000C000F6E7C046FA21044A4900136801338B4200D300231360704728010020FEE7C046BB
:2000E000FEE7C0467047C04610B500F023FD10BDA022174BD20219680A4380211A6089024A
:200100001A680A42FCD05A6812491140802252030A435A605A6810491140802252020A432A
:200120005A608022196852040A4380211A60084A890413680B42FCD0012008490B68034386
:200140000B60032153688B4301390B435360704700100240FFFFC3FFFF7FFEFF00200240A6
:2001600070B5104C14E001F00FFF2369DD68281D02F0FEF8A369013BA3612368013B236077
:2001800001F00EFF286B02F037F8280002F034F82368002BE7D1E369012BF9D901F0E8FED8
:2001A000F6E7C0462C010020F8B54E464546DE465746E0B59600804630000D00994601F084
:2001C00077FF071E00D195E0542001F071FF041E00D1A1E007633200A521380003F09CFAD2
:2001E000236B9A46002D00D1CFE034232A78E2542B78002B26D035236A78E2546B78002B73
:2002000020D03623AA78E254AB78002B1AD03723EA78E254EB78002B14D038232A79E2546D
:200220002B79002B0ED039236A79E2546B79002B08D03A23AA79E254AB79002B02D03B2380
:20024000EA79E2543B230022E2540A9D042D5AD80023271DA3643800E56265649B4602F0BC
:200260005FF82000183002F05BF80523043E5D1B5B465A4656443000E36450332461A56138
:200280006462E254493B98434A46414601F052FE0B9B2060002B00D01C6001F075FE3C4E20
:2002A0003C4DB3690133B3612B68002B3AD0EB6D002B2AD0E26A2B6E01332B66E3636B6E43
:2002C000934200D26A6630009600B618B6001C308019390002F028F801F062FEEB6D01265D
:2002E000002B09D02B68DA6AE36A9A4204D201F03FFE01E00126764230003CBC9046994659
:20030000A246AB46F8BD0425A2E72B68E26ADB6A9342D0D82C60CEE70126380001F06CFF00
:200320007642E9E72C60B369012BC3D130001C3001F0EAFF3000303001F0E6FF300044306D
:2003400001F0E2FF3000583001F0DEFF30006C3001F0DAFF2B1D1800994601F0D5FF182370
:200360009846A844404601F0CFFF28002C3001F0CBFF301D01F0C8FF2800403001F0C4FFDE
:200380004B466B654346AB6594E73423E5545CE72C010020AC010020F8B5050001F0F4FD67
:2003A000224C002D38D02F1D380001F0E1FFAB6A002B03D02800183001F0DAFF236E013333
:2003C00023662368AB421ED0194A286B9369013B936101F011FF280001F00EFF636D1B6892
:2003E000002B0DD0636DDB68DB685B68A36601F0D7FDE36D002B02D02368AB420ED0F8BDB6
:20040000013BA366F3E70A4E3900301D01F08CFF336801333360EAE72568C4E7E36E002B7C
:2004200001D072B6FEE701F0A3FDE8E7AC0100202C010020F0B5C646050000B5002820D0E1
:20044000184E00203368AB4218D001F09DFD736D6C699846B76D01F0A3FD44451ED0BC425E
:200460001CD04036B4420ED00F4B04339C4217D063425C41032064422040013004BC9046BE
:20048000F0BD72B6FEE7AB6A0220002BF6D15033E85C0138431E98410230EFE70220EDE741
:2004A0000420EBE7AC0100202C01002010B5040001F06AFD002C04D0E46A01F071FD20003E
:2004C00010BD014B1C68F7E7AC01002010B5040001F074FD002C04D0E46A01F073FD2000DA
:2004E00010BD014B1C68F7E7AC010020F0B5C64604000D0000B5042901D972B6FEE701F038
:2005000043FD002C26D0626C95421ED0224F24D83E68361B73425E41E16A8A4200D1E562FF
:20052000A3696564002B02DB05235D1BA5611B4D8B002A005B181C329B00D31862699A422D
:2005400014D0002E01D001F013FD01F029FD04BC9046F0BD104B1C68D5E73B68A34218D052
:2005600000263B68DB6A9D427641D5E7231D1800984601F0FDFEE36A7A6E934200D97B6635
:200580009800C0181C3580004146281801F0CCFED7E70026C0E7C046AC0100202C010020ED
:2005A00070B5041E0DD0184D2B68834208D001F0EBFC2B00626940339A4204D001F0F0FCB4
:2005C00070BD72B6FEE72A00A36A2C329342F5D0002BF3D1261D300001F0CAFEE26A6B6E72
:2005E0009A4200D96A66930008489B189B001C30C018310001F098FE2B68E26ADB6A9A4269
:20060000DCD301F0B5FCD9E7AC0100202C010020F0B5C646040000B5002810D001F0CEFC82
:200620001C4D62692B004033070000269A4208D0380001F0C7FC300004BC9046F0BD72B680
:20064000FEE72800A36A2C308342F1D0002BEFD1EB6E002B18D12B68E26ADB6A9A4276418F
:20066000231D1800984601F083FEE26A6B6E9A4200D96A66930008489B189B001C30414624
:20068000C01801F051FED3E72100183101F04CFECEE7C046AC0100202C010020F8B58020C1
:2006A000CE464746C00080B501F002FD051E65D0542001F0FDFC041E5DD08022A521D20075
:2006C0000563280003F028F8514B002563633823266B271DE5540333E5543800E5626564D0
:2006E000A56401F01DFE2000183001F019FE0523A3614B33E56424616462E554FF239B0041
:20070000F018072300229843424901F013FC424D20602C6701F038FC404EB3690133B36166
:200720002B68002B3DD0EB6D002B33D0E36A2A6E01322A66E2636A6E934200D96B6698008C
:20074000C0181C3680003900301801F0EDFD01F027FCEB6D002B04D02B68DA6AE36A9A4228
:2007600052D301F087FA01280AD0431C06D00CBC90469946F8BD280001F03EFD72B6FEE717
:2007800072B601235B42AB660023E8656B6701F067FCECE72A68E36AD26A9A42C7D82C60D4
:2007A000C5E72C60B369012BC0D130001C3001F0ABFD3000303001F0A7FD3000443001F059
:2007C000A3FD3000583001F09FFD30006C3001F09BFD2B1D1800994601F096FD1823984603
:2007E000A844404601F090FD28002C3001F08CFD301D01F089FD2800403001F085FD4B46AB
:200800006B654346AB6591E701F0B2FBA9E7C04649444C4561010008AC0100202C01002021
:2008200010B572B60022024BDA6501F095FB10BDAC010020024AD36E0133D3667047C0464B
:20084000AC010020014B586F7047C046AC010020014B586F7047C046AC010020014B986944
:200860007047C0462C010020002801D034307047024B18680028F9D172B6FEE7AC010020C1
:20088000F0B5D6464F464646434CC0B5E36E002B6BD1676F01376767002F10D1636D1B687B
:2008A000002B69D1636DA26D6265A365A36F0133A367636D1B68002B60D1013BA366A36ED0
:2008C0009F4238D3636D00251B68344E002B5BD01C239A46B24425E004234344180099461D
:2008E00001F046FD43469B6A002B03D04046183001F03EFD4346626EDB6A934200D9636629
:200900009800C01880004946504401F00DFD42462368D26ADB6A9A4200D30125636D1B680D
:20092000002B31D0636DDB68DB6898465B689F42D2D2A36601E00025184E2368DA6A930038
:200940009B189B00F618F369012B00D90125E36F002B1DD0124B1B68002B00D00125280021
:200960001CBC90469946A246F0BDE36F00250133E367FFF7A7FBF2E772B6FEE7636DDB68CF
:20098000DB685B68A3669AE701235B42A366D4E7FFF798FBDEE7C046AC0100202C010020D4
:2009A0002C020020F8B5CE46474680B501F0ECFA334CE36E013BE366E36E002B4BD1314F22
:2009C000BB69002B47D0E36A002B56D02E4B1C37984601239946A36BDD6828002E1D183058
:2009E00001F0C6FC300001F0C3FCEB6A626E934200D963669800C01880003100381801F066
:200A000093FC2368EA6ADB6A9A422CD343464A461A60E36A002BDED1636D1B68002B29D017
:200A2000636DDB68DB685B68A366E56F002D0AD00126FFF725FF002801D043461E60013DBA
:200A4000002DF6D1E56743461B68002B03D001F08FFA012400E0002401F0A2FA20000CBC34
:200A600090469946F8BDE36A002BB4D1636D1B68002BD5D1013BA366D7E7034B9846D4E701
:200A8000AC0100202C0100202C020020044B10B5DB6E002B01D172B6FEE7FFF783FF10BD42
:200AA000AC010020F8B5002817D0002901D172B6FEE71F4EF36E002B11D1F36E0133F366DC
:200AC0000268756F54180460AA420FD9A2420FD8F36E002B05D172B6FEE772B6FEE772B6B5
:200AE000FEE7FFF75FFF002819D0F8BDA24201D8A542EDD2776F30687D1B043001F038FC25
:200B0000336864195C60A7420CD8706D3168043101F016FCB36E9C42DAD2B466D8E701F011
:200B200027FAE2E7B06D3168043101F009FCCFE7AC01002070B5051E09D0174CE36E002B67
:200B400008D072B6FEE7FFF72DFF002801D101F00FFA70BDE36E0133E366666F2068AD197C
:200B6000043001F005FC23685D60AE4209D9A06D2168043101F0E4FBE36E002BE3D172B642
:200B8000FEE7606D2168043101F0DAFBA36E9D42F2D2A566F0E7C046AC0100200A4B10B59C
:200BA000DA6E002A01D072B6FEE7DA6E0132DA66DA6F1218DA67DB6E002B01D172B6FEE723
:200BC000FFF7F0FE10BDC046AC010020F0B54E4691460822DE46574645469346E0B54B68EA
:200BE0008B445B6804000F0083B05B456CD0DA685B68019200229046344A7B6092469B45A0
:200C00002FD0DE68351E32D02B0034336360EB6A296B2361EB6B2560A3606B6CE1616361BD
:200C20000023A36153461B68AB4223D04B462373032B35D00B78A52B21D100230133CA5C75
:200C4000A52AFBD09B089BB2238401239C46019BE0442434B3421BD07B685B687B609B4504
:200C6000CFD15B465B68DE687B60351ECCD153461D68C9E7002323730B78A52BDDD00023B5
:200C8000238401239C46019BE0442434B342E3D1404603B03CBC90469946A246AB46F0BD7A
:200CA00053465246DB6E0133D366AB6A002B01D0022323735346DB6E002B01D172B6FEE795
:200CC000FFF770FE296BB5E7CB6890E7AC010020F0B54F464646D646384DC0B5EB6E0600CE
:200CE00001339146EB66364F0024BB698B4257D86C239A46673B98460022BA4401235B42FF
:200D00009C46E04443469B0043449B00FB181019DB6980003018002B08D001225146FFF78C
:200D200055FF2418E20010198000301814235B429C464346E244002BE0D1696D0B68002B9B
:200D400007D00222FFF742FF2418E000001980003018A96D0B68002B07D00222FFF736FF8A
:200D60002418E0000019800030187B68002B08D00422391DFFF72AFF2418E0000019800040
:200D800030182B6C002B05D0290003224031FFF71DFF24184B46002B02D000234A461360B3
:200DA000EB6E002B01D172B6FEE7FFF7FBFD20001CBC90469946A246F0BDC046AC010020CD
:200DC0002C01002070B5374CE36E002B03D00122354B1A6070BD344A3449136023681B6B06
:200DE0001A688A4202D15968914251D0206821683431FFF775F9626E2D499300981880003A
:200E00000818C069002835D1002A2FD0531E9800C01880000818C069002829D1002B25D046
:200E2000931E9800C01880000818C06900281FD1002B1BD0D31E9800C01880000818C06970
:200E4000002815D1002B11D0131F9800C01880000818C06900280BD1002B07D0531F9A00FB
:200E6000D21892008A18D269002A01D172B6FEE71A009B009B189B00CD182900286A243118
:200E80004068286288420AD0C36823606266A1E79A688A42AAD1DB689342A7D1ABE740686B
:200EA0002862F1E7AC0100202C020020A5A5A5A52C01002070B5050001F066F8244C002DBE
:200EC0001ED02E1D300001F053FAAB6A002B03D02800183001F04CFA20003100403001F0FF
:200EE00023FA5023EA5C012A01D10022EA5401F057F8E36D002B0DD12368AB4202D070BDAF
:200F00002568DEE7E36D002B15D0E36E002B1CD072B6FEE701F038F8636D1B68002B07D034
:200F2000636DDB68DB685B68A36601F039F8E3E7013BA366F9E7074A216C9269914201D100
:200F40002360DCE7FFF73EFFD9E701F011F8D6E7AC0100202C01002070B50D00002816D047
:200F6000144C2168183101F0EBF9666F2068043001F0FEF96B1C0CD02368AD195D60AE4290
:200F80000ED9A06D2168043101F0DAF970BD72B6FEE7200021684030043101F0C5F9F5E7C8
:200FA000606D2168043101F0CBF9A36E9D42EDD2A566EBE7AC01002070B51500002805D061
:200FC000194CE36E002B03D172B6FEE772B6FEE780231B060B43226821689361183101F0EF
:200FE000A3F9666F2068043001F0C2F96B1C0AD02368AD195D60AE420CD9A06D2168043109
:2010000001F09EF905E0200021684030043101F08BF970BD606D2168043101F091F9A36E5C
:201020009D42F6D2A566F4E7AC01002070B50D001600002822D0174C2168183101F074F961
:20104000002E0FD1666F2068AD19043001F090F923685D60AE4213D9A06D2168043101F0D1
:201060006FF970BD636F2068043001F081F9200021684030043101F057F9F2E772B6FEE76D
:20108000606D2168043101F05BF9A36E9D42E8D2A566E6E7AC010020C36870B5DC68002C71
:2010A0002BD026001836300001F062F9144DEB6E002B0FD0280031002C3001F035F92B681A
:2010C000E26ADB6A00209A4203D901220D4B01301A6070BD261D300001F04AF9E26A6B6E88
:2010E0009A4200D96A66930007489B189B001C303100C01801F018F9E1E772B6FEE7C04609
:20110000AC0100202C0200202C01002070B5164DEB6E002B01D172B6FEE78023C4681B068C
:201120000B430360002C1CD0261D01F021F9300001F01EF9E26A6B6E9A4200D96A66930023
:201140000A489B189B001C30C018310001F0ECF82B68E26ADB6A9A4202D90122044B1A60FE
:2011600070BD72B6FEE7C046AC0100202C0100202C02002010B5041E09D000F005FF054BC3
:201180009A6F5B6F2260636000F00AFF10BD72B6FEE7C046AC010020024B9A6F5B6F02600F
:2011A00043607047AC010020F8B504000D00002821D000291DD000F0E7FE134A2B68506F97
:2011C000591C1AD0966F27686168B74202D0012681420AD9461AB34211D900261B1A5B18AE
:2011E0002B60936F2360536F636000F0D9FE3000F8BD72B6FEE772B6FEE70026F5E700236F
:2012000001262B60F1E7C046AC0100200122014B1A6070472C020020002801D0006C704767
:201220000020FCE7002800D001647047F0B54F464646D6460400C0B50D0016003E4F002864
:201240002ED0220034326A60E26A2C602A61226BEA61E26BAA60626C6A610022AA61052BB6
:201260002DD03968A14217D02B73032B1AD0002E0CD0226B1378A52B4BD100230133D15CBE
:20128000A529FBD09B089BB22B8400E02E841CBC90469946A246F0BD2A73002EF6D0E8E702
:2012A0003C68CEE7FB6E0133FB66A36A002B01D002232B73FB6E002B25D172B6FEE73A68D2
:2012C0000023A2421BD000F05FFE636998467B6D9A46BB6D994600F063FED04516D0C845FD
:2012E00014D04037B84517D0144B043398451FD043465A4253415A420323134001332B73AD
:20130000002EC3D0B5E7FFF74DFBB0E702232B73F6E700232B84BAE7A26A0223002AEED16E
:201320004E33E35C013B5A1E934102332B73E7E704232B73E4E7C046AC0100202C01002014
:20134000014B18687047C046AC010020044B0120DA6D002A03D0D86E434258414000704728
:20136000AC010020F8B5041E23D01E4DC26A2B68DB6A9A4216D28369002B04DB2B68D96ADF
:2013800005235B1A8361184E930031009B181C319B006269CB189A420DD02B680120DB6AA7
:2013A000E36205E02B68406CDB6A984280414042F8BD0020FCE7271D380000F0D9FF2B68D3
:2013C0006A6EDB6AE362934200D96B6630009E00F6181C30B6008019390000F0A5FF0120C7
:2013E000E6E7C046AC0100202C01002070B5002810D0164E3468844201D072B6FEE7A36C20
:20140000002B09D0E26A616C013BA3648A4201D0002B03D0002070BD72B6FEE7251D28000D
:2014200000F0A6FF0522636CD21AA261726EE362934200D9736606489A00D3189B001C30CC
:20144000C018290000F070FF0120E4E7AC0100202C010020F8B5041E33D0836C002B01D168
:2014600072B6FEE7426C8A4200D20A00E16A914227D0012B25D1144F3B68A34222D0A369E9
:20148000E262002B02DB05239A1AA2610F4D8B002A005B181C329B00D31862699A4210D141
:2014A000261D300000F064FFE36A7A6E934200D97B669800C0181C3580003100281800F000
:2014C00033FFF8BD72B6FEE7AC0100202C010020F0B50023DE464E4645465746E0B503704E
:2014E000274B04009D699B6983B0D800C018800000F0DEFD814600283AD000222900FFF704
:20150000E7FB002831D04B461D1DC30018181D4B80009A46002380469B46A8442B7A0027B8
:20152000042B01D8184AD75C2000296802F084F90600031B062B07D8221A2021073202F012
:20154000EBF85B46E61DE3716A68EB680192AA8B5146009230003A0002F04EF9300002F0D5
:201560008FF924353418A845D8D1484600F044FE03B03CBC90469946A246AB46F0BDC046FC
:201580002C01002030480008D8460008044B1A68196890691A680523C96A5B1A9361704710
:2015A000AC010020044B1A68002A03D019688A6C01328A6418687047AC010020F8B5060041
:2015C0000D0000F0E1FC244C2368DB6C002B05D1012122685033D154002D17D100F0E0FCB9
:2015E00000F0D2FC2368DD6C002D04D02368002E09D00022DA64502300212268D15400F033
:20160000CFFC2800F8BD6A1EDA64F4E7676F2068043000F0ADFE6B1C0CD02368ED195D60A3
:20162000AF420ED9A06D2168043100F089FE00F09FFCD3E7200021684030043100F074FE9B
:20164000F5E7606D2168043100F07AFEA36E9D42EDD2A566EBE7C046AC010020F0B5C646AB
:2016600000B515001E000700884600F08DFC5023284C2268D25C022A08D02168CA6CBA43D5
:20168000CA6401212268D154002E1ED100F088FC00F07AFC002D02D02368DB6C2B60502385
:2016A00022680025D35C022B05D1414622680135D36C8B43D364502300212268D15400F08B
:2016C0006FFC280004BC9046F0BD676F2068043000F04EFE731C0CD02368F6195E60B742AA
:2016E0000ED9A06D2168043100F02AFE00F040FCCCE7200021684030043100F015FEF5E714
:20170000606D2168043100F01BFEA36E9E42EDD2A666EBE7AC010020F8B504000E00150006
:201720001F00002810D000F02FFC002F01D0E36C3B6050220221A35CA154DBB2042D27D837
:20174000204AAD005259974672B6FEE7E26C1643E664012B04D0012400F022FC2000F8BDE4
:20176000261D300000F004FE174DE26A6B6E9A4200D96A66154893009B189B001C30C01894
:20178000310000F0D1FDA36A002B10D072B6FEE7E26C0132DDD072B6FEE7022B0FD0E664A4
:2017A000012BD8D1DCE7E26C0132E264D1E72B68E26ADB6A9A42CED900F0DAFBCBE70024D0
:2017C000CAE7C046B0460008AC0100202C010020F0B5CE4604000E001500994600B500289E
:2017E00013D000F0EBFB4B460700002B02D04A46E36C136050220221A35CA154DBB2042D02
:201800002FD8294AAD005259974672B6FEE7E16C3143E164012B1CD1A36A002B01D072B6BC
:20182000FEE7224DEB6E002B2AD0280021002C30183100F079FD2B68E26ADB6A9A4208D9A1
:20184000069B002B02D01A00012313600122184B1A600124380000F0B5FB200004BC914685
:20186000F0BDE26C0132D5D072B6FEE7022B05D0E664CFE7E26C0132E264CBE70024E9E719
:20188000261D300000F074FDE26A6B6E9A4200D96A66930007489B189B001C303100C01845
:2018A00000F042FDC7E7C046C4460008AC0100202C0200202C010020F0B5C64604000E0008
:2018C00000B5002839D000F079FB50230221E25CE154E36C07000133E364012A27D1A36AB4
:2018E000002B01D072B6FEE7184DEB6E002B26D1231D1800984600F03BFDE26A6B6E9A42A0
:2019000000D96A66124893009B189B001C304146C01800F009FD2B68E26ADB6A9A4206D963
:20192000002E01D00123336001220A4B1A60380000F048FB04BC9046F0BD72B6FEE728001C
:2019400021002C30183100F0EFFCE4E7AC0100202C0100202C02002070B5041E0CD000F0A0
:2019600013FB5023E25C0025022A01D1E554013500F016FB280070BD014B1C68EFE7C04614
:20198000AC01002070B504000D00084E00280AD000F0FAFA3368DE6CE36CAB43E36400F0AF
:2019A000FFFA300070BD3468F2E7C046AC010020F0B54746CE46282380B5984604271E4E4E
:2019C00085B00EE0DB68DC681A68251D2800914600F0CEFC236A200098474346E35C1F422B
:2019E0000BD133681A68002AECD1B268B360326005B00CBC90469946F0BDA3694B449945F0
:201A000006D2290030686360246100F099FCE8E77368002B0ED0002301934B460394029339
:201A2000FFF794FC00230022706801A900F092FD0028D6D172B6FEE7300200208B4BF0B531
:201A40004E464546DE46574698460023E0B599462826874C89B023681F68002F00D18AE05B
:201A6000DB681F68FEF7E6FEFEF7ECFEE3680500834200D998E0E060874200D89DE00022FE
:201A80006068791B01F08CFDFFF700F8002800D187E002239A46013B9B460022606802A96B
:201AA00000F098FF0028D6D0029B0193002BF4DB049D6B69002B02D0281D00F059FCFEF7B5
:201AC000C1FEE3680700984274D3029BE760092BE3D842469B00D3589F460122AB5D13434D
:201AE000AB55A969039B2D615A186A60BA427DD8FB1A994200D98AE02B6A28009847AB5D44
:201B00005B07CAD56368002B13D04A46039B0193AB690592019A0795944663440693FFF737
:201B200015FC002360681A0005A900F013FD0028B3D172B6FEE70122AB5D1343AB55039B09
:201B4000AB61002B00D18AE0DB196B602D61291DBB4254D8A06800F0F3FB9EE75A46AB5D44
:201B60009343AB5599E75246AB5D1A424BD05A469343AB5591E7FEF75DFEFEF763FEE36819
:201B80000500834210D8A36860681A68791B53425A41E56001F004FDFEF778FF002800D0DF
:201BA00077E700F0E5F974E7FFF702FFE560FEF76DFF6EE7FFF7FCFE87E7FEF767FF236868
:201BC000DB68DB689A460423534418009B4600F0CFFB53469B5D5A071ED4012293435246B9
:201BE0009355534650461B6A984752E7BB4201D9934281D92068291D00F0A2FB4DE7206814
:201C000000F09EFB49E7280000F0F6FA45E7A068291D00F095FB40E7534651469B69096144
:201C2000FA184A60AA4204D95946206800F088FBD7E7ED1BAB4214D86368002B0DD04B4682
:201C4000079105930697FFF781FB002360681A0005A900F07FFC0028C3D172B6FEE772B636
:201C6000FEE75946A06800F06BFBBAE7E04600083002002070B582B000F086F9184C63686C
:201C8000002B14D000F08CF96368002B0BD002233834009350220023124913480194FEF7F6
:201CA00083FA002801D172B6FEE702B070BD2600250010363000243500F026FB280000F07E
:201CC00023FB00220C2105202660A56000F0D4FB60600028D6D0054901F0D0FBD2E7C046D1
:201CE00030020020484800083D1A000840480008F8B54546DE4657464E46E0B507002C2096
:201D0000884616001D0000F0D3F9041E1ED028230022C2544346002B1FD000F035F91F4B48
:201D200099465B68002B1AD000F03AF94346A3610A9B2760E5612362201D00F0F1FA002EFF
:201D400004D028220421A35C0B43A35420003CBC90469946A246AB46F8BD72B6FEE7103351
:201D60004B4418009B4600F0CFFA24234B4418009A4600F0C9FA4B465A461A6052460C2131
:201D80009A600520002200F077FB4B4658600028CAD0034901F072FBC6E7C04630020020E6
:201DA0004048000870B5160004001A0084B0002816D0124D686800280FD001910296039401
:201DC00005290FDCFFF7C2FA022810D000230022686801A900F0BEFB00E0002004B070BDE5
:201DE00072B6FEE7002301A900F066FDF6E700236868089A01A900F0ADFBEFE730020020DA
:201E0000034B986B002800D0704772B6FEE7C04630020020002801D08069704772B6FEE7B7
:201E200070B504000D0000280ED000F0ADF828230422E35C002D05D193432822A35400F017
:201E4000AFF870BD1343F8E772B6FEE710B5041E09D000F099F82823E45C6407E40F00F052
:201E60009FF8200010BD72B6FEE7C046002801D04068704772B6FEE7002801D0006870474E
:201E800072B6FEE710B5041E09D000F07DF82823E35C01241C4000F083F8200010BD72B685
:201EA000FEE7C04610B5041E06D000F06DF8E46900F076F8200010BD72B6FEE770B5040057
:201EC0000D00002805D000F05FF8E56100F068F870BD72B6FEE7C046406A70474162704720
:201EE000002382B00193064B1B68013301D072B6FEE772B6019B002BFCD002B07047C046E9
:201F0000C00000200A4A13681868203080F30988022080F31488BFF36F8F3FBCAE4608BCAA
:201F200004BC62B61847C046C046C046C046C046AC01002010B58024031F64041C60043BD1
:201F400019600349043B1960143B40381A6010BDE11E00087047C046FA23044A9B001268B2
:201F60009A4201D072B6FEE77047C046C00000208022044B52051A60BFF34F8FBFF36F8F08
:201F80007047C04604ED00E072B6044A136801331360BFF34F8FBFF36F8F7047C000002044
:201FA000054A1368002B01D172B6FEE7013B1360002B00D162B67047C0000020EFF3108081
:201FC00072B6704780F310887047C046EFF309800F4B1A6820381060F0C044464D465646E2
:201FE0005F46F0C008B572B6FEF7ECFE62B60CBC116808681030F0C8A046A946B246BB4639
:2020000080F309882038F0C81847C046C046C046AC01002010B5FFF7D1FF0400FEF730FCBE
:20202000002803D08022034B52051A602000FFF7C9FF10BD04ED00E00022054B05491A602E
:202040000A60054A0549116007221A607047C04610E000E018E000E014E000E07FBB0000F2
:20206000FF22114B1204196830B50A431A60FF220025196812060A4383B01A60FFF7DCFFF6
:202080000A4C2560FFF73EFFFEF79CFE23680195013301D072B6FEE772B6019B002BFCD0B5
:2020A000002003B030BDC04620ED00E0C0000020F0B5D6464F464646C0B50400FEF7BAFB88
:2020C0004B4B9868002837D0DA6892465246224227D1002C25D0220007210832114201D064
:2020E0008A430832002A1CD059698C46914218D31F001C6804E02668002E04D027003400FF
:2021000061689142F7D384420BD02600256808363D608F1A102F40D9A1184D0726D072B6FE
:20212000FEE7FEF7B3FC0026FDF7D8FF30001CBC90469946A246F0BD07202E49084242D1D8
:20214000A022920188180A00072600250838B0435D601960456005608025821A2D06AA4657
:2021600005C198601A615A61DD60AFE74F6062601A00904612689142FBD845466F68B946B6
:20218000C144494526D04F68CD19AA4227D00A60884501D042461160616862461869521AD7
:2021A0005A6182420DD30022554622609A690D43013265609A61FEF769FC7307B6D072B6B9
:2021C000FEE71A61EFE7CA1D8243A020800108181100B9E749687F186F604146D4E78242EE
:2021E000D5D05068126881464F444F600A60CFE76C0200208C020020F8B5041E2DD01C4E6D
:20220000083C6368F2681A4204D02168002903D072B6FEE772B6FEE793436360FEF70AFBF3
:202220007369616825005B18736133001A001B689C42FBD850681718BC4202D1150009181E
:2022400051606818834209D02B60AA4200D01560F3690133F361FEF719FCF8BDB068834273
:20226000F2D058681B688446614469602B60ECE76C020020014B58697047C0466C020020DD
:20228000014B18697047C0466C0200207047C046F0B5C64600B50700FEF7CCFA194B9846FF
:2022A0001B68002B28D0424601250026002491686D425A680134964200D21600954200D971
:2022C00015001B689942F4D1FEF7E0FB7E60BD60FC60FFF759FE43465B693B6043469B69DD
:2022E0007B614346DB69BB6143461B693B61FFF757FE04BC9046F0BD0125002600246D42C3
:20230000E2E7C0466C0200200300012208334360C360036100235242826003607047C0461C
:20232000002303617047C04643689A684B608A609A68516099600368086101330360704749
:20234000030030B50C680833621C0DD01A005B681D68A542FAD94B60996003688A60013342
:2023600051600861036030BD02695368F3E7C0460369416882688A6051605968814206D0F9
:20238000002202611A68013A1A60186870475A60F6E7C04670B51600026C0400856B002AE6
:2023A00006D10668002E2AD001350020A56370BD002E0FD1406801F05BF9226C63689446F7
:2023C000A268634463609342EED32368002063600135EBE7C06801F04BF9E168236C5A42AC
:2023E000CB1A2168E3608B4203D2A3689C466244E260022ED8D1002DD7D10135D5E780682D
:20240000FEF7F4FF0135A660D0E7C04670B504000D0000281BD0FFF7B7FD216CE36B226883
:202420004B43D0185B1AD318A0606260E3604422FF230020A063A3540132A354002D11D1E6
:202440002369002B05D1FFF7ABFD012070BD72B6FEE720001030FEF71FFE0028F3D0FFF7A3
:2024600087FDF0E720001030FFF74EFF20002430FFF74AFFE7E7C046F8B506000D00170000
:20248000002801D172B6FEE7080070435030FFF70FFE041E24D00300002D23D12360E663F1
:2024A0002564FFF771FD226CE36B21685343C818A06000209B1ACB18E3604422FF23A063CE
:2024C00020006160A3540132A3541030FFF71CFF20002430FFF718FFFFF762FD4C23E75429
:2024E0002000F8BD5033D9E770B505000E00002801D172B6FEE7884201D272B6FEE750206B
:20250000FFF7D6FD041E23D0C563002500600564FFF73AFD216CE36B22684B43D0185B1A4A
:20252000D3186260E3604422FF23A0602000A563A3540132A3541030FFF7E6FE200024304C
:20254000FFF7E2FEFFF72CFD4C230222E254A663200070BDF0B54746CE4680B585B00400B3
:2025600088461F000192002800D196E0002900D18DE0022F04D1E36B012B01D072B6FEE7A7
:20258000FEF7E4FE051E00D189E0002526002436FFF7FAFCA36BE26B934200D2DCE0022F87
:2025A00000D1D9E0019B002B00D131E1002D00D1CEE0FFF7F5FCFEF73DF9FFF7E5FC4422EC
:2025C000A35C5BB2013301D10023A3544522A35C5BB2013301D10023A354FFF7E1FC01A9BF
:2025E00002A8FEF7E1FD002800D0CFE0FFF7CCFCA36BE26B934258D0FFF7D2FCFFF7C4FC27
:202600004523E55C6DB2002D05DC13E0013DEBB26DB2002B0ED0636A002B0BD03000FEF7F6
:202620003BFD0028F2D0013DFEF7F0FDEBB26DB2002BF0D14523FF22E254FFF7B1FCFFF758
:20264000A3FC4423E55C6DB2002D17DD343B9946A14404E0013DEAB26DB2002A0ED023694F
:20266000002B0BD04846FEF717FD0028F2D0013DFEF7CCFDEAB26DB2002AF0D14423FF22A9
:20268000E254FFF78DFCFEF701FA012580E7036C002B00D16DE772B6FEE772B6FEE7019B93
:2026A000002B00D172E772B6FEE7FFF779FC10239946A14448460199FEF74EFCFFF764FC99
:2026C0004523E55C6DB2002D05DC13E0013DEBB26DB2002B0ED0636A002B0BD03000FEF736
:2026E000DBFC0028F2D0013DFEF790FDEBB26DB2002BF0D14523FF22E254FFF751FCFFF7B9
:2027000043FC4423E55C6DB2002D05DC13E0013DEBB26DB2002B0ED02369002B0BD048468F
:20272000FEF7BAFC0028F2D0013DFEF76FFDEBB26DB2002BF0D14423FF22E254FFF730FCDD
:20274000FEF7A4F90028A0D1FFF712FC01251FE702A8FEF721FD2CE73A0041462000FFF777
:2027600019FE636A002B0CD1002807D1FFF718FC012005B00CBC90469946F0BDFFF7F8FB7A
:20278000F4E720002430FEF787FCEDE7FFF7FCFB4523E55C6DB2002D12DD2600243604E069
:2027A000013DEBB26DB2002B0AD0636A002B07D03000FEF771FC0028F2D0FEF727FDEFE7E0
:2027C0004523FF22E254FFF7EBFBFFF7DDFB4423E55C6DB2002D12DD2600103604E0013D1F
:2027E000EBB26DB2002B0AD02369002B07D03000FEF752FC0028F2D0FEF708FDEFE74423F6
:20280000FF22E254FFF7CCFBFEF740F90020B0E7FFF7C6FB0020ACE770B506005020FFF7C4
:2028200047FC041E2BD0002501230060C3630564FFF7AAFB216CE36B22684B43D0185B1A15
:20284000D3186260E3604422FF23A0602000A563A3540132A3541030FFF756FD20002430BA
:20286000FFF752FDFFF79CFB4C230022E654002100232000A5602560E560FFF76BFE200009
:2028800070BDC04670B5041E07D08668FEF758FD0025864203D0280070BD72B6FEE7E36842
:2028A0000135013BE360002BF5D1002200212000FFF750FEEFE7C046F0B54F46D64646460D
:2028C0000400C0B591460F009A4600281FD0002918D05346022B04D1E36B012B19D072B66B
:2028E000FEE7FFF76BFBA36BE26B0600934214D300253000FFF766FB28001CBC9046994619
:20290000A246F0BD036C002BE3D072B6FEE772B6FEE7FFF753FB0600A36B4523E55C524622
:202920006DB2390020009846A36BFFF733FD6B1C05D0434601356DB2E5540125D9E7636AE7
:202940000235002BD5D020002430FEF7A5FB0028CFD04B46002BCCD01D60CAE7F8B5040069
:202960000E0000281FD0036C002B01D072B6FEE70368002B19D0FFF721FBA26BE36B0700C7
:20298000002593420AD94521635C01325BB2A2635A1C0FD001335BB2635401253800FFF74F
:2029A00011FB2800F8BD72B6FEE78368002BE2D072B6FEE7636A002BEFD020002430FEF72C
:2029C0006BFB0028E9D0002EE7D0012301253360E4E7C046F0B54746CE4680B585B0040069
:2029E0000F000192002800D1E8E0002900D182E0FEF7ACFC002879D0FFF7C6FAA56B002D17
:202A000000D031E1019B002B00D1CFE002A8FEF7C3FB242398464426A044FFF7C1FAFDF718
:202A200009FFFFF7B1FAA35D5BB2013301D10023A3554522A35C5BB2013301D10023A3542C
:202A4000FFF7AEFA01A902A8FEF7AEFB002858D1FFF79AFAA36B002B00D1B1E0FFF7A0FAE0
:202A6000FFF792FA4523E55C6DB2002D05DC13E0013DEBB26DB2002B0ED0636A002B0BD035
:202A80004046FEF709FB0028F2D0013DFEF7BEFBEBB26DB2002BF0D14523FF22E254FFF784
:202AA0007FFAFFF771FA10239946A55DA1446DB2002D05DC13E0013DEBB26DB2002B0ED020
:202AC0002369002B0BD04846FEF7E6FA0028F2D0013DFEF79BFBEBB26DB2002BF0D1FF2384
:202AE000A355FFF75DFAFDF7D1FF56E0019B002B82D072B6FEE7036C002B00D178E772B67F
:202B0000FEE7FFF741FA4523E55C6DB2002D05DC13E0013DEBB26DB2002B0ED0636A002BDB
:202B20000BD04046FEF7B8FA0028F2D0013DFEF76DFBEBB26DB2002BF0D14523FF22E254A1
:202B4000FFF72EFAFFF720FA10239946A55DA1446DB2002D05DC13E0013DEBB26DB2002B09
:202B60000ED02369002B0BD04846FEF795FA0028F2D0013DFEF74AFBEBB26DB2002BF0D1C9
:202B8000FF23A355FFF70CFAFDF780FFFFF7FCF9A36B002B0AD0FFF703FAFFF7F5F9A56BC7
:202BA000002D61D1019B002B00D036E7FFF7F8F9002005B00CBC90469946F0BD72B6FEE70F
:202BC000FFF7EEF940460199FEF7C6F9FFF7DCF94523E55C6DB2002D05DC13E0013DEBB2D5
:202BE0006DB2002B0ED0636A002B0BD04046FEF753FA0028F2D0013DFEF708FBEBB26DB236
:202C0000002BF0D14523FF22E254FFF7C9F9FFF7BBF910239946A55DA1446DB2002D05DC81
:202C200013E0013DEBB26DB2002B0ED02369002B0BD04846FEF730FA0028F2D0013DFEF742
:202C4000E5FAEBB26DB2002BF0D1FF23A355FFF7A7F9FDF71BFF00289FD1FFF789F9FFF729
:202C600093F9A56B002D9DD0226C002A0AD0E3689918A368E160994201D32168E160380093
:202C800000F0F6FC013DA5632369002B03D1FFF787F901208DE720001030FEF7FDF9002803
:202CA000F5D0FFF765F9F2E7F0B5C64600B584B0041E019104D0036C002B03D072B6FEE786
:202CC00072B6FEE7FEF742FB061E00D122E10025002627002437FFF757F9A36B002B00D0A1
:202CE0001FE1019B002B00D140E1002E00D10DE1FFF756F9FDF79EFDFFF746F94422A35CC0
:202D00005BB2013301D10023A3544522A35C5BB2013301D10023A354FFF742F901A902A86E
:202D2000FEF742FA00281FD1FFF72EF9A36B002B00D19CE0FFF734F9FFF726F94523E65CC5
:202D400076B2002E05DC69E0013EF3B276B2002B64D0636A002B61D03800FEF79DF9002874
:202D6000F2D0FEF753FAEFE7FFF70EF94523E65C76B2002E05DC13E0013EF3B276B2002B71
:202D80000ED0636A002B0BD03800FEF785F90028F2D0013EFEF73AFAF3B276B2002BF0D1CC
:202DA0004523FF22E254FFF7FBF8FFF7EDF84423E65C76B2002E17DD343B9846A04404E088
:202DC000013EF3B276B2002B0ED02369002B0BD04046FEF761F90028F2D0013EFEF716FA49
:202DE000F3B276B2002BF0D14423FF22E254FFF7D7F8FDF74BFEFFF7C7F8A36B002B03D099
:202E0000FFF7CEF8012666E7FFF7CAF8002D00D09CE0280004B004BC9046F0BD4523FF22A9
:202E2000E254FFF7BDF8FFF7AFF84423E65C76B2002E13DD343B9846A04404E0013EF3B22C
:202E400076B2002B0AD02369002B07D04046FEF723F90028F2D0FEF7D9F9EFE74423FF2211
:202E6000E254FFF79DF80126FDF710FE33E7FFF797F82368002B60D038000199FEF76CF8B8
:202E8000FFF782F84523E65C76B2002E05DC0FE0013EF3B276B2002B0AD0636A002B07D012
:202EA0003800FEF7F9F80028F2D0FEF7AFF9EFE74523FF22E254FFF773F8FFF765F84423BD
:202EC000E65C76B2002E13DD343B9846A04404E0013EF3B276B2002B0AD02369002B07D0B6
:202EE0004046FEF7D9F80028F2D0FEF78FF9EFE74423FF22E254FFF753F8FDF7C7FD00286A
:202F000000D07FE7FFF734F80126E4E602A8FEF743F9EDE6019B002B01D072B6FEE70025F0
:202F2000D7E6013BA3632368002B2FD02369002B23D1FFF735F801256BE7FFF725F8A0687C
:202F4000FEF710FA0500FFF72BF895E7FFF71CF8616A002903D00521236B1B68C91AA068E5
:202F6000FEF778FA0025FFF71BF852E7002D01D072B6FEE7FFF714F84BE720001030FEF7EF
:202F80008BF80028D5D0FEF7F3FFD2E7FEF70AFBA060CBE770B504000D00002813D0866866
:202FA000FEF7CEF9864209D029002000FFF77CFE002807D0E3680133E36003E00120E368EB
:202FC0000133E36070BD72B6FEE7C046F0B54746CE4680B585B004000F000192002800D1EB
:202FE000E8E0002900D182E0FEF7B0F9002879D0FEF7CAFFA36B002B00D02DE1019B002B02
:2030000000D1CFE002A8FEF7C7F8242398464425A044FEF7C5FFFDF70DFCFEF7B5FF635D41
:203020005BB2013301D1002363554522A35C5BB2013301D10023A354FEF7B2FF01A902A815
:20304000FEF7B2F8002858D1FEF79EFFA36B002B00D1B1E0FEF7A4FFFEF796FF4523E65C87
:2030600076B2002E05DC13E0013EF3B276B2002B0ED0636A002B0BD04046FEF70DF8002896
:20308000F2D0013EFEF7C2F8F3B276B2002BF0D14523FF22E254FEF783FFFEF775FF1023F5
:2030A0009946665DA14476B2002E05DC13E0013EF3B276B2002B0ED02369002B0BD048462A
:2030C000FDF7EAFF0028F2D0013EFEF79FF8F3B276B2002BF0D1FF236355FEF761FFFDF782
:2030E000D5FC56E0019B002B82D072B6FEE7036C002B00D178E772B6FEE7FEF745FF45232B
:20310000E65C76B2002E05DC13E0013EF3B276B2002B0ED0636A002B0BD04046FDF7BCFF26
:203120000028F2D0013EFEF771F8F3B276B2002BF0D14523FF22E254FEF732FFFEF724FF52
:2031400010239946665DA14476B2002E05DC13E0013EF3B276B2002B0ED02369002B0BD0E4
:203160004846FDF799FF0028F2D0013EFEF74EF8F3B276B2002BF0D1FF236355FEF710FF3A
:20318000FDF784FCFEF700FFA36B002B0AD0FEF707FFFEF7F9FEA36B002B5DD1019B002B9F
:2031A00000D036E7FEF7FCFE002005B00CBC90469946F0BD72B6FEE7FEF7F2FE4046019922
:2031C000FDF7CAFEFEF7E0FE4523E65C76B2002E05DC13E0013EF3B276B2002B0ED0636AAA
:2031E000002B0BD04046FDF757FF0028F2D0013EFEF70CF8F3B276B2002BF0D14523FF2295
:20320000E254FEF7CDFEFEF7BFFE10239946665DA14476B2002E05DC13E0013EF3B276B216
:20322000002B0ED02369002B0BD04846FDF734FF0028F2D0013EFDF7E9FFF3B276B2002B41
:20324000F0D1FF236355FEF7ABFEFDF71FFC00289FD1FEF78DFE9CE7226CE568002A09D0AD
:20326000A368A918E160994201D32168E160380000F0FEF9636AE560002B03D1FEF790FE15
:20328000012092E720002430FDF706FF0028F5D0FEF76EFEF2E7C046F8B5CE4647460400A8
:2032A0008946160080B5002816D000290FD0FEF785FEA36B070098460025002B0ED138000C
:2032C000FEF780FE28000CBC90469946F8BD036C002BECD072B6FEE772B6FEE74423226CBC
:2032E000E55C6DB2002A0AD0E3689918A368E160994201D32168E160484600F0B9F94346F0
:20330000013BA3636B1C05D0442301356DB2E5540125D4E72369002BFAD020001030FDF764
:20332000BBFE0028F4D0002EF2D0012301253360C5E7C046F8B504000D0000280AD0036C3A
:20334000002903D0002B07D172B6FEE7002BFBD072B6FEE772B6FEE7FEF730FEA36B06001A
:203360000027002B04D13000FEF72CFE3800F8BD226CE768002A09D0A368B918E160994212
:2033800001D32168E160280000F072F9E7600127E9E7C04610B5041E06D0FEF7F5FDA46B14
:2033A000FEF7FEFD200010BD72B6FEE710B5041E08D0FEF7E9FDA36BE46BE41AFEF7F0FD4C
:2033C000200010BD72B6FEE7002801D0806B704772B6FEE770B500281BD01A4B5A6890421A
:2033E00029D0DA6890422AD05A69904225D0DA6990421CD05A6A904217D0DA6A904218D0C0
:203400005A6B904207D0DA6B90420CD0FEF7F4FE70BD72B6FEE7062200240025D2009B1834
:203420001C605D60F2E70722F6E70422F4E70322F2E70522F0E70022EEE70222ECE7012266
:20344000EAE7C046902A0020806C7047816470474C23C05C7047C046002803D0806B4342C9
:203460005841704772B6FEE7002805D0826BC06B801A43425841704772B6FEE7164B1A687B
:20348000002A15D09A68002A18D01A69002A17D09A69002A16D01A6A002A15D09A6A002AA1
:2034A00014D01A6B002A13D09A6B002A12D070470022D20099509B185860F8E70122F8E7A5
:2034C0000222F6E70322F4E70422F2E70522F0E70622EEE70732ECE7902A0020164A0300A8
:2034E0005168884216D0D168884217D05169884216D0D169884215D0516A884214D0D16A82
:20350000884213D0516B884212D0D16B0020994210D070470023DB00D058FAE70123FAE7BC
:203520000223F8E70323F6E70423F4E70523F2E70623F0E70723EEE7902A0020174B5A6884
:20354000904215D0DA6890421AD05A69904219D0DA69904218D05A6A904217D0DA6A9042A8
:2035600016D05A6B904215D0DA6B824214D07047002200200021D2009B1818605960F6E74F
:203580000122F6E70222F4E70322F2E70422F0E70522EEE70622ECE70722EAE7902A002066
:2035A00070B5040016000D00FEF7EEFC4422A35C5BB2013301D10023A3544522A35C5BB2DB
:2035C000013301D10023A354FEF7EAFCA36B002B46D0FEF7D9FC4523E55C6DB2002D16DDEF
:2035E0002600243604E0013DEBB26DB2002B0ED0636A002B0BD03000FDF74EFD0028F2D038
:20360000013DFDF703FEEBB26DB2002BF0D14523FF22E254FEF7C4FCFEF7B6FC4423E55C0C
:203620006DB2002D16DD2600103604E0013DEBB26DB2002B0ED02369002B0BD03000FDF742
:203640002BFD0028F2D0013DFDF7E0FDEBB26DB2002BF0D14423FF22E254FEF7A1FC70BD24
:203660002000320029002430FDF7E0FCB1E7C046F0B5C64600B50F2A43D90B0003260343D8
:203680001E400C000300002E40D11500103D2D09AC462D01A846804400E03B00676825689D
:2036A0005F60E7681D60DF601F00A56810379D6010344345F1D165460F230C2401352D01D1
:2036C000491913404519144223D08C59AC5104369C1B032CF9D80324043B9B0801339B00E3
:2036E0002240ED18C918561E002A07D0002300E02300CA5C5C1CEA549E42F9D104BC9046CB
:20370000F0BD0500561E002AF0D1F7E7561E0500ECE71A00F6E7C046F0B5050083074AD023
:20372000541E002A44D0CEB20300032202E00135013C3DD301332E701342F8D1032C2FD9A5
:20374000FF220A40150215432A0415430F2C35D92700103F3F093E01B4461E001A0010364B
:203760006644156055609560D5601032B242F8D10F260C2201373F012640DB19370022427C
:2037800017D03E1FB608B400A4461A001C1D644420C2A242FCD103240136B6009B193C40B7
:2037A000002C05D0C9B21C19197001339C42FBD1F0BD3400F4E714000300BFE72700E0E78A
:2037C0000CB400B59DB00291069109491EAB07910491084904CB059102A9019300F076F961
:2037E0000023029A13701DB008BC02B01847C046FFFFFF7F0802FFFF0EB400B50B499CB044
:20380000079104910A491DAB05910A4904CB02900690086802A9019300F058F90023029AD1
:2038200013701CB008BC03B01847C046FFFFFF7F0802FFFFC40000200B00034330B50400BB
:203840009B0710D10B680C4A0C4D9A189A432A4209D104312360084A0B6804309A189A43AE
:2038600004002A42F5D003000A7818001A7001310133002AF8D130BDFFFEFEFE80808080AD
:2038800010B5830727D00378002B26D00300032102E01A78002A1CD001330B42F9D11968C9
:2038A0000F4A104C8A188A4322420FD1043319680B4A8A188A43224208D104331968084ADD
:2038C0008A188A432242F1D000E001331A78002AFBD1181A10BD0300E1E70020FAE7C046E7
:2038E000FFFEFEFE80808080F0B546464F46D646C0B58E6881460C0090461D0008689E426C
:2039000039D890228B89D200134211D135002A00414600F055FCA36800209E1B2368A6602B
:203920009C46654425601CBC90469946A246F0BD0969421A92466269681C5700BF18FA0F29
:20394000D7197F1050443A00B84201D9070002005B0512D51100484600F0E6FC061E1FD072
:2039600052462169FFF784FEA389124A134080221343A38106E01E00C9E7484600F03AFD4D
:20398000061E09D03000534650446761FF1A266120602E00A760BAE72169484600F06EFC9D
:2039A0000C234A46136040220120A38940421343A381B8E77FFBFFFFF0B54E464546DE462B
:2039C0005746E0B5936883B001900D009146002B6BD0176808688C6844E09022AB89D200ED
:2039E00013422ED02969421A9346686942001218D00F8218701C521058449046904201D9EB
:203A0000804602008020C000034237D01100019800F08AFC041E53D05A462969FFF728FE7F
:203A2000AB89294A134080221343AB81434620005A462C61B046340058446B619B1A2860C3
:203A4000AB604246514600F0BBFBAB681C1B2B68AC6043442B6018004B469B689E1B4B46A5
:203A60009E6022D03B687E689A460837A046002EF8D0A642B1D23400B046E2E7019800F0EB
:203A8000B9FC041ED2D1019C2969200000F0F6FB0C2323604022AB8901201343AB814A4601
:203AA000002340429360536003E000234A460020536003B03CBC90469946A246AB46F0BD6C
:203AC0000C23019A1360E5E77FFBFFFFF0B54E46DE4657464546E0B5A1B0049003911C00B6
:203AE0008B8991461B0604D50B690593002B00D119E1002308AD6B6120336B761033AB76A3
:203B00002F3B98464B461B780794924F002B00D186E0252B00D104E14E4603E0252B00D1BD
:203B20008BE026007378741C002BF7D14B46E31A9A4675D053464A4603990498FFF7D4FEAA
:203B4000431C6DD06B6953446B617378002B67D00122002352426A60443201342B60EB6020
:203B6000AB60AB54AB6506E04346C01B834034002A6813432B6021780522380000F0E0FAB5
:203B8000661C0028F0D12B68B246DA0602D543222021A9541A0702D543222B21A954217896
:203BA0002A2950D1079A111D12680791002A00DA9AE0EA606178A61C2E295CD0664B0322F4
:203BC0001800994600F0BCFA002800D171E04B46C01A402383402A68317813432B60062229
:203BE000731C5E489946297600F0AAFA00286AD05B4B002B00D170E007AB0093039A594BA4
:203C00002900049800E000BF83465B46013307D06B695B446B614B461B78002B00D078E70E
:203C2000039B9B895B0600D58CE0686921B03CBC90469946A246AB46F0BD4B46E31A9A46DD
:203C400000D185E776E70A00303AA246092AB3D8EB68180001E03400013683001B1831789A
:203C60005B0098180A00303A092AF4D9B246E860A61C2E29A2D1534659782A293AD1079B8F
:203C80001A1D079252469178D61C022294461B68E2446B60002B00DB90E701235B426B6046
:203CA0002D4B03221800994600F04AFA002800D08DE7B1465646317806222848297600F06D
:203CC0003FFA002894D107AB0093039A254B2900049800F0E1F8834697E70722079B0733F2
:203CE00093430833079393E75242EA60022213432B605FE70A000023303A6B601800092AC9
:203D000001D91CE01E0083001B1871785B0098180A00303A731C092AF4D99A460236686022
:203D20004CE74C4614E7402100F0FEFA039B18601861002809D04023039A5361D9E6B2467F
:203D400001363BE70120404270E70C23049A013813606BE750480008584800085C48000851
:203D600000000000E9380008F0B54F464646D646C0B51F00089B914698468A680B690600E0
:203D80000C00934200DA13004A4613604322A25C002A02D04A460133136023689A065AD562
:203DA0004B461B6806209A1C4B461A6023681900184208D1E16800258A1A19218A461900FC
:203DC000A244002A3FDC4323E35C5A1E93418A060AD53020E1184331087045215A1C615C8A
:203DE000A2184332023311702200390043323000C047431C19D006232068A2682169034007
:203E0000042B30D08A423ADD00239946521A91441A34002502E001354D4530DA01232200E0
:203E200039003000C047431CF5D1012040421CBC90469946A246F0BD4B46E2681B68013594
:203E4000D31AAB4220DD0123524639003000C047431CF1D1E9E706221A4212D04323E35C63
:203E60005A1E9341C0E74B46E0681B68C31AD843C017184081468A42C8DC002BC8DC0020A6
:203E8000D5E74A46126895E743232168E35C5A1E93418A069DD4A7E7F0B557469A4643234F
:203EA0009C464E464546DE468C446346E0B587B003930B7E914680460C00109A6E2B00D1BC
:203EC000D8E000D871E0732B00D11AE100D881E0752B00D1FFE0782B00D00BE10B687820A4
:203EE0004521605494498B46116840C91160180603D4580601D53604360CDA0702D5202268
:203F0000134323601027002E00D1C2E043230022E2546368A360002B00DAC5E0042221680B
:203F200091432160002E00D083E0002B00D0BDE0039D082F00D18CE0039B5B1B23615346EE
:203F400005AA009321004B464046FFF70DFF431C22D023692A0049464046D047431C1BD068
:203F600022680598E368920700D47FE01A1A002A00DC7BE026000025193606E0E368059806
:203F800001351A1AAA4200DC70E00123320049464046D047431CF1D10120404207B03CBCAA
:203FA00090469946A246AB46F0BD632B00D184E01FD8002B69D0582B00D09BE045216354BD
:203FC0005E4923688B46116840C91160180600D48FE792E76F2B7ED0702B00D08AE020230A
:203FE000096878200B4345212360605452498B467AE7642B01D0692B7CD111682368081D96
:2040000010601D064AD50A681600002A03DB4B4B0A279B467DE743222D21A1546268764228
:20402000A260002A02DB042293432360434B0A279B46039D00E006003900300000F024FB5A
:204040005B465B5C013D2B70BE42F4D2082F00D072E72368DB0700D46EE763682269934248
:2040600000DD69E73023013D2B7065E7984295DA180093E7136809681D1D606915601B68D9
:204080000E0601D449064BD418600023039D236155E7202322689A43226037E75D06B2D59A
:2040A00000228E5E3200B0E7002EC2D15B4625001A7842234235E2543BE713682500191D06
:2040C00011601A684223E254413B4235236143230022E25433E7116820680D1D1560060657
:2040E00001D440061ED40E686F2B1DD0134B0A279B460BE742222500A354012342352361B5
:20410000E5E71368191D11601D6862680021280000F016F800280BD0401B60602061D6E7BF
:204120001880B2E70E88DFE7044B08279B46EDE660682061CBE7C046784800086448000843
:2041400070B5CDB2830734D0531E002A1BD00278AA4219D0032404E0013B14D30278AA42C4
:2041600012D001302042F7D1032B0ED8002B0AD00278AA4208D0C31802E00278AA4203D0B5
:2041800001308342F9D1002070BDFF220C06240C114021430C04084E0C43026807496240E9
:2041A000511891433142E3D1043B0430032BF4D8DCE71300D8E7C04680808080FFFEFEFE9A
:2041C000F0B5C64600B588420CD98B18984209D2531E002A03D0CA5CC254013BFBD204BCFF
:2041E0009046F0BD0F2A0CD80500561E002AF6D0002300E02300CA5C5C1CEA549E42F9D10A
:20420000EDE70B00032603431E400C000300002E2ED11500103D2D09AC462D01A84680444C
:2042200000E02B001D00276810351F6067685F60A7689F60E7681034DF604345F1D16546A0
:204240000F230C2401352D01491913404519144211D08C59AC5104369C1B032CF9D8032454
:20426000043B9B0801339B00ED18C9182240BCE7561E0500BCE71A00B7E7C04670B505009E
:20428000002915D00C1F2368002B27DB280000F0EBF8244B1A68002A05D0A2420CD92168F0
:2042A0006018824224D0626028001C6000F0DEF870BDA34203D81A005368002BF9D1116872
:2042C0005018A0421BD027D821686018834207D063605460280000F0C9F8E9E7E418D5E735
:2042E00018685B6884466144216063605460F1E7106852688446614421606260D4E7206815
:204300000918501811608342E4D118685B688446614411605360DDE70C2328002B6000F0BD
:20432000A5F8C5E7D02A0020F8B50323CD1C9D43083506000C2D2AD20C25A94229D83000B9
:2043400000F092F82A4F3A68002A0AD013685B1B04D441E023685B1B1FD522005468002CDB
:20436000F8D17B68002B3DD02900300000F06AF8431C2AD00323C41C9C43A04205D0211A7E
:20438000300000F05FF8431C1FD0256010E0002DD3DA0C2300203360F8BD0B2B05D8636894
:2043A000A2421DD0536003E014002360E4182560300000F05BF8200007220B30231D904374
:2043C000C21AE9D01B1AA350E6E70C233000336000F04CF80020DFE70B2BE5D81400536885
:2043E0003B60E5E70021300000F02CF87860BBE7D02A0020F8B507000C00150000291BD074
:20440000002A15D000F034F82600A84201D33000F8BD29003800FFF787FF061EF7D02100BF
:204420002A00FFF725F921003800FFF727FFEEE7FFF724FF0026EAE71100FFF775FF060063
:20444000E5E7C046002370B5064C05000800236000F020F9431C00D070BD2368002BFBD07A
:204460002B60F9E7DC2A00207047C0467047C0460B1F1B68181F002B00DB70470B58C01855
:20448000FBE7C04670B50C0009680500002901D0FFF7F8FF28002100FFF7F0FE70BDC04646
:2044A000354B70B51B68050083425CD0426A002A5AD0D368002B13D000269959002907D07D
:2044C0000C682800FFF7DAFE211EF9D16B6ADB680436802EF1D119002800FFF7CFFE6A6ACF
:2044E0001168002944D02800FFF7C8FE6969002902D02800FFF7C2FE6A6A002A03D0110095
:204500002800FFF7BBFEA96B002902D02800FFF7B5FEE96B002902D02800FFF7AFFE296C35
:20452000002902D02800FFF7A9FEE96D002902D02800FFF7A3FEA96D002902D02800FFF77C
:204540009DFE696B002902D02800FFF797FEAB69002B08D02800AB6A9847A96C002902D0FB
:204560002800FFF78FFF70BD41690029C1D1CAE769690029BDD1C2E7C400002000224308C9
:204580008B4274D303098B425FD3030A8B4244D3030B8B4228D3030C8B420DD3FF2209024D
:2045A00012BA030C8B4202D31212090265D0030B8B4219D300E0090AC30B8B4201D3CB0323
:2045C000C01A5241830B8B4201D38B03C01A5241430B8B4201D34B03C01A5241030B8B42BF
:2045E00001D30B03C01A5241C30A8B4201D3CB02C01A5241830A8B4201D38B02C01A52419C
:20460000430A8B4201D34B02C01A5241030A8B4201D30B02C01A5241CDD2C3098B4201D3BE
:20462000CB01C01A524183098B4201D38B01C01A524143098B4201D34B01C01A5241030969
:204640008B4201D30B01C01A5241C3088B4201D3CB00C01A524183088B4201D38B00C01A0B
:20466000524143088B4201D34B00C01A5241411A00D20146524110467047FFE701B5002033
:2046800000F006F802BDC0460029F7D076E770477047C046044A1368002B03D0181810603F
:2046A00018007047014BF9E7D82A0020E02A0020521700084C170008A61700089E17000855
:2046C0009A170008141800080E18000874180008701800086C18000858524253440000008C
:2046E000DA1A0008DA1A0008DA1A00085C1B0008361B0008661B0008DA1A0008DA1A00086D
:204700005C1B0008361B0008C8000020F0B5012483B0FBF7EDFC0320334A34499369802543
:2047200023439361324B2026D9623249324F99633249ED00D96332490B6803430B60802145
:20474000536989020B4353619023DB051868384005431D609D88B5439D80C02598682D0173
:2047600005439D60D86880253840D860D0696D000843D06150690143516130211A688A43EE
:2047800032431A601A6A1F4900260A40C0212A431A621A688A4340390A431A601A6A1A498E
:2047A0001140802252010A431A62A2220C21174BFF329A811A6816480A431A601A681549C4
:2047C00022431A6000232A0001960094FBF7ECFC00232A001049114801960094FBF7E4FCAC
:2047E000FBF75CFFFEE7C04600100240551F000800000020CD1F0008FFF3FFFF1520000872
:2048000000000140FFF0FFFFFF0FFFFF00440040A9000008204800082848000885000008B4
:20482000626C696E6B00000075707065720000000925630925750925750925750D0A0000AB
:20484000546D725100000000546D722053766300232D302B20000000686C4C0065666745F3
:2048600046470000303132333435363738394142434445460000000030313233343536376D
:20488000383961626364656600AAAAAAAAC8000020000000000000000000000000000000C2
:2048A0000000000000000000000000000000000000000000000000000000000000000000F8
:2048C0000000000000000000000000000000000000000000000000000000000000000000D8
:1148E0000000000000000000000000000000000000C7
:0400000508000000EF
:00000001FF
