:020000040800F2
:200000000018002049000008410000084500000800000000000000000000000000000000C1
:200020000000000000000000000000000000000000000000000000000000000000000000C0
:20004000FEE7C046FEE7C04609480A4A10B5904203D00949121A03F009FD0848084A9042D0
:2000600003D00021121A03F055FD05F087FAFEE7C000002028010020C55800082801002029
:20008000B8110020F0B5C6460023802500B51F4C82B00193E3691D421CD1E3699B0603D4BC
:2000A00002B004BC9046F0BD01AB98466B46184FDE1C164B42469B8C3100337078680023C8
:2000C00002F010FB00281CD0019B002BE8D003F0B7F9E5E701AB98466B460D4FDE1C424608
:2000E0003100386802F0DCFF002807D12368AB432360064BDB699B06E6D5DAE73378238561
:20010000F7E7BB680133BB60DEE7C0460044004028010020F8B5CE46474605000C009146C1
:2001200080B5002A15D0884680260B4FC8440122002321003868524202F022F92B68013431
:2001400033432B604445F2D148460CBC90469946F8BD0020F9E7C04628010020F8B50E0088
:2001600015000024002A0DD0074F02E00134A54208D06242624178685242311902F040FBE1
:200180000028F3D12000F8BD2801002070B590242025054EE405F06801F016F9A38A6B40CB
:2001A0009BB2A382F7E7C046280100206B4BF0B5DE469B464023574646469A46C0B5684EA9
:2001C00094B0674F04AC5B460021186902F074FC012800D0BEE000239846624D43466A4650
:2001E0009B080433137343469B0153735346332101935D480223009403AA04960597069656
:200200000797089609970A960B970C960D970E960F97109611971296139700F029FB2388D1
:200220005BBA9BB2EB67238C5BBA9BB2EB6363885BBA9BB2AB67638C5BBA9BB2AB63A388C2
:200240005BBA9BB26B67A38C5BBA9BB26B63E3885BBA9BB22B67E38C5BBA9BB22B632389A1
:200260005BBA9BB2EB66238D5BBA9BB2EB6263895BBA9BB2AB66638D5BBA9BB2AB62A38982
:200280005BBA9BB26B66A38D5BBA9BB26B62E3895BBA9BB22B66E38D5BBA9BB22B62238A61
:2002A0005BBA9BB2EB65238E5BBA9BB2EB61638A5BBA9BB2AB65638E5BBA9BB2AB61A38A42
:2002C0005BBA9BB26B65A38E5BBA9BB26B61E38A5BBA9BB22B65E38E5BBA9BB22B61238B21
:2002E0005BBA9BB2EB64238F5BBA9BB2EB60638B5BBA9BB2AB64638F5BBA9BB2AB60A38B02
:200300005BBA9BB26B64A38F5BBA9BB26B60E38B5BBA9BB22B64E38F5BBA9BB22B60434606
:2003200001339BB29846803D062B00D056E75846002300210022006902F022F8FA20400090
:2003400001F042F85B460021186902F0B5FB012800D140E7322001F037F834E72801002096
:20036000BEEFBEEFC403002000540040F0B54E4645465746DE46E0B5744B8DB01A6804AE5E
:2003800004921B7934003371714B724D99468023984605AF012248460023210052420068DB
:2003A00001F0EEFF42462B68013413432B60BC42F0D1694B9B464B460021186902F07CFB3E
:2003C000012800D0BDE034008027644B614D336001224846002321005242006801F0D0FF0B
:2003E0002B6802AA3B4394462B600B23013463449C42EDD133005A4A802713CA13C313CA27
:2004000013C334001288534D1A8001224846002321005242006801F0B3FF2B6802AA3B43AD
:2004200094462B602123013463449C42EDD14D4B40330293029D403D2B681AB27C2A00DDFD
:200440007C23494A1BB2934200DA1300C02292009A185211454B920099184B784348897830
:20046000825C00913000594603F05EFD394B3400984680239A463718012248460023210093
:200480005242006801F07CFF434652461B680134134342461360BC42EED1029B0435AB424A
:2004A000CAD134008027324B2A4D1B68039333602F4B9B88B38001224846002321005242CD
:2004C000006801F05DFF2B6802AA3B4394462B600D23013463449C42EDD1029B254A40331E
:2004E00002939A42A6D134008027234B194D1B883380214B9B78B370012248460023210078
:200500005242006801F03CFF2B6802AA3B4394462B600A23013463449C42EDD1484600233B
:2005200000210022006901F02BFFFA20400000F04BFF4B460021186902F0BEFA012800D189
:2005400041E7322000F040FF35E7C0460858000828010020004400402C5800081B5B480051
:20056000105800084401002000FDFFFF68540008405800088404002048580008024A5369EF
:20058000013353617047C04628010020FEE7C046FEE7C046044A936901339361BFF34F8F95
:2005A00030BFBFF36F8F70472801002030B5002A0BD080248D18C3691C42FCD00B7801315E
:2005C0000385A942F7D1100030BD0020FCE7C0467C2800DD7C20064B02B29A4200DA181CCE
:2005E000C0239B009C4600B2604440118000704700FDFFFF10B500F0E7FE10BDA022174B37
:20060000D20219680A4380211A6089021A680A42FCD05A6812491140802252030A435A608C
:200620005A6810491140802252020A435A608022196852040A4380211A60084A8904136816
:200640000B42FCD0012008490B6803430B60032153688B4301390B435360704700100240FA
:20066000FFFFC3FFFF7FFEFF00200240014B03617047C04603011050FF2349000B408021B5
:200680000902194381607047FF2249000A4080214902114310B54160012104680268030006
:2006A0000A43026080220C40416892010A43174942609A690A42FCD001209A6999691209B6
:2006C000904320220A4202D0D9690A43DA61102299690A4202D0D9690A43DA61802299695D
:2006E0009200114202D0D9690A43DA61802299695200114202D0D9690A43DA61002C03D194
:2007000001211A688A431A6010BDC04632030000F0B55F1E0400FE2F3ED880250C262D0277
:2007200002E0A069064202D1A0692842F9D10C25A069054230D1FF204900014018040143EB
:200740008020800401430120616025682168054001432160802160688901014343486160AC
:20076000A1690142FCD0CC26A169B600314215D10120D719012B00D175E03C4913780132AF
:20078000A362A3690B42FCD0A369334230D1431C974257D01800F1E70020F0BD2022A36943
:2007A000A1690A4202D0E1690A43E2611022A1690A4202D0E1690A43E2618022A1699200C5
:2007C000114202D0E1690A43E2618022A1695200114202D0E1690A43E261002D03D10121FA
:2007E00022688A43226001205B0A98434042D4E72023A269A1690B4202D0E1690B43E3612F
:200800001023A1690B4202D0E1690B43E3618023A1699B00194202D0E1690B43E3618023AC
:20082000A1695B00194202D0E1690B43E361002D03D1012123688B4323609305ADD4012011
:200840004042AAE7023020223B78A362A3691A42FCD0E3691A43E261002D9ED101222368EF
:200860009343236099E717000220ECE73203000070B50E00202104008069014202D0E0699F
:200880000143E161FF2B63DC002B00DCA6E021685448760001400120216021680143FE3063
:2008A00021603040190401438020800101434E486160A1690142FCD0CC20A1698000014258
:2008C00068D15D1E5519012B00D189E0464913780132A362A3690B42FCD0A369034239D1BE
:2008E0009542F4D140222B78A362A3691A42FCD001213E4B1A688A431A60220024329A6038
:20090000049ADA60059A5A601968394A0A431A602268384B80211343FF222360059B12047D
:200920001B041340FF2216401E43334B334A1E436660890013680B42FCD051602022A3692F
:200940001A42FCD00122002023689343236070BD0120FCE72023A269134202D0E269134301
:20096000E3611023A269134202D0E2691343E3618023A2699B001A4202D0E2691343E3618D
:200980008023A2695B0004201A42E0D0E2691343E361DCE72022A3691A4202D0E369134358
:2009A000E3611022A3691A4202D0E3691343E3618023A2699B001A4202D0E2691343E36145
:2009C0008023A2695B001A4202D0E2691343E36101222368032093432360B8E70220B6E773
:2009E00015007FE7FF7FFFFF3203000030000240011000000180000000240002000002405F
:200A000070B5114C14E002F027FD2369DD68281D02F016FFA369013BA3612368013B236097
:200A200002F026FD286B02F04FFE280002F04CFE2368002BE7D1E369012B01D902F000FDBC
:200A4000FFF7A8FDF4E7C04644040020F8B54E464546DE465746E0B59600804630000D00F7
:200A6000994602F08DFD071E00D195E0542002F087FD041E00D1A1E007633200A5213800B8
:200A800003F048F8236B9A46002D00D1CFE034232A78E2542B78002B26D035236A78E254A5
:200AA0006B78002B20D03623AA78E254AB78002B1AD03723EA78E254EB78002B14D0382390
:200AC0002A79E2542B79002B0ED039236A79E2546B79002B08D03A23AA79E254AB79002B2F
:200AE00002D03B23EA79E2543B230022E2540A9D042D5AD80023271DA3643800E5626564B7
:200B00009B4602F075FE2000183002F071FE0523043E5D1B5B465A4656443000E36450330F
:200B20002461A5616462E254493B98434A46414602F068FC0B9B2060002B00D01C6002F0D3
:200B40008BFC3C4E3C4DB3690133B3612B68002B3AD0EB6D002B2AD0E26A2B6E01332B66A8
:200B6000E3636B6E934200D26A6630009600B618B6001C308019390002F03EFE02F078FCE3
:200B8000EB6D0126002B09D02B68DA6AE36A9A4204D202F055FC01E00126764230003CBCD1
:200BA00090469946A246AB46F8BD0425A2E72B68E26ADB6A9342D0D82C60CEE701263800FF
:200BC00002F082FD7642E9E72C60B369012BC3D130001C3002F000FE3000303002F0FCFDCD
:200BE0003000443002F0F8FD3000583002F0F4FD30006C3002F0F0FD2B1D1800994602F0F3
:200C0000EBFD18239846A844404602F0E5FD28002C3002F0E1FD301D02F0DEFD2800403087
:200C200002F0DAFD4B466B654346AB6594E73423E5545CE744040020C4040020F8B50500A1
:200C400002F00AFC224C002D38D02F1D380002F0F7FDAB6A002B03D02800183002F0F0FD2D
:200C6000236E013323662368AB421ED0194A286B9369013B936102F027FD280002F024FD4D
:200C8000636D1B68002B0DD0636DDB68DB685B68A36602F0EDFBE36D002B02D02368AB4238
:200CA0000ED0F8BD013BA366F3E70A4E3900301D02F0A2FD336801333360EAE72568C4E7A8
:200CC000E36E002B01D072B6FEE702F0B9FBE8E7C404002044040020F0B5C646050000B58A
:200CE000002820D0184E00203368AB4218D002F0B3FB736D6C699846B76D02F0B9FB444560
:200D00001ED0BC421CD04036B4420ED00F4B04339C4217D063425C410320644220400130BF
:200D200004BC9046F0BD72B6FEE7AB6A0220002BF6D15033E85C0138431E98410230EFE7F8
:200D40000220EDE70420EBE7C40400204404002010B5040002F080FB002C04D0E46A02F0E1
:200D600087FB200010BD014B1C68F7E7C404002010B5040002F08AFB002C04D0E46A02F0EE
:200D800089FB200010BD014B1C68F7E7C4040020F0B5C64604000D0000B5042901D972B6A6
:200DA000FEE702F059FB002C26D0626C95421ED0224F24D83E68361B73425E41E16A8A4284
:200DC00000D1E562A3696564002B02DB05235D1BA5611B4D8B002A005B181C329B00D31814
:200DE00062699A4214D0002E01D002F029FB02F03FFB04BC9046F0BD104B1C68D5E73B68A6
:200E0000A34218D000263B68DB6A9D427641D5E7231D1800984602F013FDE36A7A6E934263
:200E200000D97B669800C0181C3580004146281802F0E2FCD7E70026C0E7C046C4040020A7
:200E40004404002070B5041E0DD0184D2B68834208D002F001FB2B00626940339A4204D06A
:200E600002F006FB70BD72B6FEE72A00A36A2C329342F5D0002BF3D1261D300002F0E0FCE6
:200E8000E26A6B6E9A4200D96A66930008489B189B001C30C018310002F0AEFC2B68E26AA7
:200EA000DB6A9A42DCD302F0CBFAD9E7C404002044040020F0B5C646040000B5002810D029
:200EC00002F0E4FA1C4D62692B004033070000269A4208D0380002F0DDFA300004BC9046C8
:200EE000F0BD72B6FEE72800A36A2C308342F1D0002BEFD1EB6E002B18D12B68E26ADB6AA5
:200F00009A427641231D1800984602F099FCE26A6B6E9A4200D96A66930008489B189B00A6
:200F20001C304146C01802F067FCD3E72100183102F062FCCEE7C046C40400204404002032
:200F4000F8B58020CE464746400080B502F018FB051E68D0542002F013FB041E60D0802266
:200F6000A52152000563280002F0D4FD4D4B002563633823266B271DE5540333E554380073
:200F8000E5626564A56402F033FC2000183002F02FFC05233000A3614B33E5642461646224
:200FA000FC30E554493B984300223F4902F02AFA3E4D20602C6702F04FFA3D4EB3690133F9
:200FC000B3612B68002B37D0EB6D002B2DD0E36A2A6E01322A66E2636A6E9A4200D26B6674
:200FE0009800C0181C3680003900301802F004FC02F03EFAEB6D002B04D02B68DA6AE36A97
:201000009A424CD372B601235B42AB660233EB6500236B6702F08CFA0CBC90469946F8BDB7
:20102000280002F051FB72B6FEE72A68E36AD26A9A42CDD82C60CBE72C60B369012BC6D1F8
:2010400030001C3002F0C8FB3000303002F0C4FB3000443002F0C0FB3000583002F0BCFB6C
:2010600030006C3002F0B8FB2B1D1800994602F0B3FB18239846A844404602F0ADFB2800D3
:201080002C3002F0A9FB301D02F0A6FB2800403002F0A2FB4B466B654346AB6597E702F0ED
:2010A000CFF9AFE749444C45010A0008C40400204404002010B572B60022024BDA6502F0C4
:2010C000B3F910BDC4040020024AD36E0133D3667047C046C4040020014B586F7047C04640
:2010E000C4040020014B586F7047C046C4040020014B98697047C04644040020002801D0E5
:2011000034307047024B18680028F9D172B6FEE7C4040020F0B5D6464F464646434CC0B51A
:20112000E36E002B6BD1676F01376767002F10D1636D1B68002B69D1636DA26D6265A365A5
:20114000A36F0133A367636D1B68002B60D1013BA366A36E9F4238D3636D00251B68344E54
:20116000002B5BD01C239A46B24425E0042343441800994602F064FB43469B6A002B03D07D
:201180004046183002F05CFB4346626EDB6A934200D963669800C01880004946504402F01E
:2011A0002BFB42462368D26ADB6A9A4200D30125636D1B68002B31D0636DDB68DB689846ED
:2011C0005B689F42D2D2A36601E00025184E2368DA6A93009B189B00F618F369012B00D933
:2011E0000125E36F002B1DD0124B1B68002B00D0012528001CBC90469946A246F0BDE36FC2
:2012000000250133E367FFF7B9F9F2E772B6FEE7636DDB68DB685B68A3669AE701235B4239
:20122000A366D4E7FFF7AAF9DEE7C046C40400204404002044050020F8B5CE46474680B54A
:2012400002F00AF9334CE36E013BE366E36E002B4BD1314FBB69002B47D0E36A002B56D028
:201260002E4B1C37984601239946A36BDD6828002E1D183002F0E4FA300002F0E1FAEB6A91
:20128000626E934200D963669800C01880003100381802F0B1FA2368EA6ADB6A9A422CD3FA
:2012A00043464A461A60E36A002BDED1636D1B68002B29D0636DDB68DB685B68A366E56F87
:2012C000002D0AD00126FFF725FF002801D043461E60013D002DF6D1E56743461B68002B11
:2012E00003D002F0ADF8012400E0002402F0C0F820000CBC90469946F8BDE36A002BB4D162
:20130000636D1B68002BD5D1013BA366D7E7034B9846D4E7C4040020440400204405002006
:20132000044B10B5DB6E002B01D172B6FEE7FFF783FF10BDC4040020F8B5002817D0002934
:2013400001D172B6FEE71F4EF36E002B11D1F36E0133F3660268756F54180460AA420FD9F3
:20136000A2420FD8F36E002B05D172B6FEE772B6FEE772B6FEE7FFF75FFF002819D0F8BDFF
:20138000A24201D8A542EDD2776F30687D1B043002F056FA336864195C60A7420CD8706DE0
:2013A0003168043102F034FAB36E9C42DAD2B466D8E702F045F8E2E7B06D3168043102F0E6
:2013C00027FACFE7C404002070B5051E09D0174CE36E002B08D072B6FEE7FFF72DFF00281F
:2013E00001D102F02DF870BDE36E0133E366666F2068AD19043002F023FA23685D60AE426B
:2014000009D9A06D2168043102F002FAE36E002BE3D172B6FEE7606D2168043102F0F8F986
:20142000A36E9D42F2D2A566F0E7C046C40400200A4B10B5DA6E002A01D072B6FEE7DA6E76
:201440000132DA66DA6F1218DA67DB6E002B01D172B6FEE7FFF7F0FE10BDC046C404002073
:20146000F0B54E4691460822DE46574645469346E0B54B688B445B6804000F0083B05B454D
:201480006CD0DA685B68019200229046344A7B6092469B452FD0DE68351E32D02B00343343
:2014A0006360EB6A296B2361EB6B2560A3606B6CE16163610023A36153461B68AB4223D01E
:2014C0004B462373032B35D00B78A52B21D100230133CA5CA52AFBD09B089BB2238401239B
:2014E0009C46019BE0442434B3421BD07B685B687B609B45CFD15B465B68DE687B60351E39
:20150000CCD153461D68C9E7002323730B78A52BDDD00023238401239C46019BE0442434BF
:20152000B342E3D1404603B03CBC90469946A246AB46F0BD53465246DB6E0133D366AB6A9A
:20154000002B01D0022323735346DB6E002B01D172B6FEE7FFF770FE296BB5E7CB6890E7AA
:20156000C4040020F0B54F464646D646384DC0B5EB6E060001339146EB66364F0024BB691F
:201580008B4257D86C239A46673B98460022BA4401235B429C46E04443469B0043449B0033
:2015A000FB181019DB6980003018002B08D001225146FFF755FF2418E200101980003018CD
:2015C00014235B429C464346E244002BE0D1696D0B68002B07D00222FFF742FF2418E00008
:2015E000001980003018A96D0B68002B07D00222FFF736FF2418E0000019800030187B6850
:20160000002B08D00422391DFFF72AFF2418E0000019800030182B6C002B05D0290003224A
:201620004031FFF71DFF24184B46002B02D000234A461360EB6E002B01D172B6FEE7FFF7DE
:20164000FBFD20001CBC90469946A246F0BDC046C40400204404002070B5374CE36E002BD6
:2016600003D00122354B1A6070BD344A3449136023681B6B1A688A4202D15968914251D0F8
:20168000206821683431FEF783FF626E2D499300981880000818C069002835D1002A2FD0B4
:2016A000531E9800C01880000818C069002829D1002B25D0931E9800C01880000818C06954
:2016C00000281FD1002B1BD0D31E9800C01880000818C069002815D1002B11D0131F9800CE
:2016E000C01880000818C06900280BD1002B07D0531F9A00D21892008A18D269002A01D1E2
:2017000072B6FEE71A009B009B189B00CD182900286A24314068286288420AD0C368236040
:201720006266A1E79A688A42AAD1DB689342A7D1ABE740682862F1E7C40400204405002093
:20174000A5A5A5A54404002070B5050001F084FE244C002D1ED02E1D300002F071F8AB6A7A
:20176000002B03D02800183002F06AF820003100403002F041F85023EA5C012A01D10022E3
:20178000EA5401F075FEE36D002B0DD12368AB4202D070BD2568DEE7E36D002B15D0E36ED4
:2017A000002B1CD072B6FEE701F056FE636D1B68002B07D0636DDB68DB685B68A36601F058
:2017C00057FEE3E7013BA366F9E7074A216C9269914201D12360DCE7FFF73EFFD9E701F01D
:2017E0002FFED6E7C40400204404002070B50D00002816D0144C2168183102F009F8666F75
:201800002068043002F01CF86B1C0CD02368AD195D60AE420ED9A06D2168043101F0F8FF0B
:2018200070BD72B6FEE7200021684030043101F0E3FFF5E7606D2168043101F0E9FFA36EFC
:201840009D42EDD2A566EBE7C404002070B51500002805D0194CE36E002B03D172B6FEE72C
:2018600072B6FEE780231B060B43226821689361183101F0C1FF666F2068043001F0E0FFE7
:201880006B1C0AD02368AD195D60AE420CD9A06D2168043101F0BCFF05E02000216840308F
:2018A000043101F0A9FF70BD606D2168043101F0AFFFA36E9D42F6D2A566F4E7C40400207D
:2018C000C36870B5DC68002C2BD026001836300001F0B6FF144DEB6E002B0FD028003100E6
:2018E0002C3001F089FF2B68E26ADB6A00209A4203D901220D4B01301A6070BD261D300051
:2019000001F09EFFE26A6B6E9A4200D96A66930007489B189B001C303100C01801F06CFFAE
:20192000E1E772B6FEE7C046C4040020440500204404002070B5164DEB6E002B01D172B60D
:20194000FEE78023C4681B060B430360002C1CD0261D01F075FF300001F072FFE26A6B6E8A
:201960009A4200D96A6693000A489B189B001C30C018310001F040FF2B68E26ADB6A9A422A
:2019800002D90122044B1A6070BD72B6FEE7C046C4040020440400204405002010B5041EA0
:2019A00009D001F059FD054B9A6F5B6F2260636001F05EFD10BD72B6FEE7C046C40400208B
:2019C000024B9A6F5B6F026043607047C4040020F8B504000D00002821D000291DD001F065
:2019E0003BFD134A2B68506F591C1AD0966F27686168B74202D0012681420AD9461AB34257
:201A000011D900261B1A5B182B60936F2360536F636001F02DFD3000F8BD72B6FEE772B644
:201A2000FEE70026F5E7002301262B60F1E7C046C40400200122014B1A607047440500201B
:201A4000002801D0006C70470020FCE7002800D001647047F0B54F464646D6460400C0B5F8
:201A60000D0016003E4F00282ED0220034326A60E26A2C602A61226BEA61E26BAA60626CDE
:201A80006A610022AA61052B2DD03968A14217D02B73032B1AD0002E0CD0226B1378A52B0E
:201AA0004BD100230133D15CA529FBD09B089BB22B8400E02E841CBC90469946A246F0BD9A
:201AC0002A73002EF6D0E8E73C68CEE7FB6E0133FB66A36A002B01D002232B73FB6E002BEF
:201AE00025D172B6FEE73A680023A2421BD001F0B3FC636998467B6D9A46BB6D994601F045
:201B0000B7FCD04516D0C84514D04037B84517D0144B043398451FD043465A4253415A4214
:201B20000323134001332B73002EC3D0B5E7FFF783FBB0E702232B73F6E700232B84BAE7DF
:201B4000A26A0223002AEED14E33E35C013B5A1E934102332B73E7E704232B73E4E7C046EC
:201B6000C404002044040020014B18687047C046C4040020F8B5041E23D01E4DC26A2B68B8
:201B8000DB6A9A4216D28369002B04DB2B68D96A05235B1A8361184E930031009B181C31C5
:201BA0009B006269CB189A420DD02B680120DB6AE36205E02B68406CDB6A9842804140425F
:201BC000F8BD0020FCE7271D380001F039FE2B686A6EDB6AE362934200D96B6630009E0067
:201BE000F6181C30B6008019390001F005FE0120E6E7C046C40400204404002070B500287E
:201C000010D0164E3468844201D072B6FEE7A36C002B09D0E26A616C013BA3648A4201D034
:201C2000002B03D0002070BD72B6FEE7251D280001F006FE0522636CD21AA261726EE362E3
:201C4000934200D9736606489A00D3189B001C30C018290001F0D0FD0120E4E7C4040020B0
:201C600044040020F8B5041E33D0836C002B01D172B6FEE7426C8A4200D20A00E16A9142BD
:201C800027D0012B25D1144F3B68A34222D0A369E262002B02DB05239A1AA2610F4D8B0030
:201CA0002A005B181C329B00D31862699A4210D1261D300001F0C4FDE36A7A6E934200D923
:201CC0007B669800C0181C3580003100281801F093FDF8BD72B6FEE7C404002044040020DE
:201CE000F0B50023DE464E4645465746E0B50370274B04009D699B6983B0D800C018800051
:201D000001F03EFC814600283AD000222900FFF729FC002831D04B461D1DC30018181D4BEA
:201D200080009A46002380469B46A8442B7A0027042B01D8184AD75C2000296802F014F974
:201D40000600031B062B07D8221A2021073201F0E1FE5B46E61DE3716A68EB680192AA8BE4
:201D60005146009230003A0002F0DEF8300002F01FF924353418A845D8D1484601F0A4FC74
:201D800003B03CBC90469946A246AB46F0BDC046440400207C58000810550008044B1A68D5
:201DA000196890691A680523C96A5B1A93617047C4040020044B1A68002A03D019688A6C7F
:201DC00001328A6418687047C4040020F8B506000D0001F041FB244C2368DB6C002B05D193
:201DE000012122685033D154002D17D101F040FB01F032FB2368DD6C002D04D02368002EA2
:201E000009D00022DA64502300212268D15401F02FFB2800F8BD6A1EDA64F4E7676F20684F
:201E2000043001F00DFD6B1C0CD02368ED195D60AF420ED9A06D2168043101F0E9FC01F058
:201E4000FFFAD3E7200021684030043101F0D4FCF5E7606D2168043101F0DAFCA36E9D42A2
:201E6000EDD2A566EBE7C046C4040020F0B5C64600B515001E000700884601F0EDFA50231F
:201E8000284C2268D25C022A08D02168CA6CBA43CA6401212268D154002E1ED101F0E8FA67
:201EA00001F0DAFA002D02D02368DB6C2B60502322680025D35C022B05D141462268013566
:201EC000D36C8B43D364502300212268D15401F0CFFA280004BC9046F0BD676F20680430C4
:201EE00001F0AEFC731C0CD02368F6195E60B7420ED9A06D2168043101F08AFC01F0A0FAD7
:201F0000CCE7200021684030043101F075FCF5E7606D2168043101F07BFCA36E9E42EDD2DF
:201F2000A666EBE7C4040020F8B504000E0015001F00002810D001F08FFA002F01D0E36C17
:201F40003B6050220221A35CA154DBB2042D27D8204AAD005259974672B6FEE7E26C16434D
:201F6000E664012B04D0012401F082FA2000F8BD261D300001F064FC174DE26A6B6E9A4287
:201F800000D96A66154893009B189B001C30C018310001F031FCA36A002B10D072B6FEE7C2
:201FA000E26C0132DDD072B6FEE7022B0FD0E664012BD8D1DCE7E26C0132E264D1E72B68E6
:201FC000E26ADB6A9A42CED901F03AFACBE70024CAE7C046E8540008C404002044040020A7
:201FE000F0B5CE4604000E001500994600B5002813D001F04BFA4B460700002B02D04A4607
:20200000E36C136050220221A35CA154DBB2042D2FD8294AAD005259974672B6FEE7E16CAE
:202020003143E164012B1CD1A36A002B01D072B6FEE7224DEB6E002B2AD0280021002C3026
:20204000183101F0D9FB2B68E26ADB6A9A4208D9069B002B02D01A00012313600122184BBC
:202060001A600124380001F015FA200004BC9146F0BDE26C0132D5D072B6FEE7022B05D0F0
:20208000E664CFE7E26C0132E264CBE70024E9E7261D300001F0D4FBE26A6B6E9A4200D9C6
:2020A0006A66930007489B189B001C303100C01801F0A2FBC7E7C046FC540008C404002049
:2020C0004405002044040020F0B5C64604000E0000B5002839D001F0D9F950230221E25CEF
:2020E000E154E36C07000133E364012A27D1A36A002B01D072B6FEE7184DEB6E002B26D1C1
:20210000231D1800984601F09BFBE26A6B6E9A4200D96A66124893009B189B001C3041464A
:20212000C01801F069FB2B68E26ADB6A9A4206D9002E01D00123336001220A4B1A603800B3
:2021400001F0A8F904BC9046F0BD72B6FEE7280021002C30183101F04FFBE4E7C4040020C1
:20216000440400204405002070B5041E0CD001F073F95023E25C0025022A01D1E5540135CB
:2021800001F076F9280070BD014B1C68EFE7C046C404002070B504000D00084E00280AD068
:2021A00001F05AF93368DE6CE36CAB43E36401F05FF9300070BD3468F2E7C046C404002069
:2021C00070B51600026C0400856B002A06D10668002E2AD001350020A56370BD002E0FD132
:2021E000406801F043FC226C63689446A268634463609342EED32368002063600135EBE754
:20220000C06801F033FCE168236C5A42CB1A2168E3608B4203D2A3689C466244E260022EAA
:20222000D8D1002DD7D10135D5E78068FFF7E6FC0135A660D0E7C04670B504000D00002817
:202240001BD001F009F9216CE36B22684B43D0185B1AD318A0606260E3604422FF230020B8
:20226000A063A3540132A354002D11D12369002B05D101F0FDF8012070BD72B6FEE720003D
:202280001030FFF71DFB0028F3D001F0D9F8F0E72000103001F0A0FA2000243001F09CFA86
:2022A000E7E7C046F8B506000D001700002801D172B6FEE708007043503001F061F9041EC4
:2022C00024D00300002D23D12360E663256401F0C3F8226CE36B21685343C818A0600020EA
:2022E0009B1ACB18E3604422FF23A06320006160A3540132A354103001F06EFA2000243069
:2023000001F06AFA01F0B4F84C23E7542000F8BD5033D9E770B505000E00002801D172B6AF
:20232000FEE7884201D272B6FEE7502001F028F9041E23D0C56300250060056401F08CF8EC
:20234000216CE36B22684B43D0185B1AD3186260E3604422FF23A0602000A563A354013263
:20236000A354103001F038FA2000243001F034FA01F07EF84C230222E254A663200070BDEA
:20238000F0B5D64646464F46C0B584B0041E88469A46019200D105E1002900D19EE0534687
:2023A0000025022B00D19FE0260001F055F8A36BE26B243693427CD35346022B79D0019B93
:2023C000002B00D1F0E0002D00D1E7E001F050F8FEF77AFE01F040F84422A35C5BB20133F7
:2023E00001D10023A3544522A35C5BB2013301D10023A35401F03CF801A902A8FFF7E8FA0D
:20240000002800D0DCE001F027F8A36BE26B934200D16FE001F02CF801F01EF84523E55CE3
:202420006DB2002D05DC13E0013DEBB26DB2002B0ED0636A002B0BD03000FFF741FA00281D
:20244000F2D0013DFFF7F6FAEBB26DB2002BF0D14523FF22E25401F00BF800F0FDFF4423E8
:20246000E55C6DB2002D16DD2700103704E0013DEBB26DB2002B0ED02369002B0BD03800BD
:20248000FFF71EFA0028F2D0013DFFF7D3FAEBB26DB2002BF0D14423FF22E25400F0E8FF06
:2024A000FEF73EFF012500F0D7FFA36BE26B934282D2524641462000FFF782FE636A002BCD
:2024C00000D078E0002800D072E000F0D1FF012004B01CBC90469946A246F0BD036C002B39
:2024E00000D15CE772B6FEE7E36B012B00D15BE772B6FEE700F0BCFF10239946A1444846F1
:202500000199FFF773F900F0A7FF4523E55C6DB2002D05DC13E0013DEAB26DB2002A0ED05F
:20252000636A002B0BD03000FFF7CAF90028F2D0013DFFF77FFAEAB26DB2002AF0D145233A
:20254000FF22E25400F094FF00F086FF4423E55C6DB2002D05DC13E0013DEAB26DB2002A41
:202560000ED02369002B0BD04846FFF7A9F90028F2D0013DFFF75EFAEAB26DB2002AF0D1A9
:202580004423FF22E25400F073FFFEF7C9FE002800D087E700F054FF012584E702A8FFF785
:2025A0000FFA13E772B6FEE700F062FF00208FE700F046FF89E720002430FFF781F981E733
:2025C00000F04AFF4523E55C6DB2002D12DD2600243604E0013DEBB26DB2002B0AD0636AAE
:2025E000002B07D03000FFF76BF90028F2D0FFF721FAEFE74523FF22E25400F039FF00F0A7
:202600002BFF4423E55C6DB2002D12DD2600103604E0013DEBB26DB2002B0AD02369002BA7
:2026200007D03000FFF74CF90028F2D0FFF702FAEFE74423FF22E25400F01AFFFEF770FE7C
:20264000002045E770B50600502000F099FF041E2BD0002501230060C363056400F0FCFECC
:20266000216CE36B22684B43D0185B1AD3186260E3604422FF23A0602000A563A354013240
:20268000A354103001F0A8F82000243001F0A4F800F0EEFE4C230022E65400210023200066
:2026A000A5602560E560FFF76BFE200070BDC04670B5041E07D08668FFF756FA002586425A
:2026C00003D0280070BD72B6FEE7E3680135013BE360002BF5D1002200212000FFF750FE2D
:2026E000EFE7C046F0B54F46D64646460400C0B591460F009A4600281FD0002918D053461C
:20270000022B04D1E36B012B19D072B6FEE700F0BDFEA36BE26B0600934214D3002530002A
:2027200000F0B8FE28001CBC90469946A246F0BD036C002BE3D072B6FEE772B6FEE700F052
:20274000A5FE0600A36B4523E55C52466DB2390020009846A36BFFF733FD6B1C05D0434612
:2027600001356DB2E5540125D9E7636A0235002BD5D020002430FFF7A3F80028CFD04B46B4
:20278000002BCCD01D60CAE7F8B504000E0000281FD0036C002B01D072B6FEE70368002B60
:2027A00019D000F073FEA26BE36B0700002593420AD94521635C01325BB2A2635A1C0FD0D1
:2027C00001335BB263540125380000F063FE2800F8BD72B6FEE78368002BE2D072B6FEE793
:2027E000636A002BEFD020002430FFF769F80028E9D0002EE7D0012301253360E4E7C046E3
:20280000F0B54746CE4680B585B0041E8846019200D12EE1002900D125E100F01DFEA56B8A
:20282000002D00D027E1019B002B00D1CBE0270002A8FFF7C5F84426243700F019FEFEF70B
:2028400043FC00F009FEA35D5BB2013301D10023A3554522A35C5BB2013301D10023A35481
:2028600000F006FE01A902A8FFF7B2F8002855D100F0F2FDA36B002B00D0ACE000F0F8FDC9
:2028800038000199FEF7B2FF00F0E6FD4523E55C6DB2002D05DC13E0013DEBB26DB2002BFF
:2028A0000ED0636A002B0BD03800FFF709F80028F2D0013DFFF7BEF8EBB26DB2002BF0D1BC
:2028C0004523FF22E25400F0D3FD00F0C5FD10239946A55DA1446DB2002D05DC13E0013D70
:2028E000EBB26DB2002B0ED02369002B0BD04846FEF7E6FF0028F2D0013DFFF79BF8EBB2CB
:202900006DB2002BF0D1FF23A35500F0B1FDFEF707FD00284ED100F093FD4BE000F09CFD80
:202920004523E55C6DB2002D05DC13E0013DEBB26DB2002B0ED0636A002B0BD03800FEF7CB
:20294000BFFF0028F2D0013DFFF774F8EBB26DB2002BF0D14523FF22E25400F089FD00F062
:202960007BFD10239946A55DA1446DB2002D05DC13E0013DEBB26DB2002B0ED02369002B0C
:202980000BD04846FEF79CFF0028F2D0013DFFF751F8EBB26DB2002BF0D1FF23A35500F025
:2029A00067FDFEF7BDFC00F057FDA36B002B0AD000F05EFD00F050FDA56B002D5BD1019B21
:2029C000002B00D039E700F053FD002005B00CBC90469946F0BD00F04BFD00F03DFD4523D3
:2029E000E55C6DB2002D05DC13E0013DEBB26DB2002B0ED0636A002B0BD03800FEF760FF14
:202A00000028F2D0013DFFF715F8EBB26DB2002BF0D14523FF22E25400F02AFD00F01CFD04
:202A200010239946A55DA1446DB2002D05DC13E0013DEBB26DB2002B0ED02369002B0BD0E8
:202A40004846FEF73DFF0028F2D0013DFEF7F2FFEBB26DB2002BF0D1FF23A35500F008FDF2
:202A6000FEF75EFCA6E7036C002B00D1D5E672B6FEE772B6FEE7226C002A0AD0E3689918AC
:202A8000A368E160994201D32168E160404600F0EDFF013DA5632369002B03D100F0E8FC6A
:202AA000012093E720001030FEF70AFF0028F5D000F0C6FCF2E7C046F0B5C64600B584B005
:202AC000041E019100D1E7E0036C002B00D088E0070000250026243700F0BEFCA36B002B48
:202AE00000D03EE1019B002B00D146E1002E00D1D4E000F0BDFCFEF7E7FA00F0ADFC4422F7
:202B0000A35C5BB2013301D10023A3544522A35C5BB2013301D10023A35400F0A9FC01A9B7
:202B200002A8FEF755FF00285DD100F095FCA36B002B00D0B6E000F09BFC2368002B00D11E
:202B40002FE138000199FEF751FE00F085FC4523E65C76B2002E05DC13E0013EF3B276B2FE
:202B6000002B0ED0636A002B0BD03800FEF7A8FE0028F2D0013EFEF75DFFF3B276B2002B34
:202B8000F0D14523FF22E25400F072FC00F064FC4423E65C76B2002E17DD343B9846A044E3
:202BA00004E0013EF3B276B2002B0ED02369002B0BD04046FEF784FE0028F2D0013EFEF76F
:202BC00039FFF3B276B2002BF0D14423FF22E25400F04EFCFEF7A4FB002800D1ADE00126CB
:202BE0007AE772B6FEE700F037FC4523E65C76B2002E05DC13E0013EF3B276B2002B0ED05B
:202C0000636A002B0BD03800FEF75AFE0028F2D0013EFEF70FFFF3B276B2002BF0D145230F
:202C2000FF22E25400F024FC00F016FC4423E65C76B2002E17DD343B9846A04404E0013EE4
:202C4000F3B276B2002B0ED02369002B0BD04046FEF736FE0028F2D0013EFEF7EBFEF3B2B1
:202C600076B2002BF0D14423FF22E25400F000FCFEF756FB00F0F0FBA36B002B03D000F079
:202C8000F7FB012628E700F0F3FB002D59D1280004B004BC9046F0BD72B6FEE702A8FEF70C
:202CA0008FFE26E700F0E4FB00F0D6FB4523E65C76B2002E05DC13E0013EF3B276B2002BDF
:202CC0000ED0636A002B0BD03800FEF7F9FD0028F2D0013EFEF7AEFEF3B276B2002BF0D19D
:202CE0004523FF22E25400F0C3FB00F0B5FB4423E65C76B2002E17DD343B9846A04404E0BF
:202D0000013EF3B276B2002B0ED02369002B0BD04046FEF7D5FD0028F2D0013EFEF78AFE19
:202D2000F3B276B2002BF0D14423FF22E25400F09FFB0126FEF7F4FACEE600F081FB012641
:202D4000CAE600F089FB616A002903D00521236B1B68C91AA068FEF785FF002500F088FB55
:202D600095E7013BA3632368002B16D02369002B0AD100F07DFB012589E7002D01D072B643
:202D8000FEE700F075FB82E720001030FEF798FD0028EED000F054FBEBE7FFF70BF8A060AB
:202DA000E4E700F059FBA068FEF7E4FE050000F05FFBC6E670B504000D00002813D08668FB
:202DC000FEF7D2FE864209D029002000FFF774FE002807D0E3680133E36003E00120E368CC
:202DE0000133E36070BD72B6FEE7C046F0B54746CE4680B585B0041E8846019200D12EE109
:202E0000002900D125E100F027FBA36B002B00D027E1019B002B00D1CBE0270002A8FEF786
:202E2000CFFD4426243700F023FBFEF74DF900F013FBA35D5BB2013301D10023A355452225
:202E4000A35C5BB2013301D10023A35400F010FB01A902A8FEF7BCFD002855D100F0FCFA15
:202E6000A36B002B00D0ACE000F002FB38000199FEF7BCFC00F0F0FA4523E55C6DB2002D82
:202E800005DC13E0013DEBB26DB2002B0ED0636A002B0BD03800FEF713FD0028F2D0013D23
:202EA000FEF7C8FDEBB26DB2002BF0D14523FF22E25400F0DDFA00F0CFFA10239946A55D5D
:202EC000A1446DB2002D05DC13E0013DEBB26DB2002B0ED02369002B0BD04846FEF7F0FCE9
:202EE0000028F2D0013DFEF7A5FDEBB26DB2002BF0D1FF23A35500F0BBFAFEF711FA002884
:202F00004ED100F09DFA4BE000F0A6FA4523E55C6DB2002D05DC13E0013DEBB26DB2002B62
:202F20000ED0636A002B0BD03800FEF7C9FC0028F2D0013DFEF77EFDEBB26DB2002BF0D1AE
:202F40004523FF22E25400F093FA00F085FA10239946A55DA1446DB2002D05DC13E0013D6F
:202F6000EBB26DB2002B0ED02369002B0BD04846FEF7A6FC0028F2D0013DFEF75BFDEBB2C3
:202F80006DB2002BF0D1FF23A35500F071FAFEF7C7F900F061FAA36B002B0AD000F068FA4C
:202FA00000F05AFAA36B002B5BD1019B002B00D039E700F05DFA002005B00CBC9046994618
:202FC000F0BD00F055FA00F047FA4523E55C6DB2002D05DC13E0013DEBB26DB2002B0ED008
:202FE000636A002B0BD03800FEF76AFC0028F2D0013DFEF71FFDEBB26DB2002BF0D1452322
:20300000FF22E25400F034FA00F026FA10239946A55DA1446DB2002D05DC13E0013DEBB237
:203020006DB2002B0ED02369002B0BD04846FEF747FC0028F2D0013DFEF7FCFCEBB26DB23F
:20304000002BF0D1FF23A35500F012FAFEF768F9A6E7036C002B00D1D5E672B6FEE772B630
:20306000FEE7226CE568002A09D0A368A918E160994201D32168E160404600F0F7FC636AD1
:20308000E560002B03D100F0F3F9012094E720002430FEF715FC0028F5D000F0D1F9F2E77A
:2030A000F8B5CE46474604008946160080B5002816D000290FD000F0E9F9A36B07009846C9
:2030C0000025002B0ED1380000F0E4F928000CBC90469946F8BD036C002BECD072B6FEE7FF
:2030E00072B6FEE74423226CE55C6DB2002A0AD0E3689918A368E160994201D32168E160A9
:20310000484600F0B3FC4346013BA3636B1C05D0442301356DB2E5540125D4E72369002BCE
:20312000FAD020001030FEF7CBFB0028F4D0002EF2D0012301253360C5E7C046F8B504008E
:203140000D0000280AD0036C002903D0002B07D172B6FEE7002BFBD072B6FEE772B6FEE7D5
:2031600000F094F9A36B06000027002B04D1300000F090F93800F8BD226CE768002A09D021
:20318000A368B918E160994201D32168E160280000F06CFCE7600127E9E7C04610B5041EED
:2031A00006D000F059F9A46B00F062F9200010BD72B6FEE710B5041E08D000F04DF9A36BA0
:2031C000E46BE41A00F054F9200010BD72B6FEE7002801D0806B704772B6FEE770B5002876
:2031E0001BD01A4B5A68904229D0DA6890422AD05A69904225D0DA6990421CD05A6A9042C3
:2032000017D0DA6A904218D05A6B904207D0DA6B90420CD000F058FA70BD72B6FEE70622C4
:2032200000240025D2009B181C605D60F2E70722F6E70422F4E70322F2E70522F0E7002289
:20324000EEE70222ECE70122EAE7C04648050020806C7047816470474C23C05C7047C046B4
:20326000002803D0806B43425841704772B6FEE7002805D0826BC06B801A43425841704702
:2032800072B6FEE7164B1A68002A15D09A68002A18D01A69002A17D09A69002A16D01A6AF0
:2032A000002A15D09A6A002A14D01A6B002A13D09A6B002A12D070470022D20099509B1803
:2032C0005860F8E70122F8E70222F6E70322F4E70422F2E70522F0E70622EEE70732ECE74E
:2032E00048050020164A03005168884216D0D168884217D05169884216D0D169884215D058
:20330000516A884214D0D16A884213D0516B884212D0D16B0020994210D070470023DB0028
:20332000D058FAE70123FAE70223F8E70323F6E70423F4E70523F2E70623F0E70723EEE776
:2033400048050020174B5A68904215D0DA6890421AD05A69904219D0DA69904218D05A6AE8
:20336000904217D0DA6A904216D05A6B904215D0DA6B824214D07047002200200021D20043
:203380009B1818605960F6E70122F6E70222F4E70322F2E70422F0E70522EEE70622ECE77B
:2033A0000722EAE7480500200000000000000000002382B00193064B1B68013301D072B6BC
:2033C000FEE772B6019B002BFCD002B07047C046C00000200A4A13681868203080F309885B
:2033E000022080F31488BFF36F8F3FBCAE4608BC04BC62B61847C046C046C046C046C046E4
:20340000C404002010B58024031F64041C60043B19600349043B1960143B40381A6010BD8B
:20342000B13300087047C046FA23044A9B0012689A4201D072B6FEE77047C046C00000200C
:203440008022044B52051A60BFF34F8FBFF36F8F7047C04604ED00E072B6044A13680133B7
:203460001360BFF34F8FBFF36F8F7047C0000020054A1368002B01D172B6FEE7013B13607F
:20348000002B00D162B67047C0000020EFF3108072B6704780F310887047C046EFF30980FD
:2034A0000F4B1A6820381060F0C044464D4656465F46F0C008B572B6FEF7CEF862B60CBC2A
:2034C000116808681030F0C8A046A946B246BB4680F309882038F0C81847C046C046C046B8
:2034E000C404002010B5FFF7D1FF0400FDF712FE002803D08022034B52051A602000FFF77F
:20350000C9FF10BD04ED00E00022054B05491A600A60054A0549116007221A607047C04633
:2035200010E000E018E000E014E000E07FBB0000FF22114B1204196830B50A431A60FF22F4
:203540000025196812060A4383B01A60FFF7DCFF0A4C2560FFF73EFFFEF77EF82368019548
:20356000013301D072B6FEE772B6019B002BFCD0002003B030BDC04620ED00E0C0000020EB
:20358000F0B5D6464F464646C0B50400FDF79CFD4B4B9868002837D0DA6892465246224268
:2035A00027D1002C25D0220007210832114201D08A430832002A1CD059698C46914218D3DB
:2035C0001F001C6804E02668002E04D02700340061689142F7D384420BD026002568083681
:2035E0003D608F1A102F40D9A1184D0726D072B6FEE7FDF795FE0026FCF7C8FF30001CBCAE
:2036000090469946A246F0BD07202E49084242D1C022120188180A00072600250838B04341
:203620005D601960456005608025821A2D06AA4605C198601A615A61DD60AFE74F606260AE
:203640001A00904612689142FBD845466F68B946C144494526D04F68CD19AA4227D00A6086
:20366000884501D042461160616862461869521A5A6182420DD30022554622609A690D4364
:20368000013265609A61FDF74BFE7307B6D072B6FEE71A61EFE7CA1D8243C02000010818EF
:2036A0001100B9E749687F186F604146D4E78242D5D05068126881464F444F600A60CFE73C
:2036C00088050020A8050020F8B5041E2DD01C4E083C6368F2681A4204D02168002903D01C
:2036E00072B6FEE772B6FEE793436360FDF7ECFC7369616825005B18736133001A001B685A
:203700009C42FBD850681718BC4202D11500091851606818834209D02B60AA4200D015607F
:20372000F3690133F361FDF7FBFDF8BDB0688342F2D058681B688446614469602B60ECE78C
:2037400088050020014B58697047C04688050020014B18697047C046880500207047C04651
:20376000F0B5C64600B50700FDF7AEFC194B98461B68002B28D04246012500260024916865
:203780006D425A680134964200D21600954200D915001B689942F4D1FDF7C2FD7E60BD602D
:2037A000FC60FFF759FE43465B693B6043469B697B614346DB69BB6143461B693B61FFF787
:2037C00057FE04BC9046F0BD0125002600246D42E2E7C046880500200300012208334360B2
:2037E000C360036100235242826003607047C046002303617047C04643689A684B608A6003
:203800009A685160996003680861013303607047030030B50C680833621C0DD01A005B680B
:203820001D68A542FAD94B60996003688A60013351600861036030BD02695368F3E7C046AC
:203840000369416882688A6051605968814206D0002202611A68013A1A60186870475A60C7
:20386000F6E7C0464B6970B506000C000025002B07D000F0D1FB6369056020689847051EDC
:2038800005DB3000210000F099F9280070BD00F0C3FB0368002BF4D000F0BEFB0368336071
:2038A000EFE7C046F0B5C64600B51E004B6815009A8907000C00D20506D5DB6A9846002BAA
:2038C00002D002230022C04700F0A6FB00233200036029002068E3689847041E03DB200084
:2038E00004BC9046F0BD00F097FB0368002BF6D000F092FB03683B60F1E7C046F8B50C008D
:2039000015001E00070000F087FB00233200036029002068A3689847041E01DB2000F8BDD5
:2039200000F07AFB0368002BF8D000F075FB03683B60F3E770B582B00C001D00019206006B
:2039400000F06AFB00232A00036001A9206823699847002802DB019802B070BD00F05CFB01
:203960000368002BF7D000F057FB03683360F2E782B0F0B5D6464F464646C0B582B00B9378
:203980001F000C9B8A4699460D9B110001AA0500984600F043FD061E3CD01423034235D189
:2039A0001823334202D04B46002B31D0280000F039FC041E2ED02800182100F055F9051E99
:2039C0002AD001235B42E3815346A6810360164B44602062876063624B46C360134BA3625B
:2039E00043460361002B01D0114B98464346E3620E9B6B610F4B2363200002B01CBC904601
:203A00009946A246F0BC08BC02B01847002FC7D116232B600024EFE700F0E0FCA58100F0F7
:203A2000DFFC0024E8E7C046FD380008A5380008353900086538000882B0F0B585B08C4697
:203A40000A92040015006A460B93074B18680BABC2CBC2C22B0062462100FFF789FF05B0A3
:203A6000F0BC08BC02B01847C4000020F0B5C64600B50F2A43D90B00032603431E400C0042
:203A80000300002E40D11500103D2D09AC462D01A846804400E03B00676825685F60E768F5
:203AA0001D60DF601F00A56810379D6010344345F1D165460F230C2401352D014919134026
:203AC0004519144223D08C59AC5104369C1B032CF9D80324043B9B0801339B002240ED182D
:203AE000C918561E002A07D0002300E02300CA5C5C1CEA549E42F9D104BC9046F0BD05007C
:203B0000561E002AF0D1F7E7561E0500ECE71A00F6E7C046F0B5050083074AD0541E002A35
:203B200044D0CEB20300032202E00135013C3DD301332E701342F8D1032C2FD9FF220A40D2
:203B4000150215432A0415430F2C35D92700103F3F093E01B4461E001A0010366644156093
:203B600055609560D5601032B242F8D10F260C2201373F012640DB193700224217D03E1F53
:203B8000B608B400A4461A001C1D644420C2A242FCD103240136B6009B193C40002C05D0F6
:203BA000C9B21C19197001339C42FBD1F0BD3400F4E714000300BFE72700E0E770B505005D
:203BC000002915D00C1F2368002B27DB280000F03FFD244B1A68002A05D0A2420CD921685E
:203BE0006018824224D0626028001C6000F032FD70BDA34203D81A005368002BF9D11168E0
:203C00005018A0421BD027D821686018834207D063605460280000F01DFDE9E7E418D5E7A2
:203C200018685B6884466144216063605460F1E7106852688446614421606260D4E72068DB
:203C40000918501811608342E4D118685B688446614411605360DDE70C2328002B6000F084
:203C6000F9FCC5E7A8110020F8B50323CD1C9D43083506000C2D2AD20C25A94229D8300069
:203C800000F0E6FC2A4F3A68002A0AD013685B1B04D441E023685B1B1FD522005468002C4A
:203CA000F8D17B68002B3DD02900300000F042F8431C2AD00323C41C9C43A04205D0211A6D
:203CC000300000F037F8431C1FD0256010E0002DD3DA0C2300203360F8BD0B2B05D8636883
:203CE000A2421DD0536003E014002360E4182560300000F0AFFC200007220B30231D9043E3
:203D0000C21AE9D01B1AA350E6E70C233000336000F0A0FC0020DFE70B2BE5D814005368F3
:203D20003B60E5E70021300000F004F87860BBE7A8110020002370B5064C05000800236062
:203D400001F07CFB431C00D070BD2368002BFBD02B60F9E7B411002010B5002301220021A2
:203D600000F002F810BDC046F0B54746CE4680B51E005A4B83B01D68040088461700002D7A
:203D800002D0AB69002B5DD0554B9C4260D0554B9C425FD0544B9C4200D199E0022F05D0BD
:203DA000012F00D996E0002E00DA93E02100280000F0D2F9616B002908D0230044339942C3
:203DC00002D02800FFF7FAFE002363630023A36163600C22A35E1A064FD4444A1340A381B1
:203DE000022F55D001AB6A462100280000F0ACFBA3890343A381002E2ED1009E300000F0B0
:203E000013FC8046002853D08022A3891343A381AB69002B26D00C22A35E012F02D10122B0
:203E20001343A38142462260226108229BB266611A401BD0DB0738D500237642A360A66124
:203E4000002015E0280000F0C1FA254B9C429ED16C68A3E7AC68A1E74346002BCED0AB695D
:203E6000002BD8D1280000F0B1FAD4E70020A26003B00CBC90469946F0BD21692800FFF749
:203E80009DFE0C22A35E194A1340A381022FA9D1002002221343A3810023A3602300473352
:203EA0002360236101236361E2E7A6600020DFE7009B9946B34206D0180000F0B5FB4E46CD
:203EC00080460028A0D101200C22A35E4042E0E7EC6863E701204042CAE7C046C40000200E
:203EE0005C5500083C5500081C5500085CF3FFFF0CB400B59DB00291069109491EAB07910B
:203F00000491084904CB059102A9019300F096FC0023029A13701DB008BC02B01847C046AB
:203F2000FFFFFF7F0802FFFF0EB400B50B499CB0079104910A491DAB05910A4904CB029054
:203F40000690086802A9019300F078FC0023029A13701CB008BC03B01847C046FFFFFF7F52
:203F60000802FFFFC40000200B00034330B504009B0710D10B680C4A0C4D9A189A432A427B
:203F800009D104312360084A0B6804309A189A4304002A42F5D003000A7818001A70013179
:203FA0000133002AF8D130BDFFFEFEFE8080808010B5830727D00378002B26D003000321EB
:203FC00002E01A78002A1CD001330B42F9D119680F4A104C8A188A4322420FD1043319686B
:203FE0000B4A8A188A43224208D104331968084A8A188A432242F1D000E001331A78002A52
:20400000FBD1181A10BD0300E1E70020FAE7C046FFFEFEFE80808080014B18687047C04681
:20402000C4000020F0B5C64600B58B8980460C001A0745D44A68002A63DDE56A002D3BD073
:2040400042464146166800220A60216ADA045CD4012300224046A847431C61D0A389E56AE8
:20406000216A5B0706D56368C01A636B002B01D0236CC01A002302004046A847431C46D190
:2040800043461B680C21625E002B56D01D2B01D0162B5DD100236360236923604346616B04
:2040A0001E60002908D023004433994202D04046FFF784FD00236363002004BC9046F0BDF1
:2040C0000E69002EF8D00A680E60951B00229B0700D14A69A260002D04DCEDE736182D1A23
:2040E000002DE9DD2B003200216A4046A76AB8470028F3DC40220120A38940421343A381AD
:20410000DBE70A6C002A98DCD6E7606DA9E70023636023692360A389DB04BFD56065BDE7B2
:2041200043461B68002B99D01D2B0DD0162B0BD04022A3891343A381BFE76360236923601E
:20414000D304ABD56065A9E7434600201E60B4E740231A43A281B0E70B6970B505000C00CD
:20416000002B16D0002802D08369002B15D00E4B9C4210D00D4B9C4212D00D4B9C4211D0F2
:204180000C22A35E002B04D021002800FFF74AFF00E0002070BD6C68F2E700F017F9E6E7C2
:2041A000AC68EDE7EC68EBE75C5500083C5500081C55000810B5011E04D0054B1868FFF7A8
:2041C000CBFF10BD034B0449186800F097F9F8E7C4000020185500085941000800207047FC
:2041E00010B5024900F08AF910BDC046594100080020704770B568244A1E54430E00210011
:204200007431FFF731FD051E09D000232200036046600C30A86068320021FFF77BFC2800F7
:2042200070BDC0461E4B70B51D680600AB69002B27D048356B68AC68013B03D51CE06834EC
:20424000013B19D30C21625E002AF8D100252000144B656625606560A560E3602561656109
:20426000A561082200215C30FFF754FC6563A563A564E564200070BD2C68002C05D02500F2
:20428000D8E7280000F010F8D3E704213000FFF7B1FF041E2860F2D10C233360EAE7C04684
:2042A000185500080100FFFFF0B5D6464F464646384BC0B5836200238364C3640365364BB1
:2042C00082B01B6805000193984260D02800FFF7A9FF68602800FFF7A5FFA8602800FFF710
:2042E000A1FF6E680024E86004233000746634607460B460F36034617461B4610822002112
:204300005C30FFF707FC254B254F9A467362254B37639946B362244B3662F362AE68984631
:204320003000224B746634607460B460F36034617461B461082200215C30FFF7EBFB53466C
:2043400073624B46B36243463763F3623662EE68174B3000F360746634607460B4603461AC
:204360007461B461082200215C30FFF7D3FB534673624B46B3624346F36201233662376370
:20438000AB6102B01CBC90469946A246F0BD012383619BE7E141000818550008A94F000814
:2043A00041500008D54F000815500008090001001200020010B5034B0349186800F09EF848
:2043C00010BDC0461855000859410008836910B5002B01D1FFF768FF10BDC0467047C04658
:2043E0007047C0467047C0467047C04610B5034B0349186800F060F810BDC046C4000020A8
:20440000DD41000810B5034B0349186800F054F810BDC046C4000020F1410008F0B5464639
:20442000D6464F460B78C0B59046722B3ED0772B09D0612B33D01623036000201CBC9046DE
:204440009946A246F0BDC023DB009A460124082080235B02994680231B019C461C22102708
:204460000326022501310B78002B0DD0622B13D0782B0ED02B2BF5D101310B789043B443A3
:2044800038432C43002BF1D153461C4343461C60D4E763461C43E5E74B461C43E2E782235B
:2044A00084209B009A4601244000D1E7002300249A460420CCE7C046F0B5C646483000B5DE
:2044C000884607000026002813D07B68BC685D1E0CD4A389012B06D90E22A35E013302D006
:2044E0002000C04706436834013DF2D23F68002FEBD1300004BC9046F0BDC046F8B5474669
:20450000CE4680B507004837804689460026002F14D07B68BC685D1E0DD4A389012B07D963
:204520000E22A35E013303D021004046C84706436834013DF1D23F68002FEAD130000CBC1E
:2045400090469946F8BDC04670B50C001D000E23C95E96B01600002914DB6A4600F09CFD98
:2045600000280FDBF022019B12021340094A944663445A4253412B608023DB003360002054
:2045800016B070BD00232B60A3891B06F4D540233360F4E700E0FFFF70B58B8982B0060044
:2045A0000C009B0707D523004733236023610123636102B070BD01AB6A46FFF7C5FF009957
:2045C00005003000FFF750FB002810D08022154BB362A38920601343009A1BB26261019A7F
:2045E000A3812061002A0CD12B43A381E1E70C22A35E9A05DDD40322934302221343A3819D
:20460000D1E70E23E15E300000F05AFD002802D10C22A35EE8E70322A38993430122134362
:204620001BB2E1E7E141000810B5034B01001868FFF71AFB10BDC046C400002010B5034B52
:2046400001001868FFF7BAFA10BDC046C40000207047C0467047C046F0B546464F46D6461C
:20466000C0B58E6881460C0090461D0008689E4239D890228B89D200134211D135002A007A
:20468000414600F083FDA36800209E1B2368A6609C46654425601CBC90469946A246F0BD7C
:2046A0000969421A92466269681C5700BF18FA0FD7197F1050443A00B84201D907000200A4
:2046C0005B0512D511004846FFF7CEFA061E1FD052462169FFF7CAF9A389124A13408022CB
:2046E0001343A38106E01E00C9E7484600F0ACFD061E09D03000534650446761FF1A2661A3
:2047000020602E00A760BAE721694846FFF756FA0C234A46136040220120A389404213432C
:20472000A381B8E77FFBFFFFF0B54E464546DE465746E0B5936883B001900D009146002B56
:204740006BD0176808688C6844E09022AB89D20013422ED02969421A934668694200121808
:20476000D00F8218701C521058449046904201D9804602008020C000034237D01100019896
:20478000FFF772FA041E53D05A462969FFF76EF9AB89294A134080221343AB81434620001C
:2047A0005A462C61B046340058446B619B1A2860AB604246514600F0E9FCAB681C1B2B6821
:2047C000AC6043442B6018004B469B689E1B4B469E6022D03B687E689A460837A046002E19
:2047E000F8D0A642B1D23400B046E2E7019800F02BFD041ED2D1019C29692000FFF7DEF901
:204800000C2323604022AB8901201343AB814A46002340429360536003E000234A4600201C
:20482000536003B03CBC90469946A246AB46F0BD0C23019A1360E5E77FFBFFFFF0B54E4625
:20484000DE4657464546E0B5A1B0049003911C008B8991461B0604D50B690593002B00D1F5
:2048600019E1002308AD6B6120336B761033AB762F3B98464B461B780794924F002B00D11E
:2048800086E0252B00D104E14E4603E0252B00D18BE026007378741C002BF7D14B46E31A87
:2048A0009A4675D053464A4603990498FFF7D4FE431C6DD06B6953446B617378002B67D08A
:2048C0000122002352426A60443201342B60EB60AB60AB54AB6506E04346C01B8340340058
:2048E0002A6813432B6021780522380000F00EFC661C0028F0D12B68B246DA0602D5432241
:204900002021A9541A0702D543222B21A95421782A2950D1079A111D12680791002A00DAC1
:204920009AE0EA606178A61C2E295CD0664B03221800994600F0EAFB002800D171E04B4618
:20494000C01A402383402A68317813432B600622731C5E489946297600F0D8FB00286AD03B
:204960005B4B002B00D170E007AB0093039A594B2900049800E000BF83465B46013307D0E6
:204980006B695B446B614B461B78002B00D078E7039B9B895B0600D58CE0686921B03CBC5C
:2049A00090469946A246AB46F0BD4B46E31A9A4600D185E776E70A00303AA246092AB3D89A
:2049C000EB68180001E03400013683001B1831785B0098180A00303A092AF4D9B246E86002
:2049E000A61C2E29A2D1534659782A293AD1079B1A1D079252469178D61C022294461B68DD
:204A0000E2446B60002B00DB90E701235B426B602D4B03221800994600F078FB002800D0AD
:204A20008DE7B1465646317806222848297600F06DFB002894D107AB0093039A254B29002F
:204A4000049800F0E1F8834697E70722079B073393430833079393E75242EA600222134328
:204A60002B605FE70A000023303A6B601800092A01D91CE01E0083001B1871785B0098181A
:204A80000A00303A731C092AF4D99A46023668604CE74C4614E74021FFF7E6F8039B186028
:204AA0001861002809D04023039A5361D9E6B24601363BE70120404270E70C23049A0138B8
:204AC00013606BE78C58000894580008985800080000000059460008F0B54F464646D646B0
:204AE000C0B51F00089B914698468A680B6906000C00934200DA13004A4613604322A25C2A
:204B0000002A02D04A460133136023689A065AD54B461B6806209A1C4B461A602368190069
:204B2000184208D1E16800258A1A19218A461900A244002A3FDC4323E35C5A1E93418A0661
:204B40000AD53020E1184331087045215A1C615CA2184332023311702200390043323000C3
:204B6000C047431C19D006232068A26821690340042B30D08A423ADD00239946521A914409
:204B80001A34002502E001354D4530DA0123220039003000C047431CF5D1012040421CBC98
:204BA00090469946A246F0BD4B46E2681B680135D31AAB4220DD0123524639003000C04714
:204BC000431CF1D1E9E706221A4212D04323E35C5A1E9341C0E74B46E0681B68C31AD84392
:204BE000C017184081468A42C8DC002BC8DC0020D5E74A46126895E743232168E35C5A1E78
:204C000093418A069DD4A7E7F0B557469A4643239C464E464546DE468C446346E0B587B03F
:204C200003930B7E914680460C00109A6E2B00D1D8E000D871E0732B00D11AE100D881E014
:204C4000752B00D1FFE0782B00D00BE10B6878204521605494498B46116840C911601806C1
:204C600003D4580601D53604360CDA0702D52022134323601027002E00D1C2E0432300227A
:204C8000E2546368A360002B00DAC5E00422216891432160002E00D083E0002B00D0BDE069
:204CA000039D082F00D18CE0039B5B1B2361534605AA009321004B464046FFF70DFF431CD4
:204CC00022D023692A0049464046D047431C1BD022680598E368920700D47FE01A1A002A1A
:204CE00000DC7BE026000025193606E0E368059801351A1AAA4200DC70E0012332004946AE
:204D00004046D047431CF1D10120404207B03CBC90469946A246AB46F0BD632B00D184E085
:204D20001FD8002B69D0582B00D09BE0452163545E4923688B46116840C91160180600D445
:204D40008FE792E76F2B7ED0702B00D08AE02023096878200B4345212360605452498B4604
:204D60007AE7642B01D0692B7CD111682368081D10601D064AD50A681600002A03DB4B4B90
:204D80000A279B467DE743222D21A15462687642A260002A02DB042293432360434B0A272C
:204DA0009B46039D00E006003900300000F018FB5B465B5C013D2B70BE42F4D2082F00D022
:204DC00072E72368DB0700D46EE763682269934200DD69E73023013D2B7065E7984295DACB
:204DE000180093E7136809681D1D606915601B680E0601D449064BD418600023039D236124
:204E000055E7202322689A43226037E75D06B2D500228E5E3200B0E7002EC2D15B462500C4
:204E20001A7842234235E2543BE713682500191D11601A684223E254413B4235236143236B
:204E40000022E25433E7116820680D1D1560060601D440061ED40E686F2B1DD0134B0A279B
:204E60009B460BE742222500A354012342352361E5E71368191D11601D686268002128003A
:204E800000F044F900280BD0401B60602061D6E71880B2E70E88DFE7044B08279B46EDE6CA
:204EA00060682061CBE7C046B4580008A058000870B50C0009680500002901D0FFF7F8FF4F
:204EC00028002100FEF77AFE70BDC046354B70B51B68050083425CD0426A002A5AD0D36890
:204EE000002B13D000269959002907D00C682800FEF764FE211EF9D16B6ADB680436802E90
:204F0000F1D119002800FEF759FE6A6A1168002944D02800FEF752FE6969002902D0280056
:204F2000FEF74CFE6A6A002A03D011002800FEF745FEA96B002902D02800FEF73FFEE96B33
:204F4000002902D02800FEF739FE296C002902D02800FEF733FEE96D002902D02800FEF7B6
:204F60002DFEA96D002902D02800FEF727FE696B002902D02800FEF721FEAB69002B08D091
:204F80002800AB6A9847A96C002902D02800FFF78FFF70BD41690029C1D1CAE769690029FB
:204FA000BDD1C2E7C400002070B50C000E25495F00F072F9002803DB636D1B18636570BD71
:204FC000A389024A1340A381F9E7C046FFEFFFFF00207047F8B516001F000C228B5E0C0034
:204FE00005000E22895EDA0508D4094A28001340A38132003B0000F029F8F8BD002202236E
:2050000000F070F80C22A35E0E22A15EEDE7C046FFEFFFFF70B50C000E25495F00F062F8BE
:20502000431C06D08023A2895B011343A381606570BDA389014A1340A381F9E7FFEFFFFFEB
:2050400010B50E23C95E00F015F810BD70B50500080011000022064C22601A0000F0FCF931
:20506000431C00D070BD2368002BFBD02B60F9E7B4110020002370B5064C050008002360D9
:2050800000F0B4F9431C00D070BD2368002BFBD02B60F9E7B4110020002370B5074C0500A6
:2050A00008001100236000F0A9F9431C00D070BD2368002BFBD02B60F9E7C046B41100208F
:2050C000002370B5064C05000800236000F09EF9431C00D070BD2368002BFBD02B60F9E7D7
:2050E000B411002070B50500080011000022064C22601A0000F092F9431C00D070BD236816
:20510000002BFBD02B60F9E7B411002070B5CDB2830734D0531E002A1BD00278AA4219D042
:20512000032404E0013B14D30278AA4212D001302042F7D1032B0ED8002B0AD00278AA421F
:2051400008D0C31802E00278AA4203D001308342F9D1002070BDFF220C06240C114021435C
:205160000C04084E0C43026807496240511891433142E3D1043B0430032BF4D8DCE7130077
:20518000D8E7C04680808080FFFEFEFEF0B5C64600B588420CD98B18984209D2531E002A49
:2051A00003D0CA5CC254013BFBD204BC9046F0BD0F2A0CD80500561E002AF6D0002300E00B
:2051C0002300CA5C5C1CEA549E42F9D1EDE70B00032603431E400C000300002E2ED1150029
:2051E000103D2D09AC462D01A846804400E02B001D00276810351F6067685F60A7689F6043
:20520000E7681034DF604345F1D165460F230C2401352D01491913404519144211D08C59D2
:20522000AC5104369C1B032CF9D80324043B9B0801339B00ED18C9182240BCE7561E050044
:20524000BCE71A00B7E7C046F8B507000C00150000291BD0002A15D000F032F82600A842CB
:2052600001D33000F8BD29003800FEF7FDFC061EF7D021002A00FEF7F9FB21003800FEF7B9
:205280009DFCEEE7FEF79AFC0026EAE71100FEF7EBFC0600E5E7C04670B505000800110016
:2052A0000022064C22601A0000F0C0F8431C00D070BD2368002BFBD02B60F9E7B411002009
:2052C0000B1F1B68181F002B00DB70470B58C018FBE7C046002243088B4274D303098B42B0
:2052E0005FD3030A8B4244D3030B8B4228D3030C8B420DD3FF22090212BA030C8B4202D350
:205300001212090265D0030B8B4219D300E0090AC30B8B4201D3CB03C01A5241830B8B426A
:2053200001D38B03C01A5241430B8B4201D34B03C01A5241030B8B4201D30B03C01A5241CA
:20534000C30A8B4201D3CB02C01A5241830A8B4201D38B02C01A5241430A8B4201D34B0242
:20536000C01A5241030A8B4201D30B02C01A5241CDD2C3098B4201D3CB01C01A52418309C7
:205380008B4201D38B01C01A524143098B4201D34B01C01A524103098B4201D30B01C01A3A
:2053A0005241C3088B4201D3CB00C01A524183088B4201D38B00C01A524143088B4201D3A6
:2053C0004B00C01A5241411A00D20146524110467047FFE701B5002000F006F802BDC04692
:2053E0000029F7D076E770477047C04658220120014B40421A607047B411002058220120D2
:20540000014B40421A607047B41100205822024B00201A607047C046B4110020582201200A
:20542000014B40421A607047B411002058220120014B40421A607047B4110020044A136840
:20544000002B03D01818106018007047014BF9E7B0110020B811002058220120014B404280
:205460001A607047B4110020000000000000330000006600000099000000CC000000FF0019
:205480000033FF000066FF000099FF0000CCFF0000FFFF0000FFCC0000FF990000FF66004C
:2054A00000FF330000FF000033FF000066FF000099FF0000CCFF0000FFFF0000FFCC0000F8
:2054C000FF990000FF660000FF330000FF000000FF333300FF666600FF999900FFCCCC00A6
:2054E000FFFFFF00FFFFFF00621F00085C1F0008B61F0008AE1F0008AA1F000824200008D7
:205500001E20000884200008802000087C2000085852425344000000C800002000000000E2
:2055200000000000000000000000000000000000000000000000000000000000000000006B
:2055400000000000000000000000000000000000000000000000000000000000000000004B
:2055600000000000000000000000000000000000000000000000000000000000F0B5D6466A
:205580004F464646C0B50126824C8AB0FBF736F8A369814A3343A361804B8149DA62814A39
:2055A00020259A63804A814FDA63B022995003217F4AAC461368FF200B431360802263696F
:2055C000D2021343636190238021DB0592461A68C9003A400A431A609A88AA439A80C0223A
:2055E0009D6812012A439A60DA683A40DA608022E56992021543E5616569154365611D68A3
:205600003D401D601D6880272943302519601968A943654629431960664D196A0D40802109
:2056200049002943C02519621968A94339431960196A614D0D40802149012943196234234C
:205640000C215E4DAB812B680B4380212B602B68490533432B605A4B1960C72189008846FA
:205660005958814340461950614650462B680B432B606369184380236061E1699B030B435C
:20568000E361504B5048196801400A430F211A605A6A8A4332435A621A684C49114080220E
:2056A00012030A43F0211A605A6A8A43E0390A435A62474B98461800FAF7D8FF43464246E9
:2056C0001B680120334313606369424A33436361136800241F431760FCF7B4FFFA233E4FE3
:2056E0009B00FB603D4B69469C4602933C4B386198461B68039499460494059404AB05CB5F
:2057000005C16246002337492800FEF795F94B4642465860344B12689C4669469146079301
:2057200006940894099408AA09CA09C1634600222E492800FEF780F94B46986043461B68DA
:205740009868FEF709FB002201212020FCF7AAFD0022012138602020FCF7A4FD0023786087
:2057600040222349234801940096FBF76FF9002380222149214801940096FBF767F9002333
:20578000C0221F491F4801940094FBF75FF9FBF7D7FBFEE700100240253400080000002069
:2057A000850000089D340008E5340008FFF3FFFF00000140FFF0FFFFFF0FFFFF00440040B4
:2057C00000E100E000040048FFFFFCFFFFFFF3FF0054004030000240280100205D0100081E
:2057E000C40000204C5800081501000850580008545800088D0100085C580008AD0100088F
:205800006C5800086D0300081B5B324A000000000A496E66726120706963747572652028F4
:205820003136783132293A200A0000001B5B34383B323B25693B25693B25696D2020000042
:205840001B5B306D0A000000200A00007200000077000000626C696E6B00000069725F725C
:205860006561645F7461736B0000000069725F7072696E745F7461736B00000009256309D9
:2058800025750925750925750D0A0000232D302B20000000686C4C00656667454647000022
:2058A000303132333435363738394142434445460000000030313233343536373839616276
:2058C0006364656600AAAAAAAAC8000020000000005C5500083C5500081C550008000000DB
:2058E0000000000000000000000000000000000000000000000000000000000000000000A8
:20590000000000000000000000000000000000000000000000000000000000000000000087
:0D592000000000000000000000000000007A
:0400000508000000EF
:00000001FF
